:020000040800F2
:10000000002000200D760008BF2D0008C12D00083B
:10001000C92D0008D12D0008D92D000800000000CE
:10002000000000000000000000000000E12D0008BA
:10003000E32D000800000000E52D0008E72D000872
:100040006D7600086D7600086D7600086D76000804
:100050006D7600086D7600086D7600086D760008F4
:100060006D7600086D7600086D7600086D760008E4
:100070006D7600086D7600086D7600086D760008D4
:100080006D7600086D760008000000006D760008AF
:100090006D7600086D7600086D7600086D760008B4
:1000A0006D7600086D7600086D760008EF2D00086B
:1000B0006D760008000000006D760008000000006A
:1000C0006D760008000000006D7600086D7600086F
:1000D0006D760008F72D00086D760008000000001E
:1000E00000000000000000006D7600086D7600083A
:1000F0006D7600086D7600086D7600086D76000854
:100100006D76000800000000000000006D76000819
:1001100000000000000000000000000000000000DF
:1001200000000000000000000000000000000000CF
:1001300000000000000000000000000000000000BF
:1001400000000000000000000000000000000000AF
:1001500000000000000000006D7600086D760008C9
:080160006D7600086D760008C1
:1001680010B5054C237833B9044B13B10448AFF3E9
:1001780000800123237010BDB001002000000000A2
:10018800D476000808B5034B1BB103490348AFF305
:10019800008008BD00000000B4010020D4760008EB
:1001A80081F0004102E000BF83F0004330B54FEA20
:1001B80041044FEA430594EA050F08BF90EA020F8D
:1001C8001FBF54EA000C55EA020C7FEA645C7FEA20
:1001D800655C00F0E2804FEA5454D4EB5555B8BF43
:1001E8006D420CDD2C4480EA020281EA030382EAB4
:1001F800000083EA010180EA020281EA0303362D46
:1002080088BF30BD11F0004F4FEA01314FF4801C18
:100218004CEA113102D0404261EB410113F0004F2A
:100228004FEA03334CEA133302D0524263EB4303E1
:1002380094EA050F00F0A780A4F10104D5F1200E7F
:100248000DDB02FA0EFC22FA05F2801841F10001DA
:1002580003FA0EF2801843FA05F359410EE0A5F1AE
:1002680020050EF1200E012A03FA0EFC28BF4CF0DF
:10027800020C43FA05F3C01851EBE37101F0004595
:1002880007D54FF0000EDCF1000C7EEB00006EEBA2
:100298000101B1F5801F1BD3B1F5001F0CD349082C
:1002A8005FEA30004FEA3C0C04F101044FEA445283
:1002B80012F5800F80F09A80BCF1004F08BF5FEA0A
:1002C800500C50F1000041EB045141EA050130BDEA
:1002D8005FEA4C0C404141EB0101013C28BFB1F5FC
:1002E800801FE9D291F0000F04BF01460020B1FA47
:1002F80081F308BF2033A3F10B03B3F120020CDA1A
:100308000C3208DD02F1140CC2F10C0201FA0CF0F7
:1003180021FA02F10CE002F11402D8BFC2F1200C5C
:1003280001FA02F120FA0CFCDCBF41EA0C01904012
:10033800E41AA2BF01EB0451294330BD6FEA04045B
:100348001F3C1CDA0C340EDC04F11404C4F1200246
:1003580020FA04F001FA02F340EA030021FA04F358
:1003680045EA030130BDC4F10C04C4F1200220FAAF
:1003780002F001FA04F340EA0300294630BD21FAED
:1003880004F0294630BD94F0000F83F4801306BFB3
:1003980081F480110134013D4EE77FEA645C18BFA7
:1003A8007FEA655C29D094EA050F08BF90EA020F3E
:1003B80005D054EA000C04BF1946104630BD91EA36
:1003C800030F1EBF0021002030BD5FEA545C05D139
:1003D8004000494128BF41F0004130BD14F5800478
:1003E8003CBF01F5801130BD01F0004545F0FE41EC
:1003F80041F470014FF0000030BD7FEA645C1ABF21
:10040800194610467FEA655C1CBF0B46024650EA57
:10041800013406BF52EA033591EA030F41F4002183
:1004280030BD00BF90F0000F04BF0021704730B509
:100438004FF4806404F132044FF000054FF00001DE
:1004480050E700BF90F0000F04BF0021704730B59F
:100458004FF4806404F1320410F0004548BF404274
:100468004FF000013EE700BF42004FEAE2014FEAC9
:1004780031014FEA02701FBF12F07F4393F07F4FA4
:1004880081F06051704732F07F4208BF704793F0A7
:100498007F4F04BF41F40021704730B54FF46074BA
:1004A80001F0004521F000411CE700BF50EA0102BD
:1004B80008BF704730B54FF000050AE050EA010266
:1004C80008BF704730B511F0004502D5404261EBD6
:1004D80041014FF4806404F132045FEA915C3FF417
:1004E800D8AE4FF003025FEADC0C18BF03325FEAB4
:1004F800DC0C18BF033202EBDC02C2F1200300FA65
:1005080003FC20FA02F001FA03FE40EA0E0021FA89
:1005180002F11444BDE600BF70B54FF0FF0C4CF477
:10052800E06C1CEA11541DBF1CEA135594EA0C0F29
:1005380095EA0C0F00F0DEF82C4481EA030621EA64
:100548004C5123EA4C5350EA013518BF52EA03359F
:1005580041F4801143F4801338D0A0FB02CE4FF051
:100568000005E1FB02E506F00042E0FB03E54FF081
:100578000006E1FB03569CF0000F18BF4EF0010E79
:10058800A4F1FF04B6F5007F64F5407404D25FEA75
:100598004E0E6D4146EB060642EAC62141EA555128
:1005A8004FEAC52040EA5E504FEACE2EB4F1FD0C6A
:1005B80088BFBCF5E06F1ED8BEF1004F08BF5FEAE8
:1005C800500E50F1000041EB045170BD06F000469A
:1005D80046EA010140EA020081EA0301B4EB5C0447
:1005E800C2BFD4EB0C0541EA045170BD41F480113F
:1005F8004FF0000E013C00F3AB8014F1360FDEBF64
:10060800002001F0004170BDC4F10004203C35DA3F
:100618000C341BDC04F11404C4F1200500FA05F3C2
:1006280020FA04F001FA05F240EA020001F0004263
:1006380021F0004110EBD37021FA04F642EB0601D9
:100648005EEA430E08BF20EAD37070BDC4F10C0403
:10065800C4F1200500FA04F320FA05F001FA04F2C7
:1006680040EA020001F0004110EBD37041F10001B3
:100678005EEA430E08BF20EAD37070BDC4F12005BE
:1006880000FA05F24EEA020E20FA04F301FA05F226
:1006980043EA020321FA04F001F0004121FA04F2CE
:1006A80020EA020000EBD3705EEA430E08BF20EA9E
:1006B800D37070BD94F0000F0FD101F000464000D8
:1006C80041EB010111F4801F08BF013CF7D041EA5A
:1006D800060195F0000F18BF704703F0004652005E
:1006E80043EB030313F4801F08BF013DF7D043EA2F
:1006F8000603704794EA0C0F0CEA135518BF95EAE5
:100708000C0F0CD050EA410618BF52EA4306D1D16B
:1007180081EA030101F000414FF0000070BD50EA8A
:10072800410606BF1046194652EA430619D094EA14
:100738000C0F02D150EA013613D195EA0C0F05D1FE
:1007480052EA03361CBF104619460AD181EA030152
:1007580001F0004141F0FE4141F470014FF000000A
:1007680070BD41F0FE4141F4780170BD70B54FF0A5
:10077800FF0C4CF4E06C1CEA11541DBF1CEA135525
:1007880094EA0C0F95EA0C0F00F0A7F8A4EB050407
:1007980081EA030E52EA03354FEA013100F08880FE
:1007A8004FEA03334FF0805545EA131343EA1263C7
:1007B8004FEA022245EA111545EA10654FEA00267C
:1007C8000EF000419D4208BF964244F1FD0404F535
:1007D800407402D25B084FEA3202B61A65EB030591
:1007E8005B084FEA32024FF480104FF4002CB6EB4E
:1007F800020E75EB030E22BFB61A754640EA0C00CE
:100808005B084FEA3202B6EB020E75EB030E22BF0D
:10081800B61A754640EA5C005B084FEA3202B6EB4E
:10082800020E75EB030E22BFB61A754640EA9C000D
:100838005B084FEA3202B6EB020E75EB030E22BFDD
:10084800B61A754640EADC0055EA060E18D04FEA9B
:10085800051545EA16754FEA06164FEAC30343EA3B
:1008680052734FEAC2025FEA1C1CC0D111F4801F08
:100878000BD141EA00014FF000004FF0004CB6E701
:1008880011F4801F04BF01430020B4F1FD0C88BFA0
:10089800BCF5E06F3FF6AFAEB5EB030C04BFB6EBAB
:1008A800020C5FEA500C50F1000041EB045170BD9E
:1008B8000EF0004E4EEA113114EB5C04C2BFD4EBCB
:1008C8000C0541EA045170BD41F480114FF0000E4F
:1008D800013C90E645EA060E8DE60CEA135594EACB
:1008E8000C0F08BF95EA0C0F3FF43BAF94EA0C0FCE
:1008F8000AD150EA01347FF434AF95EA0C0F7FF443
:1009080025AF104619462CE795EA0C0F06D152EA96
:1009180003353FF4FDAE1046194622E750EA41067A
:1009280018BF52EA43067FF4C5AE50EA41047FF48B
:100938000DAF52EA43057FF4EBAE12E74FF0FF3CF0
:1009480006E000BF4FF0010C02E000BF4FF0010CC1
:100958004DF804CD4FEA410C7FEA6C5C4FEA430C3A
:1009680018BF7FEA6C5C1BD001B050EA410C0CBF89
:1009780052EA430C91EA030F02BF90EA020F0020EB
:10098800704710F1000F91EA030F58BF994208BF52
:1009980090422CBFD8176FEAE37040F0010070470F
:1009A8004FEA410C7FEA6C5C02D150EA013C07D166
:1009B8004FEA430C7FEA6C5CD6D152EA033CD3D0B1
:1009C8005DF8040B704700BF8446104662468C46AB
:1009D8001946634600E000BF01B5FFF7B7FF0028DE
:1009E80048BF10F1000F01BD4DF808EDFFF7F4FF07
:1009F8000CBF012000205DF808FB00BF4DF808ED92
:100A0800FFF7EAFF34BF012000205DF808FB00BFB4
:100A18004DF808EDFFF7E0FF94BF012000205DF8D6
:100A280008FB00BF4DF808EDFFF7CEFF94BF01208B
:100A380000205DF808FB00BF4DF808EDFFF7C4FF84
:100A480034BF012000205DF808FB00BF4FEA4102D7
:100A580012F5001215D211D56FF47873B3EB625208
:100A680012D94FEAC12343F0004343EA505311F02F
:100A7800004F23FA02F018BF404270474FF00000C1
:100A8800704750EA013005D111F0004008BF6FF0FF
:100A9800004070474FF00000704700BF4A0011D275
:100AA80012F5001211D20DD56FF47873B3EB6252C0
:100AB8000ED44FEAC12343F0004343EA505323FACC
:100AC80002F070474FF00000704750EA013002D141
:100AD8004FF0FF3070474FF0000070474FEA410277
:100AE800B2F1E04324BFB3F5001CDCF1FE5C0DD984
:100AF80001F0004C4FEAC0024CEA5070B2F1004FCE
:100B080040EB830008BF20F00100704711F0804FD0
:100B180021D113F13872BCBF01F00040704741F495
:100B280080114FEA5252C2F11802C2F1200C10FA99
:100B38000CF320FA02F018BF40F001004FEAC1237D
:100B48004FEAD32303FA0CFC40EA0C0023FA02F321
:100B58004FEA4303CCE77FEA625307D150EA0133F7
:100B68001EBF4FF0FE4040F44000704701F00040C7
:100B780040F0FE4040F40000704700BF80F00040A5
:100B880002E000BF81F0004142001FBF5FEA41035D
:100B980092EA030F7FEA226C7FEA236C6AD04FEA5D
:100BA8001262D2EB1363C1BFD218414048404140A2
:100BB800B8BF5B42192B88BF704710F0004F40F454
:100BC800000020F07F4018BF404211F0004F41F470
:100BD800000121F07F4118BF494292EA030F3FD03C
:100BE800A2F1010241FA03FC10EB0C00C3F120034F
:100BF80001FA03F100F0004302D5494260EB4000DE
:100C0800B0F5000F13D3B0F1807F06D340084FEA48
:100C1800310102F10102FE2A51D2B1F1004F40EB3D
:100C2800C25008BF20F0010040EA030070474900A5
:100C380040EB0000013A28BFB0F5000FEDD2B0FA42
:100C480080FCACF1080CB2EB0C0200FA0CF0AABF65
:100C580000EBC25052421843BCBFD0401843704703
:100C680092F0000F81F4000106BF80F40000013209
:100C7800013BB5E74FEA41037FEA226C18BF7FEAE0
:100C8800236C21D092EA030F04D092F0000F08BF22
:100C98000846704790EA010F1CBF0020704712F009
:100CA8007F4F04D1400028BF40F00040704712F148
:100CB80000723CBF00F50000704700F0004343F0AD
:100CC800FE4040F4000070477FEA226216BF0846E3
:100CD8007FEA23630146420206BF5FEA412390EAA6
:100CE800010F40F4800070474FF0000304E000BF9C
:100CF80010F0004348BF40425FEA000C08BF70474D
:100D080043F0964301464FF000001CE050EA010210
:100D180008BF70474FF000030AE000BF50EA010225
:100D280008BF704711F0004302D5404261EB410112
:100D38005FEA010C02BF84460146002043F0B64337
:100D480008BFA3F18053A3F50003BCFA8CF2083A5C
:100D5800A3EBC25310DB01FA02FC634400FA02FC65
:100D6800C2F12002BCF1004F20FA02F243EB02006C
:100D780008BF20F00100704702F1200201FA02FCCE
:100D8800C2F1200250EA4C0021FA02F243EB0200C1
:100D980008BF20EADC7070474FF0FF0C1CEAD05205
:100DA8001EBF1CEAD15392EA0C0F93EA0C0F6FD0C6
:100DB8001A4480EA010C400218BF5FEA41211ED0A4
:100DC8004FF0006343EA501043EA5111A0FB013190
:100DD8000CF00040B1F5000F3EBF490041EAD37165
:100DE8005B0040EA010062F17F02FD2A1DD8B3F1E1
:100DF800004F40EBC25008BF20F00100704790F050
:100E0800000F0CF0004C08BF49024CEA502040EAA1
:100E180051207F3AC2BFD2F1FF0340EAC250704767
:100E280040F400004FF00003013A5DDC12F1190FA5
:100E3800DCBF00F000407047C2F10002410021FA17
:100E480002F1C2F1200200FA02FC5FEA310040F12F
:100E5800000053EA4C0308BF20EADC70704792F0A8
:100E6800000F00F0004C02BF400010F4000F013AE0
:100E7800F9D040EA0C0093F0000F01F0004C02BFDB
:100E8800490011F4000F013BF9D041EA0C018FE74A
:100E98000CEAD15392EA0C0F18BF93EA0C0F0AD050
:100EA80030F0004C18BF31F0004CD8D180EA010076
:100EB80000F00040704790F0000F17BF90F0004F0F
:100EC800084691F0000F91F0004F14D092EA0C0FF1
:100ED80001D142020FD193EA0C0F03D14B0218BF84
:100EE800084608D180EA010000F0004040F0FE40CA
:100EF80040F40000704740F0FE4040F44000704766
:100F08004FF0FF0C1CEAD0521EBF1CEAD15392EAE4
:100F18000C0F93EA0C0F69D0A2EB030280EA010CD4
:100F280049024FEA402037D04FF0805343EA11116D
:100F380043EA10130CF000408B4238BF5B0042F1CB
:100F48007D024FF4000C8B4224BF5B1A40EA0C0070
:100F5800B3EB510F24BFA3EB510340EA5C00B3EBA2
:100F6800910F24BFA3EB910340EA9C00B3EBD10F90
:100F780024BFA3EBD10340EADC001B0118BF5FEAE2
:100F88001C1CE0D1FD2A3FF650AF8B4240EBC2500B
:100F980008BF20F0010070470CF0004C4CEA5020CC
:100FA8007F32C2BFD2F1FF0340EAC250704740F41B
:100FB80000004FF00003013A37E792F0000F00F00D
:100FC800004C02BF400010F4000F013AF9D040EA8B
:100FD8000C0093F0000F01F0004C02BF490011F41F
:100FE800000F013BF9D041EA0C0195E70CEAD15317
:100FF80092EA0C0F08D142027FF47DAF93EA0C0FFE
:101008007FF470AF084676E793EA0C0F04D14B02E1
:101018003FF44CAF08466EE730F0004C18BF31F093
:10102800004CCAD130F000427FF45CAF31F000438D
:101038007FF43CAF5FE700BF42000ED2B2F1FE4F33
:101048000BD34FF09E03B3EB126209D44FEA00238F
:1010580043F0004323FA02F070474FF00000704756
:1010680012F1610F01D1420202D14FF0FF307047F7
:101078004FF00000704700BF53B94AB9002908BFB4
:1010880000281CBF4FF0FF314FF0FF3000F076B959
:10109800ADF1080C6DE904CE00F006F8DDF804E0C7
:1010A800DDE9022304B070472DE9F047089E0D469C
:1010B80004468846002B4DD18A42944668D9B2FA34
:1010C80082F252B101FA02F3C2F1200120FA01F1D1
:1010D8000CFA02FC41EA030894404FEA1C41B8FBB1
:1010E800F1F71FFA8CFE01FB178807FB0EF0230CA3
:1010F80043EA084398420AD91CEB030307F1FF357A
:1011080080F01E81984240F21B81023F63441B1A03
:10111800B3FBF1F001FB103300FB0EFEA4B244EA6E
:101128000344A6450AD91CEB040400F1FF3380F000
:101138000981A64540F20681644402380021A4EBE7
:101148000E0440EA07401EB10023D440C6E900431C
:10115800BDE8F0878B4208D9002E00F0EE80002110
:10116800C6E900050846BDE8F087B3FA83F100290F
:101178004AD1AB4202D3824200F2FC80841A65EB6A
:10118800030301209846002EE2D0C6E90048DFE7B5
:1011980002B9FFDEB2FA82F2002A40F09180A1EB98
:1011A8000C0001214FEA1C471FFA8CFEB0FBF7F335
:1011B80007FB1300250C45EA00450EFB03F0A84287
:1011C80008D91CEB050503F1FF3802D2A84200F24A
:1011D800CE8043462D1AB5FBF7F007FB10550EFBE2
:1011E80000FEA4B244EA0544A64508D91CEB040451
:1011F80000F1FF3502D2A64500F2B6802846A4EBDE
:101208000E0440EA03409EE7C1F120078B4022FA12
:1012180007FC4CEA030C25FA07FA4FEA1C49BAFB0B
:10122800F9F820FA07F309FB18AA8D401FFA8CFE7B
:101238001D4300FA01F308FB0EF02C0C44EA0A44A3
:10124800A04202FA01F20BD91CEB040408F1FF3AA0
:1012580080F08880A04240F28580A8F102086444AA
:10126800241AB4FBF9F009FB104400FB0EFEADB2E2
:1012780045EA0444A64508D91CEB040400F1FF35EF
:101288006CD2A6456AD90238644440EA0840A0FBFB
:101298000295A4EB0E04AC42C846AE4656D353D0D2
:1012A800002E69D0B3EB080264EB0E0422FA01F3B6
:1012B80004FA07F71F43CC40C6E90074002147E74A
:1012C8000CFA02FCC2F1200125FA01F34FEA1C478F
:1012D80020FA01F195400D43B3FBF7F107FB1133F9
:1012E8001FFA8CFE280C40EA034001FB0EF38342F0
:1012F80004FA02F408D91CEB000001F1FF382FD2E0
:1013080083422DD902396044C01AB0FBF7F307FBBA
:101318001300ADB245EA004503FB0EF0A84208D918
:101328001CEB050503F1FF3816D2A84214D9023B7D
:101338006544281A43EA014138E73146304607E751
:101348002F46E4E61846F9E64B45A9D2B9EB020860
:1013580065EB0C0E0138A3E74346EAE7284694E715
:101368004146D1E7D0467BE76444023847E7023B71
:1013780065442FE7084606E73146E9E6704700BFAF
:1013880070472DE9F04F83B006460F460192984604
:10139800DDF83090DDF838A00F9B13F0030F14D15F
:1013A8000D9B534528BF154610D20D9BAAEB03058C
:1013B800019C25444FF0200B224601344346394610
:1013C8005846B047AC42F7D100E0019D0D9B7BB178
:1013D8000D9B09EB030B5C46AB44ABEB04024346A5
:1013E800394614F8010DB0474C45F6D10D9B1D4404
:1013F8000F9B13F0020F0ED0019BEC1AA2450AD9DD
:101408004FF020092A464346013539464846B04739
:1014180001345445F6D3284603B0BDE8F08F2DE9D2
:10142800F04385B0DDF830E00D9C9DF83880109FC2
:10143800119D129E16F0020F38D17DB116F0010FE2
:1014480000F08A80B8F1000F02D116F00C0F00D01E
:10145800013DBC4215D21F2C04D912E0BC420DD26A
:101468001F2C0BD804F1FF3CF4444FF03009013431
:101478000CF8019FA74201D9202CF8D116F0010FD2
:1014880014D0A54212D91F2C0BD804F1FF3CF44408
:101498004FF0300901340CF8019FAC4205D0202CE4
:1014A800F8D116F0100F04D120E02C4616F0100FDA
:1014B80013D016F4806F04D11CB1A74220D0AC42DF
:1014C8001ED00F9F102F24D00F9F022F2DD01F2C1E
:1014D8000CD830270EF8047001341F2C06D8B8F148
:1014E800000F29D02D270EF80470013403960295B9
:1014F8000194CDF800E0FFF744FF05B0BDE8F083A4
:10150800B4F1010C0FD00F9F102F01D06446DBE718
:10151800023C16F0200F24D11F2CD8D878270EF8BB
:1015280004700134D3E76446CBE71F2CDED862276A
:101538000EF804700134CAE716F0040F04D02B2704
:101548000EF804700134D1E716F0080FCED020272A
:101558000EF804700134C9E7BC42A7D21F2C81D908
:10156800A4E71F2CC2D858270EF804700134AEE740
:101578002DE9F04190B0169C189DDDF86C802CB9CF
:1015880028F0100618F4806F34D1B04618F0200FF8
:1015980014BF412761270DF1200E00260A3F00E005
:1015A8006446B4FBF5FC05FB1C4C5FFA8CFCBCF1F3
:1015B800090F94BF0CF1300CBC445FFA8CFC013667
:1015C8000EF801CBB4FBF5FCAC4201D3202EE7D1D9
:1015D800CDF818801A9C0594199C049403959DF8DD
:1015E8005C400294019608AC0094FFF718FF10B015
:1015F800BDE8F081B0462646EAE72DE9F04F95B000
:10160800089009910A920B931E9C1F9D229EDDF85B
:101618008C80DDF898B054EA050305D12BF010034F
:101628001BF4806F40D19B461BF0200F14BF4FF076
:10163800410A4FF0610A0DF130090027AAF10A0AA0
:1016480001E004460D463246434620462946FFF748
:1016580013FDD2B2092A94BF30325244D2B20137B4
:1016680009F8012B3246434620462946FFF704FD78
:10167800B44275EB080301D3202FE2D1CDF818B09E
:10168800259B0593249B049303969DF88030029331
:1016980001970CAB00930B9B0A9A09990898FFF7DE
:1016A800BEFE15B0BDE8F08F9B460027E6E70000B8
:1016B8002DE9F04F91B004460D460B921E461A9F35
:1016C8000797DDF86C80CDF820803A4643463846C7
:1016D8004146FFF789F9002800F0A7814FF0FF3253
:1016E800A34B38464146FFF7A7F9002840F09D81F3
:1016F8004FF0FF326FF4801338464146FFF77EF90A
:10170800002840F0928100220023079F3846DDF828
:1017180020804146FFF772F9002840F09B81079A24
:10172800089B09920A931E9B13F480630F931C9BDA
:1017380008BF06231C93DDF824A00A9FC7F30A50AC
:10174800A0F2FF30FEF77EFE79A3D3E90023FEF76F
:10175800E3FE79A3D3E90023FEF728FD80468946F6
:10176800C7F31307504647F07F5141F44011002258
:10177800804BFEF719FD72A3D3E90023FEF7CCFED8
:1017880002460B4640464946FEF710FDFFF75EF954
:101798000E90FEF757FE804689466BA3D3E90023D7
:1017A800FEF7BAFE0022744BFEF700FDFFF74EF974
:1017B800074667A3D3E9002340464946FEF7ACFE37
:1017C800804689463846FEF73DFE63A3D3E90023E9
:1017D800FEF7A2FE02460B4640464946FEF7E4FCE9
:1017E80082468B4602460B46FEF796FE80468946A1
:1017F80052465B4650465946FEF7D8FCCDE90C01E7
:1018080000225E4B40464946FEF7B0FF00225C4B83
:10181800FEF7CCFC02460B4640464946FEF7A6FFBB
:101828000022584BFEF7C2FC02460B46404649468A
:10183800FEF79CFF8046894652465B4600204FF0E3
:101848008041FEF7B1FC02460B4640464946FEF78A
:10185800ADFC02460B46DDE90C01FEF787FF0022CE
:10186800494BFEF7A3FC07F2FF3700223B05FEF7C2
:1018780053FE80468946099A0A9BFFF7DDF800283F
:1018880040F0ED80C246CB46DDF8388008F16303AE
:10189800C72B34BF042705271E9B13F4006F24D0E1
:1018A8002FA3D3E900230998DDF828904946FFF7CC
:1018B800B9F8002800F0DF802BA3D3E900230998AA
:1018C8004946FFF79BF8002800F0D5801C9B43454C
:1018D800C3BF4246981A00F1FF3300231C931E9B96
:1018E80043F480631E9300270E971D9B9F4234BFCD
:1018F800A3EB07084FF000081E9B13F0020903D062
:10190800002F18BF4FF000080E9B3BB152465B46B4
:1019180009980A99FEF72AFF09900A9100220023E4
:1019280007980899FFF76AF8002840F0B0802DE082
:10193800FB799F501344D33FB3C8608B288AC63FB6
:1019480061436F63A787D23F71A379094F930A4018
:101958001655B5BBB16B0240EF39FAFE422EE63F91
:101968002D431CEBE2361A3F0000000080842E4114
:10197800FFFFEF7F0000F83F0000E03F00002C4031
:1019880000002440000018400000F03F1E9B23F494
:1019980000630493CDF80C801C9B0293099A0A9B60
:1019A800CDE900233346DDF82CB05A4629462046B7
:1019B80000F076F88046002F48D01E9B13F0200FC9
:1019C80000F1010A33460246294614BF4520652026
:1019D800A04705230593013F0497002303930A2397
:1019E80002930E99CB0F01930029B8BF4942009189
:1019F8003346524629462046FFF7BAFD8046B9F1DC
:101A0800000F23D0A0EB0B071D9BBB421ED94FF044
:101A180020099A464246334608F1010829464846B5
:101A2800A04701375745F5D310E01E9B04931D9B33
:101A380003931C9B0293079A089BCDE90023334626
:101A48000B9A2946204600F02BF88046404611B0F4
:101A5800BDE8F08F099708F100430A9363E60E9BEF
:101A6800013B0E9300220C4B40464946FEF77EFE92
:101A780082468B4608E71C9B002B3FF436AF0F9B32
:101A8800002B3FF432AF1C9B013B1C932DE70A99B6
:101A980001F100430A9379E70000244000000000A8
:101AA8002DE9F04F97B007900C9192469B46DDE9DF
:101AB800208942464B4640464946FEF795FF002896
:101AC80049D04FF0FF326FF4801340464946FEF785
:101AD80095FF00284ED14FF0FF32B34B40464946A0
:101AE800FEF7AAFF002854D1ABA3D3E90023404650
:101AF8004946FEF7A1FF002863D1A9A3D3E9002333
:101B080040464946FEF77AFF00285AD100220023B2
:101B180040464946FEF772FF002861D100230D9325
:101B2800249B13F4806569D0229B092B63D9302349
:101B38008DF83830229B5E1E0EAAA3F109050123F9
:101B48003021AB425BD0013302F8011F013E202B4C
:101B5800F7D11D4653E0249B0393239B0293032351
:101B68000193924B00935B4652460C990798FFF7F6
:101B780008FC5BE1249B0393239B029304230193BA
:101B88008B4B00935B4652460C990798FFF7F9FB7D
:101B98004CE1249B13F00402864B874908BF0B468F
:101BA800002A14BF04220322249903912399029145
:101BB800019200935B4652460C990798FFF7E1FBA8
:101BC80034E1249B0493239B0393229B0293CDE946
:101BD80000895B4652460C990798FFF769FD25E195
:101BE80042464B4600200021FEF7DEFA8046894631
:101BF80001230D9394E71E46002500E00626404683
:101C08004946FEF723FF04466C4B03EBC603D3E9B2
:101C18000023CDE90823FEF715FC02460B46404693
:101C28004946FEF7C1FADDE90823FEF775FC0246CE
:101C38000B46CDE90A23FEF731FF0746FEF7F2FB14
:101C480002460B46DDE90A01FEF7AEFA02460B46EC
:101C5800CDE90A2300225A4BFEF7EEFE50B30137B6
:101C68003846FEF7DFFB02460B46DDE90801FEF7C2
:101C7800CFFE08B101340027002E6FD12046FEF7B1
:101C8800E1FB02460B4640464946FEF78DFA0646FA
:101C98000F4600224A4BFEF7B1FE30B10022484BF6
:101CA80030463946FEF7C8FE60B314F0010F29D05C
:101CB800013427E00022424BDDE90A01FEF79EFECF
:101CC8000028D9D117B117F0010FD5D00137D3E7C4
:101CD8001F2900F2AE80BCF1000F3DD00EAB5A199F
:101CE8000D463020013502F8010F202D0AD0EB43B4
:101CF8000B44F342F6D105F158036B442E2203F846
:101D0800202C013505F158030DEB0302213A2D492A
:101D18001F2D79D8013581FB0430E317C3EBA003ED
:101D280003EB8300A4EB4004303402F8014F1C4657
:101D3800002BEDD1249B03F00303012B46D01F2D6C
:101D480067D80D9B002B47D005F158036B442D2213
:101D580003F8202C01355CE00D46CCE705F158036B
:101D68000DEB03002138DFF860E01F2DCAD806F11B
:101D7800FF3C691CAEFB0732D20802EB8203A7EBDB
:101D88004303303300F8013F092FA1D966461746AF
:101D98000D46EAE7AFF300800000000065CDCD41B5
:101DA8000000000065CDCDC1FFFFEF7F2077000860
:101DB80024770008147700081C770008307700089B
:101DC8000000E03F67666666CDCCCCCC239B002B39
:101DD800B5D033E0239DB2E7249B13F0040F07D05E
:101DE80005F158036B442B2203F8202C013510E031
:101DF800249B13F0080F0CD005F158036B442022E4
:101E080003F8202C013504E0249B03F00303012B85
:101E180011D0249B0393239B029301950EAB00934F
:101E28005B4652460C990798FFF7ABFA17B0BDE826
:101E3800F08F0D4666E7239B002BEAD00D9B1BB95C
:101E4800249B13F00C0F02D0239B013B2393239B6D
:101E5800AB427FF674AF1F2DDBD805F158036B44F6
:101E6800213B30222399013503F8012F8D42B1D04F
:101E7800202DF8D1CDE700BF00B9704708B500F0B4
:101E8800CFFE08BD2DE9F04F91B017461C46DDF88E
:101E98006880B1F10009804B14BF82469A462078C9
:101EA800002800F0CE824FF0000B2EE1621C4FF0AC
:101EB800000C144612F8013BA3F1200110290AD89E
:101EC800DFE801F02E090931090909090909092B77
:101ED800092809092500A3F13002D2B2092A25D917
:101EE8002A2B31D0002523782E2B36D000262378B4
:101EF800683B122B5DD8DFE803F0B85CC65C535C26
:101F08005C5C5C5C5C5CC25C5C5C5C5CCA004CF00D
:101F1800010CCEE74CF0020CCBE74CF0040CC8E700
:101F28004CF0080CC5E74CF0100CC2E7002505EB97
:101F3800850503EB4505303D14F8013FA3F1300258
:101F4800D2B2092AF3D9CEE758F8045B002DBCBFFA
:101F58004CF0020C6D420134C5E74CF4806C611CF6
:101F68006378A3F13002D2B2092A04D92A2B11D0FE
:101F78000C460026BBE7002606EB860603EB460662
:101F8800303E11F8013FA3F13002D2B2092AF3D949
:101F98000C46ACE758F8046B26EAE6760234A6E766
:101FA80063786C2B19BF4CF4807C01344CF4407C72
:101FB80002342078A0F12503532B00F23982DFE8A0
:101FC80013F02D0237023702370237023702370281
:101FD8003702370237023702370237023702370231
:101FE8003702370237023702370237023702370221
:101FF8003702370237023702370237023702370211
:102008003702400127014001370237023702370201
:1020180037023702370237023702370237023702F0
:1020280037023702370237026D00370237023702AC
:102038003702370237023702370237026D00640170
:102048006D0040012701400137026D003702370259
:102058003702370237026D001702370237029F0135
:1020680037026D00370237026D006378682B19BF9D
:102078004CF0800C01344CF0C00C023499E74CF45D
:10208800807C013495E74CF4007C013491E74CF4F2
:10209800807C01348DE700BF89130008782800F0A0
:1020A8002182582800F0DC816F2800F01D82622808
:1020B80000F01C822CF01003692832D11CF4806FC8
:1020C80040F00C820A2213F4007F35D113F4807F8C
:1020D80054D113F0400F65D058F8041BC9B20593CA
:1020E800049503960292CB0F01930029B8BF494289
:1020F80000913B465A4649465046FFF739FA83460F
:1021080001342078002800F09E8125283FF4CEAEC7
:102118000BF101053B465A464946D0470134AB46C8
:10212800EFE7642805D11CF4806F40F0D3810A22C0
:10213800C9E79C460A2296E108F1070020F007004B
:10214800804658F8081B406808930795069604923D
:1021580000230593C30F02930246002809DB009170
:1021680001923B465A4649465046FFF746FA83468F
:10217800C6E74B42194660EB4002F0E758F8041BEB
:102188000593049503960292CB0F01930029B8BFDB
:10219800494200913B465A4649465046FFF7E8F9FE
:1021A8008346ADE713F0800F58F8041B18BF09B237
:1021B80095E708F1070828F0070808930795069699
:1021C8000023049205930293F8E80223CDE9002343
:1021D8003B465A4649465046FFF70FFA83468FE773
:1021E80005930495039602920023019358F8043B43
:1021F80000933B465A4649465046FFF7B9F983468D
:102208007EE713F0800F58F8041B18BF89B246E127
:10221800462808BF4CF0200C08F1070828F00708EA
:10222800CDF810C003950296F8E80223CDE9002303
:102238003B465A4649465046FFF732FC834601342E
:102248005FE700F0DF03472B02D0452808D105E0FF
:102258004CF4006C00F0FD00452801D14CF0200C36
:1022680008F1070828F00708CDF810C00395029672
:10227800F8E80223CDE900233B465A464946504632
:10228800FFF716FA834601343BE71CF0020F1CD017
:1022980043460BF1010653F8040B0B933B465A4691
:1022A8004946C0B2D047012D88BF05EB0B0840F264
:1022B8000581324601363B4649462020D047B04585
:1022C800F7D1AB44DDF82C8018E0012D40F2FA80FC
:1022D8000BF1FF331D4420265A460BF1010B3B46F8
:1022E80049463046D0475D45F6D105F1010B58F80F
:1022F800040B3B462A464946C0B2D047013400E7A2
:10230800434653F8048B0C93002E14BF31464FF00C
:10231800FF3198F80000002800F0DA80434613F8EF
:10232800012F1AB1A8EB0302CA42F8D1A3EB0803A4
:102338000B931CF480620D9203D0B34228BF33463E
:102348000B931CF002030E9306D0002800F0BC800B
:102358005A460F950D9D29E00B9A531C954240F261
:10236800B58005EB0B039B1A0F93CDF82C8098468C
:102378005A460BF1010B3B4649462020D047C3453E
:10238800F6D1DDF82C806B1C0B93DDF83CB098F887
:1023980000000028DCD114E01E4602F1010B3B4688
:1023A8004946D04718F8010F40B15A46002DF4D0DD
:1023B800731E002EF0D10F9D934600E00F9D0E9BDB
:1023C8001BB90134DDF830809BE65E460B9B9D42CD
:1023D8000CD93544A5EB030B2025324601363B4684
:1023E80049462846D047B345F7D1EAE7B346E8E778
:1023F8004CF02103059308230493039610230293BA
:102408000023019358F8043B00933B465A4649463B
:102418005046FFF7ADF88346013472E60BF101052B
:102428003B465A4649462520D0470134AB4668E624
:102438000BF101053B465A464946D0470134AB46A5
:102448005FE64FF0000B5F4594BF07F1FF325A4635
:102458003B4649460020D047584611B0BDE8F08FAA
:102468004CF0200C10222CF00C031CF4806F07D0C9
:102478002CF00D0369283FF426AE64283FF423AE00
:1024880013F4007F7FF495AE13F4807F7FF4A8AE39
:1024980013F0400F3FF4B5AE58F8041BC9B20593CA
:1024A8000495039602920023019300913B465A46F5
:1024B80049465046FFF75CF8834621E6DDF82C8054
:1024C800B3461BE75D4610E75E467FE70B935EE782
:1024D80043462BE72CF011030A22F4E52CF01103F4
:1024E8000A22F0E51022BEE70822BCE70222BAE77A
:1024F8000FB400B585B006AA52F8043B03920092C7
:102508004FF0FF3202A90448FFF7BCFC05B05DF8A4
:1025180004EB04B0704700BF811E000870B5044684
:10252800094E0023F37000F01FFE054600EBC404BB
:102538006068FEF7D9FBD5F89811FEF7E1FCFEF7C5
:102548007BFDB06070BD00BF0000002010B50F4BD0
:102558005C7800F009FE90F89C31012B04BFB4FAB6
:1025680084F46409094B9B78A34205D03CB104214B
:102578004FF0904004F052FC044B9C7010BD0421B5
:102588004FF0904004F04CFCF6E700BF000000203C
:1025980038B5264B1B7803B938BD244B9A68013AE5
:1025A8009A60DB78E3B9214B9B68002BF4D100F0EB
:1025B800DBFD0446D0F894311BB31C494868421C23
:1025C8004A60934227D201224A6094F8903193429C
:1025D8001BD0164B00221A705A70FFF7B7FFDBE7C3
:1025E80000F0C2FD0546114CA068FEF77DFBD5F84A
:1025F8009811FEF785FCFEF71FFDA0600023E3702D
:10260800D1E70A4B00221A70C6E722784A700020E8
:10261800FFF784FFE1E7FFF781FF044A5368013BB6
:1026280014F833305370FFF791FFB5E7000000202E
:10263800034600F5C87C00214FF47A7219705A607D
:1026480008336345FAD1022380F89C3180F8903131
:102658000023C0F894314FF07E53C0F8983170478A
:1026680038B505460C4600F07FFD2B69013B10F894
:1026780033302370002038BD10B5044600F074FDD7
:10268800227EA368013B00F8332000F071FD10BDE5
:1026980038B505460C4600F067FD2B6900EBC30012
:1026A80050F8043C2360002038BD10B5044600F003
:1026B8005BFDA369A26800EBC20040F8043C00F08F
:1026C80057FD10BD10B50C4600F04EFD90F8903146
:1026D8002370002010BD10B5044600F045FD237E90
:1026E80080F8903100F044FD10BD10B50C4600F0A4
:1026F8003BFDD0F894312360002010BD10B504468E
:1027080000F032FDA369C0F8943100F031FD10BD2E
:10271800024B1B780B700020704700BF00000020A0
:1027280038B50446037E1BB9227E134B1A7038BD98
:1027380000F01AFD0546D0F89431ABB10E4A526844
:10274800934202D30C4B9B682BB90B4B01225A6066
:102758000020FFF7E3FE084A5368013B15F83330C1
:102768005370FFF7F3FEDFE7034B00221A700348AC
:10277800FFF7BEFEDBE700BF0000002080770008FF
:1027880038B500F0F1FCD0F8943103B938BD074CE6
:10279800012565600020FFF7C1FE00F0E5FC037825
:1027A80063702570FFF7D2FEF0E700BF000000203D
:1027B800044B1B780BB901207047024B5B680B6018
:1027C800002070470000002038B50B4B1B780BB970
:1027D800012038BD0C46084B9868FEF785FA054677
:1027E80000F0C2FCD0F898112846FEF7D5FAFEF79B
:1027F80023FC20600020ECE700000020024B5B78FF
:102808000B700020704700BF0000002008B5044B83
:10281800027E5A7000221A70FFF798FE08BD00BFAA
:102828000000002008B5044B027E5A7000221A707E
:10283800FFF78CFE08BD00BF0000002008B5054A60
:10284800037EB3FA83F35B09537000231370FFF719
:102858007DFE08BD0000002008B5037E2BB1064AA6
:102868005378B3FA83F35B095370034B00221A7051
:10287800FFF76CFE08BD00BF0000002010B50C4635
:1028880000F072FCD0F89801FDF7EEFDC4E90001F4
:10289800002010BDD0B5D0E9066700F065FC0446FD
:1028A80030463946FEF71AF9C4F8980100F060FC82
:1028B800014B0122DA70D0BD0000002010B50C4693
:1028C80000F052FC90F89C312370002010BD10B528
:1028D800044600F049FC237E80F89C31FFF736FE61
:1028E80000F046FC10BD08B50423002201214FF07A
:1028F800904004F049FA0423002211464FF090401A
:1029080004F06AFA08BD000038B50446094D05F11F
:102918003C02002103F072F905F13502002120463E
:1029280003F06CF905F125020021204603F066F951
:10293800002038BD9477000810B50446812103F0C3
:1029480041FA0321204603F03DFA8221204603F094
:1029580039FA002010BD000010B50B7813F06003A1
:1029680028D0202B2DD14B78202B1AD0212B28D1E1
:10297800244C2368244A13704FEA132C82F801C0B0
:102988004FEA134C82F802C01B0ED37023791371DF
:1029980063795371A3799371CB88802103F004FB89
:1029A8000FE01A4B20221A60CB88174A002103F047
:1029B80042FA06E04B780A2B05D00B2B09D0062BE0
:1029C80010D0002010BD0123114A802103F0ECFA39
:1029D800F7E78B781BB90E4B00221A60F1E704F079
:1029E80015F9EEE74B881B0A212B05D0094A3A2333
:1029F800802103F0D9FAE4E7CB883A2B28BF3A23A1
:102A0800054AF5E710000020D00100200C00002046
:102A1800580200209D770008A677000808B5044BE7
:102A280000221A704023034A032103F004FA08BD68
:102A380018000020D8010020402900D9704708B5A7
:102A4800044B00221A708BB2034A812103F0ACFABE
:102A580008BD00BF19000020180200200F4B1B689A
:102A6800FF2B18D00E490F4A507893781B0443EA7D
:102A7800002310780343D07843EA00630B6013798E
:102A88000B7153794B7193798B71074B01221A7033
:102A9800024BFF221A600020704700BF0C00002084
:102AA80010000020D00100201800002010B50129D6
:102AB80006D00C4631BBBAB1032A19D0022022E055
:102AC800012A01D002201EE0426B836A9A4204D098
:102AD8000D4B01221A70002015E000231A4601212F
:102AE80003F062FA00200EE0FFF7B8FF02200AE0C8
:102AF800064B01221A70032103F09BFA044B18605D
:102B0800204600E0022010BD190000201800002017
:102B1800CC01002000B583B08DF8070001210DF12C
:102B2800070000F0DDFD03B05DF804FB08B500F018
:102B3800D7FD08BD30B585B000283CD00446224AF0
:102B480001AB07CA03C31A80204BA3FB0423DB088D
:102B580003EB8302A4EB420430348DF8044001A84F
:102B680001211A4D5BB3A5FB0342D20802EB820494
:102B7800A3EB4403303300F8013F1346013149B257
:102B88000A29EFD10A23002001AA1FFA80FC12F8B3
:102B98000CE0D45C02F80C4002F803E0013B9BB265
:102BA80001301FFA80FC6345EFD8013101A800F01D
:102BB80097FD05B030BD3020FFF7ACFFF9E78BB2C9
:102BC800002BE0D1F1E700BFF0760008CDCCCCCCEB
:102BD80010B5041E03DB2046FFF7ACFF10BD2D2007
:102BE800FFF798FF6042F7E770B505460824054EE1
:102BF8002B0FF05CFFF78EFF2D01631E13F0FF040F
:102C0800F6D170BDF077000808B5FDF72DFC024637
:102C18000B460248FFF76CFC08BD00BFEC770008C4
:102C280000B583B08DF8070001210DF1070000F011
:102C380057FD03B05DF804FB70B5084C26682060AA
:102C480000F060FD236833B10125284600F024FA1E
:102C58002368002BF9D1014B1E6070BD6002002073
:102C6800034B1B681BB1024A1368013B1360704792
:102C78006002002082B00023019338B101461A4651
:102C8800019B0133019301329142F9D102B070479F
:102C9800F8B50B4B1F6818601B6853B10C4601262A
:102CA800074DA04728B9304600F0F6F92B68002BED
:102CB800F7D1034B18681F60B0FA80F04009F8BDDF
:102CC80060020020014BD3F8AC07704700F0FF1FEB
:102CD800014BD3F8B007704700F0FF1F014BD3F842
:102CE800B407704700F0FF1F800294464AB18C4435
:102CF8000B46C1F1006108441A5C03F8012B9C459E
:102D0800FAD170472DE9F84F07468946924603F0F5
:102D1800A1FF342003F0EEFF07F50030800203F036
:102D2800B1FF342003F0E6FF03F0A4FF03F092FFA5
:102D3800BF0207F1006BBAF1030F3AD9AAF10405F3
:102D480009F1040625F003031E444C46C9F100634B
:102D58001F444FF034086178A3781B0443EA012329
:102D680021780B43E17843EA0161381903F0A8FFA1
:102D7800404603F0BFFF0434B442ECD125F003030E
:102D880004339B449A4510D94B44D1440020014652
:102D980013F8012B8240114308309945F8D1584661
:102DA80003F08EFF342003F0A5FF03F063FFBDE8B6
:102DB800F88F0023E6E7704708B500F0B1F808BDC2
:102DC80008B500F0ADF808BD08B500F0A9F808BDD1
:102DD80008B500F0A5F808BD70477047704708B5FA
:102DE80000F042FA08BD08B500F0E2FA08BD08B5DF
:102DF80003F026F908BD000010B540F2125004F0A7
:102E080089F940F2157004F085F91B4C4022012124
:102E1800204604F007F880220121204604F002F839
:102E2800402301220221204603F0AEFF4023032263
:102E38000121204603F0D0FF8023012202212046F1
:102E480003F0A2FF802303220121204603F0C4FFE0
:102E58000A4C00220A49204604F01CF8722300227A
:102E68001146204604F07CF8204604F08FF8012132
:102E7800204604F082F810BD0004004800540040C9
:102E8800A086010010B540F2165004F043F9094C31
:102E9800022300220121204603F076FF02230322A9
:102EA8000021204603F098FF034B0222C3F8282490
:102EB80010BD00BF0014004800100048044A1378F1
:102EC80043F001031370034B0222C3F81824704720
:102ED8006402002000100048044A137823F001031C
:102EE8001370034B0222C3F82824704764020020A1
:102EF8000010004800B9704738B50546064C2378DD
:102F080043F002032370054B0222C3F8182400F093
:102F1800BDF92844606038BD6402002000100048F4
:102F280008B5064CFFF7CAFF2046FFF7A3FEFFF7D8
:102F3800D3FF2046FFF79EFEF4E700BFA0860100FE
:102F480008B528B1094A137843F00403137008BD83
:102F5800064A137823F0040313700220FFF76CFE6F
:102F6800034B0222C3F82824F1E700BF64020020C3
:102F780000100048144B1B7813F0010F05D113F013
:102F8800020F03D113F0040F0DD170470E4A526897
:102F98008242FAD223F002030B4A13700B4B02222F
:102FA800C3F828247047C0F30A0323B9074B022249
:102FB800C3F81824704710F00F0FE6D1034B022214
:102FC800C3F82824E1E700BF64020020001000488D
:102FD80080B5FFF757FF4FF4FA70FFF78BFF00F04B
:102FE80067F9FFF709FF00F01FF900F007FA00F092
:102FF8009FF800F0F1F8FFF776FC01F0E9FC0120FA
:10300800FFF79EFF642000F067FA204F4FF000089A
:103018001F4E4FF001090DE0384600F0BFF9054694
:10302800B0B986F8008000F06DFB00F087FA4846DA
:1030380000F032F800F078FA384600F011FA054648
:10304800404600F071FB002DE6D00024234610E036
:10305800484600F069FBF8E701F0C2FC28B186F8A1
:10306800009002E086F80080013C01342346AC421F
:10307800D7D23A68D05C3378002BEDD0012BF4D14D
:103088000A28EFD00D28F0D1ECE700BF700200202D
:103098006C0200207047704710B50446FFF7FAFF2E
:1030A80040F21C7004F036F844B1022C0BD0012C0D
:1030B8000ED0032C10D0FFF7EEFF10BD0021012029
:1030C80003F0D8FFF9E70121084603F0D3FFF4E73E
:1030D800002003F0C3FFF0E7012003F0BFFFECE797
:1030E8007047000008B5FFF7FBFF02210748FFF70C
:1030F8001DFDBFF34F8F0649CA6802F4E062054B15
:103108001343CB60BFF34F8F00BFFDE70078000883
:1031180000ED00E00400FA05004870472004002094
:10312800014B93F8B40170477C02002070470000FF
:1031380010B50B4C052221463E20FFF7D5FD22682D
:10314800084B9A420BD0002323706370A370E3707E
:10315800204600F8043FFFF7E9FF024B236010BD4B
:1031680074020020180621200048704780020020C1
:1031780008B540F2B51202493F20FFF7C3FD08BD6C
:103188007C02002008B58C4651B1431E074A01391C
:10319800C9B2084413F8011F02F8011F8342F9D18C
:1031A800034B83F8B4C1FFF7E3FF08BD1F040020F9
:1031B8007C02002008B5064A531E02F5DA72002187
:1031C80003F8011F9342FBD10248FFF731FA08BD0B
:1031D8007C0200208002002010B586B00F4C40F21F
:1031E800B51221463F20FFF77FFD22680C4B9A421B
:1031F80001D106B010BDFFF7DDFF0DF1040C094C3D
:103208000FCCACE80F0023688CF80030102101A81F
:10321800FFF7B8FF014B024A1A60EAE77C02002078
:1032280021201806047800080C4B1B680C4AA2FBE6
:1032380003239B09013BB3F1807F0DD24FF0E022BD
:103248005361084BF02183F8231000219161072076
:10325800106183F823107047FEE700BFAC0100201F
:10326800D34D621000ED00E010B5FFF7F9FC064CF5
:103278002068FFF77FFE206800F066F923680133B5
:103288002360FFF785F910BD34040020014B18684E
:10329800704700BF3404002008B540F207710348A6
:1032A80004F025F9003818BF012008BD0038014096
:1032B80010B5002211461B2003F078FE40F2115091
:1032C80003F028FF40F20E6003F024FF4FF4007271
:1032D80001214FF0904003F0A5FD4FF480620121D9
:1032E8004FF0904003F09EFD4FF40073012202213D
:1032F8004FF0904003F048FD4FF400730122002185
:103308004FF0904003F068FD4FF4806301220221E2
:103318004FF0904003F038FD4FF480630122002104
:103328004FF0904003F058FD0C4C204604F078F81C
:103338004FF4E131204604F08FF80821204604F0CC
:10334800BEF80421204604F0C2F8204604F0B2F882
:103358000521204604F0D3F810BD00BF0038014015
:103368002DE9F843894689B1441E0844451EDFF813
:103378002480094F052614F8011F404604F0AFF8D1
:1033880039463046FFF784FCAC42F4D14846BDE8E4
:10339800F88300BF00380140A1320008034B1A1D12
:1033A8000260186800221A60704700BF38040020C5
:1033B80008B50A490A4804F0AFF818B1094B1B6868
:1033C8001F2B00D908BD064804F08DF8054B1A6874
:1033D800511C196013441871F4E700BF0500050774
:1033E8000038014038040020034B1878012814BF26
:1033F80000200120704700BF1900002038B540F2B6
:10340800165003F087FE002003F0B0FE40F217705C
:1034180003F080FE104C012300221946204603F0D9
:10342800B3FC012303220021204603F0D5FC0B4DF9
:10343800284602F0CBFB4FF4C06003F0ADFD00223C
:103448000121252003F0B2FD0121204603F0E6FC0E
:1034580005236B7038BD00BF001400481C00002015
:103468000C4B5B78DBB2032B01D00020704710B502
:103478000446094B1B78012B18BF002000D010BD53
:103488000448FFF7CBFA054B186800221A60044B72
:103498002360F4E71C00002018000020CC01002065
:1034A800D80100200A4B5B78DBB2032B01D0002047
:1034B800704710B5044607490520FFF7E9FB08B136
:1034C800002010BD21460248FFF7B6FA2046F8E76B
:1034D8001C000020F133000800B9704738B50446D5
:1034E800FFF7D4FE0E4A1060631D0E4981FB0313DB
:1034F8009DB203EB43035B00033B93804FF41060E2
:1035080003F0C8FE4FF41064204603F049FE00287B
:10351800FAD00621284603F005FC03F0FBFB38BD72
:103528005C040020ABAAAA2A08B5034B01229A71B1
:1035380003F0E8FB08BD00BF5C040020014B00223B
:103548009A7170475C040020084B9B796BB910B5E1
:103558000446064A938812681344834200D310BD78
:1035680003F0D0FB014B1C60F9E770475C040020B6
:1035780010B310B58446037843B1C0F1010E00EBD7
:103588000E03DBB210F8014F002CF8D15B000233B8
:1035980013800B7003234B709CF8000058B1022372
:1035A80000245A1CD2B2C8540233DBB28C541CF823
:1035B800010F0028F5D110BD7047B2B14B1C02F1C4
:1035C800FF3C5FFA8CFC033101EB4C014FF0000C1F
:1035D800020FB0F1204F34BF3032373203F8012CDC
:1035E800000103F802CB8B42F2D1704710B50246B6
:1035F800034C21460348FFF7BBFF204610BD00BF20
:10360800640400201878000810B50246034C2146CF
:103618000348FFF7ADFF204610BD00BF640400203B
:103628003478000838B51A230380FFF74BFB0446AB
:10363800FFF74EFB0546FFF751FB201801D107485D
:1036480038BD064C0822A11CFFF7B7FF042204F17D
:1036580012012846FFF7B1FFF1E700BFEC00002098
:103668000423038000487047E800002008B5054B94
:103678001B7913B9FFF716FF08BD01460248FFF78B
:103688006FFEF9E7080100201802002038B5124B38
:103698001D68C5F140038D420BD90C466D1A0E4AC0
:1036A80015600A4601460D48184404F001F8204602
:1036B80038BD094A002111602A46014607481844C6
:1036C80003F0F6FF4020FFF7D1FF0028F0D0024BAF
:1036D80040221A602846EBE7080100201802002063
:1036E80070B50E4649B105460C4621462846FFF7F7
:1036F800CDFF20B10544241AF7D1304670BD301BE8
:10370800FCE7000008B5074B18683F2800D908BD3A
:10371800C0F14000FFF7AAFF0028F8D0014B402273
:103728001A60F4E70801002008B5054B1B798342AD
:1037380000D108BD024B1871FFF7E4FFF9E700BF9D
:103748000801002070B582B01B238DF804305B237C
:103758008DF805308DF8061050B105460024032673
:10376800314601A8FFF7E2F90134E4B2A542F7D1E6
:1037780002B070BD08B54421FFF7E4FF08BD08B5E5
:103788004321FFF7DFFF08BD08B54B210120FFF7F4
:10379800D9FF08BD00B583B0064B1B68ADF80430EF
:1037A8001B0C8DF80630032101A8FFF7BFF903B001
:1037B8005DF804FB4078000800B583B0064B1B6831
:1037C800ADF804301B0C8DF80630032101A8FFF773
:1037D800ADF903B05DF804FB4478000800B9704700
:1037E80008B5FFF77FFC08BD08B501790068FFF749
:1037F800C9FC08BD10B50446FFF78EFC2060FFF732
:103808008FFC207110BD08B5FFF740FD08BD000012
:10381800024B00221A705A70704700BFA40400209F
:103828000346354A1078032864D8DFE800F0020D13
:1038380022381B2B03D0304B00225A7070472E4B76
:1038480001201870587070475A2B06D81B2B0AD0C5
:10385800294B0020187058707047274B03221A70A4
:1038680000225A707047244B02221A7001225A70A3
:1038780070471B2B06D05A2B0AD81F4B00201870F4
:10388800587070471C4B00221A7002225A707047F9
:10389800194B03221A7000225A7001207047412BDD
:1038A8000DD0422B11D0432B16D0442B1BD01B2BF1
:1038B800114B0CBF012000201870587070470E4B38
:1038C80000221A700220587070470B4B00221A70A1
:1038D80003225A7002207047074B00221A700422F4
:1038E8005A7002207047044B00221A7005225A7041
:1038F8000220704700207047A4040020014B58782C
:10390800704700BFA40400208B4211D893B1411E18
:10391800013A03F1FF3C5FFA8CFC844411F8010F73
:1039280012F8013F984207D16145F7D1012070474D
:103938000020704701207047002070472DE9F041B2
:1039480000295FD0044616460F460B460246012161
:103958002E48FFF7D9FF0546C0BB3B46224601214A
:103968002B48FFF7D1FF8046A0BB3B4622460421E7
:103978002848FFF7C9FF054678BB3B462246052184
:103988002548FFF7C1FF804658BB3B462246032126
:103998002248FFF7B9FF054630BB3B4622460221C5
:1039A8001F48FFF7B1FF804610BB3B462246022165
:1039B8001C48FFF7A9FF0546E8B93B462246032104
:1039C8001948FFF7A1FFD0B901251CE00123337086
:1039D800002518E00023337015E0012333704546B5
:1039E80011E0002333700EE00123337045460AE0EE
:1039F8000023337007E001233370454603E00023BA
:103A0800337000E001252846BDE8F08148780008B9
:103A18004C7800085078000858780008607800084A
:103A280064780008687800086C78000808B501F028
:103A380041FB0D4B9B7813F0010F0AD00A4B002273
:103A48005A70997862F3410199701A70FFF7E0FE95
:103A580008BD064B00221A715A711A735A739A7369
:103A68001A755A75EAE700BFA8040020B0040020C0
:103A780008B5FFF7DBFF01F071FA00B908BD01F0E6
:103A880051FA01F061FAF9E710B5044605E020465D
:103A980001F0D4FAFFF73EF8013401F05FFAA042D2
:103AA800F5D810BD70B50646002303701046002AED
:103AB80056D01A4604E001335BB21A46984244DDF8
:103AC800CC5C202CF7D0092CF5D090423BDD2B2C78
:103AD8004CD02D2C06D00122984236DD4FF0000C38
:103AE800264D14E0013290423AD001335BB22D2CBE
:103AF8000CBF4FF0FF320122EEE70CEB8C0C0133C8
:103B08005BB2AEF1300E0EEB4C0C984212DD11F8A0
:103B180003E0AEF13004E4B2092C21D8AC4503DC53
:103B2800EBD1BEF1370FE8D902460C2001F0AEFA0E
:103B380000201AE00CFB02F0002806DD32280ADC1F
:103B48000123337011E00122C6E70121102001F0A2
:103B5800C5FA002009E03221112001F0BFFAF8E788
:103B68000246092001F092FA002070BD013290420D
:103B7800F6D001335BB20122AEE700BFCCCCCC0C4F
:103B880030B583B00546A34B93F801C00CF1010C86
:103B98005FFA8CFC83F801C09F4B5B7D012B04D03E
:103BA800022B00F0B68103B030BDBCF1020F00F06B
:103BB800AF80BCF1030F00F07681BCF1010F05D096
:103BC800CAB20146072001F061FAECE7CCB2924B89
:103BD80000221A71042C15D82346024604218F4866
:103BE800FFF792FE50B923462A4607218C48FFF773
:103BF8008BFE00B3884B02221A71D4E7864B012250
:103C08001A71D0E7072C0CD9052C14D9062C2CD9FD
:103C18000B2C40F27E8322462946072001F036FA13
:103C2800C1E72346024607217D48FFF76DFE0028BD
:103C3800E0D1052C07D823462A4605217948FFF705
:103C480063FE002838D1022C45D823462A46022193
:103C58007548FFF759FE002832D123462A4603212A
:103C68007248FFF751FE002838D123462A4606211C
:103C78006F48FFF749FE00283BD123462A460B210F
:103C88006C48FFF741FE002840F04C83062CC2D850
:103C980023462A4606216848FFF736FE002833D116
:103CA80023462A4606216548FFF72EFE0028B2D093
:103CB800594B09221A7176E7574B03221A7172E79A
:103CC800554A0423137153498B7843F002038B70D0
:103CD8000123137667E7032CBFD997E74E4A0523DC
:103CE80013714C498B7843F002038B7001231376D0
:103CF80059E7494A0623137146498B7843F0020372
:103D08008B70012313764EE7434B08221A714AE75A
:103D1800CCB2414B00225A711B79013B082B00F2AF
:103D2800BC80DFE803F00518BABABABA5B69990033
:103D380000238DF80730224601460DF10700FFF7F2
:103D4800B1FE9DF80730002B3FF42DAF324B012216
:103D58005A71986027E7042C2FD82346024604217D
:103D68003748FFF7D1FD20BB23462A4608213548AE
:103D7800FFF7CAFD002840F0E282032C20D8234632
:103D88002A4603213048FFF7BFFDE0B923462A46FB
:103D980007212E48FFF7B8FD00287ED01E4A0523CC
:103DA80053711C498B7843F002038B7001231376FF
:103DB800F9E6194B02225A71F5E6082C40F2B68250
:103DC800072C6AD8E2E7144A0423537111498B7807
:103DD80043F002038B7001231376E4E6052C5CD8CC
:103DE8002346024605211A48FFF78EFD002854D0C5
:103DF800094B06225A71D6E6082C4ED823460246AD
:103E080008211448FFF780FD002846D0024B0722FE
:103E18005A71C8E6A8040020B00400209079000870
:103E28005C79000880790008507900084C7900080E
:103E3800A87900087C78000888780008B478000819
:103E480010790008CC7800087479000854790008C3
:103E5800A079000830790008042C1CD823460246B3
:103E68000421A448FFF750FD88B923462A460721B4
:103E7800A148FFF749FD80B1A04A09235371A04921
:103E88008B7843F002038B70012313768BE69B4BF0
:103E980008225A7187E6072CE7D9224629460720C7
:103EA80001F0F4F87FE6CCB2944B00221A735B79E8
:103EB800012B07D0062B1ED022462946072001F0E9
:103EC800E5F870E6052CF7D82346024605218D480B
:103ED800FFF71AFD58B923462A4605218A48FFF7F5
:103EE80013FD0028E8D0854B02221A735BE6834B4A
:103EF80001221A7357E6052CDED82346024605210F
:103F08008248FFF701FD0028D6D07C4B03221A73A4
:103F180049E6BCF1020F6BD0BCF1030F00F07981C8
:103F2800BCF1010F05D0CAB20146072001F0AEF876
:103F380039E6CCB2714B00225A73042C37D8234689
:103F4800024604217248FFF7DFFC60BB23462A467D
:103F580007217048FFF7D8FC00283DD123462A46A0
:103F680005216D48FFF7D0FC002839D123462A46A1
:103F78000B216A48FFF7C8FC002840F0AC81062CEA
:103F88001AD823462A4606216548FFF7BDFC58BBC8
:103F980023462A4606216348FFF7B6FC60B1574B13
:103FA80006225A73FFE5554B01225A73FBE5072C8D
:103FB80008D90B2C40F2868122462946072001F0B9
:103FC80065F8F0E52346024607215248FFF79CFCB6
:103FD80010B9052CCAD8C1E7484B02225A73E2E54A
:103FE800464B03225A73DEE5444B05225A73DAE541
:103FF800CCB2424B00229A735B7B013B052B60D805
:10400800DFE803F003165F5669A000238DF8073038
:10401800224601460DF10700FFF744FD9DF80730E1
:10402800002B3FF4C0AD354B01229A731861BAE5F5
:10403800042C27D82346024604213B48FFF764FC9A
:10404800E0B923462A4608213848FFF75DFC0028D6
:1040580040F04E81032C06D823462A4603213448D3
:10406800FFF752FC00BB23462A460D213148FFF7D3
:104078004BFC60B1214B05229A7394E51F4B022239
:104088009A7390E5082C40F22A810D2CEBD9092C63
:1040980017D823462A4609212748FFF735FC80B15F
:1040A800164B06229A737EE5144B04229A737AE51E
:1040B800052C06D82346024605212048FFF724FC94
:1040C80028B922462946072000F0E0FF6BE50B4B94
:1040D80007229A7367E5082CF3D82346024608217D
:1040E8001748FFF711FC0028EBD0044B08229A73FD
:1040F80059E500BF287900086C790008B004002051
:10410800A804002088790008AC78000878790008AD
:10411800907900085C790008807900087C780008AC
:1041280088780008B478000810790008CC7800086E
:10413800747900089C78000890780008A079000835
:1041480030790008082C15D82346024608217E48F5
:10415800FFF7DAFB50B923462A460D217B48FFF7C3
:10416800D3FB48B17A4B0A229A731CE5784B092293
:104178009A7318E50D2CEED9042C37D823462A4615
:1041880004217448FFF7C0FB60BB23462A46072179
:104198007148FFF7B9FB002840F0B780022C06D819
:1041A80023462A4602216D48FFF7AEFB28BB23466B
:1041B8002A4607216A48FFF7A7FB10BB23462A4671
:1041C80008216848FFF7A0FBF8B923462A460821CA
:1041D8006548FFF799FB00283FF473AF5C4B10224A
:1041E8009A73E0E45A4B0B229A73DCE4072C40F2F2
:1041F8008380082C3FF665AFE0E7554B0D229A7394
:10420800D1E4534B0E229A73CDE4514B0F229A738B
:10421800C9E4CCB24E4B00221A759B7B013B0F2B95
:104228002AD8DFE803F0082929292929202929295A
:10423800292929293341052C1ED823460246052160
:104248004A48FFF761FB50B923462A4605214848EA
:10425800FFF75AFB80B13E4B02221A75A3E43C4B90
:1042680001221A759FE4052C06D82346024605212B
:104278004048FFF749FB28B922462946072000F0A5
:1042880005FF90E4324B03221A758CE4072CF3D80F
:104298002346024607213848FFF736FB0028EBD0B3
:1042A8002B4B04221A757EE4072CE5D823460246D8
:1042B80007213248FFF728FB0028DDD0244B0522D0
:1042C8001A7570E4234602460B212D48FFF71CFBA4
:1042D80000283FF471AE1E4B04225A7363E4234650
:1042E800024608212748FFF70FFB00283FF4BBAE22
:1042F800174B03229A7356E423462A460721164889
:10430800FFF702FB00283FF452AF114B0C229A73BF
:1043180049E423462A460B211948FFF7F5FA0028F5
:104328003FF479AC0A4B07221A713CE42346024653
:1043380008211448FFF7E8FA00283FF441AD044B80
:1043480003225A712FE400BFD8780008BC7800080F
:10435800B004002028790008987900080C79000832
:10436800B0790008E4780008F8780008887900082F
:10437800AC78000878790008F0780008047900081B
:104388007C780008CC780008002942D030B50C466B
:1043980000231D4604E001335BB21D46A34234DA14
:1043A800C15C2029F7D00929F5D0AC4206DCA3422C
:1043B800A8BF00212ADA00211A4D13E02D292AD09E
:1043C8002B29F4D101335BB2A342F0D101201FE0C5
:1043D80001EB810101335BB2ACF1300C0CEB410114
:1043E800A34213DA10F803C0ACF1300E5FFA8EFE68
:1043F800BEF1090F11D8A94211D8E9D1ACF1300E9C
:10440800BEF1050FE4D9022002E00021116000206E
:1044180030BD012070470320FAE70120F8E70220A9
:10442800F6E700BF999999192DE9F04F89B005462B
:10443800AB4B5E78022E4AD0032E00F0F580012E99
:1044480007D0CAB22946092000F020FE09B0BDE80D
:10445800F08FA44B1B79032B12D0042B1DD0052BF6
:1044680028D0062BEDD1CCB29F4A2146FFF766FA39
:104478000028EBD022462946092000F007FEE5E790
:10448800CCB2994A2146FFF759FA0028DED02246D5
:104498002946092000F0FAFDD8E7CCB2924A214615
:1044A800FFF74CFA0028D1D022462946092000F00F
:1044B800EDFDCBE7CCB28C4A2146FFF73FFA002846
:1044C800C4D022462946092000F0E0FDBEE7854B0E
:1044D8005F79022F19D0032F39D0042F5ED0052F12
:1044E8006AD0072F76D0082F00F09680092FA8D120
:1044F800CCB27D4A2146FFF721FA0028A6D02246F1
:104508002946092000F0C2FDA0E711F0FF0415D0EC
:10451800062C08D82346024606217448FFF7F4F90A
:10452800002840F0DC81042C08D823462A460421C0
:104538006F48FFF7E9F9002840F0D281694B002263
:104548001A7622462946092000F0A0FD7EE7CCB263
:10455800654A2146FFF718FF022813D0032817D011
:10456800012809D05F4B9B69322B7FF66FAF322150
:104578000F2000F0ADFD69E722462946092000F02A
:1045880085FD63E7224629460C2000F07FFD5DE7A4
:10459800224629460B2000F079FD57E7CCB2524A53
:1045A8002146FFF7CBF900283FF450AF22462946B1
:1045B800092000F06BFD49E7CCB24B4A2146FFF7D2
:1045C800BDF900283FF442AF22462946092000F0F1
:1045D8005DFD3BE711F0FF0415D0062C08D82346F3
:1045E800024606214348FFF78FF9002840F07B81F7
:1045F800042C08D823462A4604213F48FFF784F9AB
:10460800002840F07181374B00221A76224629464D
:10461800092000F03BFD19E7CAB2102A00F26781B1
:10462800304B98611A7711E72E4B1B7B012B0ED06C
:10463800022B1AD0032B7FF404AF11F0FF0800F00F
:10464800AA8011F0FF043ED0002216465EE0CCB2EC
:10465800254A2146FFF772F900283FF4F7AE2246B3
:104668002946092000F012FDF0E6CCB21E4A214688
:10467800FFF78AFE022815D0032819D001280BD08D
:10468800184B9B69D3B1002BBFF6E0AE6FF0004129
:104698000F2000F01DFDD9E622462946092000F02A
:1046A800F5FCD3E6224629460C2000F0EFFCCDE6C7
:1046B800224629460B2000F0E9FCC7E601210E201E
:1046C80000F006FDC2E60123079300230024CDE98C
:1046D80000340021094ACDE90412CDE90234C8E0CA
:1046E800A8040020B0040020C8040020187900089D
:1046F800207900083C790008447900080000F03F60
:10470800013676B23246A64280F2A780AB5D202BF6
:10471800F6D0092BF4D0944240F391802B2B00F073
:10472800EB802D2B00F0F180012307933246B44231
:1047380040F38880F6B206F1010A5FFA8AFA00208F
:104748000021CDE900014FF0000BDFF8D4C1CDE91D
:1047580004BCCDE902014FF0000B04F1FF395F46BC
:10476800A34646E0BFB9B8F1010F14D023B9697860
:104778003039C9B209290ED8914512D0EA1812F871
:10478800012C303AD2B2092A12D92B445B78303B3B
:10479800DBB2092B0CD942462946092000F076FCE9
:1047A80054E62B4413F8013C303BDBB2092BF2D81A
:1047B8004FFA8AF3012713E000225A4BDDE9000182
:1047C800FBF7AAFECDE90001A4F13000FBF73AFEA1
:1047D800DDE90023FBF7EAFCCDE900014FFA8AF393
:1047E8001A460136F6B20AF1010A5FFA8AFA5B45FF
:1047F8003FDA73B2EC5C2E2CB4D0A4F13003DBB2F8
:10480800092BC8D8002FD7D00022464BDDE902017A
:10481800FBF782FECDE90201A4F13000FBF712FE9E
:10482800DDE90223FBF7C2FCCDE9020100223D4B82
:10483800DDE90401FBF770FECDE90401CEE70123B1
:10484800079373E700230024CDE900340021344A9C
:10485800CDE90412CDE902340BE0012307930023CC
:104868000024CDE9003400212D4ACDE90412CDE918
:104878000234DDE90423DDE90201FBF777FFDDE916
:104888000023FBF793FC04460D460798FBF7DAFD77
:1048980002460B4620462946FBF73EFE04460D46D7
:1048A800214BC3E906450022204BFCF7A7F880B945
:1048B80000224FF0804320462946FCF7BDF8002827
:1048C8003FF4C4AD00224FF08043132000F00CFCED
:1048D800BCE50022154B122000F006FCB6E50127C6
:1048E800114B1F76B2E501260F4B1E76AEE5014649
:1048F8000A2000F0CBFBA9E5B8F1010F3FF44BAF5C
:10490800013676B20123079310E7B8F1010F3FF49F
:1049180042AF013676B24FF0FF33079306E700BF88
:104928000000F03F00002440B00400200000E03FF9
:10493800704708B50379092B0FD14379082B05D0A7
:10494800092B07D1007EFEF749FF08E01830FEF773
:104958004BFF04E000F0A0FF01E000F09DFF08BD60
:104968007047000038B5054611F0FF0411D0052C3A
:1049780006D82346024605211048FEF7C5FF88B928
:10498800042C06D823462A4604210D48FEF7BCFF0E
:1049980070B90C4B00225A7522462946022000F0B5
:1049A80075FB38BD074801234375FFF7C1FFF8E7DA
:1049B800044802234375FFF7D3FFF2E7B8790008EC
:1049C80064790008B004002008B500F0EFFE08BDC7
:1049D80008B502210148FEF7A9F808BD00780008CB
:1049E8002DE9F04F83B00446B54BC35C13F0970F25
:1049F80040F07F821B2805D8B24BC34013F0010F4B
:104A080040F077827F2C00F074820221AE48FEF7D6
:104A18008DF8002000F00AFB044600F09FFAC2B2AD
:104A28002146012000F032FB00F06AFBFEF7FEFF92
:104A380000F08AFA0221A548FEF778F8012003B0B1
:104A4800BDE8F08FFEF75AFF04280FD0052817D0CD
:104A580000F08CFAC0B2FEF78DFEFEF795FE00F06E
:104A680061FA0020FFF710F80020E8E700F0FCFAF0
:104A780008B10020E3E70120FEF781FE0020DEE711
:104A880000F0E4FA08B10020D9E70120FEF772FE31
:104A98000020D4E72046FEF73DF80D2C1DD0032C4E
:104AA8002FD01A2C2DD07F2C00F02E8214F0800FDE
:104AB80003D10A2C14D00D2C12D0204600F05CFA39
:104AC800002840F0F08100F051FA044600F046FA60
:104AD8008442C0F001820020B1E70A20FEF71AF8EC
:104AE80000F0E2FAA8B900F039FAA0B101250024D3
:104AF800A14601942646764FDFF8D8B1DFF8D8A151
:104B0800AEE0FEF7B5FF04217448FEF70FF8012068
:104B180095E700F0F5FA00F0C7FA50B96D4B1A683E
:104B280001321A605B7D012B00F0A481022B00F09A
:104B3800A58102216548FDF7F9FFFEF799FF0020DE
:104B48007DE7202800F08680092800F083802E2841
:104B580005D03D2803D001233B7026467AE0E0B219
:104B680000F0AEFA76E02E280FD03D280DD0202890
:104B780001D009286ED102233B70304600F056FA66
:104B88004146FFF7EFFE2E4664E0002000F04EFAA3
:104B9800804600F0E3F9C2B24146052000F076FAFB
:104BA80058E0202856D0092854D02E2806D03D2871
:104BB80004D003233B70A14626464BE0E0B200F048
:104BC8007FFA47E02E280FD03D2817D0202801D0A3
:104BD80009283FD1304600F029FA4146FEF7D0FFB8
:104BE8002E4605233B7035E0304600F01FFA41465B
:104BF800FEF7C6FF04233B702E462BE09BF81530CA
:104C0800012B0AD0484600F011FA0146A4EB09022C
:104C1800D2B20D2000F03AFA1CE0304600F006FA55
:104C28004146FEF7ADFF2E4606233B7012E0A0F189
:104C38002003DBB21D2B04D82AFA03F313F0010F6B
:104C480005D1092803D003233B70264602E0E0B2D1
:104C580000F036FA00F028FA013500286AD101344C
:104C680000F07CF9A04268D9204600F0E7F9A4EBEF
:104C780006083B78082BEDD801A252F823F000BFB4
:104C88004B4B00086F4B0008AB4B0008CD4B00089E
:104C9800374C0008AD4C0008074D0008194D0008B6
:104CA8002D4D00082028D5D00928D3D03D2822D161
:104CB8009BF81530012B13D106233B702E46C9E70C
:104CC800317C00080824000C787800080078000877
:104CD800A8040020B00400200140002070780008DB
:104CE800484600F0A3F90146A4EB0902D2B20D2010
:104CF80000F0CCF9AEE7E0B200F0E2F9AAE720282C
:104D0800A8D00928A6D007233B7001952646A1E71D
:104D1800202803D0092801D001959BE708233B7080
:104D2800019497E7202895D0092893D007233B7052
:104D380001958FE700F0E4F9EDE600F00FF9841B28
:104D4800744B1B78082B11D8DFE803F005182E3EAA
:104D58005C6779848C00002000F068F9044600F054
:104D6800FDF8C2B22146052000F090F900F09CF948
:104D780000283FF4D0AE00F0C3F9CCE6304600F08E
:104D880055F92146FFF7EEFD634B5B7D012BEDD115
:104D9800002000F04BF9044600F0E0F8C2B22146CA
:104DA800062000F073F9E1E75B4B5B7D012BDDD159
:104DB800002000F03BF9044600F0D0F8C2B22146CA
:104DC800062000F063F9D1E7304600F02FF92146BC
:104DD800FEF7D6FE00F068F903464F4A527D012AD5
:104DE800C4D14C4A927802F00202134313F0FF0F29
:104DF800BCD1304600F01AF90146E2B2082000F0B2
:104E080045F9B3E700F0AAF8013800F00FF90146B8
:104E18000122062000F03AF9A8E73F4B5B7D012B01
:104E2800A4D13C4B9B7813F0020F9FD1304600F081
:104E3800FDF80146E2B2082000F028F996E700F0F4
:104E48008DF8013800F0F2F801460122082000F040
:104E58001DF98BE7304600F0E9F8019B991BFFF735
:104E6800E3FA83E7304600F0E1F8019B991BFFF76E
:104E7800DBFA7BE72848FFF75CFD5AE62648FFF790
:104E8800A3FD56E600F072F804460120FEF772FC16
:104E9800FEF780FCFEF778FC2046FEF7F5FDFEF7EE
:104EA8008BFC0020CBE502211C48FDF73FFE0020CB
:104EB80000F0BCF8044600F051F8C2B221460420C4
:104EC80000F0E4F800F01CF9FEF7D2FD02211448C6
:104ED800FDF72CFE0120B2E5FEF75CFCFEF754FC62
:104EE8002046FEF7D1FDFEF767FC0020A7E500206D
:104EF800A5E52046FEF794FC0128F8D002283FF4E7
:104F0800A1AD7F2C7FF4C6AD00F066F80028B9D0BB
:104F1800002094E5A8040020B00400207878000858
:104F280000780008074BD3F888209A4203F144031D
:104F3800A3F1440218BF1346C2F888301B6CC2F8AC
:104F48008C30704710010020034BD3F888100022E2
:104F58000A64C3F88C20704710010020024BD3F874
:104F68008830186C704700BF10010020014BD3F83F
:104F78008C00704710010020164BD3F888301B6C4A
:104F88003F2B25D800B5134AD2F88C209A420CD270
:104F98001049D1F888209C46013B12F803E002F83A
:104FA8000CE0D1F88C209342F3D80A4BD3F8881040
:104FB800D3F88C208854D3F888100A6C01320A641C
:104FC800D3F88C200132C3F88C2000205DF804FB54
:104FD8000120704710010020134BD3F88830196C5A
:104FE800F1B1114BD3F88C30E3B110B48B4209D234
:104FF8000D4CD4F88820D05C1A4402F8010C013317
:105008009942F6D1084BD3F888100A6C013A0A6421
:10501800D3F88C20013AC3F88C20002010BC7047CC
:10502800012070470120704710010020024BD3F87F
:1050380088301844704700BF10010020024BD3F895
:105048008830185C704700BF10010020054BD3F86A
:105058008C302BB1013B034AC2F88C3000207047DA
:105068000120704710010020074AD2F88C30D2F88E
:105078008820126C934205D20133034AC2F88C305F
:1050880000207047012070471001002008B5054B2B
:1050980018701F2A28BF1F2283F82820581C02F0E6
:1050A80007FB08BDD0040020014B1878704700BFEB
:1050B800D0040020014B00221A707047D004002051
:1050C800024B03221A7083F828007047D00400208E
:1050D800014B187099627047D0040020014B18707A
:1050E80099627047D004002030B414461D46034B23
:1050F8001870C3E90A4530BC704700BFD0040020CF
:1051080070B56D4B1B78032B13D100247E266A4D96
:105118003046FDF7FFFC95F82820A24204F101046F
:10512800F6DA5E20FDF7F6FC0F216448FDF7FEFC79
:1051380045E002216248FDF7F9FC5F4B1B78132B11
:1051480033D801A252F823F0C7510008A151000832
:10515800AB51000813510008C9510008D351000889
:10516800DD510008E7510008F1510008FB51000823
:10517800055200080F52000819520008235200086F
:105188005B5200088D5200082D5200082D5200086D
:105198005B5200088D5200081C214A48FDF7C6FCE6
:1051A8000DE00E214848FDF7C1FC434890F828104F
:1051B8000130FDF7BBFC03214448FDF7B7FC70BD87
:1051C80013214348FDF7B2FCF9E712214148FDF7E6
:1051D800ADFCEAE717214048FDF7A8FCE5E72A21DE
:1051E8003E48FDF7A3FCE0E714213D48FDF79EFC8F
:1051F800DBE70F213B48FDF799FCD6E713213A4836
:10520800FDF794FCD1E71A213848FDF78FFCCCE76D
:1052180017213748FDF78AFCC7E712213548FDF703
:1052280085FCC2E722213448FDF780FC224B1B781D
:10523800102B07BF0D2131480C213148FDF776FCB2
:105248001D4B986AFDF7C4FC02212E48FDF76EFC41
:10525800B5E71D212C48FDF769FC174B1B780E2B71
:105268000BD0154BD3E90A01FBF738FCFDF7CCFC52
:1052780002212448FDF75AFCA1E70F4B986AFDF775
:1052880059FCF5E71C212148FDF750FC0A4B1B7817
:105298000F2B0BD0084BD3E90A01FBF71FFCFDF7D6
:1052A800B3FC02211748FDF741FC88E7024B986AD6
:1052B800FDF740FCF5E700BFD0040020F4790008B2
:1052C800C0790008C4790008E4790008587B000810
:1052D800047A0008187A00082C7A0008447A000832
:1052E800707A0008887A0008987A0008AC7A000872
:1052F800C87A0008E07A0008F47A0008287B0008D9
:10530800487B000878780008187B0008387B00087C
:1053180000230B704B70437B013B052B19D8DFE84A
:1053280003F00307180C101401230B704B7070471F
:1053380002230B7006234B70704707230B704B70CA
:10534800704708230B704B70704709230B701023AC
:105358004B70704700230B704B70837B013B0F2B06
:1053680019D8DFE803F00818181818180D181818B5
:1053780018181818111501230B7002234B70704769
:1053880003230B704B70704704230B704B707047EE
:1053980005230B704B70704710B582B00446437BF1
:1053A800013B052B22D8DFE803F003181D33383DF5
:1053B80004217C48FDF7BAFB2E20FDF7ABFBA37B4D
:1053C800013B0F2B12D8DFE803F03241464B505512
:1053D8005A5F64696E73787D828707217248FDF78A
:1053E800A5FBE9E705217148FDF7A0FB3D20FDF786
:1053F80091FB637B062B40F0CB80A37B093B072BFB
:1054080000F2C280DFE803F0868B959EA390B8B0C7
:105418000B216748FDF78AFBCEE706216548FDF7B3
:1054280085FBC9E706216448FDF780FBC4E72069CE
:10543800FDF7CEFB2E20FDF76DFB237D013B042BF2
:10544800D4D8DFE803F04E53585D620004215B486E
:10545800FDF76CFBCAE708215948FDF767FBC5E76C
:1054680003215848FDF762FBC0E70D215648FDF7B8
:105478005DFBBBE709215548FDF758FBB6E7052159
:105488005348FDF753FBD5E708215248FDF74EFB7B
:10549800ACE708215048FDF749FBA7E70D214F4825
:1054A800FDF744FBA2E704214D48FDF73FFB9DE7CC
:1054B80007214C48FDF73AFB98E702214A48FDF7D7
:1054C80035FB93E707214948FDF730FB8EE70821B4
:1054D8004748FDF72BFBADE708214648FDF726FBBB
:1054E800A8E705214448FDF721FB7FE7052143484C
:1054F800FDF71CFB7AE705214148FDF717FB75E727
:1055080007214048FDF712FB70E707213E48FDF7E9
:105518000DFB6BE719213D4800F032FB3BE04521CC
:105528003B4800F032FB36E00D213A4800F032FBF0
:1055380031E06846FEF75EF99DF80410009800F027
:1055480040FB28E0FEF75FF900F037FB23E0FDF7AA
:10555800B9FB00F02EFBFDF7BBFB00F02AFBFDF7C3
:10556800BDFB00F026FB16E0237D052B13D104219B
:10557800294800F019FB0EE0237D042B0BD10421F0
:10558800254800F00CFB06E0204600F0CDF902E0CB
:10559800204600F0C9F902212048FDF7C7FA02B0F9
:1055A80010BD00BF907900085C7900088079000878
:1055B8007C78000888780008B4780008107900081A
:1055C800CC780008747900089C7800089078000866
:1055D800A079000830790008D8780008BC7800085D
:1055E80028790008987900080C790008B079000833
:1055F800E4780008F878000888790008AC78000892
:1056080078790008F0780008047900085C7B0008C5
:10561800787B0008C07B0008D07B000878780008F9
:1056280038B504460D460B7803754A789A420AD273
:1056380038BD2046FFF7B0FE237D0133DBB223756A
:105648006A789A42F4D3013B042BF5D801A252F8A8
:1056580023F000BF3B560008715600087956000831
:1056680081560008895600082046FFF795FEE3E7B3
:105678002046FFF791FEDFE72046FFF78DFEDBE7C8
:105688002046FFF789FED7E770B582B004460E467C
:105698000B7883734A789A4219D202B070BD0125FB
:1056A800256101A92046FFF755FE01A92046FFF70D
:1056B800B7FF0135332DF3D102E02046FFF76CFE2A
:1056C800A37B0133DBB2A37372789A42E5D3013B23
:1056D8000F2BF5D801A252F823F000BFA7560008F7
:1056E800C3560008255700082D57000835570008ED
:1056F8003D57000845570008575700085F570008EE
:10570800675700086F570008775700087F57000849
:10571800875700088F570008A15700082046FFF751
:105728003BFECDE72046FFF737FEC9E72046FFF7E7
:1057380033FEC5E72046FFF72FFEC1E701A9204643
:10574800FFF708FE01A92046FFF76AFFB8E72046E1
:10575800FFF722FEB4E72046FFF71EFEB0E720461B
:10576800FFF71AFEACE72046FFF716FEA8E720462B
:10577800FFF712FEA4E72046FFF70EFEA0E720463B
:10578800FFF70AFE9CE701A92046FFF7E3FD01A900
:105798002046FFF745FF93E701A92046FFF7DAFD0A
:1057A80001A92046FFF73CFF8AE700BF437D022B93
:1057B80000D0704710B582B00446437BDBB15A1E57
:1057C800D2B2012A03D9043BDBB2022B02D8A37B55
:1057D800002B4DD0A37B102B08D82E4A22FA03F3B6
:1057E80013F0010F02D0237D002B4AD02046FFF78B
:1057F800D3FD02B010BD01238DF8043006228DF8C8
:105808000520437307E069462046FFF781FD694696
:105818002046FFF739FF637B0133DBB263739DF8E2
:1058280005209A42E5D3023B032BF4D801A252F893
:1058380023F000BF0F5800084D58000855580008BD
:10584800675800082046FFF7A7FDE4E769462046A9
:10585800FFF75EFD69462046FFF716FFDBE769465E
:105868002046FFF755FD69462046FFF70DFFD2E7B2
:1058780001A92046FFF74CFD01A92046FFF704FFC8
:10588800B7E701A92046FFF765FD01A92046FFF704
:10589800C7FEAEE78280010008B50379013B072BFC
:1058A80029D8DFE803F0041226292C2F323B43794C
:1058B800012B20D1037B012B04D0022B1BD1FCF739
:1058C800F4FE18E0FCF7D8FE15E04379023B032B01
:1058D80011D8DFE803F00205080BFCF7FCFE0AE02C
:1058E800FCF70CFF07E0FCF71BFF04E0FCF748FFA0
:1058F80001E0FCF78BFF08BDFCF794FFFBE7FCF722
:105908009DFFF8E7FCF7A8FFF5E74379062BF2D1EE
:10591800037B032BEFD1FCF7BDFFECE74379072BA3
:10592800E9D1FCF7D4FFE6E700B583B0437B013B40
:10593800042B07D8DFE803F0032975839A00837BDB
:10594800012B02D003B05DF804FB037D012B0AD0C4
:10595800022BF7D16946FCF79BFE90B10128F1D1E3
:1059680000F098F8EEE76946FCF77AFE20B10128C6
:10597800E8D100F08FF8E5E79DF8000000F092F814
:10598800E0E7009800F09EF8DCE7837B023B042BFD
:10599800D8D8DFE803F003111E2C39006946FCF75C
:1059A80091FE20B10128CDD100F074F8CAE79DF826
:1059B800000000F08BF8C5E76946FCF796FE20B1B9
:1059C8000128BFD100F066F8BCE7009800F092F813
:1059D800B8E76946FCF79CFE20B10128B2D100F077
:1059E80059F8AFE79DF8000000F088F8AAE7694683
:1059F800FCF7DEFE20B10128A4D100F04BF8A1E7A6
:105A0800009800F08BF89DE76946FCF7DDFE20B1B1
:105A1800012897D100F03EF894E7009800F082F84A
:105A280090E76946FCF7EAFE20B101288AD100F028
:105A380031F887E79DF8000000F078F882E7837B6B
:105A4800072B7FF47FAF037D032B7FF47BAF694681
:105A5800FCF714FF28B101287FF474AF00F01AF89E
:105A680070E7DDE9000100F071F86BE7837B082B34
:105A78007FF468AF6946FCF721FF28B101287FF45D
:105A880061AF00F007F85DE79DF8000000F064F8EA
:105A980058E7000008B502210148FDF747F808BD9E
:105AA800D47B000808B520B903210448FDF73EF867
:105AB80008BD02210248FDF739F8F9E7E07B000844
:105AC800E47B000808B5FDF735F808BD08B50128DE
