:020000040800F2
:1000000000200020798A00083730000839300008C5
:10001000413000084930000851300008000000005D
:10002000000000000000000000000000593000083F
:100030005B300008000000005D3000085F30000801
:10004000D98A0008D98A0008D98A0008D98A000804
:10005000D98A0008D98A0008D98A0008D98A0008F4
:10006000D98A0008D98A0008D98A0008D98A0008E4
:10007000D98A0008D98A0008D98A0008D98A0008D4
:10008000D98A0008D98A000800000000D98A00082F
:10009000D98A0008D98A0008D98A0008D98A0008B4
:1000A000D98A0008D98A0008D98A00086730000870
:1000B000D98A000800000000D98A0008000000006A
:1000C000D98A000800000000D98A0008D98A0008EF
:1000D000D98A00086F300008D98A000800000000A3
:1000E0000000000000000000D98A0008D98A00083A
:1000F000D98A0008D98A0008D98A0008D98A000854
:10010000D98A00080000000000000000D98A000819
:1001100000000000000000000000000000000000DF
:1001200000000000000000000000000000000000CF
:1001300000000000000000000000000000000000BF
:1001400000000000000000000000000000000000AF
:100150000000000000000000D98A0008D98A0008C9
:08016000D98A0008D98A0008C1
:1001680010B5054C237833B9044B13B10448AFF3E9
:1001780000800123237010BD8801002000000000CA
:10018800408B000808B5034B1BB103490348AFF384
:10019800008008BD000000008C010020408B000892
:1001A80081F0004102E000BF83F0004330B54FEA20
:1001B80041044FEA430594EA050F08BF90EA020F8D
:1001C8001FBF54EA000C55EA020C7FEA645C7FEA20
:1001D800655C00F0E2804FEA5454D4EB5555B8BF43
:1001E8006D420CDD2C4480EA020281EA030382EAB4
:1001F800000083EA010180EA020281EA0303362D46
:1002080088BF30BD11F0004F4FEA01314FF4801C18
:100218004CEA113102D0404261EB410113F0004F2A
:100228004FEA03334CEA133302D0524263EB4303E1
:1002380094EA050F00F0A780A4F10104D5F1200E7F
:100248000DDB02FA0EFC22FA05F2801841F10001DA
:1002580003FA0EF2801843FA05F359410EE0A5F1AE
:1002680020050EF1200E012A03FA0EFC28BF4CF0DF
:10027800020C43FA05F3C01851EBE37101F0004595
:1002880007D54FF0000EDCF1000C7EEB00006EEBA2
:100298000101B1F5801F1BD3B1F5001F0CD349082C
:1002A8005FEA30004FEA3C0C04F101044FEA445283
:1002B80012F5800F80F09A80BCF1004F08BF5FEA0A
:1002C800500C50F1000041EB045141EA050130BDEA
:1002D8005FEA4C0C404141EB0101013C28BFB1F5FC
:1002E800801FE9D291F0000F04BF01460020B1FA47
:1002F80081F308BF2033A3F10B03B3F120020CDA1A
:100308000C3208DD02F1140CC2F10C0201FA0CF0F7
:1003180021FA02F10CE002F11402D8BFC2F1200C5C
:1003280001FA02F120FA0CFCDCBF41EA0C01904012
:10033800E41AA2BF01EB0451294330BD6FEA04045B
:100348001F3C1CDA0C340EDC04F11404C4F1200246
:1003580020FA04F001FA02F340EA030021FA04F358
:1003680045EA030130BDC4F10C04C4F1200220FAAF
:1003780002F001FA04F340EA0300294630BD21FAED
:1003880004F0294630BD94F0000F83F4801306BFB3
:1003980081F480110134013D4EE77FEA645C18BFA7
:1003A8007FEA655C29D094EA050F08BF90EA020F3E
:1003B80005D054EA000C04BF1946104630BD91EA36
:1003C800030F1EBF0021002030BD5FEA545C05D139
:1003D8004000494128BF41F0004130BD14F5800478
:1003E8003CBF01F5801130BD01F0004545F0FE41EC
:1003F80041F470014FF0000030BD7FEA645C1ABF21
:10040800194610467FEA655C1CBF0B46024650EA57
:10041800013406BF52EA033591EA030F41F4002183
:1004280030BD00BF90F0000F04BF0021704730B509
:100438004FF4806404F132044FF000054FF00001DE
:1004480050E700BF90F0000F04BF0021704730B59F
:100458004FF4806404F1320410F0004548BF404274
:100468004FF000013EE700BF42004FEAE2014FEAC9
:1004780031014FEA02701FBF12F07F4393F07F4FA4
:1004880081F06051704732F07F4208BF704793F0A7
:100498007F4F04BF41F40021704730B54FF46074BA
:1004A80001F0004521F000411CE700BF50EA0102BD
:1004B80008BF704730B54FF000050AE050EA010266
:1004C80008BF704730B511F0004502D5404261EBD6
:1004D80041014FF4806404F132045FEA915C3FF417
:1004E800D8AE4FF003025FEADC0C18BF03325FEAB4
:1004F800DC0C18BF033202EBDC02C2F1200300FA65
:1005080003FC20FA02F001FA03FE40EA0E0021FA89
:1005180002F11444BDE600BF70B54FF0FF0C4CF477
:10052800E06C1CEA11541DBF1CEA135594EA0C0F29
:1005380095EA0C0F00F0DEF82C4481EA030621EA64
:100548004C5123EA4C5350EA013518BF52EA03359F
:1005580041F4801143F4801338D0A0FB02CE4FF051
:100568000005E1FB02E506F00042E0FB03E54FF081
:100578000006E1FB03569CF0000F18BF4EF0010E79
:10058800A4F1FF04B6F5007F64F5407404D25FEA75
:100598004E0E6D4146EB060642EAC62141EA555128
:1005A8004FEAC52040EA5E504FEACE2EB4F1FD0C6A
:1005B80088BFBCF5E06F1ED8BEF1004F08BF5FEAE8
:1005C800500E50F1000041EB045170BD06F000469A
:1005D80046EA010140EA020081EA0301B4EB5C0447
:1005E800C2BFD4EB0C0541EA045170BD41F480113F
:1005F8004FF0000E013C00F3AB8014F1360FDEBF64
:10060800002001F0004170BDC4F10004203C35DA3F
:100618000C341BDC04F11404C4F1200500FA05F3C2
:1006280020FA04F001FA05F240EA020001F0004263
:1006380021F0004110EBD37021FA04F642EB0601D9
:100648005EEA430E08BF20EAD37070BDC4F10C0403
:10065800C4F1200500FA04F320FA05F001FA04F2C7
:1006680040EA020001F0004110EBD37041F10001B3
:100678005EEA430E08BF20EAD37070BDC4F12005BE
:1006880000FA05F24EEA020E20FA04F301FA05F226
:1006980043EA020321FA04F001F0004121FA04F2CE
:1006A80020EA020000EBD3705EEA430E08BF20EA9E
:1006B800D37070BD94F0000F0FD101F000464000D8
:1006C80041EB010111F4801F08BF013CF7D041EA5A
:1006D800060195F0000F18BF704703F0004652005E
:1006E80043EB030313F4801F08BF013DF7D043EA2F
:1006F8000603704794EA0C0F0CEA135518BF95EAE5
:100708000C0F0CD050EA410618BF52EA4306D1D16B
:1007180081EA030101F000414FF0000070BD50EA8A
:10072800410606BF1046194652EA430619D094EA14
:100738000C0F02D150EA013613D195EA0C0F05D1FE
:1007480052EA03361CBF104619460AD181EA030152
:1007580001F0004141F0FE4141F470014FF000000A
:1007680070BD41F0FE4141F4780170BD70B54FF0A5
:10077800FF0C4CF4E06C1CEA11541DBF1CEA135525
:1007880094EA0C0F95EA0C0F00F0A7F8A4EB050407
:1007980081EA030E52EA03354FEA013100F08880FE
:1007A8004FEA03334FF0805545EA131343EA1263C7
:1007B8004FEA022245EA111545EA10654FEA00267C
:1007C8000EF000419D4208BF964244F1FD0404F535
:1007D800407402D25B084FEA3202B61A65EB030591
:1007E8005B084FEA32024FF480104FF4002CB6EB4E
:1007F800020E75EB030E22BFB61A754640EA0C00CE
:100808005B084FEA3202B6EB020E75EB030E22BF0D
:10081800B61A754640EA5C005B084FEA3202B6EB4E
:10082800020E75EB030E22BFB61A754640EA9C000D
:100838005B084FEA3202B6EB020E75EB030E22BFDD
:10084800B61A754640EADC0055EA060E18D04FEA9B
:10085800051545EA16754FEA06164FEAC30343EA3B
:1008680052734FEAC2025FEA1C1CC0D111F4801F08
:100878000BD141EA00014FF000004FF0004CB6E701
:1008880011F4801F04BF01430020B4F1FD0C88BFA0
:10089800BCF5E06F3FF6AFAEB5EB030C04BFB6EBAB
:1008A800020C5FEA500C50F1000041EB045170BD9E
:1008B8000EF0004E4EEA113114EB5C04C2BFD4EBCB
:1008C8000C0541EA045170BD41F480114FF0000E4F
:1008D800013C90E645EA060E8DE60CEA135594EACB
:1008E8000C0F08BF95EA0C0F3FF43BAF94EA0C0FCE
:1008F8000AD150EA01347FF434AF95EA0C0F7FF443
:1009080025AF104619462CE795EA0C0F06D152EA96
:1009180003353FF4FDAE1046194622E750EA41067A
:1009280018BF52EA43067FF4C5AE50EA41047FF48B
:100938000DAF52EA43057FF4EBAE12E74FF0FF3CF0
:1009480006E000BF4FF0010C02E000BF4FF0010CC1
:100958004DF804CD4FEA410C7FEA6C5C4FEA430C3A
:1009680018BF7FEA6C5C1BD001B050EA410C0CBF89
:1009780052EA430C91EA030F02BF90EA020F0020EB
:10098800704710F1000F91EA030F58BF994208BF52
:1009980090422CBFD8176FEAE37040F0010070470F
:1009A8004FEA410C7FEA6C5C02D150EA013C07D166
:1009B8004FEA430C7FEA6C5CD6D152EA033CD3D0B1
:1009C8005DF8040B704700BF8446104662468C46AB
:1009D8001946634600E000BF01B5FFF7B7FF0028DE
:1009E80048BF10F1000F01BD4DF808EDFFF7F4FF07
:1009F8000CBF012000205DF808FB00BF4DF808ED92
:100A0800FFF7EAFF34BF012000205DF808FB00BFB4
:100A18004DF808EDFFF7E0FF94BF012000205DF8D6
:100A280008FB00BF4DF808EDFFF7CEFF94BF01208B
:100A380000205DF808FB00BF4DF808EDFFF7C4FF84
:100A480034BF012000205DF808FB00BF4FEA4102D7
:100A580012F5001215D211D56FF47873B3EB625208
:100A680012D94FEAC12343F0004343EA505311F02F
:100A7800004F23FA02F018BF404270474FF00000C1
:100A8800704750EA013005D111F0004008BF6FF0FF
:100A9800004070474FF00000704700BF4A0011D275
:100AA80012F5001211D20DD56FF47873B3EB6252C0
:100AB8000ED44FEAC12343F0004343EA505323FACC
:100AC80002F070474FF00000704750EA013002D141
:100AD8004FF0FF3070474FF0000070474FEA410277
:100AE800B2F1E04324BFB3F5001CDCF1FE5C0DD984
:100AF80001F0004C4FEAC0024CEA5070B2F1004FCE
:100B080040EB830008BF20F00100704711F0804FD0
:100B180021D113F13872BCBF01F00040704741F495
:100B280080114FEA5252C2F11802C2F1200C10FA99
:100B38000CF320FA02F018BF40F001004FEAC1237D
:100B48004FEAD32303FA0CFC40EA0C0023FA02F321
:100B58004FEA4303CCE77FEA625307D150EA0133F7
:100B68001EBF4FF0FE4040F44000704701F00040C7
:100B780040F0FE4040F40000704700BF53B94AB946
:100B8800002908BF00281CBF4FF0FF314FF0FF308D
:100B980000F076B9ADF1080C6DE904CE00F006F866
:100BA800DDF804E0DDE9022304B070472DE9F047E1
:100BB800089E0D4604468846002B4DD18A4294462D
:100BC80068D9B2FA82F252B101FA02F3C2F12001F5
:100BD80020FA01F10CFA02FC41EA030894404FEABA
:100BE8001C41B8FBF1F71FFA8CFE01FB178807FBC5
:100BF8000EF0230C43EA084398420AD91CEB03037E
:100C080007F1FF3580F01E81984240F21B81023FB8
:100C180063441B1AB3FBF1F001FB103300FB0EFE1B
:100C2800A4B244EA0344A6450AD91CEB040400F123
:100C3800FF3380F00981A64540F2068164440238FA
:100C48000021A4EB0E0440EA07401EB10023D44063
:100C5800C6E90043BDE8F0878B4208D9002E00F0B2
:100C6800EE800021C6E900050846BDE8F087B3FA22
:100C780083F100294AD1AB4202D3824200F2FC80C0
:100C8800841A65EB030301209846002EE2D0C6E9DA
:100C98000048DFE702B9FFDEB2FA82F2002A40F02C
:100CA8009180A1EB0C0001214FEA1C471FFA8CFE32
:100CB800B0FBF7F307FB1300250C45EA00450EFBD4
:100CC80003F0A84208D91CEB050503F1FF3802D24E
:100CD800A84200F2CE8043462D1AB5FBF7F007FB79
:100CE80010550EFB00FEA4B244EA0544A64508D9F7
:100CF8001CEB040400F1FF3502D2A64500F2B680D1
:100D08002846A4EB0E0440EA03409EE7C1F1200701
:100D18008B4022FA07FC4CEA030C25FA07FA4FEA43
:100D28001C49BAFBF9F820FA07F309FB18AA8D4009
:100D38001FFA8CFE1D4300FA01F308FB0EF02C0C81
:100D480044EA0A44A04202FA01F20BD91CEB04045B
:100D580008F1FF3A80F08880A04240F28580A8F12F
:100D680002086444241AB4FBF9F009FB104400FBA0
:100D78000EFEADB245EA0444A64508D91CEB0404AE
:100D880000F1FF356CD2A6456AD90238644440EABE
:100D98000840A0FB0295A4EB0E04AC42C846AE4640
:100DA80056D353D0002E69D0B3EB080264EB0E047F
:100DB80022FA01F304FA07F71F43CC40C6E900748E
:100DC800002147E70CFA02FCC2F1200125FA01F3E1
:100DD8004FEA1C4720FA01F195400D43B3FBF7F1A8
:100DE80007FB11331FFA8CFE280C40EA034001FB75
:100DF8000EF3834204FA02F408D91CEB000001F157
:100E0800FF382FD283422DD902396044C01AB0FB73
:100E1800F7F307FB1300ADB245EA004503FB0EF0FC
:100E2800A84208D91CEB050503F1FF3816D2A842E1
:100E380014D9023B6544281A43EA014138E7314690
:100E4800304607E72F46E4E61846F9E64B45A9D2AF
:100E5800B9EB020865EB0C0E0138A3E74346EAE755
:100E6800284694E74146D1E7D0467BE764440238F8
:100E780047E7023B65442FE7084606E73146E9E6BF
:100E8800704700BF70472DE9F04F83B006460F4604
:100E980001929846DDF83090DDF838A00F9B13F0EA
:100EA800030F14D10D9B534528BF154610D20D9B37
:100EB800AAEB0305019C25444FF0200B2246013480
:100EC800434639465846B047AC42F7D100E0019D49
:100ED8000D9B7BB10D9B09EB030B5C46AB44ABEB65
:100EE80004024346394614F8010DB0474C45F6D183
:100EF8000D9B1D440F9B13F0020F0ED0019BEC1AA3
:100F0800A2450AD94FF020092A46434601353946F9
:100F18004846B04701345445F6D3284603B0BDE8E7
:100F2800F08F2DE9F04385B0DDF830E00D9C9DF899
:100F38003880109F119D129E16F0020F38D17DB196
:100F480016F0010F00F08A80B8F1000F02D116F0F8
:100F58000C0F00D0013DBC4215D21F2C04D912E061
:100F6800BC420DD21F2C0BD804F1FF3CF4444FF0C7
:100F7800300901340CF8019FA74201D9202CF8D17F
:100F880016F0010F14D0A54212D91F2C0BD804F16A
:100F9800FF3CF4444FF0300901340CF8019FAC4297
:100FA80005D0202CF8D116F0100F04D120E02C46E3
:100FB80016F0100F13D016F4806F04D11CB1A7429D
:100FC80020D0AC421ED00F9F102F24D00F9F022F8D
:100FD8002DD01F2C0CD830270EF8047001341F2C8C
:100FE80006D8B8F1000F29D02D270EF80470013467
:100FF800039602950194CDF800E0FFF744FF05B091
:10100800BDE8F083B4F1010C0FD00F9F102F01D071
:101018006446DBE7023C16F0200F24D11F2CD8D8F9
:1010280078270EF804700134D3E76446CBE71F2C09
:10103800DED862270EF804700134CAE716F0040FF0
:1010480004D02B270EF804700134D1E716F0080FEE
:10105800CED020270EF804700134C9E7BC42A7D2CD
:101068001F2C81D9A4E71F2CC2D858270EF804706A
:101078000134AEE72DE9F04190B0169C189DDDF8DB
:101088006C802CB928F0100618F4806F34D1B04663
:1010980018F0200F14BF412761270DF1200E0026FC
:1010A8000A3F00E06446B4FBF5FC05FB1C4C5FFA04
:1010B8008CFCBCF1090F94BF0CF1300CBC445FFAF6
:1010C8008CFC01360EF801CBB4FBF5FCAC4201D325
:1010D800202EE7D1CDF818801A9C0594199C049409
:1010E80003959DF85C400294019608AC0094FFF7C4
:1010F80018FF10B0BDE8F081B0462646EAE72DE9B2
:10110800F04F95B0089009910A920B931E9C1F9D71
:10111800229EDDF88C80DDF898B054EA050305D1ED
:101128002BF010031BF4806F40D19B461BF0200F5F
:1011380014BF4FF0410A4FF0610A0DF13009002742
:10114800AAF10A0A01E004460D4632464346204603
:101158002946FFF713FDD2B2092A94BF3032524410
:10116800D2B2013709F8012B3246434620462946B8
:10117800FFF704FDB44275EB080301D3202FE2D139
:10118800CDF818B0259B0593249B049303969DF8EE
:101198008030029301970CAB00930B9B0A9A099934
:1011A8000898FFF7BEFE15B0BDE8F08F9B460027F4
:1011B800E6E70000000000002DE9F04F91B004467A
:1011C8000D460B921E461A9F0797DDF86C80CDF8E6
:1011D80020803A46434638464146FFF705FC00283A
:1011E80000F0A7814FF0FF32A34B38464146FFF786
:1011F80023FC002840F09D814FF0FF326FF48013EC
:1012080038464146FFF7FAFB002840F09281002259
:101218000023079F3846DDF820804146FFF7EEFBA4
:10122800002840F09B81079A089B09920A931E9B0D
:1012380013F480630F931C9B08BF06231C93DDF8EF
:1012480024A00A9FC7F30A50A0F2FF30FFF7FAF86C
:1012580079A3D3E90023FFF75FF979A3D3E9002342
:10126800FEF7A4FF80468946C7F31307504647F0A8
:101278007F5141F440110022804BFEF795FF72A385
:10128800D3E90023FFF748F902460B464046494692
:10129800FEF78CFFFFF7DAFB0E90FFF7D3F88046D6
:1012A80089466BA3D3E90023FFF736F90022744B74
:1012B800FEF77CFFFFF7CAFB074667A3D3E90023C5
:1012C80040464946FFF728F9804689463846FFF7E1
:1012D800B9F863A3D3E90023FFF71EF902460B46CA
:1012E80040464946FEF760FF82468B4602460B465B
:1012F800FFF712F98046894652465B4650465946E2
:10130800FEF754FFCDE90C0100225E4B40464946EA
:10131800FFF72CFA00225C4BFEF748FF02460B460B
:1013280040464946FFF722FA0022584BFEF73EFF97
:1013380002460B4640464946FFF718FA804689465A
:1013480052465B4600204FF08041FEF72DFF0246D3
:101358000B4640464946FEF729FF02460B46DDE9A3
:101368000C01FFF703FA0022494BFEF71FFF07F2B3
:10137800FF3700223B05FFF7CFF880468946099AD8
:101388000A9BFFF759FB002840F0ED80C246CB4688
:10139800DDF8388008F16303C72B34BF042705271D
:1013A8001E9B13F4006F24D02FA3D3E900230998C0
:1013B800DDF828904946FFF735FB002800F0DF806C
:1013C8002BA3D3E9002309984946FFF717FB002808
:1013D80000F0D5801C9B4345C3BF4246981A00F1D4
:1013E800FF3300231C931E9B43F480631E93002746
:1013F8000E971D9B9F4234BFA3EB07084FF00008D0
:101408001E9B13F0020903D0002F18BF4FF00008ED
:101418000E9B3BB152465B4609980A99FFF7A6F91D
:1014280009900A910022002307980899FFF7E6FA25
:10143800002840F0B0802DE0FB799F501344D33F43
:10144800B3C8608B288AC63F61436F63A787D23FC2
:1014580071A379094F930A401655B5BBB16B024089
:10146800EF39FAFE422EE63F2D431CEBE2361A3FD7
:101478000000000080842E41FFFFEF7F0000F83F4E
:101488000000E03F00002C4000002440000018400D
:101498000000F03F1E9B23F400630493CDF80C80FA
:1014A8001C9B0293099A0A9BCDE900233346DDF879
:1014B8002CB05A462946204600F076F88046002F80
:1014C80048D01E9B13F0200F00F1010A3346024654
:1014D800294614BF45206520A04705230593013FF1
:1014E8000497002303930A2302930E99CB0F0193C9
:1014F8000029B8BF49420091334652462946204642
:10150800FFF7B8FD8046B9F1000F23D0A0EB0B0719
:101518001D9BBB421ED94FF020099A4642463346CE
:1015280008F1010829464846A04701375745F5D331
:1015380010E01E9B04931D9B03931C9B0293079A28
:10154800089BCDE9002333460B9A2946204600F034
:101558002BF88046404611B0BDE8F08F099708F196
:1015680000430A9363E60E9B013B0E9300220C4B4B
:1015780040464946FFF7FAF882468B4608E71C9B27
:10158800002B3FF436AF0F9B002B3FF432AF1C9B70
:10159800013B1C932DE70A9901F100430A9379E76F
:1015A80000002440000000002DE9F04F97B007909C
:1015B8000C9192469B46DDE9208942464B464046BF
:1015C8004946FFF711FA002849D04FF0FF326FF46F
:1015D800801340464946FFF711FA00284ED14FF0D4
:1015E800FF32B34B40464946FFF726FA002854D14C
:1015F800ABA3D3E9002340464946FFF71DFA00286C
:1016080063D1A9A3D3E9002340464946FFF7F6F979
:1016180000285AD10022002340464946FFF7EEF938
:10162800002861D100230D93249B13F4806569D0B1
:10163800229B092B63D930238DF83830229B5E1EFC
:101648000EAAA3F1090501233021AB425BD0013377
:1016580002F8011F013E202BF7D11D4653E0249BC1
:101668000393239B029303230193924B00935B46BE
:1016780052460C990798FFF706FC5BE1249B0393FD
:10168800239B0293042301938B4B00935B465246A2
:101698000C990798FFF7F7FB4CE1249B13F0040221
:1016A800864B874908BF0B46002A14BF0422032231
:1016B8002499039123990291019200935B46524623
:1016C8000C990798FFF7DFFB34E1249B0493239BD5
:1016D8000393229B0293CDE900895B4652460C99FD
:1016E8000798FFF769FD25E142464B460020002197
:1016F800FEF75AFD8046894601230D9394E71E465E
:10170800002500E0062640464946FFF79FF90446B3
:101718006C4B03EBC603D3E90023CDE90823FEF79E
:1017280091FE02460B4640464946FEF73DFDDDE97F
:101738000823FEF7F1FE02460B46CDE90A23FFF720
:10174800ADF90746FEF76EFE02460B46DDE90A01D3
:10175800FEF72AFD02460B46CDE90A2300225A4B22
:10176800FFF76AF950B301373846FEF75BFE0246C9
:101778000B46DDE90801FFF74BF908B101340027F2
:10178800002E6FD12046FEF75DFE02460B4640460E
:101798004946FEF709FD06460F4600224A4BFFF769
:1017A8002DF930B10022484B30463946FFF744F94D
:1017B80060B314F0010F29D0013427E00022424B16
:1017C800DDE90A01FFF71AF90028D9D117B117F096
:1017D800010FD5D00137D3E71F2900F2AE80BCF145
:1017E800000F3DD00EAB5A190D463020013502F8D6
:1017F800010F202D0AD0EB430B44F342F6D105F13B
:1018080058036B442E2203F8202C013505F15803A8
:101818000DEB0302213A2D491F2D79D8013581FBA3
:101828000430E317C3EBA00303EB8300A4EB4004ED
:10183800303402F8014F1C46002BEDD1249B03F0F5
:101848000303012B46D01F2D67D80D9B002B47D0D3
:1018580005F158036B442D2203F8202C01355CE078
:101868000D46CCE705F158030DEB03002138DFF8EE
:1018780060E01F2DCAD806F1FF3C691CAEFB073299
:10188800D20802EB8203A7EB4303303300F8013F91
:10189800092FA1D9664617460D46EAE7AFF300803F
:1018A8000000000065CDCD410000000065CDCDC130
:1018B800FFFFEF7F888B00088C8B00087C8B00086B
:1018C800848B0008988B00080000E03F6766666616
:1018D800CDCCCCCC239B002BB5D033E0239DB2E7F5
:1018E800249B13F0040F07D005F158036B442B22F7
:1018F80003F8202C013510E0249B13F0080F0CD0BE
:1019080005F158036B44202203F8202C013504E02C
:10191800249B03F00303012B11D0249B0393239BE7
:10192800029301950EAB00935B4652460C990798BB
:10193800FFF7A9FA17B0BDE8F08F0D4666E7239BBD
:10194800002BEAD00D9B1BB9249B13F00C0F02D07F
:10195800239B013B2393239BAB427FF674AF1F2D40
:10196800DBD805F158036B44213B3022239901351C
:1019780003F8012F8D42B1D0202DF8D1CDE700BF5B
:1019880000B9704708B501F05BFA08BD2DE9F04FC2
:1019980091B017461C46DDF86880B1F10009804B0C
:1019A80014BF82469A462078002800F0CE824FF075
:1019B800000B2EE1621C4FF0000C144612F8013B9C
:1019C800A3F1200110290AD8DFE801F02E09093116
:1019D800090909090909092B092809092500A3F199
:1019E8003002D2B2092A25D92A2B31D000252378F2
:1019F8002E2B36D000262378683B122B5DD8DFE8E3
:101A080003F0B85CC65C535C5C5C5C5C5C5CC25CB0
:101A18005C5C5C5CCA004CF0010CCEE74CF0020C3C
:101A2800CBE74CF0040CC8E74CF0080CC5E74CF0C9
:101A3800100CC2E7002505EB850503EB4505303D95
:101A480014F8013FA3F13002D2B2092AF3D9CEE744
:101A580058F8045B002DBCBF4CF0020C6D420134F9
:101A6800C5E74CF4806C611C6378A3F13002D2B2F4
:101A7800092A04D92A2B11D00C460026BBE70026D8
:101A880006EB860603EB4606303E11F8013FA3F14C
:101A98003002D2B2092AF3D90C46ACE758F8046BE5
:101AA80026EAE6760234A6E763786C2B19BF4CF475
:101AB800807C01344CF4407C02342078A0F125036A
:101AC800532B00F23982DFE813F02D023702370278
:101AD8003702370237023702370237023702370236
:101AE8003702370237023702370237023702370226
:101AF8003702370237023702370237023702370216
:101B08003702370237023702370240012701400106
:101B180037023702370237023702370237023702F5
:101B280037023702370237023702370237023702E5
:101B38006D003702370237023702370237023702A1
:101B4800370237026D0064016D0040012701400132
:101B580037026D00370237023702370237026D004D
:101B68001702370237029F0137026D00370237022A
:101B78006D006378682B19BF4CF0800C01344CF071
:101B8800C00C023499E74CF4807C013495E74CF49E
:101B9800007C013491E74CF4807C01348DE700BF70
:101BA8008D0E0008782800F02182582800F0DC818A
:101BB8006F2800F01D82622800F01C822CF01003B0
:101BC800692832D11CF4806F40F00C820A2213F489
:101BD800007F35D113F4807F54D113F0400F65D0C6
:101BE80058F8041BC9B20593049503960292CB0FCB
:101BF80001930029B8BF494200913B465A464946DD
:101C08005046FFF737FA834601342078002800F061
:101C18009E8125283FF4CEAE0BF101053B465A467E
:101C28004946D0470134AB46EFE7642805D11CF498
:101C3800806F40F0D3810A22C9E79C460A2296E1C8
:101C480008F1070020F00700804658F8081B406894
:101C5800089307950696049200230593C30F0293F1
:101C68000246002809DB009101923B465A46494644
:101C78005046FFF744FA8346C6E74B42194660EBE5
:101C88004002F0E758F8041B059304950396029266
:101C9800CB0F01930029B8BF494200913B465A46F1
:101CA80049465046FFF7E6F98346ADE713F0800F43
:101CB80058F8041B18BF09B295E708F1070828F07F
:101CC8000708089307950696002304920593029344
:101CD800F8E80223CDE900233B465A4649465046D8
:101CE800FFF70DFA83468FE7059304950396029252
:101CF8000023019358F8043B00933B465A46494653
:101D08005046FFF7B7F983467EE713F0800F58F87F
:101D1800041B18BF89B246E1462808BF4CF0200CC6
:101D280008F1070828F00708CDF810C003950296B7
:101D3800F8E80223CDE900233B465A464946504677
:101D4800FFF732FC834601345FE700F0DF03472BDF
:101D580002D0452808D105E04CF4006C00F0FD00E5
:101D6800452801D14CF0200C08F1070828F0070895
:101D7800CDF810C003950296F8E80223CDE90023B8
:101D88003B465A4649465046FFF716FA8346013401
:101D98003BE71CF0020F1CD043460BF1010653F839
:101DA800040B0B933B465A464946C0B2D047012D17
:101DB80088BF05EB0B0840F20581324601363B46E9
:101DC80049462020D047B045F7D1AB44DDF82C80F8
:101DD80018E0012D40F2FA800BF1FF331D44202654
:101DE8005A460BF1010B3B4649463046D0475D4504
:101DF800F6D105F1010B58F8040B3B462A46494633
:101E0800C0B2D047013400E7434653F8048B0C9323
:101E1800002E14BF31464FF0FF3198F8000000281B
:101E280000F0DA80434613F8012F1AB1A8EB030239
:101E3800CA42F8D1A3EB08030B931CF480620D92FD
:101E480003D0B34228BF33460B931CF002030E9312
:101E580006D0002800F0BC805A460F950D9D29E059
:101E68000B9A531C954240F2B58005EB0B039B1A65
:101E78000F93CDF82C8098465A460BF1010B3B4640
:101E880049462020D047C345F6D1DDF82C806B1C8D
:101E98000B93DDF83CB098F800000028DCD114E082
:101EA8001E4602F1010B3B464946D04718F8010F80
:101EB80040B15A46002DF4D0731E002EF0D10F9D6C
:101EC800934600E00F9D0E9B1BB90134DDF830806E
:101ED8009BE65E460B9B9D420CD93544A5EB030B54
:101EE8002025324601363B4649462846D047B34569
:101EF800F7D1EAE7B346E8E74CF021030593082356
:101F080004930396102302930023019358F8043B8B
:101F180000933B465A4649465046FFF7ABF883467E
:101F2800013472E60BF101053B465A464946252025
:101F3800D0470134AB4668E60BF101053B465A46EB
:101F48004946D0470134AB465FE64FF0000B5F458A
:101F580094BF07F1FF325A463B4649460020D04716
:101F6800584611B0BDE8F08F4CF0200C10222CF030
:101F78000C031CF4806F07D02CF00D0369283FF484
:101F880026AE64283FF423AE13F4007F7FF495AEA9
:101F980013F4807F7FF4A8AE13F0400F3FF4B5AE82
:101FA80058F8041BC9B205930495039602920023BE
:101FB800019300913B465A4649465046FFF75AF866
:101FC800834621E6DDF82C80B3461BE75D4610E723
:101FD8005E467FE70B935EE743462BE72CF0110341
:101FE8000A22F4E52CF011030A22F0E51022BEE7DC
:101FF8000822BCE70222BAE70FB400B585B006AAEA
:1020080052F8043B039200924FF0FF3202A90448B1
:10201800FFF7BCFC05B05DF804EB04B0704700BFE7
:102028008919000810B504460C4B1B5C012B03D022
:102038000A4B1B5D4BB110BD094B53F82010094BDF
:1020480053F8200005F06AFEF2E7054B53F8241018
:10205800044B53F8240005F063FEECE7A8010020C8
:102068009C8C0008DC8C000808B5144B1B5C033BF7
:10207800032B05D8DFE803F01E02051100F04BFD25
:1020880008BD012383400E4A106820EA030010604F
:102098000028F5D101F0E6F9F2E701238340084A68
:1020A800506820EA030050600028E9D1012001F0BF
:1020B800D9F9E5E700F0F0FEE2E700BFA80100204B
:1020C8005002002008B5064B811C03EBC102526880
:1020D80053F83110034B185C01F048F908BD00BFF4
:1020E800A80100202C8D000870B50446454B1B5CE8
:1020F800062B1AD8DFE803F004041A2536416300DA
:10210800414B53F82050414B53F82060334600228E
:102118000121284605F0B8FD33460022114628461D
:1021280005F0DAFD2046FFF77DFF70BD374B53F809
:10213800203000221146344850F8240005F0A4FD50
:10214800F3E7022100F07AF80121204600F076F842
:102158002C4D03232B5500F07FFEB5F8A00000F0AE
:1021680095FEE2E700F093FC294B53F82410294B25
:1021780053F8240000F0B3FCD7E7274B1B68D3B112
:102188002549012303FA04F20B6813430B601D4B26
:10219800251D03EBC5051869FEF744F9D5E90023A9
:1021A800FEF7BAF9FEF77AFC02461C4B195D0020CF
:1021B80001F002F9B9E70020FFF784FFE0E7164BCA
:1021C8005B68D3B1144A012606FA04F153680B433D
:1021D80053600C4B251D03EBC5059869FEF722F9E2
:1021E800D5E90023FEF798F9FEF758FC02460B4B99
:1021F800195D304601F0E0F897E70120FFF762FF2C
:10220800E0E700BFA8010020DC8C00089C8C0008D7
:102218001C8C00085C8C0008500200201C8D0008F3
:1022280038B504460D46FFF71FFF034B1D552046E2
:10223800FFF75AFF38BD00BFA801002008B50129E3
:1022480004D0084B1B5C012B08D808BD054B1B5C50
:10225800022BFAD00221FFF7E3FFF6E70021FFF790
:10226800DFFFF2E7A801002008B539B1084B1B5C75
:10227800934207D01146FFF7D3FF03E0044B1B5CE2
:10228800934200D008BD0221FFF7CAFFFAE700BF5A
:10229800A801002008B50422FFF7E6FF08BD0000EA
:1022A8002DE9F84F8046104E751E0F360024DFF8D2
:1022B8003CB0DFF83CA0A14602E00134B54210D0A2
:1022C800E7B215F8013F4345F7D15BF824304A4699
:1022D80049465AF8240005F0D7FC3846FFF704FFB2
:1022E800EBE7BDE8F88F00BFA80100209C8C000830
:1022F800DC8C0008D0B5044616461F46084901EB99
:10230800C001D1E90801FEF76FFB00B1D0BD044B55
:1023180003EBC403C3E908672046FFF7E5FEF5E7CA
:10232800A8010020074B1B5C042B01D0012070473B
:1023380010B50C46044B185C00F0D8FB2060002058
:1023480010BD00BFA80100200C8C0008024B002221
:102358001A605A60704700BF5002002030B4431E14
:1023680000F1180200F10F0C02210024074D03F8B8
:10237800011FE2E902456345F9D14FF48062026129
:10238800012343618261C36130BC70470000E03FB4
:1023980010B50024E0B2FFF7A7FE0134102CF9D1E4
:1023A80010BD704710B50C460369013BDBB2104AFB
:1023B800D05C012807D0022809D008B1012010BD3F
:1023C80000230B70FBE701230B700020F7E7094A95
:1023D80052F82310084A52F8230005F0A3FC0128FC
:1023E80002D000202070EAE7012323700020E6E7EE
:1023F800A80100209C8C0008DC8C000808B5024667
:102408008368013BD8B292F918200C4B1B5C3BB98E
:1024180002B908BD094B01221A54FFF703FEF8E779
:10242800012B06D1002AF4D1044B1A54FFF7FAFD08
:10243800EFE70348FFF7E0FDEBE700BFA801002046
:10244800E88B00080369013BDBB2084AD35C012B27
:1024580007D9022B03D101230B70002070470120FC
:10246800704702230B700020704700BFA8010020AE
:1024780008B58368013B017ED8B2FFF7DFFE08BDCF
:1024880000200870034B9B7A032B14BF0023012301
:102498000B707047A801002008B5037A012B00D003
:1024A80008BD0322017E0A20FFF7DEFEF8E70000E0
:1024B80010B50C46064B9B7A032B05D0044BB3F89A
:1024C800A0302360002010BD05F00AFB2060F5E76E
:1024D800A801002008B5037A012B00D008BD054BE0
:1024E8008269A3F8A0209B7A032BF7D10A20FFF773
:1024F800FBFDF3E7A8010020007C431E092B69D8E7
:10250800DFE803F0050E18222C36404A545E324BA1
:102518001B78042B00D0704701230B7000207047F4
:102528002D4B5B78042B01D00120704701230B70E1
:1025380000207047284B1B7A042B01D001207047DC
:1025480001230B7000207047234B5B7A042B01D0CA
:102558000120704701230B70002070471E4B9B7AA7
:10256800042B01D00120704701230B700020704715
:10257800194BDB7A042B01D00120704701230B7023
:1025880000207047144B1B7B042B01D0012070479F
:1025980001230B70002070470F4B5B7B042B01D08D
:1025A8000120704701230B70002070470A4B9B7B6A
:1025B800042B01D00120704701230B7000207047C5
:1025C800054BDB7B042B01D00120A4E701230B7012
:1025D8000020704701207047A801002008B5037A41
:1025E800013B092B0AD8DFE803F0050A0F14191E6E
:1025F80023282D32017E0020FFF74CFE08BD017E06
:102608000120FFF747FEF9E7017E0820FFF742FEA9
:10261800F4E7017E0920FFF73DFEEFE7017E0A207F
:10262800FFF738FEEAE7017E0B20FFF733FEE5E708
:10263800017E0C20FFF72EFEE0E7017E0D20FFF75C
:1026480029FEDBE7017E0E20FFF724FED6E7017E98
:102658000F20FFF71FFED1E708B5037C013B092BCC
:102668002ED8DFE803F005090D1115191D212529BC
:102678000020FFF757FE08BD0120FFF753FEFAE7D9
:102688000820FFF74FFEF6E70920FFF74BFEF2E7B9
:102698000A20FFF747FEEEE70B20FFF743FEEAE7C5
:1026A8000C20FFF73FFEE6E70D20FFF73BFEE2E7D1
:1026B8000E20FFF737FEDEE70F20FFF733FEDAE7DD
:1026C8000120D8E7024B1B690B600020704700BF50
:1026D800A801002008B58369084A12699A4207D000
:1026E800064A1361064B1B681BB90520FFF7D8FD86
:1026F80008BD0020FFF7E6FCF7E700BFA8010020AF
:1027080050020020037C013B032B33D8DFE803F0A1
:10271800020E1A2600230B70174B1B78052B01D0CD
:102728000020704701230B700020704700230B70B6
:10273800114B5B78052B01D00020704701230B70EB
:102748000020704700230B700B4B1B7A052B01D020
:102758000020704701230B700020704700230B7086
:10276800054B5B7A052B01D00020704701230B70C5
:102778000020704701207047A801002008B5037A9F
:10278800013B032B08D8DFE803F002080E140522EA
:10279800017E0020FFF768FD08BD0522017E0120AB
:1027A800FFF762FDF8E70522017E0820FFF75CFDD0
:1027B800F2E70522017E0920FFF756FDECE700004D
:1027C800024B5B690B600020704700BFA801002026
:1027D80008B58369084A52699A4207D0064A536184
:1027E800064B1B681BB90520FFF75AFD08BD0020E2
:1027F800FFF768FCF7E700BFA8010020500200209F
:10280800037C013B032B1FD8DFE803F002091017F4
:102818000E4BD3E90823C1E90023002070470B4B76
:10282800D3E90A23C1E9002300207047074BD3E905
:102838001823C1E9002300207047044BD3E91A2369
:10284800C1E900230020704701207047A80100203B
:1028580008B5037A013B032B08D8DFE803F0020828
:102868000E14D0E906230020FFF744FD08BDD0E987
:1028780006230120FFF73EFDF8E7D0E906230820EC
:10288800FFF738FDF2E7D0E906230920FFF732FD0C
:10289800ECE70000024BDB690B600020704700BFCB
:1028A800A801002008B58369084AD2699A4207D06E
:1028B800064AD361064B5B681BB90620FFF7F0FC9C
:1028C80008BD0120FFF7FEFBF7E700BFA8010020C5
:1028D80050020020024B9B690B600020704700BF2C
:1028E800A801002008B58369084A92699A4207D06E
:1028F800064A9361064B5B681BB90620FFF7D0FCBC
:1029080008BD0120FFF7DEFBF7E700BFA8010020A4
:1029180050020020037C012B03D0022B0DD0012094
:10292800704700230B700B4B1B7B062B01D000203C
:10293800704701230B700020704700230B70054B74
:102948005B7B062B01D00020704701230B70002011
:10295800704700BFA801002008B5037A012B02D0F8
:10296800022B06D008BD0622017E0C20FFF77CFC56
:10297800F8E70622017E0D20FFF776FCF2E700005B
:10298800037C012B03D0022B08D001207047074B92
:10299800D3E92023C1E9002300207047034BD3E982
:1029A8002223C1E900230020704700BFA8010020AE
:1029B80038B5037A012B02D0022B12D038BDD0E9EA
:1029C8000645114BD3E9202320462946FEF70CF88B
:1029D8000028F3D10C4BC3E920450C20FFF784FBFA
:1029E800ECE7D0E90645084BD3E9222320462946DF
:1029F800FDF7FAFF0028E1D1034BC3E922450D207A
:102A0800FFF772FBDAE700BFA801002008B500F065
:102A180085FD0146A822024806F080F808BD00BFDF
:102A2800A801002008B5037E03B908BD00F076FDB3
:102A3800A822034906F072F800F074FDF5E700BF1C
:102A4800A8010020037E03B9704710B50024E0B246
:102A5800FFF70AFB0134102CF9D1FFF7D7FFFFF776
:102A680097FC10BD08B5037E03B908BD00F056FDFC
:102A7800FFF774FC00F056FDF7E708B5FFF766FCB2
:102A880000F06AFCFFF7C2FFFFF782FC08BD08B53B
:102A980040F2115005F0C4FA40F2125005F0C0FAA5
:102AA80040F2096005F0BCFA032005F0F3FA0020B3
:102AB80004F0A8FE0121084604F0B8FE4FF4602196
:102AC800012004F06BFF0121084604F039FF04F0EF
:102AD80063FE012000F0ECF904F078FE08BD08B5AB
:102AE8000B460022032105F0CFF808BD10B50146BA
:102AF8000522002004F0C4FE012004F071FF022426
:102B0800204604F08DFF0028FAD0022004F092FF3E
:102B180004F07EFF10BD08B504F04EFE40F20960D7
:102B280005F08CFA08BD000038B50446094D05F1DA
:102B38003C02002103F022FE05F135020021204667
:102B480003F01CFE05F125020021204603F016FEC5
:102B5800002038BD308D000810B50446812103F0EF
:102B6800F1FE0321204603F0EDFE8221204603F00A
:102B7800E9FE002010BD000010B50B7813F06003CB
:102B880028D0202B2DD14B78202B1AD0212B28D1BF
:102B9800244C2368244A13704FEA132C82F801C08E
:102BA8004FEA134C82F802C01B0ED37023791371BD
:102BB80063795371A3799371CB88802103F0B4FFB3
:102BC8000FE01A4B20221A60CB88174A002103F025
:102BD800F2FE06E04B780A2B05D00B2B09D0062B0A
:102BE80010D0002010BD0123114A802103F09CFF62
:102BF800F7E78B781BB90E4B00221A60F1E704F057
:102C0800C5FDEEE74B881B0A212B05D0094A3A235C
:102C1800802103F089FFE4E7CB883A2B28BF3A23C9
:102C2800054AF5E7040000205C02002000000020AF
:102C3800E4020020398D0008428D000808B5044BD5
:102C480000221A704023034A032103F0B4FE08BD92
:102C58000C00002064020020402900D9704708B504
:102C6800044B00221A708BB2034A812103F05CFFE7
:102C780008BD00BF0D000020A40200200F4B1B68F8
:102C8800FF2B18D00E490F4A507893781B0443EA5B
:102C9800002310780343D07843EA00630B6013796C
:102CA8000B7153794B7193798B71074B01221A7011
:102CB800024BFF221A600020704700BF000000206E
:102CC800040000205C0200200C00002010B501293F
:102CD80006D00C4631BBBAB1032A19D0022022E033
:102CE800012A01D002201EE0426B836A9A4204D076
:102CF8000D4B01221A70002015E000231A4601210D
:102D080003F012FF00200EE0FFF7B8FF02200AE0F0
:102D1800064B01221A70032103F04BFF044B186085
:102D2800204600E0022010BD0D0000200C0000200D
:102D38005802002000B583B08DF8070001210DF17D
:102D4800070000F0A5FE03B05DF804FB08B500F02D
:102D58009FFE08BD30B585B000283CD00446224A05
:102D680001AB07CA03C31A80204BA3FB0423DB086B
:102D780003EB8302A4EB420430348DF8044001A82D
:102D880001211A4D5BB3A5FB0342D20802EB820472
:102D9800A3EB4403303300F8013F1346013149B235
:102DA8000A29EFD10A23002001AA1FFA80FC12F891
:102DB8000CE0D45C02F80C4002F803E0013B9BB243
:102DC80001301FFA80FC6345EFD8013101A800F0FB
:102DD8005FFE05B030BD3020FFF7ACFFF9E78BB2DE
:102DE800002BE0D1F1E700BF588B0008CDCCCCCC4C
:102DF80010B5041E03DB2046FFF7ACFF10BD2D20E5
:102E0800FFF798FF6042F7E770B505460824054EBE
:102E18002B0FF05CFFF78EFF2D01631E13F0FF04EC
:102E2800F6D170BD8C8D000808B5FDF71DFB024674
:102E38000B460248FFF7E0F808BD00BF888D000880
:102E480000B583B08DF8070001210DF1070000F0EF
:102E58001FFE03B05DF804FB08B540F2115005F001
:102E6800DFF840F21D7005F0DBF810230022032183
:102E78004FF0904004F008FF382004F021FE04F0E1
:102E8800F7FD04F0E1FD04F007FE08BD08B50146B2
:102E9800002004F02DFE08BD08B504F007FE04F07C
:102EA800DDFD04F0EFFD40F21D7005F0C7F808BD28
:102EB80070B5084C2668206000F0FCFD236833B12B
:102EC8000125284600F024FA2368002BF9D1014B8C
:102ED8001E6070BDEC020020034B1B681BB1024A48
:102EE8001368013B13607047EC02002082B0002396
:102EF800019338B101461A46019B0133019301320F
:102F08009142F9D102B07047F8B50B4B1F681860B1
:102F18001B6853B10C460126074DA04728B9304617
:102F280000F0F6F92B68002BF7D1034B18681F60E7
:102F3800B0FA80F04009F8BDEC020020014BD3F84C
:102F4800AC07704700F0FF1F014BD3F8B00770477C
:102F580000F0FF1F014BD3F8B407704700F0FF1FC4
:102F6800800294464AB18C440B46C1F10061084482
:102F78001A5C03F8012B9C45FAD170472DE9F84FEC
:102F880007468946924604F0E5FD342004F032FEF7
:102F980007F50030800204F0F5FD342004F02AFE25
:102FA80004F0E8FD04F0D6FDBF0207F1006BBAF1AA
:102FB800030F3AD9AAF1040509F1040625F0030321
:102FC8001E444C46C9F100631F444FF03408617831
:102FD800A3781B0443EA012321780B43E17843EAF1
:102FE8000161381904F0ECFD404604F003FE043496
:102FF800B442ECD125F0030304339B449A4510D91D
:103008004B44D1440020014613F8012B8240114360
:1030180008309945F8D1584604F0D2FD342004F020
:10302800E9FD04F0A7FDBDE8F88F0023E6E7704747
:1030380008B500F0B1F808BD08B500F0ADF808BD56
:1030480008B500F0A9F808BD08B500F0A5F808BD56
:1030580070477047704708B500F0E0FA08BD08B53A
:1030680000F07EFB08BD08B503F0AAFD08BD00000E
:1030780010B540F2125004F0D3FF40F2157004F07E
:10308800CFFF1B4C40220121204604F051FE802234
:103098000121204604F04CFE402301220221204653
:1030A80004F0F2FD402303220121204604F014FE1F
:1030B800802301220221204604F0E6FD802303221A
:1030C8000121204604F008FE0A4C00220A49204645
:1030D80004F066FE722300221146204604F0C6FE64
:1030E800204604F0D9FE0121204604F0CCFE10BD94
:1030F8000004004800540040A086010010B540F2CA
:10310800165004F08DFF094C0223002201212046AD
:1031180004F0BAFD022303220021204604F0DCFD5E
:10312800034B0222C3F8282410BD00BF0014004836
:1031380000100048044A137843F001031370034B4E
:103148000222C3F818247047F0020020001000483B
:10315800044A137823F001031370034B0222C3F8C7
:1031680028247047F00200200010004800B970477A
:1031780038B50546064C237843F002032370054B07
:103188000222C3F8182400F059FA2844606038BDB8
:10319800F00200200010004808B5064CFFF7CAFFEF
:1031A8002046FFF7A3FEFFF7D3FF2046FFF79EFE5A
:1031B800F4E700BFA086010008B528B1094A1378D2
:1031C80043F00403137008BD064A137823F0040380
:1031D80013700220FFF76CFE034B0222C3F8282469
:1031E800F1E700BFF002002000100048144B1B78E4
:1031F80013F0010F05D113F0020F03D113F0040FE0
:103208000DD170470E4A52688242FAD223F0020367
:103218000B4A13700B4B0222C3F828247047C0F3E3
:103228000A0323B9074B0222C3F81824704710F089
:103238000F0FE6D1034B0222C3F82824E1E700BFB1
:10324800F00200200010004880B5FFF757FF4FF448
:10325800FA70FFF78BFF00F003FAFFF709FF00F0A1
:10326800BDF900F0A3FA00F03DF900F08FF9FFF77F
:1032780004FC01F0AFFF0120FFF79EFF40F214505D
:1032880000F002FB1F4F4FF000081F4E4FF00109DE
:103298000DE0384600F05AFA0546B0B986F80080C5
:1032A80000F008FC00F022FB484600F031F800F07E
:1032B80013FB384600F0ACFA0546404600F00CFC1B
:1032C800002DE6D00024234610E0484600F004FC18
:1032D800F8E701F087FF28B186F8009002E086F849
:1032E8000080013C01342346AC42D7D23A68D05C16
:1032F8003378002BEDD0012BF4D10A28EFD00D281C
:10330800F0D1ECE7FC020020F8020020704770477B
:1033180010B50446FFF7FAFF40F21C7004F080FE77
:1033280044B1022C0BD0012C0ED0032C10D0FFF787
:10333800EEFF10BD0021012004F022FEF9E7012173
:10334800084604F01DFEF4E7002004F00DFEF0E747
:10335800012004F009FEECE708B540F2115004F032
:103368005FFE40F2125004F05BFE08BD70B584B0F9
:103378000C4615460E4B53F820600E4B33F82000D0
:1033880004F04EFE304605F01DF8ADF8005000235D
:10339800ADF80230ADF804300294ADF806308DF87F
:1033A8000C306946304605F07BF804B070BD00BFAC
:1033B800CC8D0008D48D00082DE9F04385B00D466A
:1033C8009046244B53F82040234B33F811700026C5
:1033D800ADF806604FF00109CDF800906A4639460D
:1033E800204605F0DDF842463946204605F018FA31
:1033F80060223946204605F0EBF932463946204628
:1034080005F01CFA154B53F82570154B33F8155079
:103418002B46324602214FF0904004F035FC2B46F3
:10342800032231464FF0904004F056FC2A463946B4
:103438004FF0904004F07CFC204605F09DF849468A
:10344800204605F0A3F8204605F08CF805B0BDE845
:10345800F08300BFCC8D0008C08D00089C8D00084B
:10346800B48D000838B50A4B53F82040094B33F89F
:103478002050204605F085F80021204605F086F802
:10348800204605F074F8284604F0D8FD38BD00BF82
:10349800CC8D0008D48D000808B5FEF782FF022104
:1034A8000748FFF753FCBFF34F8F0649CA6802F479
:1034B800E062054B1343CB60BFF34F8F00BFFDE7BE
:1034C800DC8D000800ED00E00400FA0500487047B4
:1034D800B4030020014B93F8BC0070470803002098
:1034E8007047000010B50B4C052221463E20FFF71F
:1034F80037FD2268084B9A420BD000232370637073
:10350800A370E370204600F8043FFFF7E9FF024B81
:10351800236010BD000300201806212000487047D2
:103528000C03002008B5BD2202493F20FFF726FD05
:1035380008BD00BF0803002008B58C4651B1431EE2
:10354800074A0139C9B2084413F8011F02F8011FDC
:103558008342F9D1034B83F8BCC0FFF7E3FF08BDF2
:10356800B30300200803002008B5064A531EBC32E6
:10357800002103F8011F9342FBD10348FEF7EEFE3A
:1035880008BD00BF080300200C03002010B586B05A
:103598000F4CBD2221463F20FFF7E2FC22680D4B6D
:1035A8009A4201D106B010BDFFF7DEFF0DF1040C01
:1035B800094C0FCCACE80F0023688CF800301021C0
:1035C80001A8FFF7B9FF024B024A1A60EAE700BFF9
:1035D8000803002021201806E08D00080C4B1B680A
:1035E8000C4AA2FB03239B09013BB3F1807F0DD258
:1035F8004FF0E0225361084BF02183F8231000219B
:1036080091610720106183F823107047FEE700BF1F
:1036180080010020D34D621000ED00E010B5FFF7E7
:103628005BFC054C2068FFF7E1FD206800F064F9B9
:1036380023680133236010BDC8030020014B1868BC
:10364800704700BFC803002008B540F2077103485F
:1036580005F083F9003818BF012008BD0038014083
:1036680010B5002211461B2004F026FC40F2115030
:1036780004F0D6FC40F20E6004F0D2FC4FF4007265
:1036880001214FF0904004F053FB4FF48062012178
:103698004FF0904004F04CFB4FF4007301220221DC
:1036A8004FF0904004F0F0FA4FF40073012200212B
:1036B8004FF0904004F010FB4FF480630122022188
:1036C8004FF0904004F0E0FA4FF4806301220021AB
:1036D8004FF0904004F000FB0C4C204605F0D6F863
:1036E8004FF4E131204605F0EDF80821204605F0B9
:1036F8001CF90421204605F020F9204605F010F9B0
:103708000521204605F031F910BD00BF0038014001
:103718002DE9F843894689B1441E0844451EDFF85F
:103728002480094F052614F8011F404605F00DF9BD
:1037380039463046FFF7E8FBAC42F4D14846BDE8CD
:10374800F88300BF0038014051360008034B1A1DAA
:103758000260186800221A60704700BFCC0300207E
:1037680008B50A490A4805F00DF918B1094B1B6854
:103778001F2B00D908BD064805F0EBF8054B1A6861
:10378800511C196013441871F4E700BF05000507C0
:1037980000380140CC030020034B1878012814BFDF
:1037A80000200120704700BF0D00002038B540F20E
:1037B800165004F035FC002004F0AAFC40F2177003
:1037C80004F02EFC104C012300221946204604F078
:1037D8005BFA012303220021204604F07DFA0B4DF9
:1037E800284602F0B3FF4FF4C06004F05BFB0022F0
:1037F8000121252004F060FB0121204604F08EFA07
:1038080005236B7038BD00BF00140048100000206D
:103818000C4B5B78DBB2032B01D00020704710B54E
:103828000446094B1B78012B18BF002000D010BD9F
:103838000448FFF703FA054B186800221A60044B86
:103848002360F4E7100000200C000020580200203C
:10385800640200200A4B5B78DBB2032B01D0002006
:10386800704710B5044607490520FFF74DFB08B11E
:10387800002010BD21460248FFF7EEF92046F8E780
:1038880010000020A137000800B9704738B5044679
:10389800FFF7D4FE0E4A1060631D0E4981FB031327
:1038A8009DB203EB43035B00033B93804FF410602E
:1038B80004F0C2FC4FF41064204604F043FC0028D6
:1038C800FAD00621284604F0ADF904F0A3F938BD72
:1038D800F0030020ABAAAA2A08B5034B01229A716B
:1038E80004F090F908BD00BFF0030020014B00224E
:1038F8009A717047F0030020084B9B796BB910B59B
:103908000446064A938812681344834200D310BDC4
:1039180004F078F9014B1C60F9E77047F0030020C8
:1039280010B310B58446037843B1C0F1010E00EB23
:103938000E03DBB210F8014F002CF8D15B00023304
:1039480013800B7003234B709CF8000058B10223BE
:1039580000245A1CD2B2C8540233DBB28C541CF86F
:10396800010F0028F5D110BD7047B2B14B1C02F110
:10397800FF3C5FFA8CFC033101EB4C014FF0000C6B
:10398800020FB0F1204F34BF3032373203F8012C28
:10399800000103F802CB8B42F2D1704710B5024602
:1039A800034C21460348FFF7BBFF204610BD00BF6C
:1039B800F8030020F48D000810B50246034C214698
:1039C8000348FFF7ADFF204610BD00BFF8030020F5
:1039D800108E000838B51A230380FFF7AFFA0446A3
:1039E800FFF7B2FA0546FFF7B5FA201801D10748E4
:1039F80038BD064C0822A11CFFF7B7FF042204F1CA
:103A080012012846FFF7B1FFF1E700BFE0000020F0
:103A18000423038000487047DC00002008B5054BEC
:103A28001B7913B9FFF716FF08BD01460248FFF7D7
:103A38006FFEF9E7FC000020A402002038B5124B05
:103A48001D68C5F140038D420BD90C466D1A0E4A0C
:103A580015600A4601460D48184405F05FF82046EF
:103A680038BD094A002111602A4601460748184412
:103A780005F054F84020FFF7D1FF0028F0D0024BA2
:103A880040221A602846EBE7FC000020A402002030
:103A980070B50E4649B105460C4621462846FFF743
:103AA800CDFF20B10544241AF7D1304670BD301B34
:103AB800FCE7000008B5074B18683F2800D908BD87
:103AC800C0F14000FFF7AAFF0028F8D0014B4022C0
:103AD8001A60F4E7FC00002008B5054B1B79834207
:103AE80000D108BD024B1871FFF7E4FFF9E700BFEA
:103AF800FC00002070B582B01B238DF804305B23D6
:103B08008DF805308DF8061050B1054600240326BF
:103B1800314601A8FFF71AF90134E4B2A542F7D1FA
:103B280002B070BD08B54421FFF7E4FF08BD08B531
:103B38004321FFF7DFFF08BD08B54B210120FFF740
:103B4800D9FF08BD00B583B0064B1B68ADF804303B
:103B58001B0C8DF80630032101A8FFF7F7F803B016
:103B68005DF804FB1C8E000800B583B0064B1B688B
:103B7800ADF804301B0C8DF80630032101A8FFF7BF
:103B8800E5F803B05DF804FB208E000800B9704723
:103B980008B5FFF781FC08BD08B501790068FFF793
:103BA800CBFC08BD10B50446FFF790FC2060FFF77A
:103BB80091FC207110BD08B5FFF740FD08BD00005D
:103BC800024B00221A705A70704700BF3804002058
:103BD8000346354A1078032864D8DFE800F0020D60
:103BE80022381B2B03D0304B00225A7070472E4BC3
:103BF80001201870587070475A2B06D81B2B0AD012
:103C0800294B0020187058707047274B03221A70F0
:103C180000225A707047244B02221A7001225A70EF
:103C280070471B2B06D05A2B0AD81F4B0020187040
:103C3800587070471C4B00221A7002225A70704745
:103C4800194B03221A7000225A7001207047412B29
:103C58000DD0422B11D0432B16D0442B1BD01B2B3D
:103C6800114B0CBF012000201870587070470E4B84
:103C780000221A700220587070470B4B00221A70ED
:103C880003225A7002207047074B00221A70042240
:103C98005A7002207047044B00221A7005225A708D
:103CA800022070470020704738040020014B5878E4
:103CB800704700BF380400208B4211D893B1411ED1
:103CC800013A03F1FF3C5FFA8CFC844411F8010FC0
:103CD80012F8013F984207D16145F7D1012070479A
:103CE8000020704701207047002070472DE9F041FF
:103CF80000295FD0044616460F460B4602460121AE
:103D08002E48FFF7D9FF0546C0BB3B462246012196
:103D18002B48FFF7D1FF8046A0BB3B462246042133
:103D28002848FFF7C9FF054678BB3B4622460521D0
:103D38002548FFF7C1FF804658BB3B462246032172
:103D48002248FFF7B9FF054630BB3B462246022111
:103D58001F48FFF7B1FF804610BB3B4622460221B1
:103D68001C48FFF7A9FF0546E8B93B462246032150
:103D78001948FFF7A1FFD0B901251CE001233370D2
:103D8800002518E00023337015E001233370454601
:103D980011E0002333700EE00123337045460AE03A
:103DA8000023337007E001233370454603E0002306
:103DB800337000E001252846BDE8F081248E000814
:103DC800288E00082C8E0008348E00083C8E0008CF
:103DD800408E0008448E0008488E000808B50B463F
:103DE8000139C9B2012908D8024602210448FFF75F
:103DF80063FF003818BF012000E0002008BD00BFA5
:103E0800A48E000838B50C46002952D00546012971
:103E180003D9022919D900204CE00123024619468A
:103E28002E48FFF749FF002845D101232A461946A5
:103E38002B48FFF741FF00283FD101232A461946A6
:103E48002848FFF739FF002839D123462A4602219E
:103E58002548FFF731FFA0BB23462A460221234805
:103E6800FFF72AFF78BB23462A4602212048FFF79E
:103E780023FF50BB23462A4602211E48FFF71CFF9A
:103E880028BB23462A4602211B48FFF715FF00BB23
:103E980023462A4602211948FFF70EFFD8B92346C0
:103EA8002A4602211648FFF707FF002818BF0A20F4
:103EB80000E0084638BD0120FCE70220FAE70320AD
:103EC800F8E70420F6E70520F4E70620F2E70720E4
:103ED800F0E70820EEE70920ECE700BF7C8E000839
:103EE800808E0008848E0008608E0008648E0008AA
:103EF800688E00086C8E0008708E0008748E0008AA
:103F0800788E000838B50C4629B30546012903D92F
:103F1800022916D900201FE001230246194612483B
:103F2800FFF7CAFEC8B901232A4619460F48FFF70A
:103F3800C3FEA0B901232A4619460D48FFF7BCFE67
:103F480078B923462A4602210A48FFF7B5FE002819
:103F580018BF042000E0084638BD0120FCE7022015
:103F6800FAE70320F8E700BF588F00085C8F0008C5
:103F7800608F0008548F000838B54B1EDBB2012B48
:103F880012D805460C460B46024602210848FFF7A0
:103F980093FE58B923462A4602210648FFF78CFEAD
:103FA800002818BF022000E0002038BD0120FCE7EF
:103FB800908F0008948F000808B501F061FC0D4B44
:103FC8009B7813F0010F0AD00A4B00225A70997897
:103FD80062F3410199701A70FFF7F2FD08BD064BB4
:103FE80000221A715A711A735A739A731A755A758C
:103FF800EAE700BF3C0400204004002008B5FFF7B2
:10400800DBFF01F0A9FB00B908BD01F08DFB01F051
:104018009BFBF9E710B5044605E0204601F0FAFBE2
:10402800FEF788FE013401F097FBA042F5D810BDD9
:1040380070B50646002303701046002A56D01A466B
:1040480004E001335BB21A46984244DDCC5C202C74
:10405800F7D0092CF5D090423BDD2B2C4CD02D2CE1
:1040680006D00122984236DD4FF0000C264D14E0B0
:10407800013290423AD001335BB22D2C0CBF4FF085
:10408800FF320122EEE70CEB8C0C01335BB2AEF190
:10409800300E0EEB4C0C984212DD11F803E0AEF135
:1040A8003004E4B2092C21D8AC4503DCEBD1BEF1D5
:1040B800370FE8D902460C2001F0CEFB00201AE0A9
:1040C8000CFB02F0002806DD10280ADC01233370FF
:1040D80011E00122C6E70121102001F0E5FB0020D4
:1040E80009E01021112001F0DFFBF8E70246092062
:1040F80001F0B2FB002070BD01329042F6D00133CE
:104108005BB20122AEE700BFCCCCCC0C30B583B09B
:1041180005469D4B93F801C00CF1010C5FFA8CFC2D
:1041280083F801C0994B5B7D012B04D0022B00F072
:10413800F88103B030BDBCF1020F64D0BCF1030FAD
:1041480000F06781BCF1010F05D0CAB20146072013
:1041580001F082FBEDE7CCB28C4B00221A71042CE3
:1041680000F251842346024604218948FFF7A4FD42
:1041780088BB032C0DD823462A4603218548FFF720
:104188009BFD60BB23462A4603218348FFF794FD25
:1041980048BB23462A4604218048FFF78DFD30BBE3
:1041A80023462A4604217E48FFF786FD18BB23468E
:1041B8002A4606217B48FFF77FFD00BB23462A4697
:1041C80006217948FFF778FD002800F022846F4B1C
:1041D80007221A71ADE76D4B01221A71A9E76B4BE3
:1041E80002221A71A5E7694B03221A71A1E7674BEE
:1041F80004221A719DE7654B05221A7199E7634BF2
:1042080006221A7195E7CCB2604B00225A711B79CD
:10421800013B062B1CD8DFE803F004172630557A3B
:10422800D70000238DF80730224601460DF107001C
:10423800FFF7FEFE9DF80730002B3FF47AAF534B93
:1042480001225A71986074E72146FFF7C7FD28B923
:1042580022462946072001F0FFFA6AE74B4A022165
:104268005171107265E72146FFF7CCFD0028EFD0A9
:10427800464A0321517110725BE7062C15D8234674
:10428800024606214948FFF717FD50B923462A463A
:1042980009214748FFF710FD48B13C4B05225A71E8
:1042A80047E73A4B04225A7143E7092CEED92146D5
:1042B8002846FFF727FE0028CAD0344A0621517144
:1042C800107236E7062C15D82346024606213948CF
:1042D800FFF7F2FC50B923462A4609213648FFF772
:1042E800EBFC48B1294B08225A7122E7274B0722D9
:1042F8005A711EE7092CEED921462846FFF73CFEE5
:104308000028A5D0214A09215171107211E7042C07
:1043180036D82346024604212848FFF7CDFCC8B901
:1043280023462A4604212648FFF7C6FCE8B9234657
:104338002A4605212348FFF7BFFC002888D0134AE6
:104348000C23537110498B7843F002038B700123BF
:104358001376EEE60D4A0A2353710B498B7843F026
:1043680002038B7001231376E3E6084A0B2353718B
:1043780005498B7843F002038B7001231376D8E646
:10438800052C3FF665AFD2E73C040020400400202E
:10439800048F0008A88E0008888E0008708F000817
:1043A800A48F0008948E0008B48E00084C8F000873
:1043B800648F0008888F0008988F0008C48F000851
:1043C8002C8F0008B48F0008042C1ED82346024600
:1043D8000421A148FFF770FC98B923462A46072113
:1043E8009E48FFF769FC00283FF432AF9C4A0E2331
:1043F80053719C498B7843F002038B700123137629
:1044080097E6974B0D225A7193E6072C3FF620AF9B
:10441800E3E7CCB2924B00221A735B79013B082B7D
:1044280043D8DFE803F0051F3942424C4242650099
:10443800052C06D82346024605218B48FFF73CFC8D
:1044480060B9042C31D823462A4604218748FFF74F
:1044580033FC50B3824B02221A736AE6804B012266
:104468001A7366E6052C06D82346024605218048BD
:10447800FFF722FC60B9042C17D823462A460421EA
:104488007C48FFF719FC80B1754B04221A7350E67B
:10449800734B03221A734CE6042C06D823460246B3
:1044A80004217548FFF708FC28B922462946072049
:1044B80001F0D2F93DE66A4B05221A7339E6042C5D
:1044C800F3D82346024604216C48FFF7F5FB58B998
:1044D80023462A4604216A48FFF7EEFB0028E4D069
:1044E8005F4B07221A7324E65D4B06221A7320E6F7
:1044F800042CDAD82346024604216248FFF7DCFB85
:1045080058B923462A4604215F48FFF7D5FB0028FF
:10451800CBD0534B09221A730BE6514B08221A735E
:1045280007E6BCF1020F5DD0BCF1030F00F06C810F
:10453800BCF1010F05D0CAB20146072001F08CF981
:10454800F7E5CCB2464B00225A73042C00F246829F
:104558002346024604214D48FFF7AEFB50BB032C0F
:104568000DD823462A4603214948FFF7A5FB28BB57
:1045780023462A4603214748FFF79EFB10BB2346E4
:104588002A4604214448FFF797FBF8B923462A46F0
:1045980004214248FFF790FBE0B923462A4606214A
:1045A8003F48FFF789FBC8B922462946072001F092
:1045B80053F9BEE52A4B01225A73BAE5284B022269
:1045C8005A73B6E5264B03225A73B2E5244B0422EC
:1045D8005A73AEE5224B05225A73AAE5204B0622F0
:1045E8005A73A6E5CCB21E4B00229A735B7B013B43
:1045F800052B1BD8DFE803F0031625567BA1002303
:104608008DF80730224601460DF10700FFF710FD2F
:104618009DF80730002B3FF48CAD114B01229A73A3
:10462800186186E52146FFF7D9FB28B922462946B5
:10463800072001F011F97CE5094A022191731074F1
:1046480077E52146FFF7DEFB0028EFD0044A032177
:10465800917310746DE500BF348F0008BC8F00089B
:10466800400400203C0400200C8F0008EC8E000859
:10467800AC8E00089C8E0008588E00083C8F0008FD
:10468800448F0008788F0008808F0008048F000886
:10469800A88E0008888E0008708F0008A48F000874
:1046A800B48E0008062C15D82346024606219748E2
:1046B800FFF702FB50B923462A4609219448FFF721
:1046C800FBFA48B1934B05229A7332E5914B0422C9
:1046D8009A732EE5092CEED921462846FFF712FCDD
:1046E8000028A3D08B4A06219173107421E5062C6B
:1046F80015D82346024606218748FFF7DDFA50B948
:1047080023462A4609218548FFF7D6FA48B1814B46
:1047180008229A730DE57F4B07229A7309E5092C45
:10472800EED921462846FFF727FC00283FF47EAF44
:10473800784A092191731074FBE4082C15D8234694
:10474800024608217648FFF7B7FA50B923462A46A9
:104758000D217448FFF7B0FA48B16E4B0B229A73DB
:10476800E7E46C4B0A229A73E3E40D2CEED9042C8F
:1047780037D823462A4604216B48FFF79DFA60BBC9
:1047880023462A4607216948FFF796FA002840F091
:104798003581022C06D823462A4602216448FFF7B1
:1047A8008BFA28BB23462A4607216248FFF784FA7A
:1047B80010BB23462A4608215F48FFF77DFAF8B95F
:1047C80023462A4608215D48FFF776FA00283FF479
:1047D8002DAF504B11229A73ABE44E4B0C229A73B7
:1047E800A7E4072C40F20181082C3FF61FAFE0E751
:1047F800484B0E229A739CE4464B0F229A7398E416
:10480800444B10229A7394E4CCB2424B00221A759E
:104818009B7B013B102B00F2C680DFE803F00926E2
:1048280043C4C45EC4C4A1C4C4C4C4C4C4BBD0000B
:10483800052C06D82346024605214148FFF73CFAD5
:1048480078B9042C00F2AF8023462A4604213D485B
:10485800FFF732FA002800F0A6802E4B02221A75C4
:1048680067E42C4B01221A7563E4052C06D823460D
:10487800024605213448FFF71FFA78B9042C00F2E4
:10488800928023462A4604213048FFF715FA00286B
:1048980000F089801F4B04221A754AE41D4B03223D
:1048A8001A7546E4052C06D82346024605212848F1
:1048B800FFF702FA68B9042C75D823462A46042162
:1048C8002448FFF7F9F900286DD0124B06221A7513
:1048D8002FE4104B05221A752BE4042C63D82346C9
:1048E800024604211C48FFF7E7F958B923462A462F
:1048F80004211A48FFF7E0F9002854D0054B082294
:104908001A7516E4034B07221A7512E44C8F000837
:10491800648F000840040020888F0008988F0008E2
:10492800CC8E0008BC8E0008348F0008CC8F00089D
:10493800288F0008D48F0008D88E0008148F00082C
:104948000C8F0008EC8E0008AC8E00089C8E0008C6
:104958008C8E0008588E00083C8F0008448F000891
:10496800042C20D82346024604212D48FFF7A4F939
:1049780058B923462A4604212A48FFF79DF990B1E1
:10498800294B0A221A75FFF7D4BB274B09221A753F
:10499800FFF7CFBB072C06D823460246072123483A
:1049A800FFF78AF930B922462946072000F054FF5C
:1049B800FFF7BFBB1C4B0B221A75FFF7BABB072CBE
:1049C800F1D82346024607211948FFF775F9002850
:1049D800E9D0154B0C221A75FFF7ABBB032C7FF6F9
:1049E800C0AD062C3FF6E0ADD7E523462A460721A1
:1049F8001048FFF761F900283FF4D4AE0A4B0D22A6
:104A08009A73FFF796BB032C7FF6B5AB062C7FF69F
:104A1800CEAB22462946072000F01EFFFFF789BBD0
:104A2800788F0008808F000840040020E48E00087A
:104A3800208F0008CC8F000808B5884202D3904226
:104A480004D808BD0E2000F029FFFAE711460F2010
:104A580000F024FFF5E700002DE9F04F8BB0089235
:104A6800002900F0E18005460E460024224605E0B4
:104A7800013464B22246B44280F2B0802B5D202B10
:104A8800F6D0092BF4D0964240F39A802B2B00F0F5
:104A9800DB802D2B00F0DF80012309932246B442EE
:104AA80080F29180E4B204F1010A5FFA8AFA0020E8
:104AB8006D49CDE9000100200021CDE90201CDE9D1
:104AC80004014FF0000B4FF00008DFF8A091731EAF
:104AD800079337465E46AB464BE0002E40F0A68073
:104AE800012F00F0A58033B99BF801103039C9B205
:104AF800092900F29F800799914211D00BEB03021C
:104B080012F8012C303AD2B2092A11D95B445B78E9
:104B1800303BDBB2092B0BD901200BB0BDE8F08F7D
:104B28005B4413F8013C303BDBB2092B00F2848074
:104B38004FFA8AF3012613E042464B46DDE90401A9
:104B4800FBF7EAFCCDE90401A5F13000FBF77AFC9C
:104B5800DDE90423FBF72AFBCDE904014FFA8AF3C8
:104B68001A460134E4B20AF1010A5FFA8AFABB4232
:104B780040DA63B21BF803502E2DAED0A5F13003F6
:104B8800DBB2092B5AD8002ED6D042464B46DDE977
:104B98000201FBF7C1FCCDE90201A5F13000FBF7EA
:104BA80051FCDDE90223FBF701FBCDE90201424696
:104BB8004B46DDE90001FBF7AFFCCDE90001CDE78D
:104BC800012309936AE70023274CCDE90034002329
:104BD8000024CDE90234CDE904340BE00123099324
:104BE8000023214CCDE9003400230024CDE9023410
:104BF800CDE90434DDE90023DDE90201FBF7B6FD68
:104C0800DDE90423FBF7D2FA04460D460998FBF7C1
:104C180019FC02460B4620462946FBF77DFC089BFB
:104C2800C3E90001002078E7012076E7012074E756
:104C3800384672E7012070E701206EE701206CE733
:104C480030466AE7304668E7012EF9D0013464B28D
:104C58000123099322E7012EF4D0013464B24FF006
:104C6800FF3309931AE700BF0000F03F000024401B
:104C7800002942D030B50C4600231D4604E001331C
:104C88005BB21D46A34234DAC15C2029F7D009295A
:104C9800F5D0AC4206DCA342A8BF00212ADA0021E5
:104CA8001A4D13E02D292AD02B29F4D101335BB2F8
:104CB800A342F0D101201FE001EB810101335BB277
:104CC800ACF1300C0CEB4101A34213DA10F803C02D
:104CD800ACF1300E5FFA8EFEBEF1090F11D8A94271
:104CE80011D8E9D1ACF1300EBEF1050FE4D902209C
:104CF80002E000211160002030BD01207047032030
:104D0800FAE70120F8E70220F6E700BF9999991918
:104D180070B50546B14B5B78022B08D0032B00F029
:104D2800F280CAB22946092000F096FD70BDAC4B4E
:104D38005B79042B21D0052B44D0072B67D0082B97
:104D480000F08A800A2B00F0AC800B2B00F0B780B3
:104D58000C2B00F0C2800D2B00F0CD800E2BE0D183
:104D6800CCB2A04A2146FEF7C1FF0028DED0224679
:104D78002946092000F070FDD8E7CCB2994A2146AF
:104D8800FFF776FF022811D0032815D0012807D095
:104D98004FF0FF320121924B9869FFF74DFEC5E7AE
:104DA80022462946092000F057FDBFE7224629463A
:104DB8000C2000F051FDB9E7224629460B2000F0EF
:104DC8004BFDB3E7CCB2874A2146FFF751FF0228D3
:104DD80011D0032815D0012807D04FF6FF72012102
:104DE8007F4B9869FFF728FEA0E72246294609204D
:104DF80000F032FD9AE7224629460C2000F02CFDEF
:104E080094E7224629460B2000F026FD8EE7CCB217
:104E1800744A2146FFF72CFF022811D0032815D029
:104E2800012807D04FF6FF7201216D4B9869FFF7F3
:104E380003FE7BE722462946092000F00DFD75E7B1
:104E4800224629460C2000F007FD6FE72246294636
:104E58000B2000F001FD69E7CCB2624A2146FFF75A
:104E680007FF022811D0032815D0012807D04FF6D4
:104E7800FF7201215A4B9869FFF7DEFD56E722467B
:104E88002946092000F0E8FC50E7224629460C2074
:104E980000F0E2FC4AE7224629460B2000F0DCFC41
:104EA80044E7CCB24F4A2146FEF720FF00283FF4E2
:104EB8003DAF22462946092000F0CEFC36E7CCB2A9
:104EC800484A2146FEF712FF00283FF42FAF22463A
:104ED8002946092000F0C0FC28E7CCB2414A214607
:104EE800FEF704FF00283FF421AF22462946092097
:104EF80000F0B2FC1AE7CAB2102A00F20B81384B54
:104F080098611A7712E7364B1E7B012E22D0022EAB
:104F18002FD0032E4ED0042E7CD0052E00F0888092
:104F2800062E00F09380072E00F0BB80082E00F0BC
:104F3800C680092E7FF4F5AECCB22A4A2146FEF788
:104F4800D5FE00283FF4F2AE22462946092000F09B
:104F580083FCEBE6CCB203F118022146FEF7C6FE4D
:104F680000283FF4E3AE22462946092000F074FCED
:104F7800DCE611F0FF0414D0052C10D823460246B5
:104F880005211948FEF798FE002840F0C8802346FE
:104F98002A4606211548FEF78FFE10B1C0E0062C00
:104FA800F5D90F4B00221A7622462946092000F02F
:104FB80053FCBBE6CCB20B4A2146FFF759FE022848
:104FC8001CD0032820D0012812D040F6FF720021FF
:104FD800034B9869FFF730FDA8E600BF3C040020AA
:104FE8004004002058040020F48E0008FC8E0008BD
:104FF80022462946092000F02FFC97E6224629463A
:105008000C2000F029FC91E6224629460B2000F0EE
:1050180023FC8BE6CCB2444A2146FEF767FE002803
:105028003FF484AE22462946092000F015FC7DE6AF
:10503800CCB23D4A2146FEF759FE00283FF476AE31
:1050480022462946092000F007FC6FE6CCB2364A12
:105058002146FFF701FD28B122462946092000F024
:10506800FBFB63E6314BD3E90645002200232046CB
:105078002946FBF7C3FC70B900222D4B2046294670
:10508800FBF7DAFC00283FF451AE0022284B13202E
:1050980000F010FC4AE600220023122000F00AFC6F
:1050A80044E6CCB2204A2146FEF720FE00283FF411
:1050B8003DAE22462946092000F0CEFB36E6CCB2AA
:1050C800194A2146FFF7C8FC28B12246294609207B
:1050D80000F0C2FB2AE6154BD3E90645002200235F
:1050E80020462946FBF78AFC70B90022104B20465F
:1050F8002946FBF7A1FC00283FF418AE00220C4B10
:10510800132000F0D7FB11E600220023122000F044
:10511800D1FB0BE601460A2000F09EFB06E60126BD
:10512800024B1E7602E600BF58040020400400200F
:105138000000F03F704708B50379072B0FD143797A
:105148000D2B05D00E2B07D1007EFEF71FFD08E0C2
:105158001830FEF721FD04E001F0CCF801E001F081
:10516800C9F808BD7047000038B5054611F0FF04BE
:1051780011D0052C06D82346024605211048FEF713
:105188009BFD88B9042C06D823462A4604210D48DD
:10519800FEF792FD70B90C4B00225A75224629463B
:1051A800022000F059FB38BD074801234375FFF77B
:1051B800C1FFF8E7044802234375FFF7D3FFF2E77E
:1051C800DC8F0008AC8F00084004002008B501F00F
:1051D8000FF808BD08B502210148FDF7B7FD08BD65
:1051E800DC8D00082DE9F04F83B00446B54BC35C55
:1051F80013F0970F40F07F821B2805D8B24BC340AD
:1052080013F0010F40F077827F2C00F074820221A6
:10521800AE48FDF79BFD002000F0F6FA044600F0CA
:105228009BFAC2B22146012000F016FB00F04EFBAB
:10523800FEF7C2FE00F088FA0221A548FDF786FDB8
:10524800012003B0BDE8F08FFEF730FD04280FD031
:10525800052817D000F086FAC0B2FEF763FCFEF707
:105268006BFC00F061FA0020FEF7D4FE0020E8E7AE
:1052780000F0E2FA08B10020E3E70120FEF757FC4E
:105288000020DEE700F0CCFA08B10020D9E70120C1
:10529800FEF748FC0020D4E72046FDF74BFD0D2C17
:1052A8001DD0032C2FD01A2C2DD07F2C00F02E824D
:1052B80014F0800F03D10A2C14D00D2C12D02046E4
:1052C80000F056FA002840F0F08100F04BFA04464E
:1052D80000F042FA8442C0F001820020B1E70A20BF
:1052E800FDF728FD00F0C6FAA8B900F035FAA0B11C
:1052F80001250024A14601942646764FDFF8D8B14F
:10530800DFF8D8A1AEE0FEF779FE04217448FDF776
:105318001DFD012095E700F0D9FA00F0ABFA50B96D
:105328006D4B1A6801321A605B7D012B00F0A48175
:10533800022B00F0A58102216548FDF707FDFEF765
:105348005DFE00207DE7202800F08680092800F017
:1053580083802E2805D03D2803D001233B702646A4
:105368007AE0E0B200F092FA76E02E280FD03D28DD
:105378000DD0202801D009286ED102233B70304679
:1053880000F042FA4146FFF7EFFE2E4664E00020A7
:1053980000F03AFA804600F0DFF9C2B24146052033
:1053A80000F05AFA58E0202856D0092854D02E2860
:1053B80006D03D2804D003233B70A14626464BE087
:1053C800E0B200F063FA47E02E280FD03D2817D04E
:1053D800202801D009283FD1304600F015FA41466F
:1053E800FEF794FE2E4605233B7035E0304600F06C
:1053F8000BFA4146FEF78AFE04233B702E462BE04B
:105408009BF81530012B0AD0484600F0FDF90146FB
:10541800A4EB0902D2B20D2000F01EFA1CE03046BF
:1054280000F0F2F94146FEF771FE2E4606233B7066
:1054380012E0A0F12003DBB21D2B04D82AFA03F3F3
:1054480013F0010F05D1092803D003233B7026462A
:1054580002E0E0B200F01AFA00F00CFA0135002878
:105468006AD1013400F078F9A04268D9204600F0EA
:10547800D1F9A4EB06083B78082BEDD801A252F825
:1054880023F000BF4F53000873530008AF530008C0
:10549800D15300083B540008B15400080B550008CC
:1054A8001D550008315500082028D5D00928D3D02B
:1054B8003D2822D19BF81530012B13D106233B70D0
:1054C8002E46C9E74D9200080824000C548E0008A7
:1054D800DC8D00083C04002040040020014000202E
:1054E8004C8E0008484600F08FF90146A4EB0902EB
:1054F800D2B20D2000F0B0F9AEE7E0B200F0C6F984
:10550800AAE72028A8D00928A6D007233B70019530
:105518002646A1E7202803D0092801D001959BE75A
:1055280008233B70019497E7202895D0092893D049
:1055380007233B7001958FE700F0C8F9EDE600F00E
:105548000BF9841B744B1B78082B11D8DFE803F088
:1055580005182E3E5C6779848C00002000F054F911
:10556800044600F0F9F8C2B22146052000F074F9AB
:1055780000F080F900283FF4D0AE00F0A7F9CCE69F
:10558800304600F041F92146FFF7EEFD634B5B7DA5
:10559800012BEDD1002000F037F9044600F0DCF8CB
:1055A800C2B22146062000F057F9E1E75B4B5B7D6C
:1055B800012BDDD1002000F027F9044600F0CCF8DB
:1055C800C2B22146062000F047F9D1E7304600F084
:1055D8001BF92146FEF79AFD00F04CF903464F4AA5
:1055E800527D012AC4D14C4A927802F00202134338
:1055F80013F0FF0FBCD1304600F006F90146E2B2C5
:10560800082000F029F9B3E700F0A6F8013800F007
:10561800FBF801460122062000F01EF9A8E73F4BDF
:105628005B7D012BA4D13C4B9B7813F0020F9FD1DB
:10563800304600F0E9F80146E2B2082000F00CF923
:1056480096E700F089F8013800F0DEF801460122FB
:10565800082000F001F98BE7304600F0D5F8019BEF
:10566800991BFFF755FB83E7304600F0CDF8019B07
:10567800991BFFF74DFB7BE72848FFF75CFD5AE6CF
:105688002648FFF7A3FD56E600F06CF80446012013
:10569800FEF748FAFEF756FAFEF74EFA2046FEF7EE
:1056A800B9FCFEF761FA0020CBE502211C48FDF7A2
:1056B8004DFB002000F0A8F8044600F04DF8C2B2F7
:1056C8002146042000F0C8F800F000F9FEF796FC27
:1056D80002211448FDF73AFB0120B2E5FEF732FA41
:1056E800FEF72AFA2046FEF795FCFEF73DFA002061
:1056F800A7E50020A5E52046FEF76AFA0128F8D0BC
:1057080002283FF4A1AD7F2C7FF4C6AD00F058F815
:105718000028B9D0002094E53C0400204004002073
:10572800548E0008DC8D0008064B9A6E9A4203F1ED
:105738003403A3F1340218BF134693661B6BD36678
:10574800704700BF04010020024B996E00220A63D3
:10575800DA66704704010020014B9B6E186B704796
:1057680004010020014BD86E704700BF04010020DF
:10577800124B9B6E1B6B2F2B1DD800B50F4AD26E98
:105788009A420AD20D498A6E9C46013B12F803E000
:1057980002F80CE0CA6E9342F5D8084B996EDA6E9F
:1057A8008854996E0A6B01320A63DA6E0132DA663E
:1057B80000205DF804FB0120704700BF04010020B1
:1057C800104B9B6E196BC9B10E4BDB6EC3B110B495
:1057D8008B4208D20B4CA26ED05C1A4402F8010C22
:1057E80001339942F7D1074B996E0A6B013A0A6364
:1057F800DA6E013ADA66002010BC70470120704763
:105808000120704704010020014B9B6E184470472B
:1058180004010020014B9B6E185C704704010020B6
:10582800044BDB6E23B1013B024AD366002070476C
:105838000120704704010020064AD36E926E126B55
:10584800934204D20133034AD366002070470120F3
:10585800704700BF0401002008B5054B18701F2AC7
:1058680028BF1F2283F82820581C03F057F908BDC9
:1058780060040020014B1878704700BF60040020C6
:10588800014B00221A70704760040020024B03226B
:105898001A7083F82800704760040020014B1870C4
:1058A8009962704760040020014B18709962704734
:1058B8006004002030B414461D46034B1870C3E939
:1058C8000A4530BC704700BF6004002070B56D4BBE
:1058D8001B78032B13D100247E266A4D3046FDF732
:1058E80029FA95F82820A24204F10104F6DA5E208C
:1058F800FDF720FA0F216448FDF728FA45E0022158
:105908006248FDF723FA5F4B1B78132B33D801A2AB
:1059180052F823F0935900086D5900087759000888
:10592800DF580008955900089F590008A959000830
:10593800B3590008BD590008C7590008D1590008D3
:10594800DB590008E5590008EF590008275A0008F4
:10595800595A0008F9590008F9590008275A000847
:10596800595A00081C214A48FDF7F0F90DE00E21AC
:105978004848FDF7EBF9434890F828100130FDF747
:10598800E5F903214448FDF7E1F970BD13214348C7
:10599800FDF7DCF9F9E712214148FDF7D7F9EAE705
:1059A80017214048FDF7D2F9E5E72A213E48FDF7DF
:1059B800CDF9E0E714213D48FDF7C8F9DBE70F21F1
:1059C8003B48FDF7C3F9D6E713213A48FDF7BEF97E
:1059D800D1E71A213848FDF7B9F9CCE7172137483C
:1059E800FDF7B4F9C7E712213548FDF7AFF9C2E76B
:1059F80022213448FDF7AAF9224B1B78102B07BF48
:105A08000D2131480C213148FDF7A0F91D4B986A4A
:105A1800FDF7EEF902212E48FDF798F9B5E71D21AB
:105A28002C48FDF793F9174B1B780E2B0BD0154B11
:105A3800D3E90A01FBF752F8FDF7F6F902212448E9
:105A4800FDF784F9A1E70F4B986AFDF783F9F5E7AD
:105A58001C212148FDF77AF90A4B1B780F2B0BD034
:105A6800084BD3E90A01FBF739F8FDF7DDF9022104
:105A78001748FDF76BF988E7024B986AFDF76AF952
:105A8800F5E700BF6004002018900008E48F0008C4
:105A9800E88F0008089000087C910008289000080A
:105AA8003C90000850900008689000089490000806
:105AB800AC900008BC900008D0900008EC9000085A
:105AC80004910008189100084C9100086C91000896
