:020000040800F2
:1000000000200020FD7E0008032C0008052C0008BD
:100010000D2C0008152C00081D2C00080000000005
:10002000000000000000000000000000252C000877
:10003000272C000800000000292C00082B2C0008A9
:100040005D7F00085D7F00085D7F00085D7F000820
:100050005D7F00085D7F00085D7F00085D7F000810
:100060005D7F00085D7F00085D7F00085D7F000800
:100070005D7F00085D7F00085D7F00085D7F0008F0
:100080005D7F00085D7F0008000000005D7F0008C4
:100090005D7F00085D7F00085D7F00085D7F0008D0
:1000A0005D7F00085D7F00085D7F0008332C00083D
:1000B0005D7F0008000000005D7F00080000000078
:1000C0005D7F0008000000005D7F00085D7F000884
:1000D0005D7F00083B2C00085D7F000800000000E9
:1000E00000000000000000005D7F00085D7F000848
:1000F0005D7F00085D7F00085D7F00085D7F000870
:100100005D7F000800000000000000005D7F000827
:1001100000000000000000000000000000000000DF
:1001200000000000000000000000000000000000CF
:1001300000000000000000000000000000000000BF
:1001400000000000000000000000000000000000AF
:1001500000000000000000005D7F00085D7F0008D7
:080160005D7F00085D7F0008CF
:1001680010B5054C237833B9044B13B10448AFF3E9
:1001780000800123237010BDC8010020000000008A
:10018800C47F000808B5034B1BB103490348AFF30C
:10019800008008BD00000000CC010020C47F0008DA
:1001A8004FF0FF0C1CEAD0521EBF1CEAD15392EA52
:1001B8000C0F93EA0C0F6FD01A4480EA010C40022E
:1001C80018BF5FEA41211ED04FF0006343EA501088
:1001D80043EA5111A0FB01310CF00040B1F5000FCA
:1001E8003EBF490041EAD3715B0040EA010062F179
:1001F8007F02FD2A1DD8B3F1004F40EBC25008BF63
:1002080020F00100704790F0000F0CF0004C08BF80
:1002180049024CEA502040EA51207F3AC2BFD2F14D
:10022800FF0340EAC250704740F400004FF000035B
:10023800013A5DDC12F1190FDCBF00F00040704795
:10024800C2F10002410021FA02F1C2F1200200FAD3
:1002580002FC5FEA310040F1000053EA4C0308BF9A
:1002680020EADC70704792F0000F00F0004C02BFEB
:10027800400010F4000F013AF9D040EA0C0093F066
:10028800000F01F0004C02BF490011F4000F013BC0
:10029800F9D041EA0C018FE70CEAD15392EA0C0F2E
:1002A80018BF93EA0C0F0AD030F0004C18BF31F099
:1002B800004CD8D180EA010000F00040704790F06F
:1002C800000F17BF90F0004F084691F0000F91F013
:1002D800004F14D092EA0C0F01D142020FD193EAD9
:1002E8000C0F03D14B0218BF084608D180EA010061
:1002F80000F0004040F0FE4040F40000704740F03D
:10030800FE4040F44000704781F0004102E000BF29
:1003180083F0004330B54FEA41044FEA430594EABD
:10032800050F08BF90EA020F1FBF54EA000C55EAF8
:10033800020C7FEA645C7FEA655C00F0E2804FEAC9
:100348005454D4EB5555B8BF6D420CDD2C4480EAAB
:10035800020281EA030382EA000083EA010180EADB
:10036800020281EA0303362D88BF30BD11F0004F29
:100378004FEA01314FF4801C4CEA113102D040425F
:1003880061EB410113F0004F4FEA03334CEA13339A
:1003980002D0524263EB430394EA050F00F0A780B2
:1003A800A4F10104D5F1200E0DDB02FA0EFC22FAAD
:1003B80005F2801841F1000103FA0EF2801843FAA1
:1003C80005F359410EE0A5F120050EF1200E012A92
:1003D80003FA0EFC28BF4CF0020C43FA05F3C018D0
:1003E80051EBE37101F0004507D54FF0000EDCF149
:1003F800000C7EEB00006EEB0101B1F5801F1BD3F2
:10040800B1F5001F0CD349085FEA30004FEA3C0CF5
:1004180004F101044FEA445212F5800F80F09A80EB
:10042800BCF1004F08BF5FEA500C50F1000041EBEF
:10043800045141EA050130BD5FEA4C0C404141EBF3
:100448000101013C28BFB1F5801FE9D291F0000FEE
:1004580004BF01460020B1FA81F308BF2033A3F19D
:100468000B03B3F120020CDA0C3208DD02F1140C94
:10047800C2F10C0201FA0CF021FA02F10CE002F1CF
:100488001402D8BFC2F1200C01FA02F120FA0CFCC8
:10049800DCBF41EA0C019040E41AA2BF01EB045111
:1004A800294330BD6FEA04041F3C1CDA0C340EDC0F
:1004B80004F11404C4F1200220FA04F001FA02F352
:1004C80040EA030021FA04F345EA030130BDC4F110
:1004D8000C04C4F1200220FA02F001FA04F340EA05
:1004E8000300294630BD21FA04F0294630BD94F0B6
:1004F800000F83F4801306BF81F480110134013D9D
:100508004EE77FEA645C18BF7FEA655C29D094EA0D
:10051800050F08BF90EA020F05D054EA000C04BF8B
:100528001946104630BD91EA030F1EBF0021002076
:1005380030BD5FEA545C05D14000494128BF41F015
:10054800004130BD14F580043CBF01F5801130BD79
:1005580001F0004545F0FE4141F470014FF0000004
:1005680030BD7FEA645C1ABF194610467FEA655CB5
:100578001CBF0B46024650EA013406BF52EA033557
:1005880091EA030F41F4002130BD00BF90F0000F45
:1005980004BF0021704730B54FF4806404F1320481
:1005A8004FF000054FF0000150E700BF90F0000F3A
:1005B80004BF0021704730B54FF4806404F1320461
:1005C80010F0004548BF40424FF000013EE700BF31
:1005D80042004FEAE2014FEA31014FEA02701FBFC1
:1005E80012F07F4393F07F4F81F06051704732F0F3
:1005F8007F4208BF704793F07F4F04BF41F400214A
:10060800704730B54FF4607401F0004521F00041A7
:100618001CE700BF50EA010208BF704730B54FF031
:1006280000050AE050EA010208BF704730B511F032
:10063800004502D5404261EB41014FF4806404F16A
:1006480032045FEA915C3FF4D8AE4FF003025FEAF0
:10065800DC0C18BF03325FEADC0C18BF033202EB74
:10066800DC02C2F1200300FA03FC20FA02F001FACE
:1006780003FE40EA0E0021FA02F11444BDE600BF71
:1006880070B54FF0FF0C4CF4E06C1CEA11541DBF20
:100698001CEA135594EA0C0F95EA0C0F00F0DEF8EB
:1006A8002C4481EA030621EA4C5123EA4C5350EAD0
:1006B800013518BF52EA033541F4801143F4801321
:1006C80038D0A0FB02CE4FF00005E1FB02E506F0B2
:1006D8000042E0FB03E54FF00006E1FB03569CF007
:1006E800000F18BF4EF0010EA4F1FF04B6F5007F0D
:1006F80064F5407404D25FEA4E0E6D4146EB06067F
:1007080042EAC62141EA55514FEAC52040EA5E5007
:100718004FEACE2EB4F1FD0C88BFBCF5E06F1ED8B1
:10072800BEF1004F08BF5FEA500E50F1000041EBE8
:10073800045170BD06F0004646EA010140EA020095
:1007480081EA0301B4EB5C04C2BFD4EB0C0541EAB7
:10075800045170BD41F480114FF0000E013C00F3CC
:10076800AB8014F1360FDEBF002001F0004170BDF0
:10077800C4F10004203C35DA0C341BDC04F1140409
:10078800C4F1200500FA05F320FA04F001FA05F295
:1007980040EA020001F0004221F0004110EBD37062
:1007A80021FA04F642EB06015EEA430E08BF20EA8E
:1007B800D37070BDC4F10C04C4F1200500FA04F331
:1007C80020FA05F001FA04F240EA020001F00041C3
:1007D80010EBD37041F100015EEA430E08BF20EA36
:1007E800D37070BDC4F1200500FA05F24EEA020E7E
:1007F80020FA04F301FA05F243EA020321FA04F0AD
:1008080001F0004121FA04F220EA020000EBD37063
:100818005EEA430E08BF20EAD37070BD94F0000F63
:100828000FD101F00046400041EB010111F4801F97
:1008380008BF013CF7D041EA060195F0000F18BF48
:10084800704703F00046520043EB030313F4801F84
:1008580008BF013DF7D043EA0603704794EA0C0F3E
:100868000CEA135518BF95EA0C0F0CD050EA410654
:1008780018BF52EA4306D1D181EA030101F00041D1
:100888004FF0000070BD50EA410606BF10461946F9
:1008980052EA430619D094EA0C0F02D150EA013605
:1008A80013D195EA0C0F05D152EA03361CBF104646
:1008B80019460AD181EA030101F0004141F0FE41E5
:1008C80041F470014FF0000070BD41F0FE4141F469
:1008D800780170BD70B54FF0FF0C4CF4E06C1CEA69
:1008E80011541DBF1CEA135594EA0C0F95EA0C0F1E
:1008F80000F0A7F8A4EB050481EA030E52EA0335D9
:100908004FEA013100F088804FEA03334FF08055F9
:1009180045EA131343EA12634FEA022245EA111526
:1009280045EA10654FEA00260EF000419D4208BFD7
:10093800964244F1FD0404F5407402D25B084FEA84
:100948003202B61A65EB03055B084FEA32024FF430
:1009580080104FF4002CB6EB020E75EB030E22BF8D
:10096800B61A754640EA0C005B084FEA3202B6EB4D
:10097800020E75EB030E22BFB61A754640EA5C00FC
:100988005B084FEA3202B6EB020E75EB030E22BF8C
:10099800B61A754640EA9C005B084FEA3202B6EB8D
:1009A800020E75EB030E22BFB61A754640EADC004C
:1009B80055EA060E18D04FEA051545EA16754FEAAE
:1009C80006164FEAC30343EA52734FEAC2025FEACC
:1009D8001C1CC0D111F4801F0BD141EA00014FF05B
:1009E80000004FF0004CB6E711F4801F04BF01432C
:1009F8000020B4F1FD0C88BFBCF5E06F3FF6AFAE48
:100A0800B5EB030C04BFB6EB020C5FEA500C50F1D7
:100A1800000041EB045170BD0EF0004E4EEA11315A
:100A280014EB5C04C2BFD4EB0C0541EA045170BD61
:100A380041F480114FF0000E013C90E645EA060EA5
:100A48008DE60CEA135594EA0C0F08BF95EA0C0FD3
:100A58003FF43BAF94EA0C0F0AD150EA01347FF41B
:100A680034AF95EA0C0F7FF425AF104619462CE7F2
:100A780095EA0C0F06D152EA03353FF4FDAE104655
:100A8800194622E750EA410618BF52EA43067FF4A6
:100A9800C5AE50EA41047FF40DAF52EA43057FF436
:100AA800EBAE12E74FF0FF3C06E000BF4FF0010C41
:100AB80002E000BF4FF0010C4DF804CD4FEA410CA5
:100AC8007FEA6C5C4FEA430C18BF7FEA6C5C1BD072
:100AD80001B050EA410C0CBF52EA430C91EA030FF3
:100AE80002BF90EA020F0020704710F1000F91EA50
:100AF800030F58BF994208BF90422CBFD8176FEA1E
:100B0800E37040F0010070474FEA410C7FEA6C5CEB
:100B180002D150EA013C07D14FEA430C7FEA6C5CF2
:100B2800D6D152EA033CD3D05DF8040B704700BF1E
:100B38008446104662468C461946634600E000BF6C
:100B480001B5FFF7B7FF002848BF10F1000F01BD3E
:100B58004DF808EDFFF7F4FF0CBF012000205DF809
:100B680008FB00BF4DF808EDFFF7EAFF34BF01208E
:100B780000205DF808FB00BF4DF808EDFFF7E0FF27
:100B880094BF012000205DF808FB00BF4DF808ED78
:100B9800FFF7CEFF94BF012000205DF808FB00BFDF
:100BA8004DF808EDFFF7C4FF34BF012000205DF8C1
:100BB80008FB00BF4FEA410212F5001215D211D509
:100BC8006FF47873B3EB625212D94FEAC12343F042
:100BD800004343EA505311F0004F23FA02F018BFC4
:100BE800404270474FF00000704750EA013005D18D
:100BF80011F0004008BF6FF0004070474FF0000050
:100C0800704700BF4A0011D212F5001211D20DD55B
:100C18006FF47873B3EB62520ED44FEAC12343F0FA
:100C2800004343EA505323FA02F070474FF00000A4
:100C3800704750EA013002D14FF0FF3070474FF053
:100C4800000070474FEA4102B2F1E04324BFB3F518
:100C5800001CDCF1FE5C0DD901F0004C4FEAC0022B
:100C68004CEA5070B2F1004F40EB830008BF20F00F
:100C78000100704711F0804F21D113F13872BCBFC9
:100C880001F00040704741F480114FEA5252C2F11E
:100C98001802C2F1200C10FA0CF320FA02F018BF67
:100CA80040F001004FEAC1234FEAD32303FA0CFCBA
:100CB80040EA0C0023FA02F34FEA4303CCE77FEA49
:100CC800625307D150EA01331EBF4FF0FE4040F493
:100CD8004000704701F0004040F0FE4040F4000042
:100CE800704700BF80F0004002E000BF81F0004183
:100CF80042001FBF5FEA410392EA030F7FEA226CBA
:100D08007FEA236C6AD04FEA1262D2EB1363C1BF49
:100D1800D218414048404140B8BF5B42192B88BFB8
:100D2800704710F0004F40F4000020F07F4018BFDB
:100D3800404211F0004F41F4000121F07F4118BFFB
:100D4800494292EA030F3FD0A2F1010241FA03FCA3
:100D580010EB0C00C3F1200301FA03F100F000438B
:100D680002D5494260EB4000B0F5000F13D3B0F153
:100D7800807F06D340084FEA310102F10102FE2AC2
:100D880051D2B1F1004F40EBC25008BF20F0010032
:100D980040EA03007047490040EB0000013A28BFD1
:100DA800B0F5000FEDD2B0FA80FCACF1080CB2EB54
:100DB8000C0200FA0CF0AABF00EBC25052421843D2
:100DC800BCBFD0401843704792F0000F81F4000177
:100DD80006BF80F400000132013BB5E74FEA41034A
:100DE8007FEA226C18BF7FEA236C21D092EA030FB6
:100DF80004D092F0000F08BF0846704790EA010F30
:100E08001CBF0020704712F07F4F04D1400028BF5C
:100E180040F00040704712F100723CBF00F500003E
:100E2800704700F0004343F0FE4040F40000704774
:100E38007FEA226216BF08467FEA23630146420220
:100E480006BF5FEA412390EA010F40F48000704733
:100E58004FF0000304E000BF10F0004348BF4042D9
:100E68005FEA000C08BF704743F0964301464FF015
:100E780000001CE050EA010208BF70474FF0000371
:100E88000AE000BF50EA010208BF704711F00043B2
:100E980002D5404261EB41015FEA010C02BF844682
:100EA8000146002043F0B64308BFA3F18053A3F5E1
:100EB8000003BCFA8CF2083AA3EBC25310DB01FA28
:100EC80002FC634400FA02FCC2F12002BCF1004FAC
:100ED80020FA02F243EB020008BF20F0010070473D
:100EE80002F1200201FA02FCC2F1200250EA4C0091
:100EF80021FA02F243EB020008BF20EADC707047D7
:100F080053B94AB9002908BF00281CBF4FF0FF3168
:100F18004FF0FF3000F076B9ADF1080C6DE904CE62
:100F280000F006F8DDF804E0DDE9022304B07047BC
:100F38002DE9F047089E0D4604468846002B4DD102
:100F48008A42944668D9B2FA82F252B101FA02F39F
:100F5800C2F1200120FA01F10CFA02FC41EA03086F
:100F680094404FEA1C41B8FBF1F71FFA8CFE01FBD5
:100F7800178807FB0EF0230C43EA084398420AD966
:100F88001CEB030307F1FF3580F01E81984240F205
:100F98001B81023F63441B1AB3FBF1F001FB1033C2
:100FA80000FB0EFEA4B244EA0344A6450AD91CEB92
:100FB800040400F1FF3380F00981A64540F2068160
:100FC800644402380021A4EB0E0440EA07401EB135
:100FD8000023D440C6E90043BDE8F0878B4208D916
:100FE800002E00F0EE800021C6E900050846BDE8A5
:100FF800F087B3FA83F100294AD1AB4202D3824287
:1010080000F2FC80841A65EB030301209846002E49
:10101800E2D0C6E90048DFE702B9FFDEB2FA82F2A1
:10102800002A40F09180A1EB0C0001214FEA1C47F7
:101038001FFA8CFEB0FBF7F307FB1300250C45EAFB
:1010480000450EFB03F0A84208D91CEB050503F187
:10105800FF3802D2A84200F2CE8043462D1AB5FBD3
:10106800F7F007FB10550EFB00FEA4B244EA054456
:10107800A64508D91CEB040400F1FF3502D2A645A9
:1010880000F2B6802846A4EB0E0440EA03409EE72F
:10109800C1F120078B4022FA07FC4CEA030C25FA21
:1010A80007FA4FEA1C49BAFBF9F820FA07F309FBDB
:1010B80018AA8D401FFA8CFE1D4300FA01F308FBA5
:1010C8000EF02C0C44EA0A44A04202FA01F20BD9B1
:1010D8001CEB040408F1FF3A80F08880A04240F23B
:1010E8008580A8F102086444241AB4FBF9F009FBCE
:1010F800104400FB0EFEADB245EA0444A64508D9EB
:101108001CEB040400F1FF356CD2A6456AD90238FD
:10111800644440EA0840A0FB0295A4EB0E04AC42EC
:10112800C846AE4656D353D0002E69D0B3EB08025A
:1011380064EB0E0422FA01F304FA07F71F43CC40CC
:10114800C6E90074002147E70CFA02FCC2F120014D
:1011580025FA01F34FEA1C4720FA01F195400D43A7
:10116800B3FBF7F107FB11331FFA8CFE280C40EA9A
:10117800034001FB0EF3834204FA02F408D91CEB86
:10118800000001F1FF382FD283422DD90239604483
:10119800C01AB0FBF7F307FB1300ADB245EA0045F0
:1011A80003FB0EF0A84208D91CEB050503F1FF3834
:1011B80016D2A84214D9023B6544281A43EA0141D1
:1011C80038E73146304607E72F46E4E61846F9E6A1
:1011D8004B45A9D2B9EB020865EB0C0E0138A3E721
:1011E8004346EAE7284694E74146D1E7D0467BE7FD
:1011F8006444023847E7023B65442FE7084606E7A0
:101208003146E9E6704700BF70472DE9F04F83B0DB
:1012180006460F4601929846DDF83090DDF838A072
:101228000F9B13F0030F14D10D9B534528BF154690
:1012380010D20D9BAAEB0305019C25444FF0200B0F
:1012480022460134434639465846B047AC42F7D1A6
:1012580000E0019D0D9B7BB10D9B09EB030B5C46E8
:10126800AB44ABEB04024346394614F8010DB047D2
:101278004C45F6D10D9B1D440F9B13F0020F0ED069
:10128800019BEC1AA2450AD94FF020092A46434689
:10129800013539464846B04701345445F6D3284607
:1012A80003B0BDE8F08F2DE9F04385B0DDF830E0FC
:1012B8000D9C9DF83880109F119D129E16F0020F0C
:1012C80038D17DB116F0010F00F08A80B8F1000F17
:1012D80002D116F00C0F00D0013DBC4215D21F2CD4
:1012E80004D912E0BC420DD21F2C0BD804F1FF3CEC
:1012F800F4444FF0300901340CF8019FA74201D99A
:10130800202CF8D116F0010F14D0A54212D91F2CA9
:101318000BD804F1FF3CF4444FF0300901340CF8C9
:10132800019FAC4205D0202CF8D116F0100F04D143
:1013380020E02C4616F0100F13D016F4806F04D15D
:101348001CB1A74220D0AC421ED00F9F102F24D032
:101358000F9F022F2DD01F2C0CD830270EF80470A9
:1013680001341F2C06D8B8F1000F29D02D270EF80C
:1013780004700134039602950194CDF800E0FFF75C
:1013880044FF05B0BDE8F083B4F1010C0FD00F9F06
:10139800102F01D06446DBE7023C16F0200F24D161
:1013A8001F2CD8D878270EF804700134D3E7644688
:1013B800CBE71F2CDED862270EF804700134CAE789
:1013C80016F0040F04D02B270EF804700134D1E76F
:1013D80016F0080FCED020270EF804700134C9E7A4
:1013E800BC42A7D21F2C81D9A4E71F2CC2D85827EA
:1013F8000EF804700134AEE72DE9F04190B0169C68
:10140800189DDDF86C802CB928F0100618F4806F50
:1014180034D1B04618F0200F14BF412761270DF1D1
:10142800200E00260A3F00E06446B4FBF5FC05FBED
:101438001C4C5FFA8CFCBCF1090F94BF0CF1300C0A
:10144800BC445FFA8CFC01360EF801CBB4FBF5FC0A
:10145800AC4201D3202EE7D1CDF818801A9C059410
:10146800199C049403959DF85C400294019608AC7D
:101478000094FFF718FF10B0BDE8F081B04626468B
:10148800EAE72DE9F04F95B0089009910A920B937D
:101498001E9C1F9D229EDDF88C80DDF898B054EAD2
:1014A800050305D12BF010031BF4806F40D19B4638
:1014B8001BF0200F14BF4FF0410A4FF0610A0DF1E5
:1014C80030090027AAF10A0A01E004460D4632460F
:1014D800434620462946FFF713FDD2B2092A94BF96
:1014E80030325244D2B2013709F8012B3246434612
:1014F80020462946FFF704FDB44275EB080301D3E3
:10150800202FE2D1CDF818B0259B0593249B049396
:1015180003969DF88030029301970CAB00930B9BC8
:101528000A9A09990898FFF7BEFE15B0BDE8F08F32
:101538009B460027E6E700002DE9F04F91B00446EE
:101548000D460B921E461A9F0797DDF86C80CDF862
:1015580020803A46434638464146FFF7F9FA0028C4
:1015680000F0A7814FF0FF32A34B38464146FFF702
:1015780017FB002840F09D814FF0FF326FF4801375
:1015880038464146FFF7EEFA002840F092810022E3
:101598000023079F3846DDF820804146FFF7E2FA2E
:1015A800002840F09B81079A089B09920A931E9B8A
:1015B80013F480630F931C9B08BF06231C93DDF86C
:1015C80024A00A9FC7F30A50A0F2FF30FEF7EEFFEF
:1015D80079A3D3E90023FFF753F879A3D3E90023CC
:1015E800FEF798FE80468946C7F31307504647F032
:1015F8007F5141F440110022804BFEF789FE72A30F
:10160800D3E90023FFF73CF802460B46404649461B
:10161800FEF780FEFFF7CEFA0E90FEF7C7FF804672
:1016280089466BA3D3E90023FFF72AF80022744BFD
:10163800FEF770FEFFF7BEFA074667A3D3E900235B
:1016480040464946FFF71CF8804689463846FEF76B
:10165800ADFF63A3D3E90023FFF712F802460B4658
:1016680040464946FEF754FE82468B4602460B46E4
:10167800FFF706F88046894652465B46504659466B
:10168800FEF748FECDE90C0100225E4B4046494674
:10169800FFF720F900225C4BFEF73CFE02460B46A2
:1016A80040464946FFF716F90022584BFEF732FE2E
:1016B80002460B4640464946FFF70CF980468946E4
:1016C80052465B4600204FF08041FEF721FE02465D
:1016D8000B4640464946FEF71DFE02460B46DDE92D
:1016E8000C01FFF7F7F80022494BFEF713FE07F24B
:1016F800FF3700223B05FEF7C3FF80468946099A5B
:101708000A9BFFF74DFA002840F0ED80C246CB4611
:10171800DDF8388008F16303C72B34BF0427052799
:101728001E9B13F4006F24D02FA3D3E9002309983C
:10173800DDF828904946FFF729FA002800F0DF80F5
:101748002BA3D3E9002309984946FFF70BFA002891
:1017580000F0D5801C9B4345C3BF4246981A00F150
:10176800FF3300231C931E9B43F480631E930027C2
:101778000E971D9B9F4234BFA3EB07084FF000084C
:101788001E9B13F0020903D0002F18BF4FF000086A
:101798000E9B3BB152465B4609980A99FFF79AF8A7
:1017A80009900A910022002307980899FFF7DAF9AF
:1017B800002840F0B0802DE0FB799F501344D33FC0
:1017C800B3C8608B288AC63F61436F63A787D23F3F
:1017D80071A379094F930A401655B5BBB16B024006
:1017E800EF39FAFE422EE63F2D431CEBE2361A3F54
:1017F8000000000080842E41FFFFEF7F0000F83FCB
:101808000000E03F00002C40000024400000184089
:101818000000F03F1E9B23F400630493CDF80C8076
:101828001C9B0293099A0A9BCDE900233346DDF8F5
:101838002CB05A462946204600F076F88046002FFC
:1018480048D01E9B13F0200F00F1010A33460246D0
:10185800294614BF45206520A04705230593013F6D
:101868000497002303930A2302930E99CB0F019345
:101878000029B8BF494200913346524629462046BE
:10188800FFF7BAFD8046B9F1000F23D0A0EB0B0794
:101898001D9BBB421ED94FF020099A46424633464B
:1018A80008F1010829464846A04701375745F5D3AE
:1018B80010E01E9B04931D9B03931C9B0293079AA5
:1018C800089BCDE9002333460B9A2946204600F0B1
:1018D8002BF88046404611B0BDE8F08F099708F113
:1018E80000430A9363E60E9B013B0E9300220C4BC8
:1018F80040464946FEF7EEFF82468B4608E71C9BAA
:10190800002B3FF436AF0F9B002B3FF432AF1C9BEC
:10191800013B1C932DE70A9901F100430A9379E7EB
:1019280000002440000000002DE9F04F97B0079018
:101938000C9192469B46DDE9208942464B4640463B
:101948004946FFF705F9002849D04FF0FF326FF4F8
:10195800801340464946FFF705F900284ED14FF05D
:10196800FF32B34B40464946FFF71AF9002854D1D5
:10197800ABA3D3E9002340464946FFF711F90028F5
:1019880063D1A9A3D3E9002340464946FFF7EAF803
:1019980000285AD10022002340464946FFF7E2F8C2
:1019A800002861D100230D93249B13F4806569D02E
:1019B800229B092B63D930238DF83830229B5E1E79
:1019C8000EAAA3F1090501233021AB425BD00133F4
:1019D80002F8011F013E202BF7D11D4653E0249B3E
:1019E8000393239B029303230193924B00935B463B
:1019F80052460C990798FFF708FC5BE1249B039378
:101A0800239B0293042301938B4B00935B4652461E
:101A18000C990798FFF7F9FB4CE1249B13F004029B
:101A2800864B874908BF0B46002A14BF04220322AD
:101A38002499039123990291019200935B4652469F
:101A48000C990798FFF7E1FB34E1249B0493239B4F
:101A58000393229B0293CDE900895B4652460C9979
:101A68000798FFF769FD25E142464B460020002113
:101A7800FEF74EFC8046894601230D9394E71E46E7
:101A8800002500E0062640464946FFF793F804463D
:101A98006C4B03EBC603D3E90023CDE90823FEF71B
:101AA80085FD02460B4640464946FEF731FCDDE916
:101AB8000823FEF7E5FD02460B46CDE90A23FFF7AA
:101AC800A1F80746FEF762FD02460B46DDE90A016A
:101AD800FEF71EFC02460B46CDE90A2300225A4BAC
:101AE800FFF75EF850B301373846FEF74FFD024660
:101AF8000B46DDE90801FFF73FF808B1013400277C
:101B0800002E6FD12046FEF751FD02460B46404697
:101B18004946FEF7FDFB06460F4600224A4BFFF7F3
:101B280021F830B10022484B30463946FFF738F8E3
:101B380060B314F0010F29D0013427E00022424B92
:101B4800DDE90A01FFF70EF80028D9D117B117F01F
:101B5800010FD5D00137D3E71F2900F2AE80BCF1C1
:101B6800000F3DD00EAB5A190D463020013502F852
:101B7800010F202D0AD0EB430B44F342F6D105F1B7
:101B880058036B442E2203F8202C013505F1580325
:101B98000DEB0302213A2D491F2D79D8013581FB20
:101BA8000430E317C3EBA00303EB8300A4EB40046A
:101BB800303402F8014F1C46002BEDD1249B03F072
:101BC8000303012B46D01F2D67D80D9B002B47D050
:101BD80005F158036B442D2203F8202C01355CE0F5
:101BE8000D46CCE705F158030DEB03002138DFF86B
:101BF80060E01F2DCAD806F1FF3C691CAEFB073216
:101C0800D20802EB8203A7EB4303303300F8013F0D
:101C1800092FA1D9664617460D46EAE7AFF30080BB
:101C28000000000065CDCD410000000065CDCDC1AC
:101C3800FFFFEF7F10800008148000080480000870
:101C48000C800008208000080000E03F6766666698
:101C5800CDCCCCCC239B002BB5D033E0239DB2E771
:101C6800249B13F0040F07D005F158036B442B2273
:101C780003F8202C013510E0249B13F0080F0CD03A
:101C880005F158036B44202203F8202C013504E0A9
:101C9800249B03F00303012B11D0249B0393239B64
:101CA800029301950EAB00935B4652460C99079838
:101CB800FFF7ABFA17B0BDE8F08F0D4666E7239B38
:101CC800002BEAD00D9B1BB9249B13F00C0F02D0FC
:101CD800239B013B2393239BAB427FF674AF1F2DBD
:101CE800DBD805F158036B44213B30222399013599
:101CF80003F8012F8D42B1D0202DF8D1CDE700BFD8
:101D080000B9704708B500F0ADFE08BD2DE9F04FE9
:101D180091B017461C46DDF86880B1F10009804B88
:101D280014BF82469A462078002800F0CE824FF0F1
:101D3800000B2EE1621C4FF0000C144612F8013B18
:101D4800A3F1200110290AD8DFE801F02E09093192
:101D5800090909090909092B092809092500A3F115
:101D68003002D2B2092A25D92A2B31D0002523786E
:101D78002E2B36D000262378683B122B5DD8DFE85F
:101D880003F0B85CC65C535C5C5C5C5C5C5CC25C2D
:101D98005C5C5C5CCA004CF0010CCEE74CF0020CB9
:101DA800CBE74CF0040CC8E74CF0080CC5E74CF046
:101DB800100CC2E7002505EB850503EB4505303D12
:101DC80014F8013FA3F13002D2B2092AF3D9CEE7C1
:101DD80058F8045B002DBCBF4CF0020C6D42013476
:101DE800C5E74CF4806C611C6378A3F13002D2B271
:101DF800092A04D92A2B11D00C460026BBE7002655
:101E080006EB860603EB4606303E11F8013FA3F1C8
:101E18003002D2B2092AF3D90C46ACE758F8046B61
:101E280026EAE6760234A6E763786C2B19BF4CF4F1
:101E3800807C01344CF4407C02342078A0F12503E6
:101E4800532B00F23982DFE813F02D0237023702F4
:101E580037023702370237023702370237023702B2
:101E680037023702370237023702370237023702A2
:101E78003702370237023702370237023702370292
:101E88003702370237023702370240012701400183
:101E98003702370237023702370237023702370272
:101EA8003702370237023702370237023702370262
:101EB8006D0037023702370237023702370237021E
:101EC800370237026D0064016D00400127014001AF
:101ED80037026D00370237023702370237026D00CA
:101EE8001702370237029F0137026D0037023702A7
:101EF8006D006378682B19BF4CF0800C01344CF0EE
:101F0800C00C023499E74CF4807C013495E74CF41A
:101F1800007C013491E74CF4807C01348DE700BFEC
:101F280011120008782800F02182582800F0DC817E
:101F38006F2800F01D82622800F01C822CF010032C
:101F4800692832D11CF4806F40F00C820A2213F405
:101F5800007F35D113F4807F54D113F0400F65D042
:101F680058F8041BC9B20593049503960292CB0F47
:101F780001930029B8BF494200913B465A46494659
:101F88005046FFF739FA834601342078002800F0DC
:101F98009E8125283FF4CEAE0BF101053B465A46FB
:101FA8004946D0470134AB46EFE7642805D11CF415
:101FB800806F40F0D3810A22C9E79C460A2296E145
:101FC80008F1070020F00700804658F8081B406811
:101FD800089307950696049200230593C30F02936E
:101FE8000246002809DB009101923B465A464946C1
:101FF8005046FFF746FA8346C6E74B42194660EB60
:102008004002F0E758F8041B0593049503960292E2
:10201800CB0F01930029B8BF494200913B465A466D
:1020280049465046FFF7E8F98346ADE713F0800FBD
:1020380058F8041B18BF09B295E708F1070828F0FB
:1020480007080893079506960023049205930293C0
:10205800F8E80223CDE900233B465A464946504654
:10206800FFF70FFA83468FE70593049503960292CC
:102078000023019358F8043B00933B465A464946CF
:102088005046FFF7B9F983467EE713F0800F58F8FA
:10209800041B18BF89B246E1462808BF4CF0200C43
:1020A80008F1070828F00708CDF810C00395029634
:1020B800F8E80223CDE900233B465A4649465046F4
:1020C800FFF732FC834601345FE700F0DF03472B5C
:1020D80002D0452808D105E04CF4006C00F0FD0062
:1020E800452801D14CF0200C08F1070828F0070812
:1020F800CDF810C003950296F8E80223CDE9002335
:102108003B465A4649465046FFF716FA834601347D
:102118003BE71CF0020F1CD043460BF1010653F8B5
:10212800040B0B933B465A464946C0B2D047012D93
:1021380088BF05EB0B0840F20581324601363B4665
:1021480049462020D047B045F7D1AB44DDF82C8074
:1021580018E0012D40F2FA800BF1FF331D442026D0
:102168005A460BF1010B3B4649463046D0475D4580
:10217800F6D105F1010B58F8040B3B462A464946AF
:10218800C0B2D047013400E7434653F8048B0C93A0
:10219800002E14BF31464FF0FF3198F80000002898
:1021A80000F0DA80434613F8012F1AB1A8EB0302B6
:1021B800CA42F8D1A3EB08030B931CF480620D927A
:1021C80003D0B34228BF33460B931CF002030E938F
:1021D80006D0002800F0BC805A460F950D9D29E0D6
:1021E8000B9A531C954240F2B58005EB0B039B1AE2
:1021F8000F93CDF82C8098465A460BF1010B3B46BD
:1022080049462020D047C345F6D1DDF82C806B1C09
:102218000B93DDF83CB098F800000028DCD114E0FE
:102228001E4602F1010B3B464946D04718F8010FFC
:1022380040B15A46002DF4D0731E002EF0D10F9DE8
:10224800934600E00F9D0E9B1BB90134DDF83080EA
:102258009BE65E460B9B9D420CD93544A5EB030BD0
:102268002025324601363B4649462846D047B345E5
:10227800F7D1EAE7B346E8E74CF0210305930823D2
:1022880004930396102302930023019358F8043B08
:1022980000933B465A4649465046FFF7ADF88346F9
:1022A800013472E60BF101053B465A4649462520A2
:1022B800D0470134AB4668E60BF101053B465A4668
:1022C8004946D0470134AB465FE64FF0000B5F4507
:1022D80094BF07F1FF325A463B4649460020D04793
:1022E800584611B0BDE8F08F4CF0200C10222CF0AD
:1022F8000C031CF4806F07D02CF00D0369283FF401
:1023080026AE64283FF423AE13F4007F7FF495AE25
:1023180013F4807F7FF4A8AE13F0400F3FF4B5AEFE
:1023280058F8041BC9B2059304950396029200233A
:10233800019300913B465A4649465046FFF75CF8E0
:10234800834621E6DDF82C80B3461BE75D4610E79F
:102358005E467FE70B935EE743462BE72CF01103BD
:102368000A22F4E52CF011030A22F0E51022BEE758
:102378000822BCE70222BAE70FB400B585B006AA66
:1023880052F8043B039200924FF0FF3202A904482E
:10239800FFF7BCFC05B05DF804EB04B0704700BF64
:1023A800091D000830B400240025C0E900450022BA
:1023B800064BC0E90223C0E90445C0E90623C0E989
:1023C8000845C0E90A2330BC704700BF0000F03F51
:1023D80038B504460D4605F03FF80146012005F0E2
:1023E8002AFA50B9322000F049FB2946204605F068
:1023F80067FC014638B9002038BD01460448FFF79C
:10240800BBFF0120F8E70348FFF7B6FF0120F3E719
:10241800708000088C8000082DE9704384B0026841
:10242800244B9B699A423FD0044600220023CDE901
:102438000223CDE90023694602A8FFF7C9FF054634
:1024480008B1012531E01B4E2368B36100F0FAFEA4
:10245800DDE9022300F11801D1E90001FEF710F9C6
:102468008046894600F0EEFE42464B4600F11001D8
:10247800D1E90001FDF74EFFC6E9020100F0E2FED6
:10248800DDE9002300F10801D1E90001FEF7F8F8C1
:102498008046894600F0D6FE42464B4603C8FDF703
:1024A80039FFC6E9000100E00025284604B0BDE870
:1024B800708300BF0000002010B50C46FFF7ACFF8A
:1024C80028B9044BD3E90023C4E9002310BD022036
:1024D800FCE700BF0000002001230B7000207047BC
:1024E800D0B582B00C460368224A526993422AD07A
:1024F800204A536105F0EAFC014668BB00230093BB
:10250800019301A9684605F087FC014648BB00F025
:1025180099FE06460198FEF75BF8D6E90A23FEF70E
:10252800AFF806460F4600F08DFED0E90823304686
:102538003946FDF7EFFEFEF785FB0E4B186105F0F7
:10254800BFFC014688B90B4B1869FEF741F8C4E98E
:102558000001002002B0D0BD0748FFF70DFF0220A0
:10256800F8E70648FFF708FFF9E70548FFF704FF13
:10257800F5E700BF00000020A8800008C48000081C
:10258800E080000801230B700020704710B50C464E
:10259800FFF742FF28B9044BD3E90223C4E900231B
:1025A80010BD0220FCE700BF0000002001230B70D3
:1025B8000020704710B50C4600F044FED0E9002317
:1025C800C4E90023002010BD10B5044600F03AFE0F
:1025D800D4E90423C0E9002300F038FE10BD10B58B
:1025E8000C4600F02FFED0E90223C4E900230020A6
:1025F80010BD10B5044600F025FED4E90423C0E957
:10260800022300F023FE10BD10B50C4600F01AFEA0
:10261800D0E90423C4E90023002010BD10B5044606
:1026280000F010FED4E90423C0E9042300F00EFEF4
:1026380010BD10B50C4600F005FED0E90623C4E92C
:102648000023002010BD10B5044600F0FBFDD4E9BE
:102658000423C0E9062300F0F9FD10BD10B50C46AF
:1026680000F0F0FDD0E90823C4E90023002010BDE4
:1026780010B5044600F0E6FDD4E90423C0E90823B8
:1026880000F0E4FD10BD10B50C4600F0DBFDD0E90C
:102698000A23C4E90023002010BD10B5044600F049
:1026A800D1FDD4E90423C0E90A2300F0CFFD10BD11
:1026B80008B504F0D1FE04F04CFF10B905F013FC86
:1026C80008BD01460148FFF757FEF7E7FC80000800
:1026D80008B5FFF7EDFF08BD00B583B040F2115013
:1026E80004F020FC0823002201214FF0904004F060
:1026F80021FA0823002201214FF0904004F042FA09
:102708004FF0904308229A6200220521022005F02A
:10271800A1F870B905F0D4FB014678B9002200236E
:10272800CDE9002369466846FFF752FE03B05DF81D
:1027380004FB01460348FFF71FFEEBE70248FFF7DB
:102748001BFEEBE718810008E080000838B5044656
:10275800094D05F13C02002103F026F905F1350287
:102768000021204603F020F905F12502002120462A
:1027780003F01AF9002038BD3481000810B504466A
:10278800812103F0F5F90321204603F0F1F98221B4
:10279800204603F0EDF9002010BD000010B50B78BD
:1027A80013F0600328D0202B2DD14B78202B1AD082
:1027B800212B28D1244C2368244A13704FEA132C68
:1027C80082F801C04FEA134C82F802C01B0ED37086
:1027D8002379137163795371A3799371CB8880211D
:1027E80003F0B8FA0FE01A4B20221A60CB88174A78
:1027F800002103F0F6F906E04B780A2B05D00B2BE5
:1028080009D0062B10D0002010BD0123114A8021C9
:1028180003F0A0FAF7E78B781BB90E4B00221A6079
:10282800F1E704F0C9F8EEE74B881B0A212B05D025
:10283800094A3A23802103F08DFAE4E7CB883A2B42
:1028480028BF3A23054AF5E724000020E8010020C4
:1028580020000020700200203D8100084681000809
:1028680008B5044B00221A704023034A032103F0E1
:10287800B8F908BD2C000020F0010020402900D93B
:10288800704708B5044B00221A708BB2034A8121A5
:1028980003F060FA08BD00BF2D00002030020020C0
:1028A8000F4B1B68FF2B18D00E490F4A50789378AE
:1028B8001B0443EA002310780343D07843EA0063FB
:1028C8000B6013790B7153794B7193798B71074BAB
:1028D80001221A70024BFF221A600020704700BFC5
:1028E8002000002024000020E80100202C00002007
:1028F80010B5012906D00C4631BBBAB1032A19D04C
:10290800022022E0012A01D002201EE0426B836AE5
:102918009A4204D00D4B01221A70002015E00023C2
:102928001A46012103F016FA00200EE0FFF7B8FF5F
:1029380002200AE0064B01221A70032103F04FFA25
:10294800044B1860204600E0022010BD2D00002036
:102958002C000020E401002000B583B08DF80700AA
:1029680001210DF1070000F02DFF03B05DF804FB15
:1029780008B500F027FF08BD30B585B000283CD069
:102988000446224A01AB07CA03C31A80204BA3FBA3
:102998000423DB0803EB8302A4EB420430348DF8F4
:1029A800044001A801211A4D5BB3A5FB0342D208DC
:1029B80002EB8204A3EB4403303300F8013F1346D3
:1029C800013149B20A29EFD10A23002001AA1FFACE
:1029D80080FC12F80CE0D45C02F80C4002F803E02A
:1029E800013B9BB201301FFA80FC6345EFD80131EF
:1029F80001A800F0E7FE05B030BD3020FFF7ACFFBE
:102A0800F9E78BB2002BE0D1F1E700BFE07F0008C7
:102A1800CDCCCCCC10B5041E03DB2046FFF7ACFFB1
:102A280010BD2D20FFF798FF6042F7E770B5054607
:102A38000824054E2B0FF05CFFF78EFF2D01631E57
:102A480013F0FF04F6D170BD9081000808B5FDF7BA
:102A5800BFFD02460B460248FFF78EFC08BD00BFCB
:102A68008C81000800B583B08DF8070001210DF1B5
:102A7800070000F0A7FE03B05DF804FB70B5084C32
:102A88002668206000F0B0FE236833B1012528468F
:102A980000F06CFB2368002BF9D1014B1E6070BD60
:102AA80078020020034B1B681BB1024A1368013BE4
:102AB800136070477802002082B00023019338B178
:102AC80001461A46019B0133019301329142F9D123
:102AD80002B07047F8B50B4B1F6818601B6853B1FC
:102AE8000C460126074DA04728B9304600F03EFBAA
:102AF8002B68002BF7D1034B18681F60B0FA80F0E1
:102B08004009F8BD78020020014BD3F8AC077047A4
:102B180000F0FF1F014BD3F8B007704700F0FF1F0C
:102B2800014BD3F8B407704700F0FF1F80029446AA
:102B38004AB18C440B46C1F1006108441A5C03F8A1
:102B4800012B9C45FAD170472DE9F84F0746894675
:102B5800924603F055FF342003F0A2FF07F500303A
:102B6800800203F065FF342003F09AFF03F058FF5A
:102B780003F046FFBF0207F1006BBAF1030F3AD921
:102B8800AAF1040509F1040625F003031E444C4686
:102B9800C9F100631F444FF034086178A3781B041F
:102BA80043EA012321780B43E17843EA01613819AC
:102BB80003F05CFF404603F073FF0434B442ECD1E9
:102BC80025F0030304339B449A4510D94B44D14460
:102BD8000020014613F8012B824011430830994523
:102BE800F8D1584603F042FF342003F059FF03F0B0
:102BF80017FFBDE8F88F0023E6E7704708B500F037
:102C0800F9F908BD08B500F0F5F908BD08B500F0F8
:102C1800F1F908BD08B500F0EDF908BD7047704737
:102C2800704708B500F094FB08BD08B500F032FC09
:102C380008BD08B503F0DAF808BD0000034BD3F867
:102C4800000480F40070C0F340207047005000403A
:102C580008B540F20161034804F089F8B0FA80F041
:102C6800400908BD0054004008B540F2015102482F
:102C780004F07DF808BD00BF0054004008B54FF4CB
:102C8800A061024804F073F808BD00BF005400407A
:102C980008B540F20251024804F069F808BD00BFC7
:102CA8000054004008B540F20751024804F05FF8AC
:102CB80008BD00BF0054004008B540F20651024864
:102CC80004F055F808BD00BF0054004008B503499A
:102CD800FFF700FF003818BF012008BD592C000875
:102CE80038B504460D46134804F032F81249052059
:102CF800FFF7F0FED8B96DB16FF0010261000D4821
:102D080004F018F80D490520FFF7E4FE044640B129
:102D180001240DE0012204FA02F1064804F00AF841
:102D2800F0E740F20151034804F029F800E00124DB
:102D3800204638BD00540040852C0008712C00083E
:102D480008B5024804F009F808BD00BF0054004067
:102D580010B507490520FFF7BDFE10B10124204634
:102D680010BD04460121034803F0DBFFF7E700BF6D
:102D7800452C00080054004010B5044609490520B8
:102D8800FFF7A8FE08B1012010BD2146064803F050
:102D9800E9FF06490520FFF79DFE003818BF01200E
:102DA800F2E700BFAD2C000800540040992C000841
:102DB80038B50C4660B101210A4803F0B2FF0A4950
:102DC8000520FFF787FE054638B10125284638BD9E
:102DD8000021044803F0A5FFF1E7024803F0C4FF0F
:102DE8002070F3E700540040C12C000810B540F2F1
:102DF800125004F097F840F2157004F093F81B4C49
:102E080040220121204603F0E1FE802201212046D4
:102E180003F0DCFE402301220221204603F08AFE53
:102E2800402303220121204603F0ACFE8023012227
:102E38000221204603F07EFE802303220121204642
:102E480003F0A0FE0A4C00220A49204603F0F6FED1
:102E5800722300221146204603F056FF204603F055
:102E680072FF0121204603F05CFF10BD00040048FA
:102E780000540040A0860100F8B504460F461646E7
:102E88001D460520FFF722FF844608B16046F8BDBD
:102E980001212046FFF724FF84460028F6D1384652
:102EA800FFF76AFF84460028F0D15DB1741E3544EF
:102EB800013D14F8010FFFF75FFF84460028E5D1B4
:102EC800AC42F6D1FFF73CFFFFF742FF8446DDE74F
:102ED80013B90023184670472DE9F04106460C4601
:102EE80015461F460520FFF7F1FE034610B11846A8
:102EF800BDE8F08101213046FFF7F2FE03460028C5
:102F0800F5D12046FFF738FF03460028EFD100210E
:102F18003046FFF7E5FE03460028E8D17E1E0ED0B6
:102F28002C466B1E1F444FF0010821464046FFF710
:102F38003FFF03460028DAD10134BC42F5D1FFF740
:102F4800FFFEA9190020FFF733FF03460028CED162
:102F5800FFF7FEFE0346CAE710B540F2165003F02D
:102F6800E1FF094C022300220121204603F0E2FD83
:102F7800022303220021204603F004FE034B022211
:102F8800C3F8282410BD00BF0014004800100048F2
:102F9800044A137843F001031370034B0222C3F869
:102FA800182470477C02002000100048044A137857
:102FB80023F001031370034B0222C3F8282470473F
:102FC8007C0200200010004800B9704738B505465B
:102FD800064C237843F002032370054B0222C3F802
:102FE800182400F0C5F92844606038BD7C02002030
:102FF8000010004808B5064CFFF7CAFF2046FFF747
:103008005BFDFFF7D3FF2046FFF756FDF4E700BF4F
:10301800A086010008B528B1094A137843F00403D3
:10302800137008BD064A137823F0040313700220B6
:10303800FFF724FD034B0222C3F82824F1E700BF61
:103048007C02002000100048144B1B7813F0010F7D
:1030580005D113F0020F03D113F0040F0DD17047FF
:103068000E4A52688242FAD223F002030B4A1370C6
:103078000B4B0222C3F828247047C0F30A0323B974
:10308800074B0222C3F81824704710F00F0FE6D13F
:10309800034B0222C3F82824E1E700BF7C0200208A
:1030A8000010004880B5FFF757FF4FF4FA70FFF79C
:1030B8008BFF00F06FF9FFF799FE00F029F900F097
:1030C8000FFA00F0A3F800F0F5F8FFF705FB01F0A0
:1030D80045FB0120FFF79EFF4FF4C87000F06EFA21
:1030E8001F4F4FF000081F4E4FF001090DE0384602
:1030F80000F0C6F90546B0B986F8008000F074FB08
:1031080000F08EFA484600F031F800F07FFA3846B1
:1031180000F018FA0546404600F078FB002DE6D08E
:103128000024234610E0484600F070FBF8E701F061
:103138001DFB28B186F8009002E086F80080013C6B
:1031480001342346AC42D7D23A68D05C3378002B9E
:10315800EDD0012BF4D10A28EFD00D28F0D1ECE7FF
:1031680088020020840200207047704710B504468A
:10317800FFF7FAFF40F21C7003F0D4FE44B1022CB2
:103188000BD0012C0ED0032C10D0FFF7EEFF10BD92
:103198000021012003F076FEF9E70121084603F03B
:1031A80071FEF4E7002003F061FEF0E7012003F070
:1031B8005DFEECE708B5FFF78BFA02210748FFF739
:1031C800D7FBBFF34F8F0649CA6802F4E062054B8C
:1031D8001343CB60BFF34F8F00BFFDE7A08100080A
:1031E80000ED00E00400FA0508B500F08BF8FFF7E1
:1031F800E1FF000000487047C8020020014B93F827
:1032080044007047940200207047000010B50B4C32
:10321800052221463E20FFF789FC2268084B9A4286
:103228000BD0002323706370A370E370204600F86E
:10323800043FFFF7E9FF024B236010BD8C0200201A
:1032480018062120004870479802002008B545223A
:1032580002493F20FFF778FC08BD00BF9402002018
:1032680008B58C4651B1431E074A0139C9B2084412
:1032780013F8011F02F8011F8342F9D1034B83F8A9
:1032880044C0FFF7E3FF08BDC702002094020020F6
:1032980008B5064A531E4432002103F8011F934221
:1032A800FBD10348FFF77EF808BD00BF9402002059
:1032B8009802002010B586B00F4C452221463F20C9
:1032C800FFF734FC22680D4B9A4201D106B010BDBD
:1032D800FFF7DEFF0DF1040C094C0FCCACE80F0032
:1032E80023688CF80030102101A8FFF7B9FF024BC2
:1032F800024A1A60EAE700BF94020020212018065B
:10330800A481000808B5FFF7C3FFFFF79FFF08BDBA
:103318000C4B1B680C4AA2FB03239B09013BB3F12E
:10332800807F0DD24FF0E0225361084BF02183F8E3
:103338002310002191610720106183F82310704742
:10334800FEE700BFC0010020D34D621000ED00E091
:1033580010B5FFF7A7FB054C2068FFF775FE20683E
:1033680000F064F923680133236010BDDC020020FB
:10337800014B1868704700BFDC02002008B540F216
:103388000771034803F0BBFF003818BF012008BDD0
:103398000038014010B5002211461B2003F00EFD35
:1033A80040F2115003F0BEFD40F20E6003F0BAFD8A
:1033B8004FF4007201214FF0904003F007FC4FF4E6
:1033C800806201214FF0904003F000FC4FF400733D
:1033D800012202214FF0904003F0ACFB4FF4007340
:1033E800012200214FF0904003F0CCFB4FF48063A2
:1033F800012202214FF0904003F09CFB4FF48063C0
:10340800012200214FF0904003F0BCFB0C4C2046F9
:1034180003F00EFF4FF4E131204603F025FF0821A9
:10342800204603F054FF0421204603F058FF2046AD
:1034380003F048FF0521204603F069FF10BD00BFD7
:10344800003801402DE9F843894689B1441E0844F3
:10345800451EDFF82480094F052614F8011F404651
:1034680003F045FF39463046FFF734FBAC42F4D150
:103478004846BDE8F88300BF00380140853300089E
:10348800034B1A1D0260186800221A60704700BFBB
:10349800E002002008B50A490A4803F045FF18B1C0
:1034A800094B1B681F2B00D908BD064803F023FFF2
:1034B800054B1A68511C196013441871F4E700BFD2
:1034C8000500050700380140E0020020034B18788A
:1034D800012814BF00200120704700BF2D000020E4
:1034E80038B540F2165003F01DFD002003F046FDEC
:1034F80040F2177003F016FD104C01230022194604
:10350800204603F017FB012303220021204603F085
:1035180039FB0B4D284602F02FFA4FF4C06003F038
:1035280043FC00220121252003F048FC012120460C
:1035380003F04AFB05236B7038BD00BF0014004838
:10354800300000200C4B5B78DBB2032B01D000204D
:10355800704710B50446094B1B78012B18BF002093
:1035680000D010BD0448FFF77BF9054B186800220E
:103578001A60044B2360F4E7300000202C00002080
:10358800E4010020F00100200A4B5B78DBB2032B3A
:1035980001D00020704710B5044607490520FFF701
:1035A80099FA08B1002010BD21460248FFF766F9D4
:1035B8002046F8E730000020D534000800B97047ED
:1035C80038B50446FFF7D4FE0E4A1060631D0E4955
:1035D80081FB03139DB203EB43035B00033B938022
:1035E8004FF4106003F05EFD4FF41064204603F0C2
:1035F800DFFC0028FAD00621284603F069FA03F018
:103608005FFA38BD04030020ABAAAA2A08B5034B09
:1036180001229A7103F04CFA08BD00BF0403002090
:10362800014B00229A71704704030020084B9B79D4
:103638006BB910B50446064A93881268134483424E
:1036480000D310BD03F034FA014B1C60F9E7704752
:103658000403002010B310B58446037843B1C0F1C9
:10366800010E00EB0E03DBB210F8014F002CF8D16D
:103678005B00023313800B7003234B709CF800002F
:1036880058B1022300245A1CD2B2C8540233DBB208
:103698008C541CF8010F0028F5D110BD7047B2B149
:1036A8004B1C02F1FF3C5FFA8CFC033101EB4C012F
:1036B8004FF0000C020FB0F1204F34BF30323732D8
:1036C80003F8012C000103F802CB8B42F2D17047BA
:1036D80010B50246034C21460348FFF7BBFF2046BE
:1036E80010BD00BF0C030020B881000810B50246C9
:1036F800034C21460348FFF7ADFF204610BD00BF2D
:103708000C030020D481000838B51A230380FFF782
:10371800FBF90446FFF7FEF90546FFF701FA201802
:1037280001D1074838BD064C0822A11CFFF7B7FF96
:10373800042204F112012846FFF7B1FFF1E700BFA8
:10374800000100200423038000487047FC0000208B
:1037580008B5054B1B7913B9FFF716FF08BD0146DD
:103768000248FFF76FFEF9E71C0100203002002035
:1037780038B5124B1D68C5F140038D420BD90C4674
:103788006D1A0E4A15600A4601460D48184404F0A1
:1037980007FC204638BD094A002111602A46014627
:1037A8000748184404F0FCFB4020FFF7D1FF00282D
:1037B800F0D0024B40221A602846EBE71C0100209B
:1037C8003002002070B50E4649B105460C46214628
:1037D8002846FFF7CDFF20B10544241AF7D130461B
:1037E80070BD301BFCE7000008B5074B18683F2880
:1037F80000D908BDC0F14000FFF7AAFF0028F8D0A3
:10380800014B40221A60F4E71C01002008B5054B63
:103818001B79834200D108BD024B1871FFF7E4FF02
:10382800F9E700BF1C01002070B582B01B238DF89A
:1038380004305B238DF805308DF8061050B105462D
:1038480000240326314601A8FFF792F80134E4B2B8
:10385800A542F7D102B070BD08B54421FFF7E4FFD7
:1038680008BD08B54321FFF7DFFF08BD08B54B21A8
:103878000120FFF7D9FF08BD00B583B0064B1B68D0
:10388800ADF804301B0C8DF80630032101A8FFF7B2
:103898006FF803B05DF804FBE081000800B583B061
:1038A800064B1B68ADF804301B0C8DF8063003215D
:1038B80001A8FFF75DF803B05DF804FBE481000898
:1038C80000B9704708B5FFF775FC08BD00B9704727
:1038D80008B5FFF789FC08BD08B501790068FFF74E
:1038E800BFFC08BD10B50446FFF784FC2060FFF755
:1038F80085FC207110BD08B5FFF73AFD08BD000032
:10390800024B00221A705A70704700BF4C03002007
:103918000346354A1078032864D8DFE800F0020D22
:1039280022381B2B03D0304B00225A7070472E4B85
:1039380001201870587070475A2B06D81B2B0AD0D4
:10394800294B0020187058707047274B03221A70B3
:1039580000225A707047244B02221A7001225A70B2
:1039680070471B2B06D05A2B0AD81F4B0020187003
:10397800587070471C4B00221A7002225A70704708
:10398800194B03221A7000225A7001207047412BEC
:103998000DD0422B11D0432B16D0442B1BD01B2B00
:1039A800114B0CBF012000201870587070470E4B47
:1039B80000221A700220587070470B4B00221A70B0
:1039C80003225A7002207047074B00221A70042203
:1039D8005A7002207047044B00221A7005225A7050
:1039E80002207047002070474C030020014B587894
:1039F800704700BF4C0300208B4211D893B1411E81
:103A0800013A03F1FF3C5FFA8CFC844411F8010F82
:103A180012F8013F984207D16145F7D1012070475C
:103A28000020704701207047002070472DE9F041C1
:103A380000295FD0044616460F460B460246012170
:103A48002E48FFF7D9FF0546C0BB3B462246012159
:103A58002B48FFF7D1FF8046A0BB3B4622460421F6
:103A68002848FFF7C9FF054678BB3B462246052193
:103A78002548FFF7C1FF804658BB3B462246032135
:103A88002248FFF7B9FF054630BB3B4622460221D4
:103A98001F48FFF7B1FF804610BB3B462246022174
:103AA8001C48FFF7A9FF0546E8B93B462246032113
:103AB8001948FFF7A1FFD0B901251CE00123337095
:103AC800002518E00023337015E0012333704546C4
:103AD80011E0002333700EE00123337045460AE0FD
:103AE8000023337007E001233370454603E00023C9
:103AF800337000E001252846BDE8F081E881000820
:103B0800EC810008F0810008F881000800820008B4
:103B180004820008088200080C82000838B50546AF
:103B2800A44B93F801C00CF1010C5FFA8CFC83F8EC
:103B380001C0A14B9B7A012B03D0022B00F0FD8121
:103B480038BDBCF1020F54D0BCF1030F00F07581F1
:103B5800BCF1010F05D0CAB20146072001F05CF99B
:103B6800EEE7CCB2944B00221A710B2C06D82346F0
:103B780002460B219148FFF73FFF28BB082C2FD89E
:103B880023462A4608218E48FFF736FF00BB234606
:103B98002A4608218B48FFF72FFFE8B923462A4613
:103BA8000B218948FFF728FF002840F0FE82062CE9
:103BB80019D823462A4606218448FFF71DFF90B1ED
:103BC8007D4B05221A71BBE77B4B01221A71B7E7BF
:103BD800794B02221A71B3E7774B03221A71AFE7C8
:103BE8000B2C40F2D98222462946072001F014F90D
:103BF800A6E7CCB2704B00225A711B79013B042B0B
:103C080016D8DFE803F003233E597F00052C06D8B9
:103C18002346024605216E48FFF7EEFE70B9042CD4
:103C280006D823462A4604216A48FFF7E5FE48B924
:103C380022462946072001F0EFF881E75E4B012272
:103C48005A717DE75C4B02225A7179E7052C06D838
:103C58002346024605216048FFF7CEFE68B9042CCA
:103C6800E6D823462A4604215C48FFF7C5FE00280B
:103C7800DED0514B04225A7162E74F4B03225A712E
:103C88005EE7052C06D82346024605215448FFF76F
:103C9800B3FE68B9042CCBD823462A4604215148E0
:103CA800FFF7AAFE0028C3D0434B06225A7147E704
:103CB800414B05225A7143E70B2C06D8234602468E
:103CC8000B214948FFF798FEA0B9082CB0D8234625
:103CD8002A4608214548FFF78FFE78B923462A4629
:103CE80008214348FFF788FE0028A1D0324B09225B
:103CF8005A7125E7304B07225A7121E72E4B0822CB
:103D08005A711DE7082C15D8234602460821394860
:103D1800FFF772FE50B923462A460D213648FFF7B1
:103D28006BFE48B1244B0B225A7109E7224B0A2239
:103D38005A7105E70D2CEED9042C6BD823462A4678
:103D480004212E48FFF758FE78BB23462A46072150
:103D58002B48FFF751FE002840F03482022C07D888
:103D680023462A4602212748FFF746FE002858D155
:103D780023462A4607212448FFF73EFE002854D14F
:103D880023462A4608212148FFF736FE002850D14D
:103D980023462A4608211E48FFF72EFE00283FF436
:103DA80047AF054B11225A71CAE6034B0C225A71D0
:103DB800C6E600BF500300205803002038830008DF
:103DC8008C820008D8820008188200082482000823
:103DD8005483000844830008A882000898820008D9
:103DE800F4820008E48200082C830008CC820008D2
:103DF800808200083C8200082C820008B4820008F7
:103E080014830008B08200085C8300084882000818
:103E18005C820008072C40F2CC81082C3FF608AFE2
:103E2800AEE79A4B0E225A718AE6984B0F225A71C6
:103E380086E6964B10225A7182E6CCB2934B00224A
:103E48009A715B79073B0A2B5FD8DFE803F00621FC
:103E58003B5E5E5E5E5E5E556800062C06D82346B5
:103E6800024606218A48FFF7C7FD68B9052C4CD8D9
:103E780023462A4605218748FFF7BEFD002844D07F
:103E8800824B02229A715BE6804B01229A7157E6B7
:103E9800062C06D82346024606217F48FFF7ACFDCC
:103EA80060B9052C31D823462A4605217B48FFF7FF
:103EB800A3FD50B3754B04229A7141E6734B03225C
:103EC8009A713DE6062C06D8234602460621744818
:103ED800FFF792FD60B9052C17D823462A4605211D
:103EE8007048FFF789FD80B1684B06229A7127E672
:103EF800664B05229A7123E6072C06D8234602460C
:103F080007216948FFF778FD28B922462946072086
:103F180000F082FF14E65D4B07229A7110E6072C29
:103F2800F3D82346024607216048FFF765FD0028BD
:103F3800EBD0564B08229A7102E6BCF1020F30D042
:103F4800BCF1030F00F0C680BCF1010F05D0CAB266
:103F58000146072000F060FFF2E5CCB24B4B00228F
:103F6800DA710B2C06D8234602460B215048FFF77E
:103F780043FD70B9062C06D823462A4606214D482B
:103F8800FFF73AFD48B922462946072000F044FFCA
:103F9800D6E53E4B0122DA71D2E53C4B0222DA71BA
:103FA800CEE5CCB2394B00221A72DB79012B07D04F
:103FB800022B2BD022462946072000F02DFFBFE513
:103FC8000B2C06D8234602460B213B48FFF714FD6D
:103FD800A0B9082CEED823462A4608213748FFF70F
:103FE8000BFD78B923462A4608213548FFF704FD1A
:103FF8000028DFD0254B03221A72A1E5234B0122AA
:104008001A729DE5214B02221A7299E5042C24D8D4
:104018002346024604212B48FFF7EEFCC8B9234685
:104028002A4607212848FFF7E7FC18BB23462A46FB
:1040380005212648FFF7E0FC0028BBD0134A0623D9
:10404800137223498B7843F002038B700123137496
:1040580076E50E4B04221A7272E5072C02D9052C5C
:10406800A8D8E3E72346024607211748FFF7C4FC10
:104078000028F4D0054A0523137215498B7843F0BC
:1040880002038B70012313745AE500BF5803002004
:104098001C83000824830008BC820008C48200082E
:1040A800708200087882000854820008688200083C
:1040B80018820008248200082C830008CC8200089B
:1040C80080820008B48200080C830008048300087A
:1040D80050030020CCB23D4B00225A721B7A022BAF
:1040E80024D0032B3DD0012B05D02246294607209A
:1040F80000F092FE24E5062C06D823460246062147
:104108003348FFF779FC68B9052CEED823462A46D0
:1041180005213048FFF770FC0028E6D02B4B02221F
:104128005A720DE5294B01225A7209E5062C06D868
:104138002346024606212848FFF75EFC68B9052C8D
:10414800D3D823462A4605212448FFF755FC0028E2
:10415800CBD01E4B04225A72F2E41C4B03225A7233
:10416800EEE4062C06D82346024606211C48FFF733
:1041780043FC68B9052CB8D823462A4605211948B6
:10418800FFF73AFC0028B0D0104B06225A72D7E449
:104198000E4B05225A72D3E423462A460B211248B5
:1041A800FFF72AFC00283FF41EAD084B04221A71C1
:1041B800C6E423462A4607210C48FFF71DFC0028C1
:1041C8003FF4D6AD014B0D225A71B9E458030020D3
:1041D8001C83000824830008BC820008C4820008ED
:1041E800708200087882000818820008148300088A
:1041F80008B500F025FE0D4B9B7813F0010F0AD08F
:104208000A4B00225A70997862F3410199701A702A
:10421800FFF776FB08BD064B00221A715A719A7196
:10422800DA711A725A729A72EAE700BF50030020D4
:104238005803002008B5FFF7DBFF00F055FD00B973
:1042480008BD00F035FD00F045FDF9E710B504465E
:1042580005E0204600F0B8FDFEF77EFB013400F0D3
:1042680043FDA042F5D810BDF8B504460D461646E4
:104278001F46FCF777FC38B9DDE9062320462946B6
:10428800FCF78EFC30B9F8BD32463B46122000F0F0
:10429800E5FDF8E7DDE90623132000F0DFFDF2E78E
:1042A8002DE9F04F8BB00892002900F0E180054617
:1042B8000E460024224605E0013464B22246B44288
:1042C80080F2B0802B5D202BF6D0092BF4D09642DB
:1042D80040F39A802B2B00F0DB802D2B00F0DF8041
:1042E800012309932246B44280F29180E4B204F19A
:1042F800010A5FFA8AFA00206D49CDE90001002021
:104308000021CDE90201CDE904014FF0000B4FF087
:104318000008DFF8A091731E079337465E46AB4648
:104328004BE0002E40F0A680012F00F0A58033B9A5
:104338009BF801103039C9B2092900F29F8007990A
:10434800914211D00BEB030212F8012C303AD2B291
:10435800092A11D95B445B78303BDBB2092B0BD9B6
:1043680001200BB0BDE8F08F5B4413F8013C303BF3
:10437800DBB2092B00F284804FFA8AF3012613E09E
:1043880042464B46DDE90401FCF77AF9CDE9040120
:10439800A5F13000FCF70AF9DDE90423FBF7BAFFC1
:1043A800CDE904014FFA8AF31A460134E4B20AF15E
:1043B800010A5FFA8AFABB4240DA63B21BF803507B
:1043C8002E2DAED0A5F13003DBB2092B5AD8002E22
:1043D800D6D042464B46DDE90201FCF751F9CDE95A
:1043E8000201A5F13000FCF7E1F8DDE90223FBF753
:1043F80091FFCDE9020142464B46DDE90001FCF799
:104408003FF9CDE90001CDE7012309936AE70023CD
:10441800274CCDE9003400230024CDE90234CDE94E
:1044280004340BE0012309930023214CCDE9003427
:1044380000230024CDE90234CDE90434DDE900236A
:10444800DDE90201FCF746FADDE90423FBF762FF28
:1044580004460D460998FCF7A9F802460B46204683
:104468002946FCF70DF9089BC3E90001002078E70D
:10447800012076E7012074E7384672E7012070E7EB
:1044880001206EE701206CE730466AE7304668E7AE
:10449800012EF9D0013464B20123099322E7012ED9
:1044A800F4D0013464B24FF0FF3309931AE700BF28
:1044B8000000F03F0000244030B583B00546764B3D
:1044C8005B78022B08D0032B30D0CAB229460920CA
:1044D80000F0A2FC03B030BD704B1B7A042B10D047
:1044E800052B16D0062BF0D1CCB26D4A2146FFF72A
:1044F8009DFA0028EED022462946092000F08CFCBF
:10450800E8E7CAB2102A00F2B480644B18611A7541
:10451800E0E7CCB2624A2146FFF788FA0028D9D0F2
:1045280022462946092000F077FCD3E75B4B5B7AEB
:10453800012B17D0022B2ED0032B44D0042B5CD098
:10454800052B72D0062BC0D1CCB2554A2146FFF7B5
:10455800A7FE002800F0818022462946092000F0A5
:104568005BFCB7E7CCB24E4A2146FFF799FE28B16B
:1045780022462946092000F04FFCABE70022494BB0
:10458800CDE900233EA3D3E900234449D1E904013E
:10459800FFF76AFE9EE7CCB2414A2146FFF780FE4C
:1045A80028B122462946092000F036FC92E700226D
:1045B8003D4BCDE9002300223C4B3849D1E90401A9
:1045C800FFF752FE86E7CCB2354A2146FFF768FE70
:1045D80028B122462946092000F01EFC7AE72AA3C2
:1045E800D3E90023CDE9002329A3D3E900232B49EC
:1045F800D1E90401FFF738FE6CE7CCB2284A21461E
:10460800FFF74EFE28B122462946092000F004FC97
:1046180060E70022244BCDE900230022234B1F49E9
:10462800D1E90401FFF720FE54E7CCB21C4A214629
:10463800FFF736FE28B122462946092000F0ECFB98
:1046480048E70022184BCDE900230022174B1349F5
:10465800D1E90401FFF708FE3CE70022124BCDE93F
:1046680000230022114B0D49D1E90401FFF7FCFD9D
:1046780030E701460A2000F0CFFB2BE7AFF30080BC
:104688000000000000407FC00000000084D7874180
:104698000000000084D787C1500300205803002081
:1046A8006803002000407F4000005940000059C0C6
:1046B800704708B500F06EFF08BD704738B505466D
:1046C80011F0FF0417D0042C13D823460246042106
:1046D8001048FFF791F9B8B923462A4605210E4834
:1046E800FFF78AF938B10D4802238372FFF7E5FF17
:1046F80009E0052CF0D9094B00229A722246294676
:10470800022000F089FB38BD044801238372FFF7BB
:10471800CFFFF8E7FC8200086483000858030020F4
:1047280008B5C379022B15D1037A052B06D0062BC1
:1047380008D0042B0AD001F069F80DE0007CFFF7DF
:10474800BFF809E0007CFFF7C1F805E01030FFF77B
:10475800C3F801E001F05AF808BD000008B50221CD
:104768000148FEF705F908BDA08100082DE9F04FC2
:1047780083B00446B54BC35C13F0970F40F07F82BB
:104788001B2805D8B24BC34013F0010F40F07782C5
:104798007F2C00F074820221AE48FEF7E9F8002071
:1047A80000F00AFB044600F09FFAC2B2214601203D
:1047B80000F032FB00F05EFBFFF71AFD00F08AFA0A
:1047C8000221A548FEF7D4F8012003B0BDE8F08F18
:1047D800FFF70CF904280FD0052817D000F08CFA41
:1047E800C0B2FFF739F8FFF741F800F061FA00208E
:1047F800FFF72CFD0020E8E700F0FCFA08B10020E4
:10480800E3E70120FFF72DF80020DEE700F0E4FAE7
:1048180008B10020D9E70120FFF71EF80020D4E7EF
:104828002046FEF799F80D2C1DD0032C2FD01A2CFA
:104838002DD07F2C00F02E8214F0800F03D10A2C8B
:1048480014D00D2C12D0204600F05CFA002840F05D
:10485800F08100F051FA044600F046FA8442C0F0B4
:1048680001820020B1E70A20FEF776F800F0E2FAAC
:10487800A8B900F039FAA0B101250024A146019495
:104888002646764FDFF8D8B1DFF8D8A1AEE0FFF7BB
:10489800D1FC04217448FEF76BF8012095E700F07D
:1048A800E9FA00F0C7FA50B96D4B1A6801321A607C
:1048B8009B7A012B00F0A481022B00F0A581022134
:1048C8006548FEF755F8FFF7B5FC00207DE720287E
:1048D80000F08680092800F083802E2805D03D2826
:1048E80003D001233B7026467AE0E0B200F0AEFA2E
:1048F80076E02E280FD03D280DD0202801D0092899
:104908006ED102233B70304600F056FA4146FFF75D
:10491800D5FE2E4664E0002000F04EFA804600F0F6
:10492800E3F9C2B24146052000F076FA58E02028A3
:1049380056D0092854D02E2806D03D2804D0032369
:104948003B70A14626464BE0E0B200F07FFA47E014
:104958002E280FD03D2817D0202801D009283FD174
:10496800304600F029FA4146FFF7D8F82E460523CD
:104978003B7035E0304600F01FFA4146FFF7CEF8AD
:1049880004233B702E462BE09BF80A30022B0AD0FA
:10499800484600F011FA0146A4EB0902D2B20D20F4
:1049A80000F03AFA1CE0304600F006FA4146FFF7FC
:1049B800B5F82E4606233B7012E0A0F12003DBB2C7
:1049C8001D2B04D82AFA03F313F0010F05D1092887
:1049D80003D003233B70264602E0E0B200F036FA2B
:1049E80000F028FA013500286AD1013400F07CF97A
:1049F800A04268D9204600F0E7F9A4EB06083B7806
:104A0800082BEDD801A252F823F000BFD7480008C0
:104A1800FB4800083749000859490008C3490008FD
:104A2800394A0008934A0008A54A0008B94A00080C
:104A38002028D5D00928D3D03D2822D19BF80A3088
:104A4800022B13D106233B702E46C9E7C585000803
:104A58000824000CC0800008A08100085003002032
:104A6800580300200140002010820008484600F04A
:104A7800A3F90146A4EB0902D2B20D2000F0CCF94B
:104A8800AEE7E0B200F0E2F9AAE72028A8D00928AA
:104A9800A6D007233B7001952646A1E7202803D01E
:104AA800092801D001959BE708233B70019497E7FB
:104AB800202895D0092893D007233B7001958FE7CC
:104AC80000F0D8F9EDE600F00FF9841B744B1B7861
:104AD800082B11D8DFE803F005182E3E5C677984AF
:104AE8008C00002000F068F9044600F0FDF8C2B21E
:104AF8002146052000F090F900F09CF900283FF4C9
:104B0800D0AE00F0B7F9CCE6304600F055F92146B2
:104B1800FFF7D4FD634B9B7A022BEDD1002000F008
:104B28004BF9044600F0E0F8C2B22146062000F036
:104B380073F9E1E75B4B9B7A022BDDD1002000F093
:104B48003BF9044600F0D0F8C2B22146062000F036
:104B580063F9D1E7304600F02FF92146FEF7DEFF72
:104B680000F068F903464F4A927A022AC4D14C4AA7
:104B7800927802F00202134313F0FF0FBCD13046C3
:104B880000F01AF90146E2B2082000F045F9B3E74F
:104B980000F0AAF8013800F00FF9014601220620BA
:104BA80000F03AF9A8E73F4B9B7A022BA4D13C4B83
:104BB8009B7813F0020F9FD1304600F0FDF80146B4
:104BC800E2B2082000F028F996E700F08DF80138E5
:104BD80000F0F2F801460122082000F01DF98BE7E9
:104BE800304600F0E9F8019B991BFFF765FC83E765
:104BF800304600F0E1F8019B991BFFF75DFC7BE76D
:104C08002848FFF756FD5AE62648FFF789FD56E67D
:104C180000F072F804460120FEF71EFEFEF72CFE97
:104C2800FEF724FE2046FFF711FBFEF737FE0020B3
:104C3800CBE502211C48FDF79BFE002000F0BCF8E4
:104C4800044600F051F8C2B22146042000F0E4F80E
:104C580000F010F9FFF7EEFA02211448FDF788FE7C
:104C68000120B2E5FEF708FEFEF700FE2046FFF73A
:104C7800EDFAFEF713FE0020A7E50020A5E5204683
:104C8800FEF746FE0128F8D002283FF4A1AD7F2C9C
:104C98007FF4C6AD00F066F80028B9D0002094E58E
:104CA8005003002058030020C0800008A08100089D
:104CB800074BD3F888209A4203F14403A3F1440236
:104CC80018BF1346C2F888301B6CC2F88C30704786
:104CD80024010020034BD3F8881000220A64C3F88B
:104CE8008C20704724010020024BD3F88830186CC0
:104CF800704700BF24010020014BD3F88C00704797
:104D080024010020164BD3F888301B6C3F2B25D884
:104D180000B5134AD2F88C209A420CD21049D1F827
:104D280088209C46013B12F803E002F80CE0D1F819
:104D38008C209342F3D80A4BD3F88810D3F88C20F0
:104D48008854D3F888100A6C01320A64D3F88C208E
:104D58000132C3F88C2000205DF804FB0120704765
:104D680024010020134BD3F88830196CF1B1114B92
:104D7800D3F88C30E3B110B48B4209D20D4CD4F87F
:104D88008820D05C1A4402F8010C01339942F6D10C
:104D9800084BD3F888100A6C013A0A64D3F88C20BF
:104DA800013AC3F88C20002010BC704701207047DE
:104DB8000120704724010020024BD3F888301844A2
:104DC800704700BF24010020024BD3F88830185CDC
:104DD800704700BF24010020054BD3F88C302BB15D
:104DE800013B034AC2F88C3000207047012070470D
:104DF80024010020074AD2F88C30D2F88820126C9F
:104E0800934205D20133034AC2F88C300020704720
:104E1800012070472401002008B5054B18701F2A8F
:104E280028BF1F2283F82820581C03F0B9F808BDB2
:104E380070030020014B1878704700BF70030020F2
:104E4800014B00221A70704770030020024B0322A6
:104E58001A7083F8280070477003002030B4144695
:104E68001D46034B1870C3E90A4530BC704700BFA4
:104E78007003002070B56D4B1B78032B13D10024F1
:104E88007E266A4D3046FDF767FD95F82820A24238
:104E980004F10104F6DA5E20FDF75EFD0F21644897
:104EA800FDF766FD45E002216248FDF761FD5F4BB5
:104EB8001B78132B33D801A252F823F03B4F00087C
:104EC800154F00081F4F0008874E00083D4F000887
:104ED800474F0008514F00085B4F0008654F000816
:104EE8006F4F0008794F0008834F00088D4F000866
:104EF800974F0008CF4F000801500008A14F000845
:104F0800A14F0008CF4F0008015000081C214A4853
:104F1800FDF72EFD0DE00E214848FDF729FD434819
:104F280090F828100130FDF723FD03214448FDF7D0
:104F38001FFD70BD13214348FDF71AFDF9E7122143
:104F48004148FDF715FDEAE717214048FDF710FD38
:104F5800E5E72A213E48FDF70BFDE0E714213D482F
:104F6800FDF706FDDBE70F213B48FDF701FDD6E71E
:104F780013213A48FDF7FCFCD1E71A213848FDF720
:104F8800F7FCCCE717213748FDF7F2FCC7E71221F9
:104F98003548FDF7EDFCC2E722213448FDF7E8FC6F
:104FA800224B1B78102B07BF0D2131480C213148AB
:104FB800FDF7DEFC1D4B986AFDF72CFD02212E48FB
:104FC800FDF7D6FCB5E71D212C48FDF7D1FC174BA2
:104FD8001B780E2B0BD0154BD3E90A01FBF732FED9
:104FE800FDF734FD02212448FDF7C2FCA1E70F4B71
:104FF800986AFDF7C1FCF5E71C212148FDF7B8FCCC
:105008000A4B1B780F2B0BD0084BD3E90A01FBF78F
:1050180019FEFDF71BFD02211748FDF7A9FC88E7DB
:10502800024B986AFDF7A8FCF5E700BF7003002063
:10503800A08300086C830008708300089083000830
:1050480004850008B0830008C4830008D8830008DA
:10505800F08300081C840008348400084484000895
:1050680058840008748400088C840008A084000810
:10507800D4840008F4840008C0800008C4840008B0
:10508800E484000800230B704B700379013B042B68
:105098001CD8DFE803F003080D12170001230B707A
:1050A80002234B70704703230B7004234B70704727
:1050B80005230B7006234B70704707230B700923D9
:1050C8004B7070470A230B7011234B7070470023F5
:1050D8000B704B704379073B0A2B1DD8DFE803F0B0
:1050E800060B101C1C1C1C1C1C15190001230B7022
:1050F80002234B70704703230B7004234B707047D7
:1051080005230B7006234B70704707230B704B70F9
:10511800704708230B704B707047000010B582B0C1
:1051280004460379013B042B32D8DFE803F0031966
:105138001E2328000B218548FDF71AFC2E20FDF7B9
:105148000BFC6379013B102B22D8DFE803F01D33F9
:10515800383D42474C5D62676C71767B80858A007A
:1051680008217B48FDF704FCE8E708217948FDF7AA
:10517800FFFBE3E70B217848FDF7FAFBDEE70621A2
:105188007648FDF7F5FBD9E705217548FDF7F0FBF3
:105198003D20FDF7E1FB2379052B40F0CD806379B5
:1051A8000A3B072B00F2C480DFE803F0888D97A044
:1051B800A592BAB204216B48FDF7DAFBE8E70521AE
:1051C8006948FDF7D5FBE3E704216848FDF7D0FB04
:1051D800DEE705216648FDF7CBFBD9E704216548E2
:1051E800FDF7C6FBD4E70B216348FDF7C1FB2E2072
:1051F800FDF7B2FBA379013B072BC9D8DFE803F021
:10520800363B40454A4F545908215C48FDF7B0FBEE
:10521800EDE708215A48FDF7ABFBE8E708215948B4
:10522800FDF7A6FBB4E70D215748FDF7A1FBAFE753
:1052380004215648FDF79CFBAAE707215448FDF7CF
:1052480097FBA5E702215348FDF792FBA0E707214A
:105258005148FDF78DFB9BE708215048FDF788FB77
:10526800C5E708214E48FDF783FBC0E706214D48F6
:10527800FDF77EFB8CE705214B48FDF779FB87E7B7
:1052880006214A48FDF774FB82E705214848FDF7E7
:105298006FFB7DE706214748FDF76AFB78E70521A4
:1052A8004548FDF765FB73E707214448FDF760FBB8
:1052B8006EE707214248FDF75BFB69E71921414882
:1052C80000F034FB3BE045213F4800F034FB36E07A
:1052D8000D213E4800F034FB31E06846FEF702FB42
:1052E8009DF80410009800F042FB28E0FEF703FB4D
:1052F80000F039FB23E0FDF707FC00F030FBFDF779
:1053080009FC00F02CFBFDF70BFC00F028FB16E075
:10531800A379082B13D104212D4800F01BFB0EE0C4
:10532800A379072B0BD10421294800F00EFB06E0D6
:10533800204600F091F902E0204600F08DF90221A4
:105348002448FDF715FB02B010BD00BF38830008E4
:105358008C820008D882000818820008248200087D
:105368005483000844830008A88200089882000833
:10537800F4820008E48200082C830008CC8200082C
:10538800808200083C8200082C820008B482000851
:1053980014830008B08200085C8300084882000873
:1053A8005C8200081C83000824830008BC82000873
:1053B800C4820008708200087882000854820008BD
:1053C8006882000808850008248500086C850008A4
:1053D8007C850008C080000838B504460D460B7867
:1053E80083714A789A420AD238BD2046FFF796FE62
:1053F800A3790133DBB2A3716A789A42F4D3013BF3
:10540800072BF5D801A252F823F000BFF353000888
:10541800355400083D540008455400084D54000810
:10542800555400085D540008655400082046FFF7ED
:1054380075FEDDE72046FFF771FED9E72046FFF746
:105448006DFED5E72046FFF769FED1E72046FFF756
:1054580065FECDE72046FFF761FEC9E72046FFF766
:105468005DFEC5E730B583B004460D460B78437141
:105478004A789A420BD203B030BD2046FFF74EFE61
:1054880063790133DBB263716A789A42F3D3013BE3
:10549800102BF5D801A252F823F000BF835400085E
:1054A800E9540008F1540008F954000801550008AF
:1054B80009550008115500082355000835550008FE
:1054C800475500084F550008575500085F55000814
:1054D800675500086F55000877550008895500087A
:1054E8002046FFF71BFECBE72046FFF717FEC7E76E
:1054F8002046FFF713FEC3E72046FFF70FFEBFE77E
:105508002046FFF70BFEBBE701A92046FFF7DFFDAA
:1055180001A92046FFF760FFB2E701A92046FFF77F
:10552800D6FD01A92046FFF757FFA9E701A92046A4
:10553800FFF7CDFD01A92046FFF74EFFA0E7204663
:10554800FFF7ECFD9CE72046FFF7E8FD98E72046CB
:10555800FFF7E4FD94E72046FFF7E0FD90E72046DB
:10556800FFF7DCFD8CE72046FFF7D8FD88E701A9A7
:105578002046FFF7ACFD01A92046FFF72DFF7FE786
:1055880001A92046FFF7A3FD01A92046FFF724FF44
:1055980076E700BF837A012B00D0704710B582B040
:1055A80004460279BAB1013AD2B2042A02D8437940
:1055B800002B40D06379DA1FD2B2022A03D9103BFC
:1055C800DBB2012B02D8A379002B3CD02046FFF791
:1055D800A5FD02B010BD01228DF8042005218DF82B
:1055E800051002710FE069462046FFF74BFD69463A
:1055F8002046FFF737FF23790133DBB223719DF88B
:1056080005209A42E5D3022BEDD0032B0AD0012BBB
:10561800F1D169462046FFF735FD69462046FFF778
:1056280021FFE8E769462046FFF72CFD694620463A
:10563800FFF718FFDFE701A9FFF724FD01A92046BE
:10564800FFF710FFC5E701A92046FFF740FD01A9B4
:105658002046FFF7C1FEBCE700B583B00379013BE4
:10566800032B6DD8DFE803F0022344654379012B4F
:105678000AD0022B64D16946FCF72EFF90B10128AD
:105688005ED100F0F1F85BE06946FCF715FF20B148
:10569800012855D100F0E8F852E0DDE9000100F0FA
:1056A800EBF84DE09DF8000000F0ECF848E0437995
:1056B800032B0AD0042B43D16946FCF763FF90B152
:1056C80001283DD100F0D0F83AE06946FCF708FF20
:1056D80020B1012834D100F0C7F831E0DDE900013C
:1056E80000F0DCF82CE09DF8000000F0DDF827E081
:1056F8004379052B0AD0062B22D16946FCF756FFC1
:1057080090B101281CD100F0AFF819E06946FCF708
:105718003DFF20B1012813D100F0A6F810E0DDE923
:10572800000100F0CDF80BE09DF8000000F0CEF885
:1057380006E04379082B27D0092B46D0072B02D047
:1057480003B05DF804FB8379012B0AD0022BF7D153
:105758006946FCF744FF90B10128F1D100F084F8C4
:10576800EEE76946FCF726FF20B10128E8D100F0F2
:105778007BF8E5E7DDE9000100F0B4F8E0E7DDE9F2
:10578800000100F0B5F8DBE78379032B0AD0042B7E
:10579800D6D16946FCF74DFF90B10128D0D100F071
:1057A80063F8CDE76946FCF72FFF20B10128C7D180
:1057B80000F05AF8C4E7DDE9000100F09FF8BFE700
:1057C800DDE9000100F0A0F8BAE78379052B0AD0DB
:1057D800062BB5D16946FCF756FF90B10128AFD129
:1057E80000F042F8ACE76946FCF738FF20B1012821
:1057F800A6D100F039F8A3E7DDE9000100F08AF846
:105808009EE7DDE9000100F08BF899E708B5C37958
:10581800012B00D008BD037A022B0ED0032B17D022
:10582800012BF7D1437A012B04D0022BF2D1FCF7DC
:10583800E0FEEFE7FCF7C8FEECE7437A032B04D061
:10584800042BE7D1FCF7FFFEE4E7FCF7E7FEE1E70E
:10585800437A052B04D0062BDCD1FCF71EFFD9E7D1
:10586800FCF706FFD6E7000008B502210148FDF75E
:105878007FF808BD8085000808B5FBF7E3F9FDF758
:10588800E5F808BD012800D0704708B5072102488F
:10589800FDF76EF808BD00BF4C83000808B5FBF79C
:1058A800D1F9FDF7D3F808BD012800D0704708B535
:1058B80007210248FDF75CF808BD00BFA082000878
:1058C80008B5FBF7BFF9FDF7C1F808BD012800D0FE
:1058D800704708B506210248FDF74AF808BD00BF21
:1058E800EC82000808B5FBF7ADF9FDF7AFF808BD85
:1058F80008B5FBF7A7F9FDF7A9F808BD08B5FBF748
:10590800A1F9FDF7A3F808BD08B5FBF79BF9FDF76A
:105918009DF808BD08B5FBF795F9FDF797F808BDA0
:1059280008B5FBF78FF9FDF791F808BD08B589B2FE
:10593800FDF71EF808BD08B589B2FDF719F808BDCE
:1059480008B589B2FDF714F808BD08B589B2FDF7A6
:105958000FF808BD08B589B2FDF70AF808BD08B503
:10596800FDF764F808BD08B5FDF706F808BD08B5E9
:1059780089B2FCF7FDFF08BD0022C270084B012167
:10598800C3F8401CC3F8402CC3F8442CC3F8502C6F
:105998004FF41F4203490A60C3F8402C704700BF08
:1059A80000500040A003002070B592F802C00CF02F
:1059B8000F0CD37803F00303012B40D0032B41D005
:1059C800002B14BF00244FF400740CF1805303F52E
:1059D800B8539B0044EA0C041C60948892F902E0D6
:1059E800BEF1000F31DB0CEB8C0E00EB8E00446631
:1059F80001296CD092885C48006800EB0C1C5B485D
:105A08000068ACF808003E2A40F297801F3222F066
:105A18001F025201013A6FEA42426FEA524292B2C1
:105A2800ACF80C20012900F08D801A6822F480421D
:105A380022F0700282F4005292B21A6070BD4FF4E4
:105A48008064C2E74FF4C064BFE70CEB8C0200EB44
:105A5800820044614FEA0C1C434A1068434A1568A7
:105A680020F80C50013424F0010410682044106020
:105A7800012909D01A6822F4E04222F0400282F09B
:105A8800200292B21A60D9E71A6822F4E24222F0A0
:105A9800700242F4807292B21A6034480268324945
:105AA80009688C44ACF80820144404601A6822F48D
:105AB800E04222F0400282F0300292B21A601A6884
:105AC80022F4804222F0700292B21A60B6E7186897
