:020000040800F2
:1000000000200020B1720008F3280008F52800083D
:10001000FD280008052900080D290008000000003F
:10002000000000000000000000000000152900088A
:100030001729000800000000192900081B290008E2
:100040001173000811730008117300081173000880
:100050001173000811730008117300081173000870
:100060001173000811730008117300081173000860
:100070001173000811730008117300081173000850
:1000800011730008117300080000000011730008CC
:100090001173000811730008117300081173000830
:1000A0001173000811730008117300082329000858
:1000B0001173000800000000117300080000000028
:1000C000117300080000000011730008117300088C
:1000D000117300082B2900081173000800000000AC
:1000E00000000000000000001173000811730008F8
:1000F00011730008117300081173000811730008D0
:1001000011730008000000000000000011730008D7
:1001100000000000000000000000000000000000DF
:1001200000000000000000000000000000000000CF
:1001300000000000000000000000000000000000BF
:1001400000000000000000000000000000000000AF
:100150000000000000000000117300081173000887
:0801600011730008117300087F
:1001680010B5054C237833B9044B13B10448AFF3E9
:1001780000800123237010BD6006002000000000ED
:100188007873000808B5034B1BB103490348AFF364
:10019800008008BD00000000640600207873000895
:1001A80081F0004102E000BF83F0004330B54FEA20
:1001B80041044FEA430594EA050F08BF90EA020F8D
:1001C8001FBF54EA000C55EA020C7FEA645C7FEA20
:1001D800655C00F0E2804FEA5454D4EB5555B8BF43
:1001E8006D420CDD2C4480EA020281EA030382EAB4
:1001F800000083EA010180EA020281EA0303362D46
:1002080088BF30BD11F0004F4FEA01314FF4801C18
:100218004CEA113102D0404261EB410113F0004F2A
:100228004FEA03334CEA133302D0524263EB4303E1
:1002380094EA050F00F0A780A4F10104D5F1200E7F
:100248000DDB02FA0EFC22FA05F2801841F10001DA
:1002580003FA0EF2801843FA05F359410EE0A5F1AE
:1002680020050EF1200E012A03FA0EFC28BF4CF0DF
:10027800020C43FA05F3C01851EBE37101F0004595
:1002880007D54FF0000EDCF1000C7EEB00006EEBA2
:100298000101B1F5801F1BD3B1F5001F0CD349082C
:1002A8005FEA30004FEA3C0C04F101044FEA445283
:1002B80012F5800F80F09A80BCF1004F08BF5FEA0A
:1002C800500C50F1000041EB045141EA050130BDEA
:1002D8005FEA4C0C404141EB0101013C28BFB1F5FC
:1002E800801FE9D291F0000F04BF01460020B1FA47
:1002F80081F308BF2033A3F10B03B3F120020CDA1A
:100308000C3208DD02F1140CC2F10C0201FA0CF0F7
:1003180021FA02F10CE002F11402D8BFC2F1200C5C
:1003280001FA02F120FA0CFCDCBF41EA0C01904012
:10033800E41AA2BF01EB0451294330BD6FEA04045B
:100348001F3C1CDA0C340EDC04F11404C4F1200246
:1003580020FA04F001FA02F340EA030021FA04F358
:1003680045EA030130BDC4F10C04C4F1200220FAAF
:1003780002F001FA04F340EA0300294630BD21FAED
:1003880004F0294630BD94F0000F83F4801306BFB3
:1003980081F480110134013D4EE77FEA645C18BFA7
:1003A8007FEA655C29D094EA050F08BF90EA020F3E
:1003B80005D054EA000C04BF1946104630BD91EA36
:1003C800030F1EBF0021002030BD5FEA545C05D139
:1003D8004000494128BF41F0004130BD14F5800478
:1003E8003CBF01F5801130BD01F0004545F0FE41EC
:1003F80041F470014FF0000030BD7FEA645C1ABF21
:10040800194610467FEA655C1CBF0B46024650EA57
:10041800013406BF52EA033591EA030F41F4002183
:1004280030BD00BF90F0000F04BF0021704730B509
:100438004FF4806404F132044FF000054FF00001DE
:1004480050E700BF90F0000F04BF0021704730B59F
:100458004FF4806404F1320410F0004548BF404274
:100468004FF000013EE700BF42004FEAE2014FEAC9
:1004780031014FEA02701FBF12F07F4393F07F4FA4
:1004880081F06051704732F07F4208BF704793F0A7
:100498007F4F04BF41F40021704730B54FF46074BA
:1004A80001F0004521F000411CE700BF50EA0102BD
:1004B80008BF704730B54FF000050AE050EA010266
:1004C80008BF704730B511F0004502D5404261EBD6
:1004D80041014FF4806404F132045FEA915C3FF417
:1004E800D8AE4FF003025FEADC0C18BF03325FEAB4
:1004F800DC0C18BF033202EBDC02C2F1200300FA65
:1005080003FC20FA02F001FA03FE40EA0E0021FA89
:1005180002F11444BDE600BF70B54FF0FF0C4CF477
:10052800E06C1CEA11541DBF1CEA135594EA0C0F29
:1005380095EA0C0F00F0DEF82C4481EA030621EA64
:100548004C5123EA4C5350EA013518BF52EA03359F
:1005580041F4801143F4801338D0A0FB02CE4FF051
:100568000005E1FB02E506F00042E0FB03E54FF081
:100578000006E1FB03569CF0000F18BF4EF0010E79
:10058800A4F1FF04B6F5007F64F5407404D25FEA75
:100598004E0E6D4146EB060642EAC62141EA555128
:1005A8004FEAC52040EA5E504FEACE2EB4F1FD0C6A
:1005B80088BFBCF5E06F1ED8BEF1004F08BF5FEAE8
:1005C800500E50F1000041EB045170BD06F000469A
:1005D80046EA010140EA020081EA0301B4EB5C0447
:1005E800C2BFD4EB0C0541EA045170BD41F480113F
:1005F8004FF0000E013C00F3AB8014F1360FDEBF64
:10060800002001F0004170BDC4F10004203C35DA3F
:100618000C341BDC04F11404C4F1200500FA05F3C2
:1006280020FA04F001FA05F240EA020001F0004263
:1006380021F0004110EBD37021FA04F642EB0601D9
:100648005EEA430E08BF20EAD37070BDC4F10C0403
:10065800C4F1200500FA04F320FA05F001FA04F2C7
:1006680040EA020001F0004110EBD37041F10001B3
:100678005EEA430E08BF20EAD37070BDC4F12005BE
:1006880000FA05F24EEA020E20FA04F301FA05F226
:1006980043EA020321FA04F001F0004121FA04F2CE
:1006A80020EA020000EBD3705EEA430E08BF20EA9E
:1006B800D37070BD94F0000F0FD101F000464000D8
:1006C80041EB010111F4801F08BF013CF7D041EA5A
:1006D800060195F0000F18BF704703F0004652005E
:1006E80043EB030313F4801F08BF013DF7D043EA2F
:1006F8000603704794EA0C0F0CEA135518BF95EAE5
:100708000C0F0CD050EA410618BF52EA4306D1D16B
:1007180081EA030101F000414FF0000070BD50EA8A
:10072800410606BF1046194652EA430619D094EA14
:100738000C0F02D150EA013613D195EA0C0F05D1FE
:1007480052EA03361CBF104619460AD181EA030152
:1007580001F0004141F0FE4141F470014FF000000A
:1007680070BD41F0FE4141F4780170BD70B54FF0A5
:10077800FF0C4CF4E06C1CEA11541DBF1CEA135525
:1007880094EA0C0F95EA0C0F00F0A7F8A4EB050407
:1007980081EA030E52EA03354FEA013100F08880FE
:1007A8004FEA03334FF0805545EA131343EA1263C7
:1007B8004FEA022245EA111545EA10654FEA00267C
:1007C8000EF000419D4208BF964244F1FD0404F535
:1007D800407402D25B084FEA3202B61A65EB030591
:1007E8005B084FEA32024FF480104FF4002CB6EB4E
:1007F800020E75EB030E22BFB61A754640EA0C00CE
:100808005B084FEA3202B6EB020E75EB030E22BF0D
:10081800B61A754640EA5C005B084FEA3202B6EB4E
:10082800020E75EB030E22BFB61A754640EA9C000D
:100838005B084FEA3202B6EB020E75EB030E22BFDD
:10084800B61A754640EADC0055EA060E18D04FEA9B
:10085800051545EA16754FEA06164FEAC30343EA3B
:1008680052734FEAC2025FEA1C1CC0D111F4801F08
:100878000BD141EA00014FF000004FF0004CB6E701
:1008880011F4801F04BF01430020B4F1FD0C88BFA0
:10089800BCF5E06F3FF6AFAEB5EB030C04BFB6EBAB
:1008A800020C5FEA500C50F1000041EB045170BD9E
:1008B8000EF0004E4EEA113114EB5C04C2BFD4EBCB
:1008C8000C0541EA045170BD41F480114FF0000E4F
:1008D800013C90E645EA060E8DE60CEA135594EACB
:1008E8000C0F08BF95EA0C0F3FF43BAF94EA0C0FCE
:1008F8000AD150EA01347FF434AF95EA0C0F7FF443
:1009080025AF104619462CE795EA0C0F06D152EA96
:1009180003353FF4FDAE1046194622E750EA41067A
:1009280018BF52EA43067FF4C5AE50EA41047FF48B
:100938000DAF52EA43057FF4EBAE12E74FF0FF3CF0
:1009480006E000BF4FF0010C02E000BF4FF0010CC1
:100958004DF804CD4FEA410C7FEA6C5C4FEA430C3A
:1009680018BF7FEA6C5C1BD001B050EA410C0CBF89
:1009780052EA430C91EA030F02BF90EA020F0020EB
:10098800704710F1000F91EA030F58BF994208BF52
:1009980090422CBFD8176FEAE37040F0010070470F
:1009A8004FEA410C7FEA6C5C02D150EA013C07D166
:1009B8004FEA430C7FEA6C5CD6D152EA033CD3D0B1
:1009C8005DF8040B704700BF8446104662468C46AB
:1009D8001946634600E000BF01B5FFF7B7FF0028DE
:1009E80048BF10F1000F01BD4DF808EDFFF7F4FF07
:1009F8000CBF012000205DF808FB00BF4DF808ED92
:100A0800FFF7EAFF34BF012000205DF808FB00BFB4
:100A18004DF808EDFFF7E0FF94BF012000205DF8D6
:100A280008FB00BF4DF808EDFFF7CEFF94BF01208B
:100A380000205DF808FB00BF4DF808EDFFF7C4FF84
:100A480034BF012000205DF808FB00BF4FEA4102D7
:100A580012F5001215D211D56FF47873B3EB625208
:100A680012D94FEAC12343F0004343EA505311F02F
:100A7800004F23FA02F018BF404270474FF00000C1
:100A8800704750EA013005D111F0004008BF6FF0FF
:100A9800004070474FF00000704700BF4A0011D275
:100AA80012F5001211D20DD56FF47873B3EB6252C0
:100AB8000ED44FEAC12343F0004343EA505323FACC
:100AC80002F070474FF00000704750EA013002D141
:100AD8004FF0FF3070474FF0000070474FEA410277
:100AE800B2F1E04324BFB3F5001CDCF1FE5C0DD984
:100AF80001F0004C4FEAC0024CEA5070B2F1004FCE
:100B080040EB830008BF20F00100704711F0804FD0
:100B180021D113F13872BCBF01F00040704741F495
:100B280080114FEA5252C2F11802C2F1200C10FA99
:100B38000CF320FA02F018BF40F001004FEAC1237D
:100B48004FEAD32303FA0CFC40EA0C0023FA02F321
:100B58004FEA4303CCE77FEA625307D150EA0133F7
:100B68001EBF4FF0FE4040F44000704701F00040C7
:100B780040F0FE4040F40000704700BF53B94AB946
:100B8800002908BF00281CBF4FF0FF314FF0FF308D
:100B980000F076B9ADF1080C6DE904CE00F006F866
:100BA800DDF804E0DDE9022304B070472DE9F047E1
:100BB800089E0D4604468846002B4DD18A4294462D
:100BC80068D9B2FA82F252B101FA02F3C2F12001F5
:100BD80020FA01F10CFA02FC41EA030894404FEABA
:100BE8001C41B8FBF1F71FFA8CFE01FB178807FBC5
:100BF8000EF0230C43EA084398420AD91CEB03037E
:100C080007F1FF3580F01E81984240F21B81023FB8
:100C180063441B1AB3FBF1F001FB103300FB0EFE1B
:100C2800A4B244EA0344A6450AD91CEB040400F123
:100C3800FF3380F00981A64540F2068164440238FA
:100C48000021A4EB0E0440EA07401EB10023D44063
:100C5800C6E90043BDE8F0878B4208D9002E00F0B2
:100C6800EE800021C6E900050846BDE8F087B3FA22
:100C780083F100294AD1AB4202D3824200F2FC80C0
:100C8800841A65EB030301209846002EE2D0C6E9DA
:100C98000048DFE702B9FFDEB2FA82F2002A40F02C
:100CA8009180A1EB0C0001214FEA1C471FFA8CFE32
:100CB800B0FBF7F307FB1300250C45EA00450EFBD4
:100CC80003F0A84208D91CEB050503F1FF3802D24E
:100CD800A84200F2CE8043462D1AB5FBF7F007FB79
:100CE80010550EFB00FEA4B244EA0544A64508D9F7
:100CF8001CEB040400F1FF3502D2A64500F2B680D1
:100D08002846A4EB0E0440EA03409EE7C1F1200701
:100D18008B4022FA07FC4CEA030C25FA07FA4FEA43
:100D28001C49BAFBF9F820FA07F309FB18AA8D4009
:100D38001FFA8CFE1D4300FA01F308FB0EF02C0C81
:100D480044EA0A44A04202FA01F20BD91CEB04045B
:100D580008F1FF3A80F08880A04240F28580A8F12F
:100D680002086444241AB4FBF9F009FB104400FBA0
:100D78000EFEADB245EA0444A64508D91CEB0404AE
:100D880000F1FF356CD2A6456AD90238644440EABE
:100D98000840A0FB0295A4EB0E04AC42C846AE4640
:100DA80056D353D0002E69D0B3EB080264EB0E047F
:100DB80022FA01F304FA07F71F43CC40C6E900748E
:100DC800002147E70CFA02FCC2F1200125FA01F3E1
:100DD8004FEA1C4720FA01F195400D43B3FBF7F1A8
:100DE80007FB11331FFA8CFE280C40EA034001FB75
:100DF8000EF3834204FA02F408D91CEB000001F157
:100E0800FF382FD283422DD902396044C01AB0FB73
:100E1800F7F307FB1300ADB245EA004503FB0EF0FC
:100E2800A84208D91CEB050503F1FF3816D2A842E1
:100E380014D9023B6544281A43EA014138E7314690
:100E4800304607E72F46E4E61846F9E64B45A9D2AF
:100E5800B9EB020865EB0C0E0138A3E74346EAE755
:100E6800284694E74146D1E7D0467BE764440238F8
:100E780047E7023B65442FE7084606E73146E9E6BF
:100E8800704700BF70472DE9F04F83B006460F4604
:100E980001929846DDF83090DDF838A00F9B13F0EA
:100EA800030F14D10D9B534528BF154610D20D9B37
:100EB800AAEB0305019C25444FF0200B2246013480
:100EC800434639465846B047AC42F7D100E0019D49
:100ED8000D9B7BB10D9B09EB030B5C46AB44ABEB65
:100EE80004024346394614F8010DB0474C45F6D183
:100EF8000D9B1D440F9B13F0020F0ED0019BEC1AA3
:100F0800A2450AD94FF020092A46434601353946F9
:100F18004846B04701345445F6D3284603B0BDE8E7
:100F2800F08F2DE9F04385B0DDF830E00D9C9DF899
:100F38003880109F119D129E16F0020F38D17DB196
:100F480016F0010F00F08A80B8F1000F02D116F0F8
:100F58000C0F00D0013DBC4215D21F2C04D912E061
:100F6800BC420DD21F2C0BD804F1FF3CF4444FF0C7
:100F7800300901340CF8019FA74201D9202CF8D17F
:100F880016F0010F14D0A54212D91F2C0BD804F16A
:100F9800FF3CF4444FF0300901340CF8019FAC4297
:100FA80005D0202CF8D116F0100F04D120E02C46E3
:100FB80016F0100F13D016F4806F04D11CB1A7429D
:100FC80020D0AC421ED00F9F102F24D00F9F022F8D
:100FD8002DD01F2C0CD830270EF8047001341F2C8C
:100FE80006D8B8F1000F29D02D270EF80470013467
:100FF800039602950194CDF800E0FFF744FF05B091
:10100800BDE8F083B4F1010C0FD00F9F102F01D071
:101018006446DBE7023C16F0200F24D11F2CD8D8F9
:1010280078270EF804700134D3E76446CBE71F2C09
:10103800DED862270EF804700134CAE716F0040FF0
:1010480004D02B270EF804700134D1E716F0080FEE
:10105800CED020270EF804700134C9E7BC42A7D2CD
:101068001F2C81D9A4E71F2CC2D858270EF804706A
:101078000134AEE72DE9F04190B0169C189DDDF8DB
:101088006C802CB928F0100618F4806F34D1B04663
:1010980018F0200F14BF412761270DF1200E0026FC
:1010A8000A3F00E06446B4FBF5FC05FB1C4C5FFA04
:1010B8008CFCBCF1090F94BF0CF1300CBC445FFAF6
:1010C8008CFC01360EF801CBB4FBF5FCAC4201D325
:1010D800202EE7D1CDF818801A9C0594199C049409
:1010E80003959DF85C400294019608AC0094FFF7C4
:1010F80018FF10B0BDE8F081B0462646EAE72DE9B2
:10110800F04F95B0089009910A920B931E9C1F9D71
:10111800229EDDF88C80DDF898B054EA050305D1ED
:101128002BF010031BF4806F40D19B461BF0200F5F
:1011380014BF4FF0410A4FF0610A0DF13009002742
:10114800AAF10A0A01E004460D4632464346204603
:101158002946FFF713FDD2B2092A94BF3032524410
:10116800D2B2013709F8012B3246434620462946B8
:10117800FFF704FDB44275EB080301D3202FE2D139
:10118800CDF818B0259B0593249B049303969DF8EE
:101198008030029301970CAB00930B9B0A9A099934
:1011A8000898FFF7BEFE15B0BDE8F08F9B460027F4
:1011B800E6E70000000000002DE9F04F91B004467A
:1011C8000D460B921E461A9F0797DDF86C80CDF8E6
:1011D80020803A46434638464146FFF705FC00283A
:1011E80000F0A7814FF0FF32A34B38464146FFF786
:1011F80023FC002840F09D814FF0FF326FF48013EC
:1012080038464146FFF7FAFB002840F09281002259
:101218000023079F3846DDF820804146FFF7EEFBA4
:10122800002840F09B81079A089B09920A931E9B0D
:1012380013F480630F931C9B08BF06231C93DDF8EF
:1012480024A00A9FC7F30A50A0F2FF30FFF7FAF86C
:1012580079A3D3E90023FFF75FF979A3D3E9002342
:10126800FEF7A4FF80468946C7F31307504647F0A8
:101278007F5141F440110022804BFEF795FF72A385
:10128800D3E90023FFF748F902460B464046494692
:10129800FEF78CFFFFF7DAFB0E90FFF7D3F88046D6
:1012A80089466BA3D3E90023FFF736F90022744B74
:1012B800FEF77CFFFFF7CAFB074667A3D3E90023C5
:1012C80040464946FFF728F9804689463846FFF7E1
:1012D800B9F863A3D3E90023FFF71EF902460B46CA
:1012E80040464946FEF760FF82468B4602460B465B
:1012F800FFF712F98046894652465B4650465946E2
:10130800FEF754FFCDE90C0100225E4B40464946EA
:10131800FFF72CFA00225C4BFEF748FF02460B460B
:1013280040464946FFF722FA0022584BFEF73EFF97
:1013380002460B4640464946FFF718FA804689465A
:1013480052465B4600204FF08041FEF72DFF0246D3
:101358000B4640464946FEF729FF02460B46DDE9A3
:101368000C01FFF703FA0022494BFEF71FFF07F2B3
:10137800FF3700223B05FFF7CFF880468946099AD8
:101388000A9BFFF759FB002840F0ED80C246CB4688
:10139800DDF8388008F16303C72B34BF042705271D
:1013A8001E9B13F4006F24D02FA3D3E900230998C0
:1013B800DDF828904946FFF735FB002800F0DF806C
:1013C8002BA3D3E9002309984946FFF717FB002808
:1013D80000F0D5801C9B4345C3BF4246981A00F1D4
:1013E800FF3300231C931E9B43F480631E93002746
:1013F8000E971D9B9F4234BFA3EB07084FF00008D0
:101408001E9B13F0020903D0002F18BF4FF00008ED
:101418000E9B3BB152465B4609980A99FFF7A6F91D
:1014280009900A910022002307980899FFF7E6FA25
:10143800002840F0B0802DE0FB799F501344D33F43
:10144800B3C8608B288AC63F61436F63A787D23FC2
:1014580071A379094F930A401655B5BBB16B024089
:10146800EF39FAFE422EE63F2D431CEBE2361A3FD7
:101478000000000080842E41FFFFEF7F0000F83F4E
:101488000000E03F00002C4000002440000018400D
:101498000000F03F1E9B23F400630493CDF80C80FA
:1014A8001C9B0293099A0A9BCDE900233346DDF879
:1014B8002CB05A462946204600F076F88046002F80
:1014C80048D01E9B13F0200F00F1010A3346024654
:1014D800294614BF45206520A04705230593013FF1
:1014E8000497002303930A2302930E99CB0F0193C9
:1014F8000029B8BF49420091334652462946204642
:10150800FFF7B8FD8046B9F1000F23D0A0EB0B0719
:101518001D9BBB421ED94FF020099A4642463346CE
:1015280008F1010829464846A04701375745F5D331
:1015380010E01E9B04931D9B03931C9B0293079A28
:10154800089BCDE9002333460B9A2946204600F034
:101558002BF88046404611B0BDE8F08F099708F196
:1015680000430A9363E60E9B013B0E9300220C4B4B
:1015780040464946FFF7FAF882468B4608E71C9B27
:10158800002B3FF436AF0F9B002B3FF432AF1C9B70
:10159800013B1C932DE70A9901F100430A9379E76F
:1015A80000002440000000002DE9F04F97B007909C
:1015B8000C9192469B46DDE9208942464B464046BF
:1015C8004946FFF711FA002849D04FF0FF326FF46F
:1015D800801340464946FFF711FA00284ED14FF0D4
:1015E800FF32B34B40464946FFF726FA002854D14C
:1015F800ABA3D3E9002340464946FFF71DFA00286C
:1016080063D1A9A3D3E9002340464946FFF7F6F979
:1016180000285AD10022002340464946FFF7EEF938
:10162800002861D100230D93249B13F4806569D0B1
:10163800229B092B63D930238DF83830229B5E1EFC
:101648000EAAA3F1090501233021AB425BD0013377
:1016580002F8011F013E202BF7D11D4653E0249BC1
:101668000393239B029303230193924B00935B46BE
:1016780052460C990798FFF706FC5BE1249B0393FD
:10168800239B0293042301938B4B00935B465246A2
:101698000C990798FFF7F7FB4CE1249B13F0040221
:1016A800864B874908BF0B46002A14BF0422032231
:1016B8002499039123990291019200935B46524623
:1016C8000C990798FFF7DFFB34E1249B0493239BD5
:1016D8000393229B0293CDE900895B4652460C99FD
:1016E8000798FFF769FD25E142464B460020002197
:1016F800FEF75AFD8046894601230D9394E71E465E
:10170800002500E0062640464946FFF79FF90446B3
:101718006C4B03EBC603D3E90023CDE90823FEF79E
:1017280091FE02460B4640464946FEF73DFDDDE97F
:101738000823FEF7F1FE02460B46CDE90A23FFF720
:10174800ADF90746FEF76EFE02460B46DDE90A01D3
:10175800FEF72AFD02460B46CDE90A2300225A4B22
:10176800FFF76AF950B301373846FEF75BFE0246C9
:101778000B46DDE90801FFF74BF908B101340027F2
:10178800002E6FD12046FEF75DFE02460B4640460E
:101798004946FEF709FD06460F4600224A4BFFF769
:1017A8002DF930B10022484B30463946FFF744F94D
:1017B80060B314F0010F29D0013427E00022424B16
:1017C800DDE90A01FFF71AF90028D9D117B117F096
:1017D800010FD5D00137D3E71F2900F2AE80BCF145
:1017E800000F3DD00EAB5A190D463020013502F8D6
:1017F800010F202D0AD0EB430B44F342F6D105F13B
:1018080058036B442E2203F8202C013505F15803A8
:101818000DEB0302213A2D491F2D79D8013581FBA3
:101828000430E317C3EBA00303EB8300A4EB4004ED
:10183800303402F8014F1C46002BEDD1249B03F0F5
:101848000303012B46D01F2D67D80D9B002B47D0D3
:1018580005F158036B442D2203F8202C01355CE078
:101868000D46CCE705F158030DEB03002138DFF8EE
:1018780060E01F2DCAD806F1FF3C691CAEFB073299
:10188800D20802EB8203A7EB4303303300F8013F91
:10189800092FA1D9664617460D46EAE7AFF300803F
:1018A8000000000065CDCD410000000065CDCDC130
:1018B800FFFFEF7FC0730008C4730008B47300080B
:1018C800BC730008D07300080000E03F67666666D6
:1018D800CDCCCCCC239B002BB5D033E0239DB2E7F5
:1018E800249B13F0040F07D005F158036B442B22F7
:1018F80003F8202C013510E0249B13F0080F0CD0BE
:1019080005F158036B44202203F8202C013504E02C
:10191800249B03F00303012B11D0249B0393239BE7
:10192800029301950EAB00935B4652460C990798BB
:10193800FFF7A9FA17B0BDE8F08F0D4666E7239BBD
:10194800002BEAD00D9B1BB9249B13F00C0F02D07F
:10195800239B013B2393239BAB427FF674AF1F2D40
:10196800DBD805F158036B44213B3022239901351C
:1019780003F8012F8D42B1D0202DF8D1CDE700BF5B
:1019880000B9704708B500F0E5FE08BD2DE9F04F35
:1019980091B017461C46DDF86880B1F10009804B0C
:1019A80014BF82469A462078002800F0CE824FF075
:1019B800000B2EE1621C4FF0000C144612F8013B9C
:1019C800A3F1200110290AD8DFE801F02E09093116
:1019D800090909090909092B092809092500A3F199
:1019E8003002D2B2092A25D92A2B31D000252378F2
:1019F8002E2B36D000262378683B122B5DD8DFE8E3
:101A080003F0B85CC65C535C5C5C5C5C5C5CC25CB0
:101A18005C5C5C5CCA004CF0010CCEE74CF0020C3C
:101A2800CBE74CF0040CC8E74CF0080CC5E74CF0C9
:101A3800100CC2E7002505EB850503EB4505303D95
:101A480014F8013FA3F13002D2B2092AF3D9CEE744
:101A580058F8045B002DBCBF4CF0020C6D420134F9
:101A6800C5E74CF4806C611C6378A3F13002D2B2F4
:101A7800092A04D92A2B11D00C460026BBE70026D8
:101A880006EB860603EB4606303E11F8013FA3F14C
:101A98003002D2B2092AF3D90C46ACE758F8046BE5
:101AA80026EAE6760234A6E763786C2B19BF4CF475
:101AB800807C01344CF4407C02342078A0F125036A
:101AC800532B00F23982DFE813F02D023702370278
:101AD8003702370237023702370237023702370236
:101AE8003702370237023702370237023702370226
:101AF8003702370237023702370237023702370216
:101B08003702370237023702370240012701400106
:101B180037023702370237023702370237023702F5
:101B280037023702370237023702370237023702E5
:101B38006D003702370237023702370237023702A1
:101B4800370237026D0064016D0040012701400132
:101B580037026D00370237023702370237026D004D
:101B68001702370237029F0137026D00370237022A
:101B78006D006378682B19BF4CF0800C01344CF071
:101B8800C00C023499E74CF4807C013495E74CF49E
:101B9800007C013491E74CF4807C01348DE700BF70
:101BA8008D0E0008782800F02182582800F0DC818A
:101BB8006F2800F01D82622800F01C822CF01003B0
:101BC800692832D11CF4806F40F00C820A2213F489
:101BD800007F35D113F4807F54D113F0400F65D0C6
:101BE80058F8041BC9B20593049503960292CB0FCB
:101BF80001930029B8BF494200913B465A464946DD
:101C08005046FFF737FA834601342078002800F061
:101C18009E8125283FF4CEAE0BF101053B465A467E
:101C28004946D0470134AB46EFE7642805D11CF498
:101C3800806F40F0D3810A22C9E79C460A2296E1C8
:101C480008F1070020F00700804658F8081B406894
:101C5800089307950696049200230593C30F0293F1
:101C68000246002809DB009101923B465A46494644
:101C78005046FFF744FA8346C6E74B42194660EBE5
:101C88004002F0E758F8041B059304950396029266
:101C9800CB0F01930029B8BF494200913B465A46F1
:101CA80049465046FFF7E6F98346ADE713F0800F43
:101CB80058F8041B18BF09B295E708F1070828F07F
:101CC8000708089307950696002304920593029344
:101CD800F8E80223CDE900233B465A4649465046D8
:101CE800FFF70DFA83468FE7059304950396029252
:101CF8000023019358F8043B00933B465A46494653
:101D08005046FFF7B7F983467EE713F0800F58F87F
:101D1800041B18BF89B246E1462808BF4CF0200CC6
:101D280008F1070828F00708CDF810C003950296B7
:101D3800F8E80223CDE900233B465A464946504677
:101D4800FFF732FC834601345FE700F0DF03472BDF
:101D580002D0452808D105E04CF4006C00F0FD00E5
:101D6800452801D14CF0200C08F1070828F0070895
:101D7800CDF810C003950296F8E80223CDE90023B8
:101D88003B465A4649465046FFF716FA8346013401
:101D98003BE71CF0020F1CD043460BF1010653F839
:101DA800040B0B933B465A464946C0B2D047012D17
:101DB80088BF05EB0B0840F20581324601363B46E9
:101DC80049462020D047B045F7D1AB44DDF82C80F8
:101DD80018E0012D40F2FA800BF1FF331D44202654
:101DE8005A460BF1010B3B4649463046D0475D4504
:101DF800F6D105F1010B58F8040B3B462A46494633
:101E0800C0B2D047013400E7434653F8048B0C9323
:101E1800002E14BF31464FF0FF3198F8000000281B
:101E280000F0DA80434613F8012F1AB1A8EB030239
:101E3800CA42F8D1A3EB08030B931CF480620D92FD
:101E480003D0B34228BF33460B931CF002030E9312
:101E580006D0002800F0BC805A460F950D9D29E059
:101E68000B9A531C954240F2B58005EB0B039B1A65
:101E78000F93CDF82C8098465A460BF1010B3B4640
:101E880049462020D047C345F6D1DDF82C806B1C8D
:101E98000B93DDF83CB098F800000028DCD114E082
:101EA8001E4602F1010B3B464946D04718F8010F80
:101EB80040B15A46002DF4D0731E002EF0D10F9D6C
:101EC800934600E00F9D0E9B1BB90134DDF830806E
:101ED8009BE65E460B9B9D420CD93544A5EB030B54
:101EE8002025324601363B4649462846D047B34569
:101EF800F7D1EAE7B346E8E74CF021030593082356
:101F080004930396102302930023019358F8043B8B
:101F180000933B465A4649465046FFF7ABF883467E
:101F2800013472E60BF101053B465A464946252025
:101F3800D0470134AB4668E60BF101053B465A46EB
:101F48004946D0470134AB465FE64FF0000B5F458A
:101F580094BF07F1FF325A463B4649460020D04716
:101F6800584611B0BDE8F08F4CF0200C10222CF030
:101F78000C031CF4806F07D02CF00D0369283FF484
:101F880026AE64283FF423AE13F4007F7FF495AEA9
:101F980013F4807F7FF4A8AE13F0400F3FF4B5AE82
:101FA80058F8041BC9B205930495039602920023BE
:101FB800019300913B465A4649465046FFF75AF866
:101FC800834621E6DDF82C80B3461BE75D4610E723
:101FD8005E467FE70B935EE743462BE72CF0110341
:101FE8000A22F4E52CF011030A22F0E51022BEE7DC
:101FF8000822BCE70222BAE70FB400B585B006AAEA
:1020080052F8043B039200924FF0FF3202A90448B1
:10201800FFF7BCFC05B05DF804EB04B0704700BFE7
:102028008919000870B582B005460C461646126834
:10203800264B1B689A4205D1244B5B68002B33D092
:10204800013B32E0002303600B60019301A805F017
:10205800EBF8E0B9019B236001A805F005F9D8B9B0
:10206800019B2B603268194B1A60286821685A68EE
:1020780002EB420403EB84039860D96001211974D0
:102088000A44632A0CD8114B5A6000201BE0104800
:10209800FFF7B2FF012016E00E48FFF7ADFFF9E7A2
:1020A80000200A4B58600EE06323084A03EB430103
:1020B80002EB81018968296003EB430302EB830388
:1020C800DB682360002002B070BD00BF0000002064
:1020D800207400084874000810B5044600F030FF6A
:1020E8000378012B03D0032B0DD0204610BD2046CA
:1020F800FEF7BAF910A3D3E90023FEF755F8FEF767
:10210800EDFC0446F1E72046FEF7AEF90AA3D3E951
:102118000023FEF749F80022094BFEF7FDF90022DB
:10212800084BFEF723FB0022074BFEF73FF8FEF7AC
:10213800D5FC0446D9E700BF66666666661271403C
:10214800000022400000144000004040054B03F509
:102158009660002200219A60DA6019740C33834279
:10216800F9D170470000002030B401230370002427
:102178000025C0E902450022044BC0E90423C0E958
:102188000645C0E9082330BC704700BF0000F03F97
:10219800D0B582B002460C46694601A8FFF742FF57
:1021A800F0B90198FFF798FF074600F0C9FE064608
:1021B8003846FEF759F9D6E90423FEF7ADF9064685
:1021C8000F4600F0BDFE32463B4600F10801D1E95A
:1021D8000001FDF7EBFFC4E90001002002B0D0BD0B
:1021E8000220FBE7D0B582B002460C46694601A83A
:1021F800FFF718FFF0B90098FFF76EFF074600F0E9
:102208009FFE06463846FEF72FF9D6E90823FEF763
:1022180083F906460F4600F093FE32463B4600F12E
:102228001801D1E90001FDF7C1FFC4E90001002050
:1022380002B0D0BD0220FBE710B50C4600F080FECE
:1022480003782370002010BD10B5044600F078FE16
:10225800237E037000F078FE10BD000030B583B017
:102268000C460023019301A804F096FF40B90546E7
:102278000198FEF7F9F8C4E90001284603B030BD1B
:102288000248FFF7B9FE0225F7E700BF707400089F
:1022980008B500F11801D1E90001FEF71FFC04F0B0
:1022A8009BFF00B908BD0248FFF7A6FEFAE700BF8A
:1022B80090740008D0B50C46184B5A68C3689A4207
:1022C80038BF6432D31A03EB4302144800EB82028E
:1022D800127C0AB90120D0BD03EB430300EB830352
:1022E8009868FFF7F9FE074600F02AFE06463846CA
:1022F800FEF7BAF8D6E90423FEF70EF906460F46AC
:1023080000F01EFE32463B4600F10801D1E900010B
:10231800FDF74CFFC4E900010020DCE700000020C5
:10232800D0B50C46184B5A68C3689A4238BF643215
:10233800D31A03EB4302144800EB8202127C0AB959
:102348000120D0BD03EB430300EB8303D868FFF7FC
:10235800C3FE074600F0F4FD06463846FEF784F84B
:10236800D6E90823FEF7D8F806460F4600F0E8FD40
:1023780032463B4600F11801D1E90001FDF716FF8E
:10238800C4E900010020DCE70000002010B50C467D
:1023980000F0D6FDD0E90623C4E90023002010BDD3
:1023A80010B5044600F0CCFDD4E90623C0E90623A5
:1023B80000F0CAFD10BD10B50C4600F0C1FDD0E913
:1023C8000823C4E90023002010BD10B5044600F01E
:1023D800B7FDD4E90623C0E9082300F0B5FD10BD18
:1023E80010B50C4600F0ACFDD0E90223C4E9002387
:1023F800002010BD10B5044600F0A2FDD4E9062364
:10240800C0E9022300F0A0FD10BD10B50C4600F095
:1024180097FDD0E90423C4E90023002010BD10B5BE
:10242800044600F08DFDD4E90623C0E9042300F03A
:102438008BFD10BD08B5FFF789FE08BD38B5044609
:10244800094D05F13C02002103F034F905F135028C
:102458000021204603F02EF905F12502002120462F
:1024680003F028F9002038BDB074000810B5044600
:10247800812103F003FA0321204603F0FFF98221AA
:10248800204603F0FBF9002010BD000010B50B78C2
:1024980013F0600328D0202B2DD14B78202B1AD095
:1024A800212B28D1244C2368244A13704FEA132C7B
:1024B80082F801C04FEA134C82F802C01B0ED37099
:1024C8002379137163795371A3799371CB88802130
:1024D80003F0C6FA0FE01A4B20221A60CB88174A7D
:1024E800002103F004FA06E04B780A2B05D00B2BE9
:1024F80009D0062B10D0002010BD0123114A8021DD
:1025080003F0AEFAF7E78B781BB90E4B00221A607E
:10251800F1E704F0D7F8EEE74B881B0A212B05D02A
:10252800094A3A23802103F09BFAE4E7CB883A2B47
:1025380028BF3A23054AF5E7BC040020800600209E
:10254800B804002008070020B9740008C274000805
:1025580008B5044B00221A704023034A032103F0F4
:10256800C6F908BDC404002088060020402900D907
:10257800704708B5044B00221A708BB2034A8121B8
:1025880003F06EFA08BD00BFC5040020C80600208D
:102598000F4B1B68FF2B18D00E490F4A50789378C1
:1025A8001B0443EA002310780343D07843EA00630E
:1025B8000B6013790B7153794B7193798B71074BBE
:1025C80001221A70024BFF221A600020704700BFD8
:1025D800B8040020BC04002080060020C4040020A9
:1025E80010B5012906D00C4631BBBAB1032A19D05F
:1025F800022022E0012A01D002201EE0426B836AF9
:102608009A4204D00D4B01221A70002015E00023D5
:102618001A46012103F024FA00200EE0FFF7B8FF64
:1026280002200AE0064B01221A70032103F05DFA2A
:10263800044B1860204600E0022010BDC5040020AD
:10264800C40400207C06002000B583B08DF8070084
:1026580001210DF1070000F02DFF03B05DF804FB28
:1026680008B500F027FF08BD30B585B000283CD07C
:102678000446224A01AB07CA03C31A80204BA3FBB6
:102688000423DB0803EB8302A4EB420430348DF807
:10269800044001A801211A4D5BB3A5FB0342D208EF
:1026A80002EB8204A3EB4403303300F8013F1346E6
:1026B800013149B20A29EFD10A23002001AA1FFAE1
:1026C80080FC12F80CE0D45C02F80C4002F803E03D
:1026D800013B9BB201301FFA80FC6345EFD8013102
:1026E80001A800F0E7FE05B030BD3020FFF7ACFFD1
:1026F800F9E78BB2002BE0D1F1E700BF9073000837
:10270800CDCCCCCC10B5041E03DB2046FFF7ACFFC4
:1027180010BD2D20FFF798FF6042F7E770B505461A
:102728000824054E2B0FF05CFFF78EFF2D01631E6A
:1027380013F0FF04F6D170BD0C75000808B5FDF75D
:1027480093FE02460B460248FFF756FC08BD00BF41
:102758000875000800B583B08DF8070001210DF158
:10276800070000F0A7FE03B05DF804FB70B5084C45
:102778002668206000F0B0FE236833B101252846A2
:1027880000F076FB2368002BF9D1014B1E6070BD69
:1027980010070020034B1B681BB1024A1368013B5A
:1027A800136070471007002082B00023019338B1EE
:1027B80001461A46019B0133019301329142F9D136
:1027C80002B07047F8B50B4B1F6818601B6853B10F
:1027D8000C460126074DA04728B9304600F048FBB3
:1027E8002B68002BF7D1034B18681F60B0FA80F0F4
:1027F8004009F8BD10070020014BD3F8AC0770471B
:1028080000F0FF1F014BD3F8B007704700F0FF1F1F
:10281800014BD3F8B407704700F0FF1F80029446BD
:102828004AB18C440B46C1F1006108441A5C03F8B4
:10283800012B9C45FAD170472DE9F84F0746894688
:10284800924603F063FF342003F0B0FF07F5003031
:10285800800203F073FF342003F0A8FF03F066FF43
:1028680003F054FFBF0207F1006BBAF1030F3AD926
:10287800AAF1040509F1040625F003031E444C4699
:10288800C9F100631F444FF034086178A3781B0432
:1028980043EA012321780B43E17843EA01613819BF
:1028A80003F06AFF404603F081FF0434B442ECD1E0
:1028B80025F0030304339B449A4510D94B44D14473
:1028C8000020014613F8012B824011430830994536
:1028D800F8D1584603F050FF342003F067FF03F0A7
:1028E80025FFBDE8F88F0023E6E7704708B500F03C
:1028F80003FA08BD08B500F0FFF908BD08B500F0F7
:10290800FBF908BD08B500F0F7F908BD7047704736
:10291800704708B500F094FB08BD08B500F032FC1C
:1029280008BD08B503F0E8F808BD0000034BD3F86C
:10293800000480F40070C0F340207047005000404D
:1029480008B540F20161034804F097F8B0FA80F046
:10295800400908BD0054004008B540F20151024842
:1029680004F08BF808BD00BF0054004008B54FF4D0
:10297800A061024804F081F808BD00BF005400407F
:1029880008B540F20251024804F077F808BD00BFCC
:102998000054004008B540F20751024804F06DF8B1
:1029A80008BD00BF0054004008B540F20651024877
:1029B80004F063F808BD00BF0054004008B503499F
:1029C800FFF700FF003818BF012008BD492900089B
:1029D80038B504460D46134804F040F8124905205E
:1029E800FFF7F0FED8B96DB16FF0010261000D4834
:1029F80004F026F80D490520FFF7E4FE044640B12F
:102A080001240DE0012204FA02F1064804F018F846
:102A1800F0E740F20151034804F037F800E00124E0
:102A2800204638BD00540040752900086129000877
:102A380008B5024804F017F808BD00BF005400406C
:102A480010B507490520FFF7BDFE10B10124204647
:102A580010BD04460121034803F0E9FFF7E700BF72
:102A6800352900080054004010B5044609490520DE
:102A7800FFF7A8FE08B1012010BD2146064803F063
:102A8800F7FF06490520FFF79DFE003818BF012013
:102A9800F2E700BF9D29000800540040892900087A
:102AA80038B50C4660B101210A4803F0C0FF0A4955
:102AB8000520FFF787FE054638B10125284638BDB1
:102AC8000021044803F0B3FFF1E7024803F0D2FF06
:102AD8002070F3E700540040B129000810B540F217
:102AE800125004F0A5F840F2157004F0A1F81B4C40
:102AF80040220121204603F0EFFE802201212046DA
:102B080003F0EAFE402301220221204603F098FE4A
:102B1800402303220121204603F0BAFE802301222C
:102B28000221204603F08CFE802303220121204647
:102B380003F0AEFE0A4C00220A49204603F004FFC7
:102B4800722300221146204603F064FF204603F05A
:102B580080FF0121204603F06AFF10BD00040048F1
:102B680000540040A086010070B504460D46164684
:102B78000520FFF723FF034608B1184670BD012161
:102B88002046FFF725FF03460028F6D15EB16C1EEC
:102B98003544013D14F8010FFFF766FF034600288E
:102BA800EBD1AC42F6D1FFF743FFFFF749FF0346ED
:102BB800E3E713B90023184670472DE9F0410646AC
:102BC8000C4615461F460520FFF7F8FE034610B1D0
:102BD8001846BDE8F08101213046FFF7F9FE0346AB
:102BE8000028F5D12046FFF73FFF03460028EFD124
:102BF80000213046FFF7ECFE03460028E8D17E1E90
:102C08000ED02C466B1E1F444FF00108214640464B
:102C1800FFF746FF03460028DAD10134BC42F5D15C
:102C2800FFF706FFA9190020FFF73AFF034600281F
:102C3800CED1FFF705FF0346CAE710B582B01446A8
:102C48000023ADF80430022301AAFFF7B2FF18B938
:102C58009DF805301B02238002B010BD10B540F26C
:102C6800165003F0E5FF094C0223002201212046FB
:102C780003F0E6FD022303220021204603F008FEAC
:102C8800034B0222C3F8282410BD00BF00140048DB
:102C980000100048044A137843F001031370034BF3
:102CA8000222C3F8182470471407002000100048B7
:102CB800044A137823F001031370034B0222C3F86C
:102CC80028247047140700200010004800B97047F6
:102CD80038B50546064C237843F002032370054BAC
:102CE8000222C3F8182400F0BBF92844606038BDFC
:102CF800140700200010004808B5064CFFF7CAFF6B
:102D08002046FFF751FDFFF7D3FF2046FFF74CFDA4
:102D1800F4E700BFA086010008B528B1094A137876
:102D280043F00403137008BD064A137823F0040324
:102D380013700220FFF71AFD034B0222C3F8282460
:102D4800F1E700BF1407002000100048144B1B785F
:102D580013F0010F05D113F0020F03D113F0040F84
:102D68000DD170470E4A52688242FAD223F002030C
:102D78000B4A13700B4B0222C3F828247047C0F388
:102D88000A0323B9074B0222C3F81824704710F02E
:102D98000F0FE6D1034B0222C3F82824E1E700BF56
:102DA800140700200010004880B5FFF757FF4FF4C4
:102DB800FA70FFF78BFF00F065F9FFF78FFE00F060
:102DC8001FF900F005FA00F09FF800F0F1F8FFF79E
:102DD80031FB01F08FFB0120FFF79EFF4FF4967047
:102DE80000F064FA1F4F4FF000081F4E4FF0010922
:102DF8000DE0384600F0BCF90546B0B986F8008009
:102E080000F06AFB00F084FA484600F031F800F060
:102E180075FA384600F00EFA0546404600F06EFB9B
:102E2800002DE6D00024234610E0484600F066FB5B
:102E3800F8E701F067FB28B186F8009002E086F811
:102E48000080013C01342346AC42D7D23A68D05CBA
:102E58003378002BEDD0012BF4D10A28EFD00D28C0
:102E6800F0D1ECE7200700201C07002070477047CE
:102E780010B50446FFF7FAFF40F21C7003F0D8FEC5
:102E880044B1022C0BD0012C0ED0032C10D0FFF72C
:102E9800EEFF10BD0021012003F07AFEF9E70121C1
:102EA800084603F075FEF4E7002003F065FEF0E73E
:102EB800012003F061FEECE77047000008B5FFF75A
:102EC800FBFF02210748FFF7CBFBBFF34F8F0649F3
:102ED800CA6802F4E062054B1343CB60BFF34F8F1F
:102EE80000BFFDE71C75000800ED00E00400FA05CE
:102EF8000048704758070020014B93F83C00704782
:102F08002C0700207047000010B50B4C0522214605
:102F18003E20FFF783FC2268084B9A420BD000231F
:102F280023706370A370E370204600F8043FFFF736
:102F3800E9FF024B236010BD24070020180621205A
:102F4800004870473007002008B53D2202493F205D
:102F5800FFF772FC08BD00BF2C07002008B58C469F
:102F680051B1431E074A0139C9B2084413F8011F79
:102F780002F8011F8342F9D1034B83F83CC0FFF7E5
:102F8800E3FF08BD570700202C07002008B5064AB4
:102F9800531E3C32002103F8011F9342FBD1034822
:102FA800FFF7E2F808BD00BF2C070020300700201B
:102FB80010B586B00F4C3D2221463F20FFF72EFC6E
:102FC80022680D4B9A4201D106B010BDFFF7DEFF13
:102FD8000DF1040C094C0FCCACE80F0023688CF8F9
:102FE8000030102101A8FFF7B9FF024B024A1A600E
:102FF800EAE700BF2C0700202120180620750008EA
:103008000C4B1B680C4AA2FB03239B09013BB3F141
:10301800807F0DD24FF0E0225361084BF02183F8F6
:103028002310002191610720106183F82310704755
:10303800FEE700BF58060020D34D621000ED00E007
:1030480010B5FFF7A7FB054C2068FFF77FFE206847
:1030580000F064F923680133236010BD6C07002079
:10306800014B1868704700BF6C07002008B540F294
:103078000771034803F0C9FF003818BF012008BDD5
:103088000038014010B5002211461B2003F01CFD3A
:1030980040F2115003F0CCFD40F20E6003F0C8FD81
:1030A8004FF4007201214FF0904003F015FC4FF4EB
:1030B800806201214FF0904003F00EFC4FF4007342
:1030C800012202214FF0904003F0BAFB4FF4007345
:1030D800012200214FF0904003F0DAFB4FF48063A7
:1030E800012202214FF0904003F0AAFB4FF48063C5
:1030F800012200214FF0904003F0CAFB0C4C2046FF
:1031080003F01CFF4FF4E131204603F033FF0821A0
:10311800204603F062FF0421204603F066FF2046A4
:1031280003F056FF0521204603F077FF10BD00BFCE
:10313800003801402DE9F843894689B1441E084406
:10314800451EDFF82480094F052614F8011F404664
:1031580003F053FF39463046FFF734FBAC42F4D155
:103168004846BDE8F88300BF0038014075300008C4
:10317800034B1A1D0260186800221A60704700BFCE
:103188007007002008B50A490A4803F053FF18B130
:10319800094B1B681F2B00D908BD064803F031FFF7
:1031A800054B1A68511C196013441871F4E700BFE5
:1031B800050005070038014070070020034B187808
:1031C800012814BF00200120704700BFC50400205B
:1031D80038B540F2165003F02BFD002003F054FDE3
:1031E80040F2177003F024FD104C01230022194609
:1031F800204603F025FB012303220021204603F08B
:1032080047FB0B4D284602F03DFA4FF4C06003F02F
:1032180051FC00220121252003F056FC0121204603
:1032280003F058FB05236B7038BD00BF001400483D
:10323800C80400200C4B5B78DBB2032B01D00020C4
:10324800704710B50446094B1B78012B18BF0020A6
:1032580000D010BD0448FFF77BF9054B1868002221
:103268001A60044B2360F4E7C8040020C40400205B
:103278007C060020880600200A4B5B78DBB2032B13
:1032880001D00020704710B5044607490520FFF714
:1032980099FA08B1002010BD21460248FFF766F9E7
:1032A8002046F8E7C8040020C531000800B9704777
:1032B80038B50446FFF7D4FE0E4A1060631D0E4968
:1032C80081FB03139DB203EB43035B00033B938035
:1032D8004FF4106003F06CFD4FF41064204603F0C7
:1032E800EDFC0028FAD00621284603F077FA03F00F
:1032F8006DFA38BD94070020ABAAAA2A08B5034B7B
:1033080001229A7103F05AFA08BD00BF9407002001
:10331800014B00229A71704794070020084B9B7953
:103328006BB910B50446064A938812681344834261
:1033380000D310BD03F042FA014B1C60F9E7704757
:103348009407002010B310B58446037843B1C0F148
:10335800010E00EB0E03DBB210F8014F002CF8D180
:103368005B00023313800B7003234B709CF8000042
:1033780058B1022300245A1CD2B2C8540233DBB21B
:103388008C541CF8010F0028F5D110BD7047B2B15C
:103398004B1C02F1FF3C5FFA8CFC033101EB4C0142
:1033A8004FF0000C020FB0F1204F34BF30323732EB
:1033B80003F8012C000103F802CB8B42F2D17047CD
:1033C80010B50246034C21460348FFF7BBFF2046D1
:1033D80010BD00BF9C0700203475000810B50246D8
:1033E800034C21460348FFF7ADFF204610BD00BF40
:1033F8009C0700205075000838B51A230380FFF792
:10340800FBF90446FFF7FEF90546FFF701FA201815
:1034180001D1074838BD064C0822A11CFFF7B7FFA9
:10342800042204F112012846FFF7B1FFF1E700BFBB
:103438009805002004230380004870479405002065
:1034480008B5054B1B7913B9FFF716FF08BD0146F0
:103458000248FFF76FFEF9E7B4050020C806002010
:1034680038B5124B1D68C5F140038D420BD90C4687
:103478006D1A0E4A15600A4601460D48184403F0B5
:1034880069FF204638BD094A002111602A460146D5
:103498000748184403F05EFF4020FFF7D1FF0028DB
:1034A800F0D0024B40221A602846EBE7B405002012
:1034B800C806002070B50E4649B105460C4621469F
:1034C8002846FFF7CDFF20B10544241AF7D130462E
:1034D80070BD301BFCE7000008B5074B18683F2893
:1034E80000D908BDC0F14000FFF7AAFF0028F8D0B6
:1034F800014B40221A60F4E7B405002008B5054BDB
:103508001B79834200D108BD024B1871FFF7E4FF15
:10351800F9E700BFB405002070B582B01B238DF811
:1035280004305B238DF805308DF8061050B1054640
:1035380000240326314601A8FFF792F80134E4B2CB
:10354800A542F7D102B070BD08B54421FFF7E4FFEA
:1035580008BD08B54321FFF7DFFF08BD08B54B21BB
:103568000120FFF7D9FF08BD00B583B0064B1B68E3
:10357800ADF804301B0C8DF80630032101A8FFF7C5
:103588006FF803B05DF804FB5C75000800B583B004
:10359800064B1B68ADF804301B0C8DF80630032170
:1035A80001A8FFF75DF803B05DF804FB607500083B
:1035B80000B9704708B5FFF781FC08BD08B5017967
:1035C8000068FFF7CBFC08BD10B50446FFF790FC78
:1035D8002060FFF791FC207110BD08B5FFF740FD92
:1035E80008BD0000024B00221A705A70704700BFD5
:1035F800DC0700200346354A1078032864D8DFE842
:1036080000F0020D22381B2B03D0304B00225A70D9
:1036180070472E4B01201870587070475A2B06D8E7
:103628001B2B0AD0294B0020187058707047274B65
:1036380003221A7000225A707047244B02221A7013
:1036480001225A7070471B2B06D05A2B0AD81F4BE1
:1036580000201870587070471C4B00221A70022204
:103668005A707047194B03221A7000225A700120B1
:103678007047412B0DD0422B11D0432B16D0442B31
:103688001BD01B2B114B0CBF012000201870587049
:1036980070470E4B00221A700220587070470B4B6F
:1036A80000221A7003225A7002207047074B00222A
:1036B8001A7004225A7002207047044B00221A70B4
:1036C80005225A700220704700207047DC0700204E
:1036D800014B5878704700BFDC0700208B4211D897
:1036E80093B1411E013A03F1FF3C5FFA8CFC84441C
:1036F80011F8010F12F8013F984207D16145F7D13F
:103708000120704700207047012070470020704753
:1037180008B501F061FA0D4B9B7813F0010F0AD040
:103728000A4B00225A70997862F3410199701A7015
:10373800FFF758FF08BD064B00221A715A719A719B
:10374800DA711A721A745A74EAE700BFE0070020A7
:10375800E807002008B5FFF7DBFF01F091F900B991
:1037680008BD01F071F901F081F9F9E710B50446D7
:1037780005E0204601F0F4F9FEF766FF013401F098
:103788007FF9A042F5D810BDF8B50546A34B93F8CC
:1037980001C00CF1010C5FFA8CFC83F801C0A04B4E
:1037A8005B7C012B03D0022B00F0EC80F8BDBCF150
:1037B800020F39D0BCF1030F00F09F80BCF1010F5C
:1037C80005D0CAB20146072001F0F2F9EEE7CCB203
:1037D800934B00221A710B2C00F2598323460246A0
:1037E8000B219048FFF77AFF90B9062C40F25183DD
:1037F8000B2C00F2698323462A460B218A48FFF7DF
:103808006DFF002800F06083854B03221A71CDE715
:10381800834B01221A71C9E7814B02221A71C5E74D
:103828007F4B04221A71C1E7CCB27D4B00225A713A
:103838001B79013B032B37D8DFE803F0020F1C3C50
:10384800042C31D82346024604217848FFF746FF66
:1038580050B3734B01225A71A8E70A2C24D8234687
:1038680002460A217248FFF739FFE8B16C4B022281
:103878005A719BE7062C15D82346024606216D4847
:10388800FFF72CFF50B923462A4607216A48FFF75D
:1038980025FF48B1624B04225A7187E7604B032227
:1038A8005A7183E7072CEED922462946072001F0F2
:1038B8007FF97BE7042C1DD82346024604215F4884
:1038C800FFF70CFF90B923462A4607215C48FFF70B
:1038D80005FF0028E8D0524A062353714F498B78D8
:1038E80043F002038B70012313765FE74C4B0522EC
:1038F8005A715BE7072CD7D8E5E7CCB2484B0022D2
:103908009A715B79032B07D0042B20D022462946D5
:10391800072001F04DF949E7062C06D82346024650
:1039280006214848FFF7DAFE68B9052CEED8234689
:103938002A4605214448FFF7D1FE0028E6D0384B37
:1039480002229A7132E7364B01229A712EE7062C31
:1039580006D82346024606213C48FFF7BFFE68B951
:10396800052CD3D823462A4605213948FFF7B6FE49
:103978000028CBD02A4B04229A7117E7284B032240
:103988009A7113E7BCF1020F79D0BCF1030F00F074
:10399800A281BCF1010F05D0CAB20146072001F08F
:1039A80007F903E7CCB21E4B0022DA710B2C06D8BC
:1039B800234602460B211B48FFF790FE30BB062C1E
:1039C8004ED823462A4606212248FFF787FE08BB21
:1039D80023462A4607212048FFF780FE00284AD1BF
:1039E80023462A460B211048FFF778FE002840F0AE
:1039F8002982062C39D823462A4606211748FFF77C
:103A08006DFE90B3064B0522DA71CFE6044B012216
:103A1800DA71CBE6024B0222DA71C7E6E007002032
:103A2800E807002080760008B8750008947600083A
:103A3800E475000860760008B07500084076000854
:103A4800707600085076000858760008A0750008BF
:103A5800A8750008C475000834760008CC750008FD
:103A6800072CB5D90B2C40F2E481224629460720C1
:103A780001F09EF89AE6A04B0322DA7196E6CCB2E2
:103A88009D4B00221A72DB79013B042B2AD8DFE810
:103A980003F0032F3D9DBB00062C20D82346024689
:103AA80006219648FFF71AFEA8B923462A46072199
:103AB8009348FFF713FE002840F0D181042C11D859
:103AC80023462A4604218F48FFF708FE50B18A4B47
:103AD80003221A726AE6884B01221A7266E6072CDC
:103AE80040F2B48122462946072001F061F85DE6DC
:103AF8000A2CF7D8234602460A218348FFF7EEFD31
:103B08000028EFD07C4B04221A724FE6002C00F0FC
:103B1800838111F0FF0108BF002300F0838100209A
:103B2800034605E001335BB218468B4280F27A8186
:103B3800EA5C202AF6D0092AF4D088423ADA2B2AFD
:103B480000F091812D2A01D001266CE101308842D4
:103B580000F0628101335BB22D2A0CBF4FF0FF36B3
:103B6800012660E102EB820201335BB2303800EBE0
:103B780042028B4213DAE85CA0F1300C5FFA8CFC4D
:103B8800BCF1090F00F24881BA4202DCEAD13728B9
:103B9800E8D9224629460C2001F00AF806E606FB79
:103BA80002F2002A08DD642A0BDC534B0521197246
:103BB800DA60FBE5012636E10121102001F01AF850
:103BC800F4E56421112001F015F8EFE5062C17D86B
:103BD8002346024606214D48FFF780FD60B923467B
:103BE8002A4607214A48FFF779FD00283FF47AAFB3
:103BF800414B07221A72D9E53F4B06221A72D5E5C6
:103C0800072C3FF66FAFEAE7082C15D82346024683
:103C180008214048FFF762FD50B923462A460D2186
:103C28003D48FFF75BFD48B1334B09221A72BDE5E9
:103C3800314B08221A72B9E50D2CEED9042C37D86D
:103C480023462A4604213548FFF748FD60BB234632
:103C58002A4607213248FFF741FD002840F013812A
:103C6800022C06D823462A4602212E48FFF736FDA5
:103C780028BB23462A4607212B48FFF72FFD10BBF8
:103C880023462A4608212948FFF728FDF8B9234684
:103C98002A4608212648FFF721FD00283FF422AFD5
:103CA800154B0F221A7281E5134B0A221A727DE511
:103CB800072C40F2DF80082C3FF614AFE0E70E4BEC
:103CC8000C221A7272E50C4B0D221A726EE50A4B21
:103CD8000E221A726AE5CCB2074B00221A741B7ABC
:103CE800053B0A2B40D8DFE803F02545603F3F3FFE
:103CF8003F3F3F7B890000BFE80700204876000867
:103D08009875000894760008E47500086076000845
:103D1800B0750008F0750008D475000840760008F2
:103D2800787600083C7600088C760008FC75000858
:103D380010760008062C15D8234602460621654849
:103D4800FFF7CCFC50B923462A4607216248FFF703
:103D5800C5FC48B1614B02221A7427E55F4B01226A
:103D68001A7423E5072CEED922462946072000F0CD
:103D78001FFF1BE5062C06D8234602460621584895
:103D8800FFF7ACFC68B9052CEED823462A46052176
:103D98005448FFF7A3FC0028E6D0504B04221A74BD
:103DA80004E54E4B03221A7400E5062C06D8234678
:103DB800024606214C48FFF791FC68B9052CD3D878
:103DC80023462A4605214948FFF788FC0028CBD01E
:103DD800424B06221A74E9E4404B05221A74E5E4C2
:103DE800072CC1D82346024607214148FFF776FC35
:103DF8000028B9D0394B07221A74D7E4072CB3D856
:103E08002346024607213B48FFF768FC0028ABD051
:103E1800324B08221A74C9E422462946092000F0C8
:103E2800C7FEC3E401268B42BFF6C6AE0022324F5E
:103E3800A1E623462A460B213048FFF74FFC00280D
:103E48003FF413AE254B0422DA71AFE42346024651
:103E580007212B48FFF742FC00283FF443AE1F4BD5
:103E680002221A72A2E401308842D5D001335BB233
:103E78000126D8E723462A4607212248FFF72EFCC9
:103E880000283FF4F6AE154B0B221A728EE4062C6E
:103E98001AD823462A4606211B48FFF71FFC00288C
:103EA8007FF4BAAC23462A460B211448FFF716FCC8
:103EB80000287FF4A9AC23462A4606211348FFF7B9
:103EC8000DFC00287FF4ACAC22462946072000F000
:103ED8006FFE6BE42C76000824760008E8070020C3
:103EE8005076000858760008A0750008A8750008E4
:103EF800087600081C760008CCCCCC0CB8750008F5
:103F08009875000878760008C4750008CC75000814
:103F1800F8B504460D4616461F46FCF76FFD38B93E
:103F2800DDE9062320462946FCF786FD30B9F8BDB1
:103F380032463B46122000F063FEF8E7DDE906232F
:103F4800132000F05DFEF2E72DE9F04F8BB00892E8
:103F5800002900F0E18005460E460024224605E0CF
:103F6800013464B22246B44280F2B0802B5D202B2B
:103F7800F6D0092BF4D0964240F39A802B2B00F010
:103F8800DB802D2B00F0DF80012309932246B44209
:103F980080F29180E4B204F1010A5FFA8AFA002003
:103FA8006D49CDE9000100200021CDE90201CDE9EC
:103FB80004014FF0000B4FF00008DFF8A091731ECA
:103FC800079337465E46AB464BE0002E40F0A6808E
:103FD800012F00F0A58033B99BF801103039C9B220
:103FE800092900F29F800799914211D00BEB030237
:103FF80012F8012C303AD2B2092A11D95B445B7805
:10400800303BDBB2092B0BD901200BB0BDE8F08F98
:104018005B4413F8013C303BDBB2092B00F284808F
:104028004FFA8AF3012613E042464B46DDE90401C4
:10403800FCF772FACDE90401A5F13000FCF702FAA9
:10404800DDE90423FCF7B2F8CDE904014FFA8AF35D
:104058001A460134E4B20AF1010A5FFA8AFABB424D
:1040680040DA63B21BF803502E2DAED0A5F1300311
:10407800DBB2092B5AD8002ED6D042464B46DDE992
:104088000201FCF749FACDE90201A5F13000FCF77D
:10409800D9F9DDE90223FCF789F8CDE902014246A6
:1040A8004B46DDE90001FCF737FACDE90001CDE721
:1040B800012309936AE70023274CCDE90034002344
:1040C8000024CDE90234CDE904340BE0012309933F
:1040D8000023214CCDE9003400230024CDE902342B
:1040E800CDE90434DDE90023DDE90201FCF73EFBFC
:1040F800DDE90423FCF75AF804460D460998FCF755
:10410800A1F902460B4620462946FCF705FA089B0A
:10411800C3E90001002078E7012076E7012074E771
:10412800384672E7012070E701206EE701206CE74E
:1041380030466AE7304668E7012EF9D0013464B2A8
:104148000123099322E7012EF4D0013464B24FF021
:10415800FF3309931AE700BF0000F03F0000244036
:10416800F0B583B00546A84B5E78022E09D0032E21
:1041780000F0D080CAB22946092000F019FD03B02A
:10418800F0BDA24B5F79012F54D0022F00F081803F
:10419800052F00F09780062FECD111F0FF0443D0D3
:1041A8002346024601219A48FFF798FA002840F072
:1041B800918023462A4601219648FFF78FFA002866
:1041C80040F08C8023462A4604219348FFF786FA5C
:1041D800002840F0878023462A4605218F48FFF7AC
:1041E8007DFA002840F0828023462A4603218C4825
:1041F800FFF774FA00287DD123462A460221894810
:10420800FFF76CFA002879D123462A46022186480E
:10421800FFF764FA002875D123462A46032183480C
:10422800FFF75CFA002871D122462946092000F0E0
:10423800BFFCA4E711F0FF0422D0072C1CD82346AA
:10424800024607217A48FFF749FA002840F0CF8054
:10425800062C08D823462A4606217648FFF73EFA58
:10426800002840F0C38023462A460A217248FFF7F7
:1042780035FA28B10327BAE0062CEBD90A2CF2D973
:10428800624B00221A7622462946092000F090FC4B
:1042980075E7CCB2694A2146FFF756FE28B1224697
:1042A8002946092000F084FC69E70022644BCDE927
:1042B800002353A3D3E900235449D1E90601FFF7AA
:1042C80027FE5CE7CAB2102A00F294804F4B98612F
:1042D8001A7754E74D4B01221A7650E74B4B0022D0
:1042E8001A764CE7494B01221A7648E7474B0022D9
:1042F8001A7644E7454B01221A7640E7434B0022E1
:104308001A763CE7414B01221A7638E73F4B0022E8
:104318001A7634E73D4B9B79012B13D0022B29D019
:10432800032B3FD0042B7FF425AFCCB2434A214660
:10433800FFF70AFE00284DD022462946092000F042
:1043480037FC1CE7CCB23D4A2146FFF7FDFD28B1FA
:1043580022462946092000F02BFC10E70022394BA1
:10436800CDE900230022384B2849D1E90601FFF79F
:10437800CFFD04E7CCB2314A2146FFF7E5FD28B16D
:1043880022462946092000F013FCF8E600222F4BAC
:10439800CDE9002300222E4B1C49D1E90601FFF785
:1043A800B7FDECE6CCB2254A2146FFF7CDFD28B192
:1043B80022462946092000F0FBFBE0E60022214BBB
:1043C800CDE900230022204B1049D1E90601FFF76F
:1043D8009FFDD4E600221D4BCDE9002300221C4B93
:1043E8000A49D1E90601FFF793FDC8E63746074BAE
:1043F8001F76C4E601460A2000F0DAFBBFE600BFDC
:104408009A9999999999B93FE0070020E8070020FF
:1044180064750008687500086C75000874750008F4
:104428007C75000880750008847500088875000888
:104438009C760008B0760008A476000800080020E2
:104448000000F03F00407F4000C072C000002440E0
:10445800000024C0704708B50379042B0FD14379B5
:10446800052B05D0062B07D1007EFFF7A1F808E041
:104478001830FFF7A3F804E000F097FF01E000F020
:1044880094FF08BD7047000038B5054611F0FF04D9
:1044980011D0052C06D82346024605211048FFF7FF
:1044A8001DF988B9042C06D823462A4604210D484C
:1044B800FFF714F970B90C4B00225A7422462946AA
:1044C800022000F075FB38BD074801234374FFF74D
:1044D800C1FFF8E7044802234374FFF7D3FFF2E76C
:1044E800B876000868760008E807002008B500F0EC
:1044F80007FF08BD08B502210148FEF7B1F808BD5D
:104508001C7500082DE9F04F83B00446B54BC35C19
:1045180013F0970F40F07F821B2805D8B24BC34099
:1045280013F0010F40F077827F2C00F07482022193
:10453800AE48FEF795F8002000F00AFB044600F0AC
:104548009FFAC2B22146012000F032FB00F064FB62
:10455800FFF7DEF800F08AFA0221A548FEF780F896
:10456800012003B0BDE8F08FFFF7B2F804280FD0A0
:10457800052817D000F08CFAC0B2FEF7E5FFFEF769
:10458800EDFF00F061FA0020FFF7F0F80020E8E7FF
:1045980000F0FCFA08B10020E3E70120FEF7D9FF9C
:1045A8000020DEE700F0E4FA08B10020D9E7012096
:1045B800FEF7CAFF0020D4E72046FEF745F80D2C89
:1045C8001DD0032C2FD01A2C2DD07F2C00F02E823A
:1045D80014F0800F03D10A2C14D00D2C12D02046D1
:1045E80000F05CFA002840F0F08100F051FA04462F
:1045F80000F046FA8442C0F001820020B1E70A20A8
:10460800FEF722F800F0E2FAA8B900F039FAA0B1F2
:1046180001250024A14601942646764FDFF8D8B13B
:10462800DFF8D8A1AEE0FFF795F804217448FEF74B
:1046380017F8012095E700F0EFFA00F0C7FA50B933
:104648006D4B1A6801321A605B7C012B00F0A48163
:10465800022B00F0A58102216548FEF701F8FFF75B
:1046680079F800207DE7202800F08680092800F0EE
:1046780083802E2805D03D2803D001233B70264691
:104688007AE0E0B200F0AEFA76E02E280FD03D28AE
:104698000DD0202801D009286ED102233B70304666
:1046A80000F056FA4146FFF7EFFE2E4664E0002080
:1046B80000F04EFA804600F0E3F9C2B24146052008
:1046C80000F076FA58E0202856D0092854D02E2831
:1046D80006D03D2804D003233B70A14626464BE074
:1046E800E0B200F07FFA47E02E280FD03D2817D01F
:1046F800202801D009283FD1304600F029FA414648
:10470800FFF742F82E4605233B7035E0304600F0AF
:104718001FFA4146FFF738F804233B702E462BE07A
:104728009BF81130012B0AD0484600F011FA0146D7
:10473800A4EB0902D2B20D2000F03AFA1CE0304690
:1047480000F006FA4146FFF71FF82E4606233B7095
:1047580012E0A0F12003DBB21D2B04D82AFA03F3E0
:1047680013F0010F05D1092803D003233B70264617
:1047780002E0E0B200F036FA00F028FA013500282D
:104788006AD1013400F07CF9A04268D9204600F0D3
:10479800E7F9A4EB06083B78082BEDD801A252F8FC
:1047A80023F000BF6F46000893460008CF46000874
:1047B800F14600085B470008D14700082B4800086D
:1047C8003D480008514800082028D5D00928D3D0F2
:1047D8003D2822D19BF81130012B13D106233B70C1
:1047E8002E46C9E7197900080824000C94750008BA
:1047F8001C750008E0070020E807002001400020A1
:104808008C750008484600F0A3F90146A4EB09029C
:10481800D2B20D2000F0CCF9AEE7E0B200F0E2F938
:10482800AAE72028A8D00928A6D007233B7001951D
:104838002646A1E7202803D0092801D001959BE747
:1048480008233B70019497E7202895D0092893D036
:1048580007233B7001958FE700F0DEF9EDE600F0E5
:104868000FF9841B744B1B78082B11D8DFE803F071
:1048780005182E3E5C6779848C00002000F068F9EA
:10488800044600F0FDF8C2B22146052000F090F978
:1048980000F09CF900283FF4D0AE00F0BDF9CCE65A
:1048A800304600F055F92146FFF7EEFD634B5B7C7F
:1048B800012BEDD1002000F04BF9044600F0E0F8A0
:1048C800C2B22146062000F073F9E1E75B4B5B7C3E
:1048D800012BDDD1002000F03BF9044600F0D0F8B0
:1048E800C2B22146062000F063F9D1E7304600F055
:1048F8002FF92146FEF748FF00F068F903464F4AB2
:10490800527C012AC4D14C4A927802F00202134325
:1049180013F0FF0FBCD1304600F01AF90146E2B29D
:10492800082000F045F9B3E700F0AAF8013800F0D4
:104938000FF901460122062000F03AF9A8E73F4B9B
:104948005B7C012BA4D13C4B9B7813F0020F9FD1C9
:10495800304600F0FDF80146E2B2082000F028F9E0
:1049680096E700F08DF8013800F0F2F801460122D0
:10497800082000F01DF98BE7304600F0E9F8019BAC
:10498800991BFFF7EDFB83E7304600F0E1F8019B48
:10499800991BFFF7E5FB7BE72848FFF75CFD5AE624
:1049A8002648FFF7A3FD56E600F072F804460120FA
:1049B800FEF7CAFDFEF7D8FDFEF7D0FD2046FEF74C
:1049C800D5FEFEF7E3FD0020CBE502211C48FDF7EC
:1049D80047FE002000F0BCF8044600F051F8C2B2CF
:1049E8002146042000F0E4F800F016F9FEF7B2FEC4
:1049F80002211448FDF734FE0120B2E5FEF7B4FDAC
:104A0800FEF7ACFD2046FEF7B1FEFEF7BFFD002025
:104A1800A7E50020A5E52046FEF7ECFD0128F8D023
:104A280002283FF4A1AD7F2C7FF4C6AD00F066F8F4
:104A38000028B9D0002094E5E0070020E80700200E
:104A4800947500081C750008074BD3F888209A4213
:104A580003F14403A3F1440218BF1346C2F8883097
:104A68001B6CC2F88C307047BC050020034BD3F890
:104A7800881000220A64C3F88C207047BC05002007
:104A8800024BD3F88830186C704700BFBC05002073
:104A9800014BD3F88C007047BC050020164BD3F8A7
:104AA80088301B6C3F2B25D800B5134AD2F88C20D0
:104AB8009A420CD21049D1F888209C46013B12F842
:104AC80003E002F80CE0D1F88C209342F3D80A4BAB
:104AD800D3F88810D3F88C208854D3F888100A6C3F
:104AE80001320A64D3F88C200132C3F88C200020EC
:104AF8005DF804FB01207047BC050020134BD3F878
:104B08008830196CF1B1114BD3F88C30E3B110B483
:104B18008B4209D20D4CD4F88820D05C1A4402F894
:104B2800010C01339942F6D1084BD3F888100A6C6E
:104B3800013A0A64D3F88C20013AC3F88C2000208B
:104B480010BC70470120704701207047BC05002049
:104B5800024BD3F888301844704700BFBC050020CA
:104B6800024BD3F88830185C704700BFBC050020A2
:104B7800054BD3F88C302BB1013B034AC2F88C307B
:104B88000020704701207047BC050020074AD2F872
:104B98008C30D2F88820126C934205D20133034A34
:104BA800C2F88C300020704701207047BC050020F7
:104BB80008B5054B18701F2A28BF1F2283F8282024
:104BC800581C02F0C7FB08BD08080020014B1878E4
:104BD800704700BF08080020014B00221A70704778
:104BE80008080020024B03221A7083F82800704737
:104BF80008080020014B18709962704708080020C7
:104C080030B414461D46034B1870C3E90A4530BC3E
:104C1800704700BF0808002070B56D4B1B78032B48
:104C280013D100247E266A4D3046FDF70DFD95F818
:104C38002820A24204F10104F6DA5E20FDF704FD03
:104C48000F216448FDF70CFD45E002216248FDF79D
:104C580007FD5F4B1B78132B33D801A252F823F0C2
:104C6800DF4C0008B94C0008C34C00082B4C000866
:104C7800E14C0008EB4C0008F54C0008FF4C00081C
:104C8800094D0008134D00081D4D0008274D000868
:104C9800314D00083B4D0008734D0008A54D000834
:104CA800454D0008454D0008734D0008A54D000806
:104CB8001C214A48FDF7D4FC0DE00E214848FDF7B9
:104CC800CFFC434890F828100130FDF7C9FC0321B8
:104CD8004448FDF7C5FC70BD13214348FDF7C0FCEF
:104CE800F9E712214148FDF7BBFCEAE717214048E4
:104CF800FDF7B6FCE5E72A213E48FDF7B1FCE0E701
:104D080014213D48FDF7ACFCDBE70F213B48FDF7DC
:104D1800A7FCD6E713213A48FDF7A2FCD1E71A21F0
:104D28003848FDF79DFCCCE717213748FDF798FC7C
:104D3800C7E712213548FDF793FCC2E72221344822
:104D4800FDF78EFC224B1B78102B07BF0D21314835
:104D58000C213148FDF784FC1D4B986AFDF7D2FC05
:104D680002212E48FDF77CFCB5E71D212C48FDF7F4
:104D780077FC174B1B780E2B0BD0154BD3E90A0188
:104D8800FBF7ACFEFDF7DAFC02212448FDF768FCCE
:104D9800A1E70F4B986AFDF767FCF5E71C2121484E
:104DA800FDF75EFC0A4B1B780F2B0BD0084BD3E9A1
:104DB8000A01FBF793FEFDF7C1FC02211748FDF736
:104DC8004FFC88E7024B986AFDF74EFCF5E700BFF9
:104DD80008080020F4760008C0760008C4760008A9
:104DE800E476000858780008047700081877000867
:104DF8002C77000844770008707700088877000847
:104E080098770008AC770008C8770008E0770008B2
:104E1800F477000828780008487800089475000896
:104E2800187800083878000800230B704B70C37995
:104E3800013B042B1AD8DFE803F003080C10150017
:104E480001230B7003234B70704704230B704B70C6
:104E5800704705230B704B70704706230B700723B0
:104E68004B70704708230B700F234B70704700235B
:104E78000B704B70037A053B0A2B1DD8DFE803F053
:104E8800060B101C1C1C1C1C1C15190001230B7084
:104E980002234B70704703230B7004234B70704739
:104EA80005230B7006234B70704707230B704B705C
:104EB800704708230B704B707047000010B582B024
:104EC8000446C379013B042B31D8DFE803F003180B
:104ED8001D2227000B217F48FDF7C2FB2E20FDF77E
:104EE800B3FB237A013B0E2B21D8DFE803F01C32F9
:104EF800373C4151565B60656A6F74797E000621C4
:104F08007548FDF7ADFBE9E707217448FDF7A8FBF5
:104F1800E4E70B217248FDF7A3FBDFE706217148A0
:104F2800FDF79EFBDAE706216F48FDF799FB3D2068
:104F3800FDF78AFBE379052B40F0C280237A083B12
:104F4800072B00F2B980DFE803F07D828C959A8701
:104F5800AFA707216548FDF783FBE8E7042164480C
:104F6800FDF77EFBE3E70A216248FDF779FBDEE700
:104F7800E068FDF7C7FB2E20FDF766FB237C013BAD
:104F8800072BD4D8DFE803F0363B40454A4F545945
:104F980006215948FDF764FBEDE707215748FDF75F
:104FA8005FFBE8E708215648FDF75AFBBFE70D21EC
:104FB8005448FDF755FBBAE704215348FDF750FB69
:104FC800B5E707215148FDF74BFBB0E702215048F0
:104FD800FDF746FBABE707214E48FDF741FBA6E787
:104FE80008214D48FDF73CFBC5E708214B48FDF774
:104FF80037FBC0E706214A48FDF732FB97E7072150
:105008004848FDF72DFB92E706214748FDF728FBA6
:105018008DE705214548FDF723FB88E7062144482D
:10502800FDF71EFB83E705214248FDF719FB7EE7E4
:1050380007214148FDF714FB79E707213F48FDF7B1
:105048000FFB74E719213E4800F0F6FA3BE04521D2
:105058003C4800F0F6FA36E00D213B4800F0F6FA3D
:1050680031E06846FEF7B0FA9DF80410009800F0A9
:1050780004FB28E0FEF7B1FA00F0FBFA23E0FDF7A5
:10508800BBFB00F0F2FAFDF7BDFB00F0EEFAFDF70E
:10509800BFFB00F0EAFA16E0237C082B13D10421A9
:1050A8002A4800F0DDFA0EE0237C072B0BD10421FF
:1050B800264800F0D0FA06E0204600F0A6F902E003
:1050C800204600F0A2F902212148FDF7C9FA02B0F2
:1050D80010BD00BF80760008C4750008347600084B
:1050E800B8750008CC75000848760008987500085F
:1050F80094760008E475000860760008B07500082A
:10510800F0750008D4750008407600087876000825
:105118003C7600088C760008FC75000810760008BC
:105128002C76000824760008507600085876000887
:10513800A0750008A8750008087600081C76000805
:105148005C78000878780008C0780008D0780008F3
:105158009475000838B504460D460B7803744A78F0
:105168009A420AD238BD2046FFF7A8FE237C0133B5
:10517800DBB223746A789A42F4D3013B072BF5D843
:1051880001A252F823F000BF6F510008B151000886
:10519800B9510008C1510008C9510008D15100088F
:1051A800D9510008E15100082046FFF787FEDDE7E6
:1051B8002046FFF783FED9E72046FFF77FFED5E7B5
:1051C8002046FFF77BFED1E72046FFF777FECDE7C5
:1051D8002046FFF773FEC9E72046FFF76FFEC5E7D5
:1051E80070B582B005460E460B7803724A789A422B
:1051F8000BD202B070BD2846FFF760FE2B7A013350
:10520800DBB22B7272789A42F3D3013B0E2BF5D89E
:1052180001A252F823F000BFFF5100085D520008B8
:10522800655200086D520008755200089152000836
:10523800A3520008B5520008BD520008C552000824
:10524800CD520008D5520008DD520008E55200088A
:10525800F75200082846FFF731FECFE72846FFF748
:105268002DFECBE72846FFF729FEC7E70124EC60AF
:1052780001A92846FFF7FBFD01A92846FFF76AFFA9
:105288000134652CF3D1B9E701A92846FFF7EFFDF2
:1052980001A92846FFF75EFFB0E701A92846FFF7F6
:1052A800E6FD01A92846FFF755FFA7E72846FFF7BF
:1052B80005FEA3E72846FFF701FE9FE72846FFF70C
:1052C800FDFD9BE72846FFF7F9FD97E72846FFF71E
:1052D800F5FD93E72846FFF7F1FD8FE701A928467A
:1052E800FFF7C5FD01A92846FFF734FF86E701A9A6
:1052F8002846FFF7BCFD01A92846FFF72BFF7DE7ED
:10530800437C022B00D0704710B582B00446C379A5
:10531800ABB1013BDBB2042B01D8037AA3B3237AE8
:105328005A1FD2B2022A03D90E3BDBB2012B01D895
:10533800237C8BB32046FFF7C1FD02B010BD0123CB
:105348008DF8043005228DF80520C3710FE06946F9
:105358002046FFF769FD69462046FFF741FFE379DC
:105368000133DBB2E3719DF805209A42E5D3012BA6
:10537800EDD0022BF3D169462046FFF755FD69466B
:105388002046FFF72DFFEAE701A9FFF74DFD01A928
:105398002046FFF725FFD0E701A92046FFF767FD64
:1053A80001A92046FFF7D6FEC7E708B50379022B07
:1053B8000AD0032B0ED0012B00D008BD4379012B56
:1053C800FBD1FCF741FFF8E74379022BF5D1FCF755
:1053D8005FFFF2E74379032B09D0042BEDD18379E2
:1053E800032B0FD0042BE8D1FCF7EFFFE5E7837917
:1053F800012B04D0022BE0D1FDF711F8DDE7FCF713
:10540800F9FFDAE7FCF7CCFFD7E700B583B0C3793B
:10541800013B032B37D8DFE803F00233476B037AED
:10542800022B11D0032B1DD0012B2CD16946FCF780
:10543800AFFE20B1012826D100F0A2F823E0DDE973
:10544800000100F0A5F81EE06946FCF7CBFE20B18C
:10545800012818D100F094F815E0DDE9000100F00A
:105468009DF810E06946FCF7E7FE20B101280AD153
:1054780000F086F807E09DF8000000F095F802E0DB
:10548800037A042B02D003B05DF804FB6946FCF7ED
:10549800E5FE20B10128F6D100F072F8F3E7DDE966
:1054A800000100F09FF8EEE7037A052BEBD1037CAF
:1054B800012B0AD0022BE6D16946FCF731FF90B1E7
:1054C8000128E0D100F05CF8DDE76946FCF7F2FE60
:1054D80020B10128D7D100F053F8D4E7DDE9000165
:1054E80000F086F8CFE7DDE9000100F087F8CAE7A9
:1054F800037A062B0FD0072BC5D1037C052B2BD0A5
:10550800062BC0D16946FCF756FF98B30128BAD1DB
:1055180000F036F8B7E7037C032B0AD0042BB2D18E
:105528006946FCF772FF90B10128ACD100F028F869
:10553800A9E76946FCF754FF20B10128A3D100F080
:105548001FF8A0E7DDE9000100F06AF89BE7DDE954
:10555800000100F06BF896E76946FCF717FF20B1E9
:10556800012890D100F00CF88DE7DDE9000100F08A
:105578004BF888E7DDE9000100F04CF883E700000C
:1055880008B502210148FDF76BF808BDD47800087A
:1055980008B5FBF7A3FAFDF7D1F808BD08B5FBF786
:1055A8009DFAFDF7CBF808BD08B5022809D00328F5
:1055B8000CD0012800D008BD07210748FDF750F896
:1055C800F9E706210548FDF74BF8F4E70A210448F6
:1055D800FDF746F8EFE700BF9C760008B0760008B4
:1055E800A476000808B5FBF779FAFDF7A7F808BD17
:1055F80008B5FBF773FAFDF7A1F808BD08B5FBF786
:105608006DFAFDF79BF808BD08B5FBF767FAFDF7DB
:1056180095F808BD08B5FBF761FAFDF78FF808BDE6
:1056280008B5FBF75BFAFDF789F808BD08B5FBF785
:1056380055FAFDF783F808BD08B589B2FDF710F8EB
:1056480008BD08B589B2FDF70BF808BD08B589B2E1
:10565800FDF706F808BD08B589B2FDF701F808BDE1
:1056680008B589B2FCF7FCFF08BD08B5FDF756F888
:1056780008BD08B5FCF7F8FF08BD08B589B2FCF706
:10568800EFFF08BD0022C270084B0121C3F8401C7F
:10569800C3F8402CC3F8442CC3F8502C4FF41F42D5
:1056A80003490A60C3F8402C704700BF005000400F
:1056B8003808002070B592F802C00CF00F0CD378AF
:1056C80003F00303012B40D0032B41D0002B14BF60
:1056D80000244FF400740CF1805303F5B8539B0079
:1056E80044EA0C041C60948892F902E0BEF1000FB1
:1056F80031DB0CEB8C0E00EB8E00446601296CD07C
:1057080092885C48006800EB0C1C5B480068ACF8A9
:1057180008003E2A40F297801F3222F01F025201F1
:10572800013A6FEA42426FEA524292B2ACF80C2058
:10573800012900F08D801A6822F4804222F070025C
:1057480082F4005292B21A6070BD4FF48064C2E7CE
:105758004FF4C064BFE70CEB8C0200EB820044619D
:105768004FEA0C1C434A1068434A156820F80C504D
:10577800013424F00104106820441060012909D084
:105788001A6822F4E04222F0400282F0200292B22B
:105798001A60D9E71A6822F4E24222F0700242F451
:1057A800807292B21A6034480268324909688C449F
:1057B800ACF80820144404601A6822F4E04222F08D
:1057C800400282F0300292B21A601A6822F48042D3
:1057D80022F0700292B21A60B6E7186820F4E2402C
:1057E80020F0700040F4807080B21860186820F4CF
:1057F800E04020F0700040F0400080B218604FEAAE
:105808000C101C4D2D681C4E36682E523E2C11D99A
:105818001F3424F01F04174D2D680544600101381A
:105828006FEA40406FEA5040A880134D286804444E
:105838002C6065E7013424F001040E4D2D682844DE
:1058480065028581F1E70132520202F47C426DE77C
:105858001A6822F4804222F0700292B21A601A6822
:1058680022F4E04222F0400282F0200292B21A6052
:105878006AE700BF500600204C06002001F07F03B5
:1058880011F0800F19D103F1805303F5B8539B0031
:105898001A6812F4804F08D01A6822F4E04222F005
:1058A800700242F4804292B21A601A6822F480426E
:1058B80022F0700292B21A60704703F1805303F528
:1058C800B8539B001A6812F0400F08D01A6822F4E7
:1058D800E04222F0700242F0400292B21A601A6866
:1058E80022F4E04222F0400292B21A60704701F0BE
:1058F8007F0101EB810C00EB8C0CCCF86820CCF814
:105908006C3001F1805101F5B85189000B6823F41E
:10591800804323F0700383F440539BB20B607047BD
:1059280001F07F0211F0800F24D102EB820300EB1B
:105938008300603002F1805303F5B85399000B6877
:1059480023F4804323F0700383F480539BB20B60ED
:10595800012303706AB9114AD2F8003C23F480434A
:1059680023F0400383F4805383F010039BB2C2F802
:10597800003C704702EB820300EB8300103002F119
:10598800805303F5B85399000B6823F4E04323F0E0
:10599800400383F010039BB20B60D9E7005000402E
:1059A80001F07F0311F0800F22D103EB830200EB9B
:1059B8008200603003F1805303F5B8539B001A68E6
:1059C80012F4804F08D01A6822F4E04222F07002E4
:1059D80042F4804292B21A601A6822F4804222F09D
:1059E800700282F4405292B21A600023037070472A
:1059F80003EB830200EB8200103003F1805303F5C0
:105A0800B8539B001A6812F0400F08D01A6822F4A5
:105A1800E04222F0700242F0400292B21A601A6824
:105A280022F4E04222F0400282F0300292B21A6080
:105A3800DBE70132012A11D910B401F1005101F557
:105A4800405149004FEA520C002230F8024B0C60DA
:105A5800043101326245F8D310BC7047704700002A
:105A680070B582B0844610460022019201F07F048E
:105A780004EB84010CEB81018861CB610A624A69FD
:105A880093428CBF019201932501019A0C4E336811
:105A980092B2595BFFF7CDFF019A33682B449A8085
:105AA80004F1805404F5B854A400236823F4E043B7
:105AB80023F0400383F030039BB2236002B070BD33
:105AC8005006002001F1005101F540514900013212
