:020000040800F2
:1000000000200020D17200080329000805290008FB
:100010000D290008152900081D290008000000000E
:10002000000000000000000000000000252900087A
:100030002729000800000000292900082B290008B2
:100040003173000831730008317300083173000800
:1000500031730008317300083173000831730008F0
:1000600031730008317300083173000831730008E0
:1000700031730008317300083173000831730008D0
:10008000317300083173000800000000317300086C
:1000900031730008317300083173000831730008B0
:1000A00031730008317300083173000833290008E8
:1000B00031730008000000003173000800000000E8
:1000C000317300080000000031730008317300082C
:1000D000317300083B29000831730008000000005C
:1000E00000000000000000003173000831730008B8
:1000F0003173000831730008317300083173000850
:100100003173000800000000000000003173000897
:1001100000000000000000000000000000000000DF
:1001200000000000000000000000000000000000CF
:1001300000000000000000000000000000000000BF
:1001400000000000000000000000000000000000AF
:100150000000000000000000317300083173000847
:0801600031730008317300083F
:1001680010B5054C237833B9044B13B10448AFF3E9
:1001780000800123237010BD6006002000000000ED
:100188009873000808B5034B1BB103490348AFF344
:10019800008008BD00000000640600209873000875
:1001A80081F0004102E000BF83F0004330B54FEA20
:1001B80041044FEA430594EA050F08BF90EA020F8D
:1001C8001FBF54EA000C55EA020C7FEA645C7FEA20
:1001D800655C00F0E2804FEA5454D4EB5555B8BF43
:1001E8006D420CDD2C4480EA020281EA030382EAB4
:1001F800000083EA010180EA020281EA0303362D46
:1002080088BF30BD11F0004F4FEA01314FF4801C18
:100218004CEA113102D0404261EB410113F0004F2A
:100228004FEA03334CEA133302D0524263EB4303E1
:1002380094EA050F00F0A780A4F10104D5F1200E7F
:100248000DDB02FA0EFC22FA05F2801841F10001DA
:1002580003FA0EF2801843FA05F359410EE0A5F1AE
:1002680020050EF1200E012A03FA0EFC28BF4CF0DF
:10027800020C43FA05F3C01851EBE37101F0004595
:1002880007D54FF0000EDCF1000C7EEB00006EEBA2
:100298000101B1F5801F1BD3B1F5001F0CD349082C
:1002A8005FEA30004FEA3C0C04F101044FEA445283
:1002B80012F5800F80F09A80BCF1004F08BF5FEA0A
:1002C800500C50F1000041EB045141EA050130BDEA
:1002D8005FEA4C0C404141EB0101013C28BFB1F5FC
:1002E800801FE9D291F0000F04BF01460020B1FA47
:1002F80081F308BF2033A3F10B03B3F120020CDA1A
:100308000C3208DD02F1140CC2F10C0201FA0CF0F7
:1003180021FA02F10CE002F11402D8BFC2F1200C5C
:1003280001FA02F120FA0CFCDCBF41EA0C01904012
:10033800E41AA2BF01EB0451294330BD6FEA04045B
:100348001F3C1CDA0C340EDC04F11404C4F1200246
:1003580020FA04F001FA02F340EA030021FA04F358
:1003680045EA030130BDC4F10C04C4F1200220FAAF
:1003780002F001FA04F340EA0300294630BD21FAED
:1003880004F0294630BD94F0000F83F4801306BFB3
:1003980081F480110134013D4EE77FEA645C18BFA7
:1003A8007FEA655C29D094EA050F08BF90EA020F3E
:1003B80005D054EA000C04BF1946104630BD91EA36
:1003C800030F1EBF0021002030BD5FEA545C05D139
:1003D8004000494128BF41F0004130BD14F5800478
:1003E8003CBF01F5801130BD01F0004545F0FE41EC
:1003F80041F470014FF0000030BD7FEA645C1ABF21
:10040800194610467FEA655C1CBF0B46024650EA57
:10041800013406BF52EA033591EA030F41F4002183
:1004280030BD00BF90F0000F04BF0021704730B509
:100438004FF4806404F132044FF000054FF00001DE
:1004480050E700BF90F0000F04BF0021704730B59F
:100458004FF4806404F1320410F0004548BF404274
:100468004FF000013EE700BF42004FEAE2014FEAC9
:1004780031014FEA02701FBF12F07F4393F07F4FA4
:1004880081F06051704732F07F4208BF704793F0A7
:100498007F4F04BF41F40021704730B54FF46074BA
:1004A80001F0004521F000411CE700BF50EA0102BD
:1004B80008BF704730B54FF000050AE050EA010266
:1004C80008BF704730B511F0004502D5404261EBD6
:1004D80041014FF4806404F132045FEA915C3FF417
:1004E800D8AE4FF003025FEADC0C18BF03325FEAB4
:1004F800DC0C18BF033202EBDC02C2F1200300FA65
:1005080003FC20FA02F001FA03FE40EA0E0021FA89
:1005180002F11444BDE600BF70B54FF0FF0C4CF477
:10052800E06C1CEA11541DBF1CEA135594EA0C0F29
:1005380095EA0C0F00F0DEF82C4481EA030621EA64
:100548004C5123EA4C5350EA013518BF52EA03359F
:1005580041F4801143F4801338D0A0FB02CE4FF051
:100568000005E1FB02E506F00042E0FB03E54FF081
:100578000006E1FB03569CF0000F18BF4EF0010E79
:10058800A4F1FF04B6F5007F64F5407404D25FEA75
:100598004E0E6D4146EB060642EAC62141EA555128
:1005A8004FEAC52040EA5E504FEACE2EB4F1FD0C6A
:1005B80088BFBCF5E06F1ED8BEF1004F08BF5FEAE8
:1005C800500E50F1000041EB045170BD06F000469A
:1005D80046EA010140EA020081EA0301B4EB5C0447
:1005E800C2BFD4EB0C0541EA045170BD41F480113F
:1005F8004FF0000E013C00F3AB8014F1360FDEBF64
:10060800002001F0004170BDC4F10004203C35DA3F
:100618000C341BDC04F11404C4F1200500FA05F3C2
:1006280020FA04F001FA05F240EA020001F0004263
:1006380021F0004110EBD37021FA04F642EB0601D9
:100648005EEA430E08BF20EAD37070BDC4F10C0403
:10065800C4F1200500FA04F320FA05F001FA04F2C7
:1006680040EA020001F0004110EBD37041F10001B3
:100678005EEA430E08BF20EAD37070BDC4F12005BE
:1006880000FA05F24EEA020E20FA04F301FA05F226
:1006980043EA020321FA04F001F0004121FA04F2CE
:1006A80020EA020000EBD3705EEA430E08BF20EA9E
:1006B800D37070BD94F0000F0FD101F000464000D8
:1006C80041EB010111F4801F08BF013CF7D041EA5A
:1006D800060195F0000F18BF704703F0004652005E
:1006E80043EB030313F4801F08BF013DF7D043EA2F
:1006F8000603704794EA0C0F0CEA135518BF95EAE5
:100708000C0F0CD050EA410618BF52EA4306D1D16B
:1007180081EA030101F000414FF0000070BD50EA8A
:10072800410606BF1046194652EA430619D094EA14
:100738000C0F02D150EA013613D195EA0C0F05D1FE
:1007480052EA03361CBF104619460AD181EA030152
:1007580001F0004141F0FE4141F470014FF000000A
:1007680070BD41F0FE4141F4780170BD70B54FF0A5
:10077800FF0C4CF4E06C1CEA11541DBF1CEA135525
:1007880094EA0C0F95EA0C0F00F0A7F8A4EB050407
:1007980081EA030E52EA03354FEA013100F08880FE
:1007A8004FEA03334FF0805545EA131343EA1263C7
:1007B8004FEA022245EA111545EA10654FEA00267C
:1007C8000EF000419D4208BF964244F1FD0404F535
:1007D800407402D25B084FEA3202B61A65EB030591
:1007E8005B084FEA32024FF480104FF4002CB6EB4E
:1007F800020E75EB030E22BFB61A754640EA0C00CE
:100808005B084FEA3202B6EB020E75EB030E22BF0D
:10081800B61A754640EA5C005B084FEA3202B6EB4E
:10082800020E75EB030E22BFB61A754640EA9C000D
:100838005B084FEA3202B6EB020E75EB030E22BFDD
:10084800B61A754640EADC0055EA060E18D04FEA9B
:10085800051545EA16754FEA06164FEAC30343EA3B
:1008680052734FEAC2025FEA1C1CC0D111F4801F08
:100878000BD141EA00014FF000004FF0004CB6E701
:1008880011F4801F04BF01430020B4F1FD0C88BFA0
:10089800BCF5E06F3FF6AFAEB5EB030C04BFB6EBAB
:1008A800020C5FEA500C50F1000041EB045170BD9E
:1008B8000EF0004E4EEA113114EB5C04C2BFD4EBCB
:1008C8000C0541EA045170BD41F480114FF0000E4F
:1008D800013C90E645EA060E8DE60CEA135594EACB
:1008E8000C0F08BF95EA0C0F3FF43BAF94EA0C0FCE
:1008F8000AD150EA01347FF434AF95EA0C0F7FF443
:1009080025AF104619462CE795EA0C0F06D152EA96
:1009180003353FF4FDAE1046194622E750EA41067A
:1009280018BF52EA43067FF4C5AE50EA41047FF48B
:100938000DAF52EA43057FF4EBAE12E74FF0FF3CF0
:1009480006E000BF4FF0010C02E000BF4FF0010CC1
:100958004DF804CD4FEA410C7FEA6C5C4FEA430C3A
:1009680018BF7FEA6C5C1BD001B050EA410C0CBF89
:1009780052EA430C91EA030F02BF90EA020F0020EB
:10098800704710F1000F91EA030F58BF994208BF52
:1009980090422CBFD8176FEAE37040F0010070470F
:1009A8004FEA410C7FEA6C5C02D150EA013C07D166
:1009B8004FEA430C7FEA6C5CD6D152EA033CD3D0B1
:1009C8005DF8040B704700BF8446104662468C46AB
:1009D8001946634600E000BF01B5FFF7B7FF0028DE
:1009E80048BF10F1000F01BD4DF808EDFFF7F4FF07
:1009F8000CBF012000205DF808FB00BF4DF808ED92
:100A0800FFF7EAFF34BF012000205DF808FB00BFB4
:100A18004DF808EDFFF7E0FF94BF012000205DF8D6
:100A280008FB00BF4DF808EDFFF7CEFF94BF01208B
:100A380000205DF808FB00BF4DF808EDFFF7C4FF84
:100A480034BF012000205DF808FB00BF4FEA4102D7
:100A580012F5001215D211D56FF47873B3EB625208
:100A680012D94FEAC12343F0004343EA505311F02F
:100A7800004F23FA02F018BF404270474FF00000C1
:100A8800704750EA013005D111F0004008BF6FF0FF
:100A9800004070474FF00000704700BF4A0011D275
:100AA80012F5001211D20DD56FF47873B3EB6252C0
:100AB8000ED44FEAC12343F0004343EA505323FACC
:100AC80002F070474FF00000704750EA013002D141
:100AD8004FF0FF3070474FF0000070474FEA410277
:100AE800B2F1E04324BFB3F5001CDCF1FE5C0DD984
:100AF80001F0004C4FEAC0024CEA5070B2F1004FCE
:100B080040EB830008BF20F00100704711F0804FD0
:100B180021D113F13872BCBF01F00040704741F495
:100B280080114FEA5252C2F11802C2F1200C10FA99
:100B38000CF320FA02F018BF40F001004FEAC1237D
:100B48004FEAD32303FA0CFC40EA0C0023FA02F321
:100B58004FEA4303CCE77FEA625307D150EA0133F7
:100B68001EBF4FF0FE4040F44000704701F00040C7
:100B780040F0FE4040F40000704700BF53B94AB946
:100B8800002908BF00281CBF4FF0FF314FF0FF308D
:100B980000F076B9ADF1080C6DE904CE00F006F866
:100BA800DDF804E0DDE9022304B070472DE9F047E1
:100BB800089E0D4604468846002B4DD18A4294462D
:100BC80068D9B2FA82F252B101FA02F3C2F12001F5
:100BD80020FA01F10CFA02FC41EA030894404FEABA
:100BE8001C41B8FBF1F71FFA8CFE01FB178807FBC5
:100BF8000EF0230C43EA084398420AD91CEB03037E
:100C080007F1FF3580F01E81984240F21B81023FB8
:100C180063441B1AB3FBF1F001FB103300FB0EFE1B
:100C2800A4B244EA0344A6450AD91CEB040400F123
:100C3800FF3380F00981A64540F2068164440238FA
:100C48000021A4EB0E0440EA07401EB10023D44063
:100C5800C6E90043BDE8F0878B4208D9002E00F0B2
:100C6800EE800021C6E900050846BDE8F087B3FA22
:100C780083F100294AD1AB4202D3824200F2FC80C0
:100C8800841A65EB030301209846002EE2D0C6E9DA
:100C98000048DFE702B9FFDEB2FA82F2002A40F02C
:100CA8009180A1EB0C0001214FEA1C471FFA8CFE32
:100CB800B0FBF7F307FB1300250C45EA00450EFBD4
:100CC80003F0A84208D91CEB050503F1FF3802D24E
:100CD800A84200F2CE8043462D1AB5FBF7F007FB79
:100CE80010550EFB00FEA4B244EA0544A64508D9F7
:100CF8001CEB040400F1FF3502D2A64500F2B680D1
:100D08002846A4EB0E0440EA03409EE7C1F1200701
:100D18008B4022FA07FC4CEA030C25FA07FA4FEA43
:100D28001C49BAFBF9F820FA07F309FB18AA8D4009
:100D38001FFA8CFE1D4300FA01F308FB0EF02C0C81
:100D480044EA0A44A04202FA01F20BD91CEB04045B
:100D580008F1FF3A80F08880A04240F28580A8F12F
:100D680002086444241AB4FBF9F009FB104400FBA0
:100D78000EFEADB245EA0444A64508D91CEB0404AE
:100D880000F1FF356CD2A6456AD90238644440EABE
:100D98000840A0FB0295A4EB0E04AC42C846AE4640
:100DA80056D353D0002E69D0B3EB080264EB0E047F
:100DB80022FA01F304FA07F71F43CC40C6E900748E
:100DC800002147E70CFA02FCC2F1200125FA01F3E1
:100DD8004FEA1C4720FA01F195400D43B3FBF7F1A8
:100DE80007FB11331FFA8CFE280C40EA034001FB75
:100DF8000EF3834204FA02F408D91CEB000001F157
:100E0800FF382FD283422DD902396044C01AB0FB73
:100E1800F7F307FB1300ADB245EA004503FB0EF0FC
:100E2800A84208D91CEB050503F1FF3816D2A842E1
:100E380014D9023B6544281A43EA014138E7314690
:100E4800304607E72F46E4E61846F9E64B45A9D2AF
:100E5800B9EB020865EB0C0E0138A3E74346EAE755
:100E6800284694E74146D1E7D0467BE764440238F8
:100E780047E7023B65442FE7084606E73146E9E6BF
:100E8800704700BF70472DE9F04F83B006460F4604
:100E980001929846DDF83090DDF838A00F9B13F0EA
:100EA800030F14D10D9B534528BF154610D20D9B37
:100EB800AAEB0305019C25444FF0200B2246013480
:100EC800434639465846B047AC42F7D100E0019D49
:100ED8000D9B7BB10D9B09EB030B5C46AB44ABEB65
:100EE80004024346394614F8010DB0474C45F6D183
:100EF8000D9B1D440F9B13F0020F0ED0019BEC1AA3
:100F0800A2450AD94FF020092A46434601353946F9
:100F18004846B04701345445F6D3284603B0BDE8E7
:100F2800F08F2DE9F04385B0DDF830E00D9C9DF899
:100F38003880109F119D129E16F0020F38D17DB196
:100F480016F0010F00F08A80B8F1000F02D116F0F8
:100F58000C0F00D0013DBC4215D21F2C04D912E061
:100F6800BC420DD21F2C0BD804F1FF3CF4444FF0C7
:100F7800300901340CF8019FA74201D9202CF8D17F
:100F880016F0010F14D0A54212D91F2C0BD804F16A
:100F9800FF3CF4444FF0300901340CF8019FAC4297
:100FA80005D0202CF8D116F0100F04D120E02C46E3
:100FB80016F0100F13D016F4806F04D11CB1A7429D
:100FC80020D0AC421ED00F9F102F24D00F9F022F8D
:100FD8002DD01F2C0CD830270EF8047001341F2C8C
:100FE80006D8B8F1000F29D02D270EF80470013467
:100FF800039602950194CDF800E0FFF744FF05B091
:10100800BDE8F083B4F1010C0FD00F9F102F01D071
:101018006446DBE7023C16F0200F24D11F2CD8D8F9
:1010280078270EF804700134D3E76446CBE71F2C09
:10103800DED862270EF804700134CAE716F0040FF0
:1010480004D02B270EF804700134D1E716F0080FEE
:10105800CED020270EF804700134C9E7BC42A7D2CD
:101068001F2C81D9A4E71F2CC2D858270EF804706A
:101078000134AEE72DE9F04190B0169C189DDDF8DB
:101088006C802CB928F0100618F4806F34D1B04663
:1010980018F0200F14BF412761270DF1200E0026FC
:1010A8000A3F00E06446B4FBF5FC05FB1C4C5FFA04
:1010B8008CFCBCF1090F94BF0CF1300CBC445FFAF6
:1010C8008CFC01360EF801CBB4FBF5FCAC4201D325
:1010D800202EE7D1CDF818801A9C0594199C049409
:1010E80003959DF85C400294019608AC0094FFF7C4
:1010F80018FF10B0BDE8F081B0462646EAE72DE9B2
:10110800F04F95B0089009910A920B931E9C1F9D71
:10111800229EDDF88C80DDF898B054EA050305D1ED
:101128002BF010031BF4806F40D19B461BF0200F5F
:1011380014BF4FF0410A4FF0610A0DF13009002742
:10114800AAF10A0A01E004460D4632464346204603
:101158002946FFF713FDD2B2092A94BF3032524410
:10116800D2B2013709F8012B3246434620462946B8
:10117800FFF704FDB44275EB080301D3202FE2D139
:10118800CDF818B0259B0593249B049303969DF8EE
:101198008030029301970CAB00930B9B0A9A099934
:1011A8000898FFF7BEFE15B0BDE8F08F9B460027F4
:1011B800E6E70000000000002DE9F04F91B004467A
:1011C8000D460B921E461A9F0797DDF86C80CDF8E6
:1011D80020803A46434638464146FFF705FC00283A
:1011E80000F0A7814FF0FF32A34B38464146FFF786
:1011F80023FC002840F09D814FF0FF326FF48013EC
:1012080038464146FFF7FAFB002840F09281002259
:101218000023079F3846DDF820804146FFF7EEFBA4
:10122800002840F09B81079A089B09920A931E9B0D
:1012380013F480630F931C9B08BF06231C93DDF8EF
:1012480024A00A9FC7F30A50A0F2FF30FFF7FAF86C
:1012580079A3D3E90023FFF75FF979A3D3E9002342
:10126800FEF7A4FF80468946C7F31307504647F0A8
:101278007F5141F440110022804BFEF795FF72A385
:10128800D3E90023FFF748F902460B464046494692
:10129800FEF78CFFFFF7DAFB0E90FFF7D3F88046D6
:1012A80089466BA3D3E90023FFF736F90022744B74
:1012B800FEF77CFFFFF7CAFB074667A3D3E90023C5
:1012C80040464946FFF728F9804689463846FFF7E1
:1012D800B9F863A3D3E90023FFF71EF902460B46CA
:1012E80040464946FEF760FF82468B4602460B465B
:1012F800FFF712F98046894652465B4650465946E2
:10130800FEF754FFCDE90C0100225E4B40464946EA
:10131800FFF72CFA00225C4BFEF748FF02460B460B
:1013280040464946FFF722FA0022584BFEF73EFF97
:1013380002460B4640464946FFF718FA804689465A
:1013480052465B4600204FF08041FEF72DFF0246D3
:101358000B4640464946FEF729FF02460B46DDE9A3
:101368000C01FFF703FA0022494BFEF71FFF07F2B3
:10137800FF3700223B05FFF7CFF880468946099AD8
:101388000A9BFFF759FB002840F0ED80C246CB4688
:10139800DDF8388008F16303C72B34BF042705271D
:1013A8001E9B13F4006F24D02FA3D3E900230998C0
:1013B800DDF828904946FFF735FB002800F0DF806C
:1013C8002BA3D3E9002309984946FFF717FB002808
:1013D80000F0D5801C9B4345C3BF4246981A00F1D4
:1013E800FF3300231C931E9B43F480631E93002746
:1013F8000E971D9B9F4234BFA3EB07084FF00008D0
:101408001E9B13F0020903D0002F18BF4FF00008ED
:101418000E9B3BB152465B4609980A99FFF7A6F91D
:1014280009900A910022002307980899FFF7E6FA25
:10143800002840F0B0802DE0FB799F501344D33F43
:10144800B3C8608B288AC63F61436F63A787D23FC2
:1014580071A379094F930A401655B5BBB16B024089
:10146800EF39FAFE422EE63F2D431CEBE2361A3FD7
:101478000000000080842E41FFFFEF7F0000F83F4E
:101488000000E03F00002C4000002440000018400D
:101498000000F03F1E9B23F400630493CDF80C80FA
:1014A8001C9B0293099A0A9BCDE900233346DDF879
:1014B8002CB05A462946204600F076F88046002F80
:1014C80048D01E9B13F0200F00F1010A3346024654
:1014D800294614BF45206520A04705230593013FF1
:1014E8000497002303930A2302930E99CB0F0193C9
:1014F8000029B8BF49420091334652462946204642
:10150800FFF7B8FD8046B9F1000F23D0A0EB0B0719
:101518001D9BBB421ED94FF020099A4642463346CE
:1015280008F1010829464846A04701375745F5D331
:1015380010E01E9B04931D9B03931C9B0293079A28
:10154800089BCDE9002333460B9A2946204600F034
:101558002BF88046404611B0BDE8F08F099708F196
:1015680000430A9363E60E9B013B0E9300220C4B4B
:1015780040464946FFF7FAF882468B4608E71C9B27
:10158800002B3FF436AF0F9B002B3FF432AF1C9B70
:10159800013B1C932DE70A9901F100430A9379E76F
:1015A80000002440000000002DE9F04F97B007909C
:1015B8000C9192469B46DDE9208942464B464046BF
:1015C8004946FFF711FA002849D04FF0FF326FF46F
:1015D800801340464946FFF711FA00284ED14FF0D4
:1015E800FF32B34B40464946FFF726FA002854D14C
:1015F800ABA3D3E9002340464946FFF71DFA00286C
:1016080063D1A9A3D3E9002340464946FFF7F6F979
:1016180000285AD10022002340464946FFF7EEF938
:10162800002861D100230D93249B13F4806569D0B1
:10163800229B092B63D930238DF83830229B5E1EFC
:101648000EAAA3F1090501233021AB425BD0013377
:1016580002F8011F013E202BF7D11D4653E0249BC1
:101668000393239B029303230193924B00935B46BE
:1016780052460C990798FFF706FC5BE1249B0393FD
:10168800239B0293042301938B4B00935B465246A2
:101698000C990798FFF7F7FB4CE1249B13F0040221
:1016A800864B874908BF0B46002A14BF0422032231
:1016B8002499039123990291019200935B46524623
:1016C8000C990798FFF7DFFB34E1249B0493239BD5
:1016D8000393229B0293CDE900895B4652460C99FD
:1016E8000798FFF769FD25E142464B460020002197
:1016F800FEF75AFD8046894601230D9394E71E465E
:10170800002500E0062640464946FFF79FF90446B3
:101718006C4B03EBC603D3E90023CDE90823FEF79E
:1017280091FE02460B4640464946FEF73DFDDDE97F
:101738000823FEF7F1FE02460B46CDE90A23FFF720
:10174800ADF90746FEF76EFE02460B46DDE90A01D3
:10175800FEF72AFD02460B46CDE90A2300225A4B22
:10176800FFF76AF950B301373846FEF75BFE0246C9
:101778000B46DDE90801FFF74BF908B101340027F2
:10178800002E6FD12046FEF75DFE02460B4640460E
:101798004946FEF709FD06460F4600224A4BFFF769
:1017A8002DF930B10022484B30463946FFF744F94D
:1017B80060B314F0010F29D0013427E00022424B16
:1017C800DDE90A01FFF71AF90028D9D117B117F096
:1017D800010FD5D00137D3E71F2900F2AE80BCF145
:1017E800000F3DD00EAB5A190D463020013502F8D6
:1017F800010F202D0AD0EB430B44F342F6D105F13B
:1018080058036B442E2203F8202C013505F15803A8
:101818000DEB0302213A2D491F2D79D8013581FBA3
:101828000430E317C3EBA00303EB8300A4EB4004ED
:10183800303402F8014F1C46002BEDD1249B03F0F5
:101848000303012B46D01F2D67D80D9B002B47D0D3
:1018580005F158036B442D2203F8202C01355CE078
:101868000D46CCE705F158030DEB03002138DFF8EE
:1018780060E01F2DCAD806F1FF3C691CAEFB073299
:10188800D20802EB8203A7EB4303303300F8013F91
:10189800092FA1D9664617460D46EAE7AFF300803F
:1018A8000000000065CDCD410000000065CDCDC130
:1018B800FFFFEF7FE0730008E4730008D4730008AB
:1018C800DC730008F07300080000E03F6766666696
:1018D800CDCCCCCC239B002BB5D033E0239DB2E7F5
:1018E800249B13F0040F07D005F158036B442B22F7
:1018F80003F8202C013510E0249B13F0080F0CD0BE
:1019080005F158036B44202203F8202C013504E02C
:10191800249B03F00303012B11D0249B0393239BE7
:10192800029301950EAB00935B4652460C990798BB
:10193800FFF7A9FA17B0BDE8F08F0D4666E7239BBD
:10194800002BEAD00D9B1BB9249B13F00C0F02D07F
:10195800239B013B2393239BAB427FF674AF1F2D40
:10196800DBD805F158036B44213B3022239901351C
:1019780003F8012F8D42B1D0202DF8D1CDE700BF5B
:1019880000B9704708B500F0EBFE08BD2DE9F04F2F
:1019980091B017461C46DDF86880B1F10009804B0C
:1019A80014BF82469A462078002800F0CE824FF075
:1019B800000B2EE1621C4FF0000C144612F8013B9C
:1019C800A3F1200110290AD8DFE801F02E09093116
:1019D800090909090909092B092809092500A3F199
:1019E8003002D2B2092A25D92A2B31D000252378F2
:1019F8002E2B36D000262378683B122B5DD8DFE8E3
:101A080003F0B85CC65C535C5C5C5C5C5C5CC25CB0
:101A18005C5C5C5CCA004CF0010CCEE74CF0020C3C
:101A2800CBE74CF0040CC8E74CF0080CC5E74CF0C9
:101A3800100CC2E7002505EB850503EB4505303D95
:101A480014F8013FA3F13002D2B2092AF3D9CEE744
:101A580058F8045B002DBCBF4CF0020C6D420134F9
:101A6800C5E74CF4806C611C6378A3F13002D2B2F4
:101A7800092A04D92A2B11D00C460026BBE70026D8
:101A880006EB860603EB4606303E11F8013FA3F14C
:101A98003002D2B2092AF3D90C46ACE758F8046BE5
:101AA80026EAE6760234A6E763786C2B19BF4CF475
:101AB800807C01344CF4407C02342078A0F125036A
:101AC800532B00F23982DFE813F02D023702370278
:101AD8003702370237023702370237023702370236
:101AE8003702370237023702370237023702370226
:101AF8003702370237023702370237023702370216
:101B08003702370237023702370240012701400106
:101B180037023702370237023702370237023702F5
:101B280037023702370237023702370237023702E5
:101B38006D003702370237023702370237023702A1
:101B4800370237026D0064016D0040012701400132
:101B580037026D00370237023702370237026D004D
:101B68001702370237029F0137026D00370237022A
:101B78006D006378682B19BF4CF0800C01344CF071
:101B8800C00C023499E74CF4807C013495E74CF49E
:101B9800007C013491E74CF4807C01348DE700BF70
:101BA8008D0E0008782800F02182582800F0DC818A
:101BB8006F2800F01D82622800F01C822CF01003B0
:101BC800692832D11CF4806F40F00C820A2213F489
:101BD800007F35D113F4807F54D113F0400F65D0C6
:101BE80058F8041BC9B20593049503960292CB0FCB
:101BF80001930029B8BF494200913B465A464946DD
:101C08005046FFF737FA834601342078002800F061
:101C18009E8125283FF4CEAE0BF101053B465A467E
:101C28004946D0470134AB46EFE7642805D11CF498
:101C3800806F40F0D3810A22C9E79C460A2296E1C8
:101C480008F1070020F00700804658F8081B406894
:101C5800089307950696049200230593C30F0293F1
:101C68000246002809DB009101923B465A46494644
:101C78005046FFF744FA8346C6E74B42194660EBE5
:101C88004002F0E758F8041B059304950396029266
:101C9800CB0F01930029B8BF494200913B465A46F1
:101CA80049465046FFF7E6F98346ADE713F0800F43
:101CB80058F8041B18BF09B295E708F1070828F07F
:101CC8000708089307950696002304920593029344
:101CD800F8E80223CDE900233B465A4649465046D8
:101CE800FFF70DFA83468FE7059304950396029252
:101CF8000023019358F8043B00933B465A46494653
:101D08005046FFF7B7F983467EE713F0800F58F87F
:101D1800041B18BF89B246E1462808BF4CF0200CC6
:101D280008F1070828F00708CDF810C003950296B7
:101D3800F8E80223CDE900233B465A464946504677
:101D4800FFF732FC834601345FE700F0DF03472BDF
:101D580002D0452808D105E04CF4006C00F0FD00E5
:101D6800452801D14CF0200C08F1070828F0070895
:101D7800CDF810C003950296F8E80223CDE90023B8
:101D88003B465A4649465046FFF716FA8346013401
:101D98003BE71CF0020F1CD043460BF1010653F839
:101DA800040B0B933B465A464946C0B2D047012D17
:101DB80088BF05EB0B0840F20581324601363B46E9
:101DC80049462020D047B045F7D1AB44DDF82C80F8
:101DD80018E0012D40F2FA800BF1FF331D44202654
:101DE8005A460BF1010B3B4649463046D0475D4504
:101DF800F6D105F1010B58F8040B3B462A46494633
:101E0800C0B2D047013400E7434653F8048B0C9323
:101E1800002E14BF31464FF0FF3198F8000000281B
:101E280000F0DA80434613F8012F1AB1A8EB030239
:101E3800CA42F8D1A3EB08030B931CF480620D92FD
:101E480003D0B34228BF33460B931CF002030E9312
:101E580006D0002800F0BC805A460F950D9D29E059
:101E68000B9A531C954240F2B58005EB0B039B1A65
:101E78000F93CDF82C8098465A460BF1010B3B4640
:101E880049462020D047C345F6D1DDF82C806B1C8D
:101E98000B93DDF83CB098F800000028DCD114E082
:101EA8001E4602F1010B3B464946D04718F8010F80
:101EB80040B15A46002DF4D0731E002EF0D10F9D6C
:101EC800934600E00F9D0E9B1BB90134DDF830806E
:101ED8009BE65E460B9B9D420CD93544A5EB030B54
:101EE8002025324601363B4649462846D047B34569
:101EF800F7D1EAE7B346E8E74CF021030593082356
:101F080004930396102302930023019358F8043B8B
:101F180000933B465A4649465046FFF7ABF883467E
:101F2800013472E60BF101053B465A464946252025
:101F3800D0470134AB4668E60BF101053B465A46EB
:101F48004946D0470134AB465FE64FF0000B5F458A
:101F580094BF07F1FF325A463B4649460020D04716
:101F6800584611B0BDE8F08F4CF0200C10222CF030
:101F78000C031CF4806F07D02CF00D0369283FF484
:101F880026AE64283FF423AE13F4007F7FF495AEA9
:101F980013F4807F7FF4A8AE13F0400F3FF4B5AE82
:101FA80058F8041BC9B205930495039602920023BE
:101FB800019300913B465A4649465046FFF75AF866
:101FC800834621E6DDF82C80B3461BE75D4610E723
:101FD8005E467FE70B935EE743462BE72CF0110341
:101FE8000A22F4E52CF011030A22F0E51022BEE7DC
:101FF8000822BCE70222BAE70FB400B585B006AAEA
:1020080052F8043B039200924FF0FF3202A90448B1
:10201800FFF7BCFC05B05DF804EB04B0704700BFE7
:102028008919000870B582B005460C461646126834
:10203800264B1B689A4205D1244B5B68002B33D092
:10204800013B32E0002303600B60019301A805F017
:10205800FBF8E0B9019B236001A805F015F9D8B990
:10206800019B2B603268194B1A60286821685A68EE
:1020780002EB420403EB84039860D96001211974D0
:102088000A44632A0CD8114B5A6000201BE0104800
:10209800FFF7B2FF012016E00E48FFF7ADFFF9E7A2
:1020A80000200A4B58600EE06323084A03EB430103
:1020B80002EB81018968296003EB430302EB830388
:1020C800DB682360002002B070BD00BF0000002064
:1020D800407400086874000810B5044600F038FF22
:1020E8000378012B03D0032B0DD0204610BD2046CA
:1020F800FEF7BAF910A3D3E90023FEF755F8FEF767
:10210800EDFC0446F1E72046FEF7AEF90AA3D3E951
:102118000023FEF749F80022094BFEF7FDF90022DB
:10212800084BFEF723FB0022074BFEF73FF8FEF7AC
:10213800D5FC0446D9E700BF66666666661271403C
:10214800000022400000144000004040054B03F509
:102158009660002200219A60DA6019740C33834279
:10216800F9D170470000002030B401230370002427
:102178000025C0E902450022044BC0E90423C0E958
:102188000645C0E9082330BC704700BF0000F03F97
:10219800D0B582B002460C46694601A8FFF742FF57
:1021A800F0B90198FFF798FF074600F0D1FE064600
:1021B8003846FEF759F9D6E90423FEF7ADF9064685
:1021C8000F4600F0C5FE32463B4600F10801D1E952
:1021D8000001FDF7EBFFC4E90001002002B0D0BD0B
:1021E8000220FBE7D0B582B002460C46694601A83A
:1021F800FFF718FFF0B90098FFF76EFF074600F0E9
:10220800A7FE06463846FEF72FF9D6E90823FEF75B
:1022180083F906460F4600F09BFE32463B4600F126
:102228001801D1E90001FDF7C1FFC4E90001002050
:1022380002B0D0BD0220FBE710B50C4600F088FEC6
:1022480003782370002010BD10B5044600F080FE0E
:10225800237E037000F080FE10BD000030B583B00F
:102268000C460023019301A804F0A6FF40B90546D7
:102278000198FEF7F9F8C4E90001284603B030BD1B
:102288000248FFF7B9FE0225F7E700BF907400087F
:1022980008B500F11801D1E90001FEF71FFC04F0B0
:1022A800ABFF00B908BD0248FFF7A6FEFAE700BF7A
:1022B800B0740008D0B50C46184B5A68C3689A42E7
:1022C80038BF6432D31A03EB4302144800EB82028E
:1022D800127C0AB90120D0BD03EB430300EB830352
:1022E8009868FFF7F9FE074600F032FE06463846C2
:1022F800FEF7BAF8D6E90423FEF70EF906460F46AC
:1023080000F026FE32463B4600F10801D1E9000103
:10231800FDF74CFFC4E900010020DCE700000020C5
:10232800D0B50C46184B5A68C3689A4238BF643215
:10233800D31A03EB4302144800EB8202127C0AB959
:102348000120D0BD03EB430300EB8303D868FFF7FC
:10235800C3FE074600F0FCFD06463846FEF784F843
:10236800D6E90823FEF7D8F806460F4600F0F0FD38
:1023780032463B4600F11801D1E90001FDF716FF8E
:10238800C4E900010020DCE70000002010B50C467D
:1023980000F0DEFDD0E90623C4E90023002010BDCB
:1023A80010B5044600F0D4FDD4E90623C0E906239D
:1023B80000F0D2FD10BD10B50C4600F0C9FDD0E903
:1023C8000823C4E90023002010BD10B5044600F01E
:1023D800BFFDD4E90623C0E9082300F0BDFD10BD08
:1023E80010B50C4600F0B4FDD0E90223C4E900237F
:1023F800002010BD10B5044600F0AAFDD4E906235C
:10240800C0E9022300F0A8FD10BD10B50C4600F08D
:102418009FFDD0E90423C4E90023002010BD10B5B6
:10242800044600F095FDD4E90623C0E9042300F032
:1024380093FD10BD08B5FFF789FE08BD38B5044601
:10244800094D05F13C02002103F044F905F135027C
:102458000021204603F03EF905F12502002120461F
:1024680003F038F9002038BDD074000810B50446D0
:10247800812103F013FA0321204603F00FFA822189
:10248800204603F00BFA002010BD000010B50B78B1
:1024980013F0600328D0202B2DD14B78202B1AD095
:1024A800212B28D1244C2368244A13704FEA132C7B
:1024B80082F801C04FEA134C82F802C01B0ED37099
:1024C8002379137163795371A3799371CB88802130
:1024D80003F0D6FA0FE01A4B20221A60CB88174A6D
:1024E800002103F014FA06E04B780A2B05D00B2BD9
:1024F80009D0062B10D0002010BD0123114A8021DD
:1025080003F0BEFAF7E78B781BB90E4B00221A606E
:10251800F1E704F0E7F8EEE74B881B0A212B05D01A
:10252800094A3A23802103F0ABFAE4E7CB883A2B37
:1025380028BF3A23054AF5E7BC040020800600209E
:10254800B804002008070020D9740008E2740008C5
:1025580008B5044B00221A704023034A032103F0F4
:10256800D6F908BDC404002088060020402900D9F7
:10257800704708B5044B00221A708BB2034A8121B8
:1025880003F07EFA08BD00BFC5040020C80600207D
:102598000F4B1B68FF2B18D00E490F4A50789378C1
:1025A8001B0443EA002310780343D07843EA00630E
:1025B8000B6013790B7153794B7193798B71074BBE
:1025C80001221A70024BFF221A600020704700BFD8
:1025D800B8040020BC04002080060020C4040020A9
:1025E80010B5012906D00C4631BBBAB1032A19D05F
:1025F800022022E0012A01D002201EE0426B836AF9
:102608009A4204D00D4B01221A70002015E00023D5
:102618001A46012103F034FA00200EE0FFF7B8FF54
:1026280002200AE0064B01221A70032103F06DFA1A
:10263800044B1860204600E0022010BDC5040020AD
:10264800C40400207C06002000B583B08DF8070084
:1026580001210DF1070000F03BFF03B05DF804FB1A
:1026680008B500F035FF08BD30B585B0002840D06A
:102678000446254A01AB07CA03C31A802348A0FBB6
:102688000430C00800EB8003A4EB430330338DF81B
:102698000430092C36D901AC01211C4DA5FB0023BF
:1026A800DB0803EB8302A0EB4202303204F8012F6F
:1026B80002461846092A20D9013149B20A29EDD122
:1026C8008BB2002001AA1FFA80FC12F80CE0D45C3F
:1026D80002F80C4002F803E0013B9BB201301FFAFC
:1026E80080FC6345EFD8013101A800F0F1FE05B088
:1026F80030BD3020FFF7A8FFF9E78BB2002BE0D1FF
:102708000021F0E70021EEE7B0730008CDCCCCCC77
:1027180010B5041E03DB2046FFF7A6FF10BD2D20D1
:10272800FFF792FF6042F7E770B505460824054EAB
:102738002B0FF05CFFF788FF2D01631E13F0FF04D9
:10274800F6D170BD2C75000808B5FDF78DFE024660
:102758000B460248FFF750FC08BD00BF287500086B
:1027680000B583B08DF8070001210DF1070000F0D6
:10277800AFFE03B05DF804FB00B9704770B5084CB4
:102788002668206000F0B6FE236833B1012528468C
:1027980000F076FB2368002BF9D1014B1E6070BD59
:1027A80010070020034B1B681BB1024A1368013B4A
:1027B800136070471007002082B00023019338B1DE
:1027C80001461A46019B0133019301329142F9D126
:1027D80002B07047F8B50B4B1F6818601B6853B1FF
:1027E8000C460126074DA04728B9304600F048FBA3
:1027F8002B68002BF7D1034B18681F60B0FA80F0E4
:102808004009F8BD10070020014BD3F8AC0770470A
:1028180000F0FF1F014BD3F8B007704700F0FF1F0F
:10282800014BD3F8B407704700F0FF1F80029446AD
:102838004AB18C440B46C1F1006108441A5C03F8A4
:10284800012B9C45FAD170472DE9F84F0746894678
:10285800924603F06BFF342003F0B8FF07F5003011
:10286800800203F07BFF342003F0B0FF03F06EFF1B
:1028780003F05CFFBF0207F1006BBAF1030F3AD90E
:10288800AAF1040509F1040625F003031E444C4689
:10289800C9F100631F444FF034086178A3781B0422
:1028A80043EA012321780B43E17843EA01613819AF
:1028B80003F072FF404603F089FF0434B442ECD1C0
:1028C80025F0030304339B449A4510D94B44D14463
:1028D8000020014613F8012B824011430830994526
:1028E800F8D1584603F058FF342003F06FFF03F087
:1028F8002DFFBDE8F88F0023E6E7704708B500F024
:1029080003FA08BD08B500F0FFF908BD08B500F0E6
:10291800FBF908BD08B500F0F7F908BD7047704726
:10292800704708B500F094FB08BD08B500F036FC08
:1029380008BD08B503F0F0F808BD0000034BD3F854
:10294800000480F40070C0F340207047005000403D
:1029580008B540F20161034804F09FF8B0FA80F02E
:10296800400908BD0054004008B540F20151024832
:1029780004F093F808BD00BF0054004008B54FF4B8
:10298800A061024804F089F808BD00BF0054004067
:1029980008B540F20251024804F07FF808BD00BFB4
:1029A8000054004008B540F20751024804F075F899
:1029B80008BD00BF0054004008B540F20651024867
:1029C80004F06BF808BD00BF0054004008B5034987
:1029D800FFF700FF003818BF012008BD592900087B
:1029E80038B504460D46134804F048F81249052046
:1029F800FFF7F0FED8B96DB16FF0010261000D4824
:102A080004F02EF80D490520FFF7E4FE044640B116
:102A180001240DE0012204FA02F1064804F020F82E
:102A2800F0E740F20151034804F03FF800E00124C8
:102A3800204638BD00540040852900087129000847
:102A480008B5024804F01FF808BD00BF0054004054
:102A580010B507490520FFF7BDFE10B10124204637
:102A680010BD04460121034803F0F1FFF7E700BF5A
:102A7800452900080054004010B5044609490520BE
:102A8800FFF7A8FE08B1012010BD2146064803F053
:102A9800FFFF06490520FFF79DFE003818BF0120FB
:102AA800F2E700BFAD29000800540040992900084A
:102AB80038B50C4660B101210A4803F0C8FF0A493D
:102AC8000520FFF787FE054638B10125284638BDA1
:102AD8000021044803F0BBFFF1E7024803F0DAFFE6
:102AE8002070F3E700540040C129000810B540F2F7
:102AF800125004F0ADF840F2157004F0A9F81B4C20
:102B080040220121204603F0F7FE802201212046C1
:102B180003F0F2FE402301220221204603F0A0FE2A
:102B2800402303220121204603F0C2FE8023012214
:102B38000221204603F094FE80230322012120462F
:102B480003F0B6FE0A4C00220A49204603F00CFFA7
:102B5800722300221146204603F06CFF204603F042
:102B680088FF0121204603F072FF10BD00040048D1
:102B780000540040A086010070B504460D46164674
:102B88000520FFF723FF034608B1184670BD012151
:102B98002046FFF725FF03460028F6D15EB16C1EDC
:102BA8003544013D14F8010FFFF766FF034600287E
:102BB800EBD1AC42F6D1FFF743FFFFF749FF0346DD
:102BC800E3E713B90023184670472DE9F04106469C
:102BD8000C4615461F460520FFF7F8FE034610B1C0
:102BE8001846BDE8F08101213046FFF7F9FE03469B
:102BF8000028F5D12046FFF73FFF03460028EFD114
:102C080000213046FFF7ECFE03460028E8D17E1E7F
:102C18000ED02C466B1E1F444FF00108214640463B
:102C2800FFF746FF03460028DAD10134BC42F5D14C
:102C3800FFF706FFA9190020FFF73AFF034600280F
:102C4800CED1FFF705FF0346CAE710B582B0144698
:102C58000023ADF80430022301AAFFF7B2FF18B928
:102C68009DF805301B02238002B010BD10B540F25C
:102C7800165003F0EDFF094C0223002201212046E3
:102C880003F0EEFD022303220021204603F010FE8C
:102C9800034B0222C3F8282410BD00BF00140048CB
:102CA80000100048044A137843F001031370034BE3
:102CB8000222C3F8182470471407002000100048A7
:102CC800044A137823F001031370034B0222C3F85C
:102CD80028247047140700200010004800B97047E6
:102CE80038B50546064C237843F002032370054B9C
:102CF8000222C3F8182400F0BBF92844606038BDEC
:102D0800140700200010004808B5064CFFF7CAFF5A
:102D18002046FFF751FDFFF7D3FF2046FFF74CFD94
:102D2800F4E700BFA086010008B528B1094A137866
:102D380043F00403137008BD064A137823F0040314
:102D480013700220FFF718FD034B0222C3F8282452
:102D5800F1E700BF1407002000100048144B1B784F
:102D680013F0010F05D113F0020F03D113F0040F74
:102D78000DD170470E4A52688242FAD223F00203FC
:102D88000B4A13700B4B0222C3F828247047C0F378
:102D98000A0323B9074B0222C3F81824704710F01E
:102DA8000F0FE6D1034B0222C3F82824E1E700BF46
:102DB800140700200010004880B5FFF757FF4FF4B4
:102DC800FA70FFF78BFF4FF4E13000F063F9FFF77B
:102DD8008DFE00F01DF900F007FA00F09DF800F0F4
:102DE800EFF8FFF727FB01F095FB0120FFF79CFFA9
:102DF8004FF4967000F068FA1E4F4FF000081E4E10
:102E08004FF001090DE0384600F0BAF90546A8B9B7
:102E180086F8008000F06EFB00F088FA484600F063
:102E28002FF800F079FA384600F010FA05464046C7
:102E380000F072FB002DE6D000240FE0484600F0B9
:102E48006BFBF9E701F06EFB28B186F8009002E011
:102E580086F80080013C0134AC42D9D2385D337821
:102E6800002BEFD0012BF6D10A28F1D00D28F2D192
:102E7800EEE700BF200700201C07002070477047BE
:102E880010B50446FFF7FAFF40F21C7003F0E0FEAD
:102E980044B1022C0BD0012C0ED0032C10D0FFF71C
:102EA800EEFF10BD0021012003F082FEF9E70121A9
:102EB800084603F07DFEF4E7002003F06DFEF0E71E
:102EC800012003F069FEECE77047000008B5FFF742
:102ED800FBFF02210748FFF7C3FBBFF34F8F0649EB
:102EE800CA6802F4E062054B1343CB60BFF34F8F0F
:102EF80000BFFDE73C75000800ED00E00400FA059E
:102F08000048704794070020014B93F83C00704735
:102F1800680700207047000010B50B4C05222146B9
:102F28003E20FFF783FC2268084B9A420BD000230F
:102F380023706370A370E370204600F8043FFFF726
:102F4800E9FF024B236010BD60070020180621200E
:102F5800004870476C07002008B53D2202493F2011
:102F6800FFF772FC08BD00BF6807002008B58C4653
:102F780051B1431E074A0139C9B2084413F8011F69
:102F880002F8011F8342F9D1034B83F83CC0FFF7D5
:102F9800E3FF08BD930700206807002008B5064A2C
:102FA800531E3C32002103F8011F9342FBD1034812
:102FB800FFF7DAF808BD00BF680700206C0700209B
:102FC80010B586B00F4C3D2221463F20FFF72EFC5E
:102FD80022680D4B9A4201D106B010BDFFF7DEFF03
:102FE8000DF1040C094C0FCCACE80F0023688CF8E9
:102FF8000030102101A8FFF7B9FF024B024A1A60FE
:10300800EAE700BF6807002021201806407500087D
:103018000C4B1B680C4AA2FB03239B09013BB3F131
:10302800807F0DD24FF0E0225361084BF02183F8E6
:103038002310002191610720106183F82310704745
:10304800FEE700BF58060020D34D621000ED00E0F7
:1030580010B5FFF7A7FB054C2068FFF77FFE206837
:1030680000F06AF923680133236010BDA807002027
:10307800014B1868704700BFA807002008B540F248
:103088000771034803F0D1FF003818BF012008BDBD
:103098000038014038B50546002211461B2003F0D0
:1030A80023FD40F2115003F0D3FD40F20E6003F00F
:1030B800CFFD4FF4007201214FF0904003F01CFC4B
:1030C8004FF4806201214FF0904003F015FC4FF45B
:1030D8000073012202214FF0904003F0C1FB4FF42E
:1030E8000073012200214FF0904003F0E1FB4FF400
:1030F8008063012202214FF0904003F0B1FB4FF4AE
:103108008063012200214FF0904003F0D1FB0C4C6A
:10311800204603F023FF2946204603F03BFF082101
:10312800204603F06AFF0421204603F06EFF204684
:1031380003F05EFF0521204603F07FFF38BD00BF86
:10314800003801402DE9F843894689B1441E0844F6
:10315800451EDFF82480094F052614F8011F404654
:1031680003F05BFF39463046FFF734FBAC42F4D13D
:103178004846BDE8F88300BF0038014085300008A4
:1031880010B5054C214651F8042B04F0F3F82068DB
:103198000023236010BD00BFAC07002008B50A4912
:1031A8000A4803F057FF18B1094B1B681F2B00D9B9
:1031B80008BD064803F035FF054B1A68511C196015
:1031C80013441871F4E700BF0500050700380140F3
:1031D800AC070020034B1878012814BF00200120F9
:1031E800704700BFC504002038B540F2165003F000
:1031F8002FFD002003F058FD40F2177003F028FD62
:10320800104C012300221946204603F029FB012314
:1032180003220021204603F04BFB0B4D284602F009
:1032280041FA4FF4C06003F055FC0022012125202B
:1032380003F05AFC0121204603F05CFB05236B7068
:1032480038BD00BF00140048C804002038B50D4B35
:103258005B78DBB2032B01D0002038BD04460A4B53
:103268001B78012B18BF0020F7D10648FFF770F92B
:10327800064D2A680649204604F07CF82868002391
:103288002B60EAE7C8040020C40400207C06002064
:10329800880600200A4B5B78DBB2032B01D00020A4
:1032A800704710B5044607490520FFF793FA08B19F
:1032B800002010BD21460248FFF758F92046F8E7DC
:1032C800C8040020DD31000800B9704738B504464D
:1032D800FFF7CEFE0E4A1060631D0E4981FB0313F3
:1032E8009DB203EB43035B00033B93804FF41060F4
:1032F80003F06EFD4FF41064204603F0EFFC002845
:10330800FAD00621284603F079FA03F06FFA38BD9F
:10331800D0070020ABAAAA2A08B5034B01229A714C
:1033280003F05CFA08BD00BFD0070020014B002263
:103338009A717047D0070020084B9B796BB910B57C
:103348000446064A938812681344834200D310BD8A
:1033580003F044FA014B1C60F9E77047D0070020DE
:1033680010B310B58446037843B1C0F1010E00EBE9
:103378000E03DBB210F8014F002CF8D15B000233CA
:1033880013800B7003234B709CF8000058B1022384
:1033980000245A1CD2B2C8540233DBB28C541CF835
:1033A800010F0028F5D110BD7047B2B14B1C02F1D6
:1033B800FF3C5FFA8CFC033101EB4C014FF0000C31
:1033C800020FB0F1204F34BF3032373203F8012CEE
:1033D800000103F802CB8B42F2D1704710B50246C8
:1033E800034C21460348FFF7BBFF204610BD00BF32
:1033F800D80700205475000810B50246034C214632
:103408000348FFF7ADFF204610BD00BFD8070020D6
:103418007075000838B51A230380FFF7F5F90446DC
:10342800FFF7F8F90546FFF7FBF9201801D107481F
:1034380038BD064C0822A11CFFF7B7FF042204F18F
:1034480012012846FFF7B1FFF1E700BF98050020F9
:1034580004230380004870479405002008B5054BF5
:103468001B7913B9FFF716FF08BD01460248FFF79D
:1034780069FEF9E7B4050020C806002038B5124BEC
:103488001D68C5F140038D420BD90C466D1A0E4AD2
:1034980015600A4601460D48184403F06BFF2046A4
:1034A80038BD094A002111602A46014607481844D8
:1034B80003F060FF4020FFF7D1FF0028F0D0024B57
:1034C80040221A602846EBE7B4050020C806002011
:1034D80070B50E4649B105460C4621462846FFF709
:1034E800CDFF20B10544241AF7D1304670BD301BFA
:1034F800FCE7000008B5074B18683F2800D908BD4D
:10350800C0F14000FFF7AAFF0028F8D0014B402285
:103518001A60F4E7B405002008B5054B1B7983420F
:1035280000D108BD024B1871FFF7E4FFF9E700BFAF
:10353800B405002070B582B01B238DF804305B23DE
:103548008DF805308DF8061050B105460024032685
:10355800314601A8FFF784F80134E4B2A542F7D157
:1035680002B070BD08B54421FFF7E4FF08BD08B5F7
:103578004321FFF7DFFF08BD08B54B210120FFF706
:10358800D9FF08BD00B583B0064B1B68ADF8043001
:103598001B0C8DF80630032101A8FFF761F803B072
:1035A8005DF804FB7C75000800B583B0064B1B680A
:1035B800ADF804301B0C8DF80630032101A8FFF785
:1035C8004FF803B05DF804FB8075000800B9704738
:1035D80008B5FFF77BFC08BD08B501790068FFF75F
:1035E800C5FC08BD10B50446FFF78AFC2060FFF74C
:1035F8008BFC207110BD08B5FFF73AFD08BD00002F
:10360800024B00221A705A70704700BF1808002039
:103618000346354A1078032864D8DFE800F0020D25
:1036280022381B2B03D0304B00225A7070472E4B88
:1036380001201870587070475A2B06D81B2B0AD0D7
:10364800294B0020187058707047274B03221A70B6
:1036580000225A707047244B02221A7001225A70B5
:1036680070471B2B06D05A2B0AD81F4B0020187006
:10367800587070471C4B00221A7002225A7070470B
:10368800194B03221A7000225A7001207047412BEF
:103698000DD0422B11D0432B16D0442B1BD01B2B03
:1036A800114B0CBF012000201870587070470E4B4A
:1036B80000221A700220587070470B4B00221A70B3
:1036C80003225A7002207047074B00221A70042206
:1036D8005A7002207047044B00221A7005225A7053
:1036E800022070470020704718080020014B5878C6
:1036F800704700BF180800208B4211D893B1411EB3
:10370800013A03F1FF3C5FFA8CFC844411F8010F85
:1037180012F8013F984207D16145F7D1012070475F
:1037280000207047012070470020704708B501F05D
:1037380063FA0D4B9B7813F0010F0AD00A4B002255
:103748005A70997862F3410199701A70FFF758FF1F
:1037580008BD064B00221A715A719A71DA711A72F1
:103768001A745A74EAE700BF1C08002020080020D9
:1037780008B5FFF7DBFF01F093F900B908BD01F0C8
:1037880073F901F083F9F9E710B5044605E020461E
:1037980001F0F6F9FEF758FF013401F081F9A04273
:1037A800F5D810BDF8B50546A34B93F801C00CF148
:1037B800010C5FFA8CFC83F801C0A04B5B7C012BE9
:1037C80003D0022B00F0EC80F8BDBCF1020F39D019
:1037D800BCF1030F00F09F80BCF1010F05D0CAB205
:1037E8000146072001F0F4F9EEE7CCB2934B002232
:1037F8001A710B2C00F25983234602460B2190487C
:10380800FFF77AFF90B9062C40F251830B2C00F297
:10381800698323462A460B218A48FFF76DFF002853
:1038280000F06083854B03221A71CDE7834B012298
:103838001A71C9E7814B02221A71C5E77F4B04222E
:103848001A71C1E7CCB27D4B00225A711B79013B3A
:10385800032B37D8DFE803F0020F1C3C042C31D8C7
:103868002346024604217848FFF746FF50B3734BBE
:1038780001225A71A8E70A2C24D8234602460A21B5
:103888007248FFF739FFE8B16C4B02225A719BE787
:10389800062C15D82346024606216D48FFF72CFF53
:1038A80050B923462A4607216A48FFF725FF48B141
:1038B800624B04225A7187E7604B03225A7183E7EF
:1038C800072CEED922462946072001F081F97BE72B
:1038D800042C1DD82346024604215F48FFF70CFF3D
:1038E80090B923462A4607215C48FFF705FF0028C0
:1038F800E8D0524A062353714F498B7843F00203AC
:103908008B70012313765FE74C4B05225A715BE7F6
:10391800072CD7D8E5E7CCB2484B00229A715B79DF
:10392800032B07D0042B20D022462946072001F07C
:103938004FF949E7062C06D823460246062148488F
:10394800FFF7DAFE68B9052CEED823462A4605218A
:103958004448FFF7D1FE0028E6D0384B02229A717E
:1039680032E7364B01229A712EE7062C06D82346F9
:10397800024606213C48FFF7BFFE68B9052CD3D89C
:1039880023462A4605213948FFF7B6FE0028CBD042
:103998002A4B04229A7117E7284B03229A7113E7DE
:1039A800BCF1020F79D0BCF1030F00F0A281BCF189
:1039B800010F05D0CAB20146072001F009F903E753
:1039C800CCB21E4B0022DA710B2C06D823460246D5
:1039D8000B211B48FFF790FE30BB062C4ED8234620
:1039E8002A4606212248FFF787FE08BB23462A46B7
:1039F80007212048FFF780FE00284AD123462A469F
:103A08000B211048FFF778FE002840F02982062C89
:103A180039D823462A4606211748FFF76DFE90B38A
:103A2800064B0522DA71CFE6044B0122DA71CBE6A8
:103A3800024B0222DA71C7E61C0800202008002089
:103A4800A0760008D8750008B47600080476000847
:103A580080760008D0750008607600089076000827
:103A68007076000878760008C0750008C8750008E8
:103A7800E475000854760008EC750008072CB5D9E1
:103A88000B2C40F2E48122462946072001F0A0F8D9
:103A98009AE6A04B0322DA7196E6CCB29D4B00223F
:103AA8001A72DB79013B042B2AD8DFE803F0032FD5
:103AB8003D9DBB00062C20D8234602460621964889
:103AC800FFF71AFEA8B923462A4607219348FFF7AD
:103AD80013FE002840F0D181042C11D823462A4631
:103AE80004218F48FFF708FE50B18A4B03221A724F
:103AF8006AE6884B01221A7266E6072C40F2B48106
:103B080022462946072001F063F85DE60A2CF7D81B
:103B1800234602460A218348FFF7EEFD0028EFD02E
:103B28007C4B04221A724FE6002C00F0838111F0BE
:103B3800FF0108BF002300F083810020034605E051
:103B480001335BB218468B4280F27A81EA5C202A04
:103B5800F6D0092AF4D088423ADA2B2A00F091816B
:103B68002D2A01D001266CE10130884200F06281E3
:103B780001335BB22D2A0CBF4FF0FF36012660E1FE
:103B880002EB820201335BB2303800EB42028B4217
:103B980013DAE85CA0F1300C5FFA8CFCBCF1090F79
:103BA80000F24881BA4202DCEAD13728E8D9224635
:103BB80029460C2001F00CF806E606FB02F2002A62
:103BC80008DD642A0BDC534B05211972DA60FBE52A
:103BD800012636E10121102001F01CF8F4E56421EA
:103BE800112001F017F8EFE5062C17D823460246F6
:103BF80006214D48FFF780FD60B923462A46072174
:103C08004A48FFF779FD00283FF47AAF414B072275
:103C18001A72D9E53F4B06221A72D5E5072C3FF6F2
:103C28006FAFEAE7082C15D823460246082140481A
:103C3800FFF762FD50B923462A460D213D48FFF79C
:103C48005BFD48B1334B09221A72BDE5314B08229E
:103C58001A72B9E50D2CEED9042C37D823462A461A
:103C680004213548FFF748FD60BB23462A46072153
:103C78003248FFF741FD002840F01381022C06D896
:103C880023462A4602212E48FFF736FD28BB234645
:103C98002A4607212B48FFF72FFD10BB23462A464B
:103CA80008212948FFF728FDF8B923462A460821A4
:103CB8002648FFF721FD00283FF422AF154B0F22BD
:103CC8001A7281E5134B0A221A727DE5072C40F21D
:103CD800DF80082C3FF614AFE0E70E4B0C221A7277
:103CE80072E50C4B0D221A726EE50A4B0E221A72FF
:103CF8006AE5CCB2074B00221A741B7A053B0A2BE3
:103D080040D8DFE803F02545603F3F3F3F3F3F7B1A
:103D1800890000BF2008002068760008B8750008F0
:103D2800B47600080476000880760008D07500088C
:103D380010760008F4750008607600089876000888
:103D48005C760008AC7600081C760008307600081F
:103D5800062C15D82346024606216548FFF7CCFCF9
:103D680050B923462A4607216248FFF7C5FC48B1E7
:103D7800614B02221A7427E55F4B01221A7423E56E
:103D8800072CEED922462946072000F021FF1BE523
:103D9800062C06D82346024606215848FFF7ACFCF5
:103DA80068B9052CEED823462A4605215448FFF762
:103DB800A3FC0028E6D0504B04221A7404E54E4BAD
:103DC80003221A7400E5062C06D82346024606216B
:103DD8004C48FFF791FC68B9052CD3D823462A46EE
:103DE80005214948FFF788FC0028CBD0424B062222
:103DF8001A74E9E4404B05221A74E5E4072CC1D88B
:103E08002346024607214148FFF776FC0028B9D02F
:103E1800394B07221A74D7E4072CB3D82346024635
:103E280007213B48FFF768FC0028ABD0324B08223B
:103E38001A74C9E422462946092000F0C9FEC3E4E1
:103E480001268B42BFF6C6AE0022324FA1E62346BA
:103E58002A460B213048FFF74FFC00283FF413AEE9
:103E6800254B0422DA71AFE42346024607212B488A
:103E7800FFF742FC00283FF443AE1F4B02221A72A0
:103E8800A2E401308842D5D001335BB20126D8E7DD
:103E980023462A4607212248FFF72EFC00283FF434
:103EA800F6AE154B0B221A728EE4062C1AD823464E
:103EB8002A4606211B48FFF71FFC00287FF4BAACEE
:103EC80023462A460B211448FFF716FC00287FF4E6
:103ED800A9AC23462A4606211348FFF70DFC002803
:103EE8007FF4ACAC22462946072000F071FE6BE453
:103EF8004C760008447600082008002070760008F8
:103F080078760008C0750008C8750008287600088B
:103F18003C760008CCCCCC0CD8750008B8750008E5
:103F280098760008E4750008EC750008F8B50446B2
:103F38000D4616461F46FCF761FD38B9DDE9062334
:103F480020462946FCF778FD30B9F8BD32463B4695
:103F5800122000F065FEF8E7DDE90623132000F0E3
:103F68005FFEF2E72DE9F04F8BB00892002900F0D0
:103F7800E18005460E460024224605E0013464B27D
:103F88002246B44280F2B0802B5D202BF6D0092B5C
:103F9800F4D0964240F39A802B2B00F0DB802D2B37
:103FA80000F0DF80012309932246B44280F2918019
:103FB800E4B204F1010A5FFA8AFA00206D49CDE9FA
:103FC800000100200021CDE90201CDE904014FF0F4
:103FD800000B4FF00008DFF8A091731E07933746D7
:103FE8005E46AB464BE0002E40F0A680012F00F065
:103FF800A58033B99BF801103039C9B2092900F2FC
:104008009F800799914211D00BEB030212F8012C03
:10401800303AD2B2092A11D95B445B78303BDBB223
:10402800092B0BD901200BB0BDE8F08F5B4413F8C6
:10403800013C303BDBB2092B00F284804FFA8AF353
:10404800012613E042464B46DDE90401FCF764FA19
:10405800CDE90401A5F13000FCF7F4F9DDE904230A
:10406800FCF7A4F8CDE904014FFA8AF31A460134A3
:10407800E4B20AF1010A5FFA8AFABB4240DA63B293
:104088001BF803502E2DAED0A5F13003DBB2092B5F
:104098005AD8002ED6D042464B46DDE90201FCF73D
:1040A8003BFACDE90201A5F13000FCF7CBF9DDE9D7
:1040B8000223FCF77BF8CDE9020142464B46DDE9D5
:1040C8000001FCF729FACDE90001CDE701230993A6
:1040D8006AE70023274CCDE9003400230024CDE90A
:1040E8000234CDE904340BE0012309930023214C69
:1040F800CDE9003400230024CDE90234CDE90434AD
:10410800DDE90023DDE90201FCF730FBDDE90423EA
:10411800FCF74CF804460D460998FCF793F902465B
:104128000B4620462946FCF7F7F9089BC3E900012E
:10413800002078E7012076E7012074E7384672E727
:10414800012070E701206EE701206CE730466AE73E
:10415800304668E7012EF9D0013464B2012309938F
:1041680022E7012EF4D0013464B24FF0FF330993F3
:104178001AE700BF0000F03F0000244000000000E4
:10418800F0B583B00546A84B5E78022E09D0032E01
:1041980000F0D080CAB22946092000F019FD03B00A
:1041A800F0BDA24B5F79012F54D0022F00F081801F
:1041B800052F00F09780062FECD111F0FF0443D0B3
:1041C8002346024601219A48FFF796FA002840F054
:1041D800918023462A4601219648FFF78DFA002848
:1041E80040F08C8023462A4604219348FFF784FA3E
:1041F800002840F0878023462A4605218F48FFF78C
:104208007BFA002840F0828023462A4603218C4806
:10421800FFF772FA00287DD123462A4602218948F1
:10422800FFF76AFA002879D123462A4602218648F0
:10423800FFF762FA002875D123462A4603218348EE
:10424800FFF75AFA002871D122462946092000F0C2
:10425800BFFCA4E711F0FF0422D0072C1CD823468A
:10426800024607217A48FFF747FA002840F0CF8036
:10427800062C08D823462A4606217648FFF73CFA3A
:10428800002840F0C38023462A460A217248FFF7D7
:1042980033FA28B10327BAE0062CEBD90A2CF2D955
:1042A800624B00221A7622462946092000F090FC2B
:1042B80075E7CCB2694A2146FFF754FE28B1224679
:1042C8002946092000F084FC69E70022644BCDE907
:1042D800002353A3D3E900235449D1E90601FFF78A
:1042E80025FE5CE7CAB2102A00F294804F4B986111
:1042F8001A7754E74D4B01221A7650E74B4B0022B0
:104308001A764CE7494B01221A7648E7474B0022B8
:104318001A7644E7454B01221A7640E7434B0022C0
:104328001A763CE7414B01221A7638E73F4B0022C8
:104338001A7634E73D4B9B79012B13D0022B29D0F9
:10434800032B3FD0042B7FF425AFCCB2434A214640
:10435800FFF708FE00284DD022462946092000F024
:1043680037FC1CE7CCB23D4A2146FFF7FBFD28B1DC
:1043780022462946092000F02BFC10E70022394B81
:10438800CDE900230022384B2849D1E90601FFF77F
:10439800CDFD04E7CCB2314A2146FFF7E3FD28B151
:1043A80022462946092000F013FCF8E600222F4B8C
:1043B800CDE9002300222E4B1C49D1E90601FFF765
:1043C800B5FDECE6CCB2254A2146FFF7CBFD28B176
:1043D80022462946092000F0FBFBE0E60022214B9B
:1043E800CDE900230022204B1049D1E90601FFF74F
:1043F8009DFDD4E600221D4BCDE9002300221C4B75
:104408000A49D1E90601FFF791FDC8E63746074B8F
:104418001F76C4E601460A2000F0DAFBBFE600BFBB
:104428009A9999999999B93F1C0800202008002069
:1044380084750008887500088C7500089475000854
:104448009C750008A0750008A4750008A8750008E8
:10445800BC760008D0760008C4760008380800202A
:104468000000F03F00407F4000C072C000002440C0
:10447800000024C0704708B50379042B0FD1437995
:10448800052B05D0062B07D1007EFFF79FF808E023
:104498001830FFF7A1F804E000F097FF01E000F002
:1044A80094FF08BD7047000038B5054611F0FF04B9
:1044B80011D0052C06D82346024605211048FFF7DF
:1044C8001BF988B9042C06D823462A4604210D482E
:1044D800FFF712F970B90C4B00225A74224629468C
:1044E800022000F075FB38BD074801234374FFF72D
:1044F800C1FFF8E7044802234374FFF7D3FFF2E74C
:10450800D8760008887600082008002008B500F052
:1045180007FF08BD08B502210148FEF7A1F808BD4C
:104528003C7500082DE9F04F83B00446B54BC35CD9
:1045380013F0970F40F07F821B2805D8B24BC34079
:1045480013F0010F40F077827F2C00F07482022173
:10455800AE48FEF785F8002000F00AFB044600F09C
:104568009FFAC2B22146012000F032FB00F064FB42
:10457800FFF7DCF800F08AFA0221A548FEF770F888
:10458800012003B0BDE8F08FFFF7B0F804280FD082
:10459800052817D000F08CFAC0B2FEF7E3FFFEF74B
:1045A800EBFF00F061FA0020FFF7EEF80020E8E7E3
:1045B80000F0FCFA08B10020E3E70120FEF7D7FF7E
:1045C8000020DEE700F0E4FA08B10020D9E7012076
:1045D800FEF7C8FF0020D4E72046FEF735F80D2C7B
:1045E8001DD0032C2FD01A2C2DD07F2C00F02E821A
:1045F80014F0800F03D10A2C14D00D2C12D02046B1
:1046080000F05CFA002840F0F08100F051FA04460E
:1046180000F046FA8442C0F001820020B1E70A2087
:10462800FEF712F800F0E2FAA8B900F039FAA0B1E2
:1046380001250024A14601942646764FDFF8D8B11B
:10464800DFF8D8A1AEE0FFF793F804217448FEF72D
:1046580007F8012095E700F0EFFA00F0C7FA50B923
:104668006D4B1A6801321A605B7C012B00F0A48143
:10467800022B00F0A58102216548FDF7F1FFFFF745
:1046880077F800207DE7202800F08680092800F0D0
:1046980083802E2805D03D2803D001233B70264671
:1046A8007AE0E0B200F0AEFA76E02E280FD03D288E
:1046B8000DD0202801D009286ED102233B70304646
:1046C80000F056FA4146FFF7EFFE2E4664E0002060
:1046D80000F04EFA804600F0E3F9C2B241460520E8
:1046E80000F076FA58E0202856D0092854D02E2811
:1046F80006D03D2804D003233B70A14626464BE054
:10470800E0B200F07FFA47E02E280FD03D2817D0FE
:10471800202801D009283FD1304600F029FA414627
:10472800FFF740F82E4605233B7035E0304600F091
:104738001FFA4146FFF736F804233B702E462BE05C
:104748009BF81130012B0AD0484600F011FA0146B7
:10475800A4EB0902D2B20D2000F03AFA1CE0304670
:1047680000F006FA4146FFF71DF82E4606233B7077
:1047780012E0A0F12003DBB21D2B04D82AFA03F3C0
:1047880013F0010F05D1092803D003233B702646F7
:1047980002E0E0B200F036FA00F028FA013500280D
:1047A8006AD1013400F07CF9A04268D9204600F0B3
:1047B800E7F9A4EB06083B78082BEDD801A252F8DC
:1047C80023F000BF8F460008B3460008EF460008F4
:1047D800114700087B470008F14700084B480008CC
:1047E8005D480008714800082028D5D00928D3D092
:1047F8003D2822D19BF81130012B13D106233B70A1
:104808002E46C9E7397900080824000CB475000859
:104818003C7500081C0800202008002001400020EA
:10482800AC750008484600F0A3F90146A4EB09025C
:10483800D2B20D2000F0CCF9AEE7E0B200F0E2F918
:10484800AAE72028A8D00928A6D007233B700195FD
:104858002646A1E7202803D0092801D001959BE727
:1048680008233B70019497E7202895D0092893D016
:1048780007233B7001958FE700F0DEF9EDE600F0C5
:104888000FF9841B744B1B78082B11D8DFE803F051
:1048980005182E3E5C6779848C00002000F068F9CA
:1048A800044600F0FDF8C2B22146052000F090F958
:1048B80000F09CF900283FF4D0AE00F0BDF9CCE63A
:1048C800304600F055F92146FFF7EEFD634B5B7C5F
:1048D800012BEDD1002000F04BF9044600F0E0F880
:1048E800C2B22146062000F073F9E1E75B4B5B7C1E
:1048F800012BDDD1002000F03BF9044600F0D0F890
:10490800C2B22146062000F063F9D1E7304600F034
:104918002FF92146FEF746FF00F068F903464F4A93
:10492800527C012AC4D14C4A927802F00202134305
:1049380013F0FF0FBCD1304600F01AF90146E2B27D
:10494800082000F045F9B3E700F0AAF8013800F0B4
:104958000FF901460122062000F03AF9A8E73F4B7B
:104968005B7C012BA4D13C4B9B7813F0020F9FD1A9
:10497800304600F0FDF80146E2B2082000F028F9C0
:1049880096E700F08DF8013800F0F2F801460122B0
:10499800082000F01DF98BE7304600F0E9F8019B8C
:1049A800991BFFF7EDFB83E7304600F0E1F8019B28
:1049B800991BFFF7E5FB7BE72848FFF75CFD5AE604
:1049C8002648FFF7A3FD56E600F072F804460120DA
:1049D800FEF7C8FDFEF7D6FDFEF7CEFD2046FEF732
:1049E800D3FEFEF7E1FD0020CBE502211C48FDF7D0
:1049F80037FE002000F0BCF8044600F051F8C2B2BF
:104A08002146042000F0E4F800F016F9FEF7B0FEA5
:104A180002211448FDF724FE0120B2E5FEF7B2FD9D
:104A2800FEF7AAFD2046FEF7AFFEFEF7BDFD00200B
:104A3800A7E50020A5E52046FEF7EAFD0128F8D005
:104A480002283FF4A1AD7F2C7FF4C6AD00F066F8D4
:104A58000028B9D0002094E51C0800202008002078
:104A6800B47500083C750008074BD3F888209A42B3
:104A780003F14403A3F1440218BF1346C2F8883077
:104A88001B6CC2F88C307047BC050020034BD3F870
:104A9800881000220A64C3F88C207047BC050020E7
:104AA800024BD3F88830186C704700BFBC05002053
:104AB800014BD3F88C007047BC050020164BD3F887
:104AC80088301B6C3F2B25D800B5134AD2F88C20B0
:104AD8009A420CD21049D1F888209C46013B12F822
:104AE80003E002F80CE0D1F88C209342F3D80A4B8B
:104AF800D3F88810D3F88C208854D3F888100A6C1F
:104B080001320A64D3F88C200132C3F88C200020CB
:104B18005DF804FB01207047BC050020134BD3F857
:104B28008830196CF1B1114BD3F88C30E3B110B463
:104B38008B4209D20D4CD4F88820D05C1A4402F874
:104B4800010C01339942F6D1084BD3F888100A6C4E
:104B5800013A0A64D3F88C20013AC3F88C2000206B
:104B680010BC70470120704701207047BC05002029
:104B7800024BD3F888301844704700BFBC050020AA
:104B8800024BD3F88830185C704700BFBC05002082
:104B9800054BD3F88C302BB1013B034AC2F88C305B
:104BA8000020704701207047BC050020074AD2F852
:104BB8008C30D2F88820126C934205D20133034A14
:104BC800C2F88C300020704701207047BC050020D7
:104BD80008B5054B18701F2A28BF1F2283F8282004
:104BE800581C02F0C7FB08BD40080020014B18788C
:104BF800704700BF40080020014B00221A70704720
:104C080040080020024B03221A7083F828007047DE
:104C180040080020014B1870996270474008002036
:104C280030B414461D46034B1870C3E90A4530BC1E
:104C3800704700BF4008002070B56D4B1B78032BF0
:104C480013D100247E266A4D3046FDF7FDFC95F809
:104C58002820A24204F10104F6DA5E20FDF7F4FCF4
:104C68000F216448FDF7FCFC45E002216248FDF78E
:104C7800F7FC5F4B1B78132B33D801A252F823F0B3
:104C8800FF4C0008D94C0008E34C00084B4C0008C6
:104C9800014D00080B4D0008154D00081F4D000878
:104CA800294D0008334D00083D4D0008474D0008C8
:104CB800514D00085B4D0008934D0008C54D000894
:104CC800654D0008654D0008934D0008C54D000866
:104CD8001C214A48FDF7C4FC0DE00E214848FDF7A9
:104CE800BFFC434890F828100130FDF7B9FC0321B8
:104CF8004448FDF7B5FC70BD13214348FDF7B0FCEF
:104D0800F9E712214148FDF7ABFCEAE717214048D3
:104D1800FDF7A6FCE5E72A213E48FDF7A1FCE0E700
:104D280014213D48FDF79CFCDBE70F213B48FDF7CC
:104D380097FCD6E713213A48FDF792FCD1E71A21F0
:104D48003848FDF78DFCCCE717213748FDF788FC7C
:104D5800C7E712213548FDF783FCC2E72221344812
:104D6800FDF77EFC224B1B78102B07BF0D21314825
:104D78000C213148FDF774FC1D4B986AFDF7C8FCFF
:104D880002212E48FDF76CFCB5E71D212C48FDF7E4
:104D980067FC174B1B780E2B0BD0154BD3E90A0178
:104DA800FBF79CFEFDF7D0FC02212448FDF758FCD8
:104DB800A1E70F4B986AFDF757FCF5E71C2121483E
:104DC800FDF74EFC0A4B1B780F2B0BD0084BD3E991
:104DD8000A01FBF783FEFDF7B7FC02211748FDF730
:104DE8003FFC88E7024B986AFDF73EFCF5E700BFF9
:104DF8004008002014770008E0760008E4760008F0
:104E080004770008787800082477000838770008C5
:104E18004C7700086477000890770008A8770008A6
:104E2800B8770008CC770008E87700080078000811
:104E3800147800084878000868780008B4750008F5
:104E4800387800085878000800230B704B70C37935
:104E5800013B042B1AD8DFE803F003080C101500F7
:104E680001230B7003234B70704704230B704B70A6
:104E7800704705230B704B70704706230B70072390
:104E88004B70704708230B700F234B70704700233B
:104E98000B704B70037A053B0A2B1DD8DFE803F033
:104EA800060B101C1C1C1C1C1C15190001230B7064
:104EB80002234B70704703230B7004234B70704719
:104EC80005230B7006234B70704707230B704B703C
:104ED800704708230B704B707047000010B582B004
:104EE8000446C379013B042B31D8DFE803F00318EB
:104EF8001D2227000B217F48FDF7B2FB2E20FDF76E
:104F0800A3FB237A013B0E2B21D8DFE803F01C32E8
:104F1800373C4151565B60656A6F74797E000621A3
:104F28007548FDF79DFBE9E707217448FDF798FBF5
:104F3800E4E70B217248FDF793FBDFE70621714890
:104F4800FDF78EFBDAE706216F48FDF789FB3D2068
:104F5800FDF77AFBE379052B40F0C280237A083B02
:104F6800072B00F2B980DFE803F07D828C959A87E1
:104F7800AFA707216548FDF773FBE8E704216448FC
:104F8800FDF76EFBE3E70A216248FDF769FBDEE700
:104F9800E068FDF7BDFB2E20FDF756FB237C013BA7
:104FA800072BD4D8DFE803F0363B40454A4F545925
:104FB80006215948FDF754FBEDE707215748FDF74F
:104FC8004FFBE8E708215648FDF74AFBBFE70D21EC
:104FD8005448FDF745FBBAE704215348FDF740FB69
:104FE800B5E707215148FDF73BFBB0E702215048E0
:104FF800FDF736FBABE707214E48FDF731FBA6E787
:1050080008214D48FDF72CFBC5E708214B48FDF763
:1050180027FBC0E706214A48FDF722FB97E707214F
:105028004848FDF71DFB92E706214748FDF718FBA6
:105038008DE705214548FDF713FB88E7062144481D
:10504800FDF70EFB83E705214248FDF709FB7EE7E4
:1050580007214148FDF704FB79E707213F48FDF7A1
:10506800FFFA74E719213E4800F0F6FA3BE04521C3
:105078003C4800F0F6FA36E00D213B4800F0F6FA1D
:1050880031E06846FEF7AEFA9DF80410009800F08B
:1050980004FB28E0FEF7AFFA00F0FBFA23E0FDF787
:1050A800B3FB00F0F2FAFDF7B5FB00F0EEFAFDF7FE
:1050B800B7FB00F0EAFA16E0237C082B13D1042191
:1050C8002A4800F0DDFA0EE0237C072B0BD10421DF
:1050D800264800F0D0FA06E0204600F0A6F902E0E3
:1050E800204600F0A2F902212148FDF7B9FA02B0E2
:1050F80010BD00BFA0760008E475000854760008CB
:10510800D8750008EC75000868760008B8750008BE
:10511800B47600080476000880760008D075000888
:1051280010760008F4750008607600089876000884
:105138005C760008AC7600081C760008307600081B
:105148004C760008447600087076000878760008E7
:10515800C0750008C8750008287600083C76000865
:105168007C78000898780008E0780008F078000853
:10517800B475000838B504460D460B7803744A78B0
:105188009A420AD238BD2046FFF7A8FE237C013395
:10519800DBB223746A789A42F4D3013B072BF5D823
:1051A80001A252F823F000BF8F510008D151000826
:1051B800D9510008E1510008E9510008F1510008EF
:1051C800F9510008015200082046FFF787FEDDE785
:1051D8002046FFF783FED9E72046FFF77FFED5E795
:1051E8002046FFF77BFED1E72046FFF777FECDE7A5
:1051F8002046FFF773FEC9E72046FFF76FFEC5E7B5
:1052080070B582B005460E460B7803724A789A420A
:105218000BD202B070BD2846FFF760FE2B7A01332F
:10522800DBB22B7272789A42F3D3013B0E2BF5D87E
:1052380001A252F823F000BF1F5200087D52000857
:10524800855200088D52000895520008B152000896
:10525800C3520008D5520008DD520008E552000884
:10526800ED520008F5520008FD52000805530008E9
:10527800175300082846FFF731FECFE72846FFF707
:105288002DFECBE72846FFF729FEC7E70124EC608F
:1052980001A92846FFF7FBFD01A92846FFF76AFF89
:1052A8000134652CF3D1B9E701A92846FFF7EFFDD2
:1052B80001A92846FFF75EFFB0E701A92846FFF7D6
:1052C800E6FD01A92846FFF755FFA7E72846FFF79F
:1052D80005FEA3E72846FFF701FE9FE72846FFF7EC
:1052E800FDFD9BE72846FFF7F9FD97E72846FFF7FE
:1052F800F5FD93E72846FFF7F1FD8FE701A928465A
:10530800FFF7C5FD01A92846FFF734FF86E701A985
:105318002846FFF7BCFD01A92846FFF72BFF7DE7CC
:10532800437C022B00D0704710B582B00446C37985
:10533800ABB1013BDBB2042B01D8037AA3B3237AC8
:105348005A1FD2B2022A03D90E3BDBB2012B01D875
:10535800237C8BB32046FFF7C1FD02B010BD0123AB
:105368008DF8043005228DF80520C3710FE06946D9
:105378002046FFF769FD69462046FFF741FFE379BC
:105388000133DBB2E3719DF805209A42E5D3012B86
:10539800EDD0022BF3D169462046FFF755FD69464B
:1053A8002046FFF72DFFEAE701A9FFF74DFD01A908
:1053B8002046FFF725FFD0E701A92046FFF767FD44
:1053C80001A92046FFF7D6FEC7E708B50379022BE7
:1053D8000AD0032B0ED0012B00D008BD4379012B36
:1053E800FBD1FCF731FFF8E74379022BF5D1FCF745
:1053F8004FFFF2E74379032B09D0042BEDD18379D2
:10540800032B0FD0042BE8D1FCF7DFFFE5E7837906
:10541800012B04D0022BE0D1FDF701F8DDE7FCF702
:10542800E9FFDAE7FCF7BCFFD7E700B583B0C3793B
:10543800013B032B37D8DFE803F00233476B037ACD
:10544800022B11D0032B1DD0012B2CD16946FCF760
:105458009FFE20B1012826D100F0A2F823E0DDE963
:10546800000100F0A5F81EE06946FCF7BBFE20B17C
:10547800012818D100F094F815E0DDE9000100F0EA
:105488009DF810E06946FCF7D7FE20B101280AD143
:1054980000F086F807E09DF8000000F095F802E0BB
:1054A800037A042B02D003B05DF804FB6946FCF7CD
:1054B800D5FE20B10128F6D100F072F8F3E7DDE956
:1054C800000100F09FF8EEE7037A052BEBD1037C8F
:1054D800012B0AD0022BE6D16946FCF721FF90B1D7
:1054E8000128E0D100F05CF8DDE76946FCF7E2FE50
:1054F80020B10128D7D100F053F8D4E7DDE9000145
:1055080000F086F8CFE7DDE9000100F087F8CAE788
:10551800037A062B0FD0072BC5D1037C052B2BD084
:10552800062BC0D16946FCF746FF98B30128BAD1CB
:1055380000F036F8B7E7037C032B0AD0042BB2D16E
:105548006946FCF762FF90B10128ACD100F028F859
:10555800A9E76946FCF744FF20B10128A3D100F070
:105568001FF8A0E7DDE9000100F06AF89BE7DDE934
:10557800000100F06BF896E76946FCF707FF20B1D9
:10558800012890D100F00CF88DE7DDE9000100F06A
:105598004BF888E7DDE9000100F04CF883E70000EC
:1055A80008B502210148FDF75BF808BDF47800084A
:1055B80008B5FBF793FAFDF7C7F808BD08B5FBF780
:1055C8008DFAFDF7C1F808BD08B5022809D00328EF
:1055D8000CD0012800D008BD07210748FDF740F886
:1055E800F9E706210548FDF73BF8F4E70A210448E6
:1055F800FDF736F8EFE700BFBC760008D076000864
:10560800C476000808B5FBF769FAFDF79DF808BDF0
:1056180008B5FBF763FAFDF797F808BD08B5FBF77F
:105628005DFAFDF791F808BD08B5FBF757FAFDF7E5
:105638008BF808BD08B5FBF751FAFDF785F808BDEA
:1056480008B5FBF74BFAFDF77FF808BD08B5FBF77F
:1056580045FAFDF779F808BD08B589B2FDF700F8F5
:1056680008BD08B589B2FCF7FBFF08BD08B589B2CB
:10567800FCF7F6FF08BD08B589B2FCF7F1FF08BDD5
:1056880008B589B2FCF7ECFF08BD08B5FDF74CF882
:1056980008BD08B5FCF7E8FF08BD08B589B2FCF7F6
:1056A800DFFF08BD0022C270084B0121C3F8401C6F
:1056B800C3F8402CC3F8442CC3F8502C4FF41F42B5
:1056C80003490A60C3F8402C704700BF00500040EF
:1056D8007008002070B592F802C00CF00F0CD37857
:1056E80003F00303012B40D0032B41D0002B14BF40
:1056F80000244FF400740CF1805303F5B8539B0059
:1057080044EA0C041C60948892F902E0BEF1000F90
:1057180031DB0CEB8C0E00EB8E00446601296CD05B
:1057280092885C48006800EB0C1C5B480068ACF889
:1057380008003E2A40F297801F3222F01F025201D1
:10574800013A6FEA42426FEA524292B2ACF80C2038
:10575800012900F08D801A6822F4804222F070023C
:1057680082F4005292B21A6070BD4FF48064C2E7AE
:105778004FF4C064BFE70CEB8C0200EB820044617D
:105788004FEA0C1C434A1068434A156820F80C502D
:10579800013424F00104106820441060012909D064
:1057A8001A6822F4E04222F0400282F0200292B20B
:1057B8001A60D9E71A6822F4E24222F0700242F431
:1057C800807292B21A6034480268324909688C447F
:1057D800ACF80820144404601A6822F4E04222F06D
:1057E800400282F0300292B21A601A6822F48042B3
:1057F80022F0700292B21A60B6E7186820F4E2400C
:1058080020F0700040F4807080B21860186820F4AE
:10581800E04020F0700040F0400080B218604FEA8D
:105828000C101C4D2D681C4E36682E523E2C11D97A
:105838001F3424F01F04174D2D68054460010138FA
:105848006FEA40406FEA5040A880134D286804442E
:105858002C6065E7013424F001040E4D2D682844BE
:1058680065028581F1E70132520202F47C426DE75C
:105878001A6822F4804222F0700292B21A601A6802
:1058880022F4E04222F0400282F0200292B21A6032
:105898006AE700BF500600204C06002001F07F0395
:1058A80011F0800F19D103F1805303F5B8539B0011
:1058B8001A6812F4804F08D01A6822F4E04222F0E5
:1058C800700242F4804292B21A601A6822F480424E
:1058D80022F0700292B21A60704703F1805303F508
:1058E800B8539B001A6812F0400F08D01A6822F4C7
:1058F800E04222F0700242F0400292B21A601A6846
:1059080022F4E04222F0400292B21A60704701F09D
:105918007F0101EB810C00EB8C0CCCF86820CCF8F3
:105928006C3001F1805101F5B85189000B6823F4FE
:10593800804323F0700383F440539BB20B6070479D
:1059480001F07F0211F0800F24D102EB820300EBFB
:105958008300603002F1805303F5B85399000B6857
:1059680023F4804323F0700383F480539BB20B60CD
:10597800012303706AB9114AD2F8003C23F480432A
:1059880023F0400383F4805383F010039BB2C2F8E2
:10599800003C704702EB820300EB8300103002F1F9
:1059A800805303F5B85399000B6823F4E04323F0C0
:1059B800400383F010039BB20B60D9E7005000400E
:1059C80001F07F0311F0800F22D103EB830200EB7B
:1059D8008200603003F1805303F5B8539B001A68C6
:1059E80012F4804F08D01A6822F4E04222F07002C4
:1059F80042F4804292B21A601A6822F4804222F07D
:105A0800700282F4405292B21A6000230370704709
:105A180003EB830200EB8200103003F1805303F59F
:105A2800B8539B001A6812F0400F08D01A6822F485
:105A3800E04222F0700242F0400292B21A601A6804
:105A480022F4E04222F0400282F0300292B21A6060
:105A5800DBE70132012A11D910B401F1005101F537
:105A6800405149004FEA520C002230F8024B0C60BA
:105A7800043101326245F8D310BC7047704700000A
:105A880070B582B0844610460022019201F07F046E
:105A980004EB84010CEB81018861CB610A624A69DD
:105AA80093428CBF019201932501019A0C4E3368F1
:105AB80092B2595BFFF7CDFF019A33682B449A8065
:105AC80004F1805404F5B854A400236823F4E04397
